:020000040800F2
:1000000048070020450100084D0100084F01000885
:1000100051010008530100085501000800000000CC
:100020000000000000000000000000005701000870
:1000300059010008000000005B0100085D01000894
:100040005F0100085F0100085F0100085F01000810
:100050005F0100085F0100085F0100085F01000800
:100060005F0100085F0100085F0100085F010008F0
:100070005F0100085F0100085F0100085F010008E0
:100080005F0100085F0100085F0100085F010008D0
:100090005F0100085F0100085F0100085F010008C0
:1000A0005F0100085F0100085F0100085F010008B0
:1000B000610F00085F0100085F0100085F01000890
:1000C0005F0100085F0100085F0100085F01000890
:1000D0005F010008DD1000085F0100085F010008F3
:1000E0005F0100085F0100085F0100085F01000870
:1000F0005F0100085F0100085F0100085F01000860
:100100005F0100085F0100085F0100085F0100084F
:100110005F0100085F0100085F0100085F0100083F
:100120005F0100085F0100085F0100085F0100082F
:10013000DFF80CD000F02EF8004800471926000820
:10014000480700200648804706480047FEE7FEE7CC
:10015000FEE7FEE7FEE7FEE7FEE7FEE7FEE7FEE777
:10016000010F00083101000830B50B4601460020A0
:100170002022012409E021FA02F59D4205D303FA69
:1001800002F5491B04FA02F52844151EA2F10102EA
:10019000F1DC30BD064C074D06E0E06840F001039D
:1001A00094E8070098471034AC42F6D3FFF7C4FF39
:1001B000284D0008484D000870B58C1810F8015BF8
:1001C00015F0070301D110F8013B2A1106D110F8F0
:1001D000012B03E010F8016B01F8016B5B1EF9D1F4
:1001E0002B0705D40023521E0DD401F8013BFAE77A
:1001F00010F8013BCB1A921C03E013F8015B01F8E5
:10020000015B521EF9D5A142D8D3002070BD21B1A7
:10021000826842F00102826003E0826822F00102FB
:100220008260704721B1826842F48072826003E08C
:10023000826822F4807282607047014600208A68DA
:1002400002F004020AB1012000E0002070470146DC
:1002500000208A6802F008020AB1012000E00020B4
:100260007047000030B502460020002350680F4C54
:1002700020400D790C6844EA0524204350609068C2
:100280000B4C2040D1E902542C434D7944EA4504FB
:1002900020439060D06A20F470000C7C641EE4B2AD
:1002A000234340EA0350D06230BD0000FFFEF0FF60
:1002B000FDF7F1FFF0B504460D4600200021092DA1
:1002C00011DDE068A5F10A0606EB4607072606FAE7
:1002D00007F18843A5F10A0606EB460603FA06F184
:1002E0000843E0600CE0206905EB4507072606FAA5
:1002F00007F1884305EB450603FA06F10843206140
:10030000072A0FDA606B561E06EB86071F2606FAD1
:1003100007F18843561E06EB860605FA06F10843E8
:10032000606322E00D2A0FDA206BD61F06EB8607EA
:100330001F2606FA07F18843D61F06EB860605FA44
:1003400006F10843206310E0E06AA2F10D0606EB17
:1003500086071F2606FA07F18843A2F10D0606EB71
:10036000860605FA06F10843E062F0BD816841F0B7
:1003700008018160704721B1826842F4A002826066
:1003800003E0826822F4A00282607047816841F035
:10039000040181607047000010B50024FF2000F0C8
:1003A000D1FCFF2000F0CEFCFE2000F0CBFC0220B0
:1003B00000F0C8FC052000F0C5FC0524E043C4B2F1
:1003C000204600F0BFFC00BF0448008800F0400059
:1003D0000028F9D0022001F009FF10BD00380140CB
:1003E0002DE9FC5F06460C4615460027B846B9467F
:1003F000BA46BB460020019000902F46A0464FEA27
:10040000272907F0FF0A4FEA282B08F0FF00019088
:10041000FF2000F097FCFF2000F094FC304600F035
:1004200091FC072000F08EFC042000F08BFC1E20C5
:1004300000F088FC019800F085FC584600F082FC32
:10044000504600F07FFC484600F07CFC06F1290095
:1004500001990844584450444844C0B20090009860
:10046000C043C0B20090009800F06CFC00BF05488B
:10047000008800F040000028F9D0022001F0B6FE0C
:10048000BDE8FC9F0038014021B1026842F0010242
:10049000026004E002684FF6FE731A400260704783
:1004A00001684FF6FE721140016000210160416059
:1004B0008160C1604B49884208D14A49083949687E
:1004C00041F00F01474A083A51608AE0454914312A
:1004D000884208D143490839496841F0F001414A4E
:1004E000083A51607DE03F492831884208D13D49B2
:1004F0000839496841F470613A4A083A516070E03D
:1005000038493C31884208D136490839496841F4B4
:100510007041344A083A516063E0324950318842B0
:1005200008D130490839496841F470212D4A083A08
:10053000516056E02B496431884208D12949083975
:10054000496841F47001274A083A516049E0254959
:100550007831884208D123490839496841F07061EF
:10056000204A083A51603CE01F49884206D1011FE9
:10057000096841F00F01021F116032E01A4914317D
:10058000884208D11849091F096841F0F001164A4C
:10059000121F116025E014492831884208D1124900
:1005A000091F096841F470610F4A121F116018E0B9
:1005B0000D493C31884208D10B49091F096841F4B3
:1005C0007041094A121F11600BE0074950318842FF
:1005D00007D10549091F096841F47021024A121F19
:1005E00011607047080002400804024010B5002264
:1005F000026847F6F0739A430C6A8B6823430C69D0
:1006000023434C6923438C692343CC6923434C6ABD
:1006100023438C6A23431A430260CB6843600B6810
:1006200083604B68C36010BD08B501210D2000F048
:100630000FFB0121124800F0B5F80C20ADF80000C6
:1006400003208DF8020010208DF8030069460D4844
:1006500000F01CF80C210B4800F0EEF80420ADF877
:10066000000002208DF8020010208DF8030069467A
:10067000054800F00BF80421034800F0DBF808BD42
:100680000002300000080140000C01402DE9F0415B
:10069000024600250026002000230024002791F8B0
:1006A00003C00CF00F0591F803C00CF0100CBCF166
:1006B000000F03D091F802C04CEA050591F800C084
:1006C000BCF1000F31D0146800202BE04FF0010C7A
:1006D0000CFA00F3B1F800C00CEA03069E4220D1E8
:1006E00083004FF00F0C0CFA03F7BC4305FA03FC30
:1006F0004CEA040491F803C0BCF1280F06D14FF076
:10070000010C0CFA00FCC2F814C00AE091F803C016
:10071000BCF1480F05D14FF0010C0CFA00FCC2F8F7
:1007200010C0401C0828D1D31460B1F800C0BCF13F
:10073000FF0F34DD546800202EE000F1080C4FF06C
:10074000010808FA0CF3B1F800C00CEA03069E4257
:1007500021D183004FF00F0C0CFA03F7BC4305FACC
:1007600003FC4CEA040491F803C0BCF1280F05D146
:1007700000F1080C08FA0CF8C2F8148091F803C0D4
:10078000BCF1480F07D100F1080C4FF0010808FA3E
:100790000CF8C2F81080401C0828CED35460BDE885
:1007A000F0810000F0B50A46002300240021002556
:1007B00000F00046B6F1004F02D11D4EF16901E094
:1007C0001B4E7168C0F3034583B200F44016B6F5C2
:1007D000401F08D121F07061154E766826F07066D2
:1007E000134F7E6012E000F48016B6F5801F06D12C
:1007F000032606FA05F4A14341F0706106E0460DB8
:10080000360103FA06F6B14341F0706122B1460D9C
:10081000360103FA06F6314300F00046B6F1004F08
:1008200002D1034EF16101E0014E7160F0BD0000A4
:1008300000000140416170470161704710B50F48E9
:10084000006820F470600D4908600846006840F4B4
:100850004070086001200A4908600A49C1F88C010B
:10086000042001F0EFFC002005490860042001F09D
:10087000E9FC00200349C1F88C0110BD00080140CB
:10088000880121420000214210B50F48006820F481
:1008900070600D4908600846006840F440700860C8
:1008A00000200A4908600A49C1F88801042001F0C3
:1008B000C9FC0120054908600549C1F888010420E8
:1008C00001F0C0FC10BD0000000801408C01214275
:1008D0000000214210B50848006800F0040028B16B
:1008E000042105480838FFF7A5FF04E00421024869
:1008F0000838FFF7A1FF10BD080C014000B500202B
:1009000015490861C8601420486100208861C861E9
:100910000846006840F001000860084640680F493A
:1009200008400D494860084600680D4908400A49DA
:1009300008600846006820F4802008600846406887
:1009400020F4FE0048600020886000214FF0006025
:1009500000F008F800BD0000001002400000FFF8A1
:10096000FFFFF6FE024A0A400243024B1A6070473C
:1009700080FFFF1F08ED00E070B5002100230F226B
:10098000C47804B3154C246804F4E064C4F5E0644E
:10099000210AC1F10403CA40447804FA03F18478BF
:1009A0001440214309010E4C0678A155047804F047
:1009B0001F050124AC4005786D11AD0005F1E0255F
:1009C000C5F8004109E0047804F01F050124AC409B
:1009D000044D0678761145F8264070BD0CED00E018
:1009E00000E400E080E100E002490143024A1160B6
:1009F000704700000000FA050CED00E070B50646F7
:100A0000002415E004F1B001C8B200F078FC002029
:100A100000F075FC102000F072FC002504E0304668
:100A200000F07DFC681CC5B2802DF8DB601CC4B2F0
:100A3000082CE7DB70BD10B5AE2000F060FCD520BF
:100A400000F05DFCF02000F05AFCA82000F057FCFC
:100A50003F2000F054FCD32000F051FC002000F0B7
:100A60004EFC402000F04BFC8D2000F048FC142090
:100A700000F045FCAF2000F042FC102000F03FFCED
:100A8000A12000F03CFCC82000F039FCDA2000F086
:100A900036FC122000F033FC812000F030FCFF20F7
:100AA00000F02DFCD92000F02AFC222000F027FCC9
:100AB000DB2000F024FC302000F021FCA42000F01A
:100AC0001EFCA62000F01BFCAF2000F018FC20202C
:100AD00000F015FCB02000F012FC002000F00FFC2C
:100AE000102000F00CFC10BD70B504460D4605F159
:100AF000B001C8B200F003FC102141EA141000F06C
:100B0000FEFB04F00F0141F0010000F0F8FB70BDA6
:100B10002DE9F04180460E46174600247D013146FE
:100B20004046FFF7E1FF00BF06E00D49485D00F0D9
:100B3000F6FB6D1C601CC4B2102CF6DB701CC1B23D
:100B40004046FFF7D1FF002406E00549485D00F06C
:100B5000E6FB6D1C601CC4B2102CF6DBBDE8F08116
:100B60003E0000202DE9F04180460E461746002445
:100B7000BD0131464046FFF7B7FF00BF06E01D4903
:100B8000485D00F0CCFB6D1C601CC4B2102CF6DB81
:100B9000701CC1B24046FFF7A7FF002406E01549CC
:100BA000485D00F0BCFB6D1C601CC4B2102CF6DB71
:100BB000B01CC1B24046FFF797FF002406E00D4984
:100BC000485D00F0ACFB6D1C601CC4B2102CF6DB61
:100BD000F01CC1B24046FFF787FF002406E005493C
:100BE000485D00F09CFB6D1C601CC4B2102CF6DB51
:100BF000BDE8F081264A000801460020034A5068FB
:100C000020F440400843506070470000001002404C
:100C100029B1064A52690243044B5A6104E0034A6F
:100C200052698243014B5A61704700000010024034
:100C300029B1064AD2690243044BDA6104E0034A4F
:100C4000D2698243014BDA61704700000010024014
:100C500029B1064A92690243044B9A6104E0034AAF
:100C600092698243014B9A61704700000010024074
:100C700030B500210022002400232D4D6D6805F0C1
:100C80000C0121B1042905D0082923D105E0294D03
:100C9000056022E0274D05601FE0254D6D6805F4D5
:100CA0007012234D6D6805F48034022505EB9242E5
:100CB0001CB9214D554305600BE01D4D6D6805F4D1
:100CC00000351DB11C4D5543056002E0194D5543DB
:100CD000056002E0174D056000BF00BF144D6D6850
:100CE00005F0F0010909154D6B5C0568DD404560B4
:100CF0000F4D6D6805F4E061090A104D6B5C4568A5
:100D0000DD4085600A4D6D6805F46051C90A0B4DE0
:100D10006B5C4568DD40C560054D6D6805F440417C
:100D2000890B074D6B5CC568B5FBF3F5056130BDFC
:100D30000010024000127A0000093D00000000206F
:100D4000100000200549088000BF0449091F0988D8
:100D500001F040010029F8D070470000043801403C
:100D600010B500F001F810BD0CB500200190009006
:100D70003348006840F480303149086000BF304893
:100D8000006800F4003000900198401C0190009829
:100D900018B90198B0F5A06FF1D12948006800F4A6
:100DA000003010B10120009001E000200090009878
:100DB000012843D12348006840F010002149086011
:100DC0000846006820F0030008600846006840F00C
:100DD000020008601A48406819494860084640689F
:100DE00048600846406840F48060486008464068B3
:100DF00020F47C1048600846406840F4E8104860E1
:100E00000846006840F08070086000BF0C48006829
:100E100000F000700028F9D00948406820F0030075
:100E2000074948600846406840F00200486000BF3B
:100E30000348406800F00C000828F9D10CBD000000
:100E4000001002400020024030B504460025FFF7A4
:100E500055FD1F48006840F480301D49086000BF00
:100E60001B480068400C0028FAD04FF480601849F5
:100E70004860A01EC4B20846406840EA844048600A
:100E80000846406840F4803048601248006840F0EE
:100E90003200104908600E48006840F080700C492C
:100EA000086000BF0A480068400E0028FAD00848D1
:100EB000406840F002000649486005E00448406888
:100EC000C0F3870505F00305022DF7D130BD000002
:100ED0000010024000200240042808D14FF0E02119
:100EE000096941F004014FF0E022116107E04FF081
:100EF000E021096921F004014FF0E02211617047FF
:100F000010B51348006840F0010011490860084618
:100F10004068104908400E494860084600680E497C
:100F200008400B4908600846006820F480200860EB
:100F30000846406820F4FE0048604FF41F008860B7
:100F4000FFF70EFF4FF000600449086010BD00007D
:100F5000001002400000FFF8FFFFF6FE08ED00E081
:100F600010B50121880700F04CF8012808D10121B3
:100F7000800700F037F803480068401C014908600A
:100F800010BD0000280000201FB501210846FFF712
:100F90004FFE1C208DF8000000208DF801008DF818
:100FA000020001208DF803006846FFF7E5FC42F2DD
:100FB0000F70ADF808004720ADF804000020ADF830
:100FC0000600ADF80A0001A94FF0804000F034F8A7
:100FD00001221146900700F025F80121880700F052
:100FE00004F81FBDCA430282704721B1028842F053
:100FF0000102028004E002884FF6FE731A4002806C
:10100000704730B50246002000230024158A05EA07
:101010000103958905EA010413B10CB1012000E038
:10102000002030BD1AB183890B43838102E083899C
:101030008B43838170470000002202881D4B984239
:101040000ED01D4B98420BD0B0F1804F08D01B4BF7
:10105000984205D01A4B984202D01A4B984204D1BC
:101060004FF68F731A404B881A43174B984207D09C
:10107000164B984204D04FF6FF431A40CB881A43D0
:1010800002808B8883850B8803850A4B98420BD09E
:10109000094B984208D00E4B984205D00D4B984210
:1010A00002D00D4B984201D10B7A03860123838233
:1010B00070470000002C0140003401400004004053
:1010C00000080040000C00400010004000140040E8
:1010D00000400140004401400048014010B540F28A
:1010E00025511D4800F04AF810B31B4800F002F9E2
:1010F000C4B21A48008800F40040C8B917480088F4
:1011000000F4804060B10A2C03D00020134908800D
:1011100020E01248008840F400401049088019E09F
:101120000D2C06D10D48008840F480400B49088002
:1011300010E00A480088C0F30D0009490C54074824
:101140000088401C0549088008460088C72801DD42
:101150000020088010BD0000003801403C00002045
:101160008002002021B1828942F40052828104E091
:1011700082894DF6FF731A408281704770B502462E
:10118000002400230025002040F66A16B14200D159
:1011900000BFC1F3421501F01F03012606FA03F355
:1011A000012D02D19689334006E0022D02D1168A24
:1011B000334001E0968A33400C12012606FA04F40B
:1011C0001688344013B10CB1012000E0002070BD3E
:1011D000F0B50346002400260025002040F66A17DB
:1011E000B94200D100BF1846C1F3421401F01F06F6
:1011F000012707FA06F5012C01D10C3004E0022C7E
:1012000001D1103000E014301AB107682F43076095
:1012100002E00768AF430760F0BD00002DE9F0472A
:1012200086B005460E460024A24600BFA146002710
:10123000B08900B100BF2F462C8A4CF6FF700440E5
:10124000F08804432C82AC894EF6F3100440B08839
:1012500031890843718908430443AC81AC8A4FF655
:10126000FF400440B0890443AC8201A8FFF700FDB1
:101270001F48874202D1DDF810A001E0DDF80CA084
:10128000A88900F4004040B10AEBCA0000EB0A1044
:1012900031684900B0FBF1F807E00AEBCA0000EB47
:1012A0000A1031688900B0FBF1F86420B8FBF0F057
:1012B00004012009642101FB1089A88900F4004081
:1012C00040B1322000EBC900B0FBF1F000F00700A4
:1012D000044308E0322000EB09106421B0FBF1F078
:1012E00000F00F0004432C8106B0BDE8F087000039
:1012F0000038014001468888C0F30800704710B5E7
:101300000446FFF79BFA782000F01AF8002000F05E
:1013100017F8204600F014F8FFF7B6FA10BD10B524
:101320000446FFF78BFA782000F00AF8402000F01E
:1013300007F8204600F004F8FFF7A6FA10BD0000F9
:1013400070B504462348006820F4706021490860A5
:101350000846006840F44070086000201E4908609C
:1013600000251FE004F0800020B101201A49091F68
:10137000086003E000201849091F08606006040E99
:10138000022000F05FFF012013490860022000F0F6
:1013900059FF00201149C1F88C01022000F052FFD2
:1013A000681CC5B2082DDDDB01200B49091F086050
:1013B000022000F047FF01200849C1F88C010220FB
:1013C00000F040FF002004490860022000F03AFFCE
:1013D00070BD0000000801408C0121420000214244
:1013E0000FB4054B10B503A9044A029800F018F891
:1013F00010BC5DF814FB00009122000838000020AA
:1014000002E008C8121F08C1002AFAD170477047CD
:10141000002001E001C1121F002AFBD1704700002B
:101420002DE9FF4F8BB088460546002606E02528AB
:101430000BD0DDE90D1290476D1C761C2878002832
:10144000F5D10FB03046BDE8F08F0024A146A2468A
:101450000122AE4900E0044315F8013F203B02FAA7
:1014600003F00842F7D128782A2810D06FF02F0215
:101470002878A0F13001092915D809EB890102EB80
:10148000410144F0020400EB01096D1CF0E758F83B
:10149000041B5FEA010903D544F40054C9F10009B3
:1014A00044F002046D1C28782E2817D115F8010F7E
:1014B00044F004042A280ED06FF02F022878A0F1FF
:1014C000300109290AD80AEB8A0102EB410100EB3D
:1014D000010A6D1CF2E758F804AB6D1C28786C28E3
:1014E0000FD006DC4C2817D068280DD06A2814D1FC
:1014F00004E0742810D07A280FD10DE044F40014D1
:101500000AE044F4801401E044F440146978814214
:1015100002D104F580146D1C6D1C2878692865D0F3
:1015200006DC00288DD0632827D0642806D15DE032
:101530006E2808D073282AD0752877D0DDE90D12DF
:101540009047761CE0E0C4F30250022809D003283B
:101550000DD0D8F8001004280DD00E6008F1040852
:10156000D2E0D8F80010F217C1E90062F6E7D8F827
:1015700000100E80F2E70E70F0E718F8041B8DF8EB
:10158000001000208DF80100EB46012003E058F820
:1015900004BB4FF0FF3061074FF0000701D40AE0B1
:1015A0007F1C57450DDA8742FADB1BF8071000292C
:1015B000F6D106E07F1C8742FCDB1BF807100029F0
:1015C000F8D1DDE90D23A9EB07008146214600F0A3
:1015D000B1F83044C61904E0DDE90D121BF8010B27
:1015E00090477F1EF8D22146484688E058F8040B01
:1015F000C4F302514FF00A0B032900D100B20429B1
:1016000000D140B2002802DA40422D2102E021053B
:1016100005D52B218DF82410012104E006E0E10717
:1016200010D02021F6E708AF089113E058F8040B1A
:10163000C4F302514FF00A0B032900D180B20429F0
:1016400000D1C0B20021EEE75946FEF78DFD3031E2
:1016500007F8011D0028F7D1ADEB070000F1200BC2
:10166000600702D524F4803401E04FF0010ADA4526
:1016700002DDAAEB0B0000E00020824600EB0B012C
:1016800008980144A9EB01000A90E00306D4DDE9C3
:101690000D2321460A9800F04DF806444FF000094A
:1016A00008E009A911F80900DDE90D12904709F1D8
:1016B0000109761C08998945F3DBE0030CD5DDE9C7
:1016C0000D2321460A9800F035F8064404E0DDE9D0
:1016D0000D1230209047761CBAF10001AAF1010AE0
:1016E000F5DC05E0DDE90D1217F8010B9047761CDB
:1016F000BBF10001ABF1010BF4DC0A982146DDE9F6
:101700000D2300F005F806446D1C97E6092801003A
:101710002DE9F041044600251E461746880404D4EE
:1017200005E039462020B0476D1C641EF9D52846D7
:10173000BDE8F0812DE9F041044600251E469046A3
:10174000C80301D5302700E02027880404D505E030
:1017500041463846B0476D1C641EF9D52846BDE8A1
:10176000F081000000B591B001210846FFF750FA62
:1017700001214FF40170FFF76BFA1020ADF8400023
:1017800000208DF8430010A93448FEF77FFF34484D
:10179000FEF786FE33480090334801900020029007
:1017A00010200390002004908020059040000690B7
:1017B00080000790202008900002099000200A90E5
:1017C00069462748FEF712FF01212548FEF75CFE17
:1017D00000200B908DF8300001208DF831004FF47F
:1017E00060200D9000200E9001208DF83C000BA988
:1017F0001C484C38FEF736FD4FF44040FFF7FCF92B
:1018000007230122042117484C38FEF753FD01211C
:1018100014484C38FEF706FD012112484C38FEF7FB
:10182000F6FC10484C38FEF7A1FD00BF0D484C38BF
:10183000FEF70DFD0028F9D10A484C38FEF7A6FD49
:1018400000BF08484C38FEF7F8FC0028F9D1012108
:1018500004484C38FEF78FFD11B000BD0010014068
:10186000080002404C240140400200202DE9F047CE
:101870000024002504E0344830F8150004446D1CB1
:10188000102DF8D324094FF4A4706043C0EBC001BD
:10189000C1EB80104FF42041B0FBF1F421462BA0A6
:1018A000FFF79EFD4FF47A70B4FBF0F0C6B24FF430
:1018B0007A70B4FBF0F100FB11406421B0FBF1F051
:1018C000C7B26420B4FBF0F100FB11400A21B0FB69
:1018D000F1F80A20B4FBF0F100FB1149CEB93A4609
:1018E00002211820FFF73EF90A2202212820FFF7E3
:1018F00039F9424602213820FFF734F94A460221DD
:101900004820FFF72FF90B2202215820FFF72AF970
:1019100018E0324602211820FFF724F93A46022146
:101920002820FFF71FF90A2202213820FFF71AF9B1
:10193000424602214820FFF715F94A460221582065
:10194000FFF710F9BDE8F087400200206164342001
:101950003D202534640D0A0010B54FF41672B421F1
:101960000120FEF73DFD4FF4FA72FD210220FEF743
:1019700037FD4FF496724FF4CF710320FEF730FD20
:101980004FF4967240F21A210420FEF729FD4FF41D
:10199000967240F281210520FEF722FD4FF49672E7
:1019A0004FF4FB710620FEF71BFD4FF4967240F2D8
:1019B000EF110720FEF714FD4FF4967240F25331F9
:1019C0000820FEF70DFD4FF49672F4210920FEF772
:1019D00007FD4FF496724FF4FD710A20FEF700FDEB
:1019E000FEF7DAFC4FF47A7000F000FC4FF49672C8
:1019F00040F229210320FEF7F3FC4FF4967240F2E7
:101A0000E2210420FEF7ECFC4FF4967240F2E9115B
:101A10000520FEF7E5FC4FF4967240F239110620DE
:101A2000FEF7DEFCFEF7B8FC642000F0DFFB4FF4AD
:101A3000967240F291210120FEF7D2FCC8227E214D
:101A40000220FEF7CDFC4FF4967240F223210320D2
:101A5000FEF7C6FC4FF4967240F2E5210420FEF733
:101A6000BFFC4FF4967240F205210520FEF7B8FC4A
:101A70004FF49672D11D0620FEF7B2FCFEF78CFCE7
:101A80004FF47A7000F0B2FB4FF47A7000F0AEFBC6
:101A90004FF4967240F25A310920FEF7A1FCFEF78E
:101AA0007BFC4FF47A7000F0A1FB4FF4487000F01B
:101AB0009DFB4FF4487240F2EE210720FEF790FCA8
:101AC0004FF496724FF4EA710120FEF789FC4FF44F
:101AD0009672C1210220FEF783FCFEF75DFC4FF4F5
:101AE0007A7000F083FB4FF4967240F2F1110720F8
:101AF000FEF776FC4FF4967240F221210820FEF7A3
:101B00006FFC4FF4967240F227210920FEF768FC23
:101B1000FEF742FC4FF47A7000F068FB4FF4C87295
:101B20004FF4F4710220FEF75BFC4FF496724FF411
:101B300057710820FEF754FC4FF49672F1210920EA
:101B4000FEF74EFCFEF728FC4FF4487000F04EFB09
:101B500096224FF443710220FEF742FCFEF71CFC74
:101B60004FF47A7000F042FB4FF4487000F03EFBF7
:101B70004B224FF4A0710120FEF732FCFEF70CFC63
:101B80004FF47A7000F032FB4FF4FA7000F02EFB45
:101B90004FF496724FF434710120FEF721FC4FF49C
:101BA00096724FF43B710220FEF71AFCFEF7F4FB2D
:101BB00040F28A2000F01AFB4FF4967240F22B217B
:101BC0000320FEF70DFC4FF4967240F2032104202F
:101BD000FEF706FC4FF4967240F2E1110520FEF785
:101BE000FFFB4FF496724FF405710620FEF7F8FBE9
:101BF000FEF7D2FB4FF4487000F0F8FA4FF49672FB
:101C000040F2E5210120FEF7EBFB4FF496724FF412
:101C10003A710220FEF7E4FB4FF4967240F2351160
:101C20000320FEF7DDFB4FF496724FF41071042091
:101C3000FEF7D6FB4FF4967240F2CA210520FEF75C
:101C4000CFFB4FF4967240F2FD110620FEF7C8FB61
:101C5000FEF7A2FB4FF47A7000F0C8FA4FF49672C8
:101C600040F2AA210120FEF7BBFB4FF496724FF41D
:101C700039710220FEF7B4FB4FF496724FF4AD7148
:101C80000320FEF7ADFB4FF4967240F231210420A1
:101C9000FEF7A6FB4FF496724FF43A710520FEF75B
:101CA0009FFB4FF4967240F2E3110620FEF798FB7B
:101CB000FEF772FB4FF4967000F098FA4FF49672AC
:101CC00040F2F5110120FEF78BFB4FF4C87240F291
:101CD000EB110220FEF784FB4FF496724FF4B471BF
:101CE0000320FEF77DFB4FF4967240F2F1110420C1
:101CF000FEF776FB4FF4967240F2AB210520FEF71B
:101D00006FFB4FF4967240F226210620FEF768FB27
:101D10004FF4967240F2EF110720FEF761FB4FF48B
:101D2000967240F253310820FEF75AFB4FF4967238
:101D3000F4210920FEF754FB4FF496724FF4FD7125
:101D40000A20FEF74DFBFEF727FB4FF47A7000F0F8
:101D50004DFA4FF4FA7000F049FA10BD10B540F298
:101D60008A2240F25F310120FEF73AFB40F28F22D7
:101D70004FF43D710220FEF733FB4FF496724FF49F
:101D8000BD710320FEF72CFB4FF4967240F2462102
:101D90000420FEF725FB4FF4967240F2A5210520A2
:101DA000FEF71EFB4FF496724FF4E4710620FEF727
:101DB00017FB4FF4967240F2EF110720FEF710FB6D
:101DC0004FF4967240F253310820FEF709FB4FF4AE
:101DD0009672F4210920FEF703FB4FF496724FF43C
:101DE000FD710A20FEF7FCFAFEF7D6FA4FF47A707E
:101DF00000F0FCF9FA2000F0F9F94FF4967240F285
:101E000045110120FEF7ECFA4FF4967240F255317D
:101E10000220FEF7E5FA4FF4967240F229210320E2
:101E2000FEF7DEFA4FF4967240F2E2210420FEF74C
:101E3000D7FA4FF4967240F2E9110520FEF7D0FA76
:101E40004FF4967240F239110620FEF7C9FAFEF7F8
:101E5000A3FA4FF47A7000F0C9F94FF4487000F01B
:101E6000C5F94FF49672EB210820FEF7B9FAFEF798
:101E700093FA4FF47A7000F0B9F94FF4487000F01B
:101E8000B5F94FF496724FF4F9710120FEF7A8FAF4
:101E90004FF4967240F241310220FEF7A1FA40F26F
:101EA00052324FF43A710A20FEF79AFAFEF774FAAA
:101EB0004FF47A7000F09AF94FF496724FF4FB7178
:101EC0000A20FEF78DFA4FF4967240F21A2108208C
:101ED000FEF786FA4FF4967240F22B210920FEF7A6
:101EE0007FFAFEF759FA4FF47A7000F07FF94FF459
:101EF000C87240F2E5110220FEF772FA4FF49672B2
:101F00004FF456710820FEF76BFA4FF49672F321E6
:101F10000920FEF765FAFEF73FFA4FF4487000F02B
:101F200065F99622E5210220FEF75AFAFEF734FA07
:101F30004FF47A7000F05AF94FF4487000F056F9F7
:101F40004B224FF430710120FEF74AFAFEF724FAD3
:101F50004FF47A7000F04AF94FF4FA7000F046F945
:101F60004FF49672AE210120FEF73AFA4FF49672C2
:101F7000E6210220FEF734FAFEF70EFA4FF448701D
:101F800000F034F94FF4967240F22B210320FEF753
:101F900027FA4FF4967240F203210420FEF720FA4C
:101FA0004FF4967240F2E1110520FEF719FA4FF452
:101FB00096724FF405710620FEF712FAFEF7ECF95F
:101FC0004FF4487000F012F94FF4967240F201118C
:101FD0000120FEF705FA4FF4967240F20F1102202D
:101FE000FEF7FEF94FF4967240F253110320FEF70C
:101FF000F7F94FF4967240F2FF110420FEF7F0F962
:102000004FF4967240F2C7210520FEF7E9F94FF42C
:1020100096724FF406710620FEF7E2F9FEF7BCF95E
:102020004FF47A7000F0E2F84FF49672EF2101203D
:10203000FEF7D6F94FF49672E4210220FEF7D0F9AC
:102040004FF4967240F281110320FEF7C9F94FF464
:1020500096724FF4F4710420FEF7C2F94FF49672B1
:1020600040F29F210520FEF7BBF94FF496724FF422
:1020700007710620FEF7B4F9FEF78EF94FF496705B
:1020800000F0B4F84FF4967240F2F5110120FEF71B
:10209000A7F94FF4967240F2EB110220FEF7A0F977
:1020A0004FF496724FF4B4710320FEF799F94FF490
:1020B000967240F2F1110420FEF792F94FF49672F5
:1020C00040F2AB210520FEF78BF94FF4967240F2F7
:1020D00026210620FEF784F94FF4967240F2EF11A4
:1020E0000720FEF77DF94FF4967240F25331082035
:1020F000FEF776F94FF49672F4210920FEF770F995
:102100004FF496724FF4FD710A20FEF769F9FEF75D
:1021100043F94FF47A7000F069F84FF47A7000F0E8
:1021200065F84FF47A7000F061F810BD10B54FF407
:1021300096724FF4C4710320FEF752F94FF4967271
:102140004FF4DA710420FEF74BF94FF4967240F227
:1021500097210520FEF744F94FF496724FF41E7153
:102160000620FEF73DF9FEF717F94FF4967000F0E0
:102170003DF84FF4AF7240F249110220FEF730F9FA
:10218000FEF70AF94FF4167000F030F84FF4AF7212
:1021900040F2EB110220FEF723F9FEF7FDF84FF4B1
:1021A000FA7000F023F810BD10B56FF00400FEF7D0
:1021B00093FE0A4800680A49B0FBF1F0094908702B
:1021C0000846007800EB4001C1EBC0104FF6FF71EC
:1021D00001EAC0000449088010BD0000140000207E
:1021E00000127A0034000020360000200146114A17
:1021F00012884A434FF0E0235A6100229A611A463E
:10220000126942F001021A6100BF4FF0E02210692A
:1022100000F001021AB100F48032002AF5D04FF02C
:10222000E022126922F001024FF0E0231A6100223D
:102230009A6170473600002000BF011EA0F1010026
:10224000FBD170470146114A12784A434FF0E02310
:102250005A6100229A611A46126942F001021A611B
:1022600000BF4FF0E022106900F001021AB100F443
:102270008032002AF5D04FF0E022126922F00102EC
:102280004FF0E0231A6100229A6170473400002069
:1022900000BF054A128802F04002002AF9D0C2B2FB
:1022A000014B1B1D1A8070470038014010B54FF4D8
:1022B00096724FF4F4710120FEF792F84FF4967283
:1022C00040F2EB110220FEF78BF84FF4967240F2C9
:1022D0006A210320FEF784F84FF4967240F2B2218F
:1022E0000420FEF77DF84FF496724FF4F17105204B
:1022F000FEF776F84FF4967240F251110620FEF781
:102300006FF84FF4C8724FF409710720FEF768F8B0
:102310004FF4967240F261310820FEF761F84FF4F5
:102320009672AD210920FEF75BF84FF4967240F2E9
:102330005D110A20FEF754F8FEF72EF84FF47A707C
:10234000FFF754FF4FF4967240F2E7110520FEF7B5
:1023500047F84FF4967240F219110620FEF740F844
:102360004FF4C87240F2FD110720FEF739F84FF420
:10237000967240F25B310820FEF732F84FF4967205
:1023800040F267110920FEF72BF84FF4967240F2E5
:1023900063110A20FEF724F8FDF7FEFF4FF47A7070
:1023A000FFF724FFC820FFF721FF4FF4967240F299
:1023B00013310320FEF714F84FF4967240F28D317A
:1023C0000420FEF70DF84FF4967240F23911052003
:1023D000FEF706F84FF4967298210620FEF700F8F3
:1023E0004FF4E17240F2E5110720FDF7F9FF4FF4D9
:1023F00096724FF45D710820FDF7F2FF4FF496726C
:1024000040F2CB210920FDF7EBFF4FF4967240F22A
:1024100005210A20FDF7E4FFFDF7BEFF4FF47A70B7
:10242000FFF7E4FEC820FFF7E1FE4FF42F7240F201
:10243000F9110720FDF7D4FF4FF4617240F26711E4
:102440000820FDF7CDFF40F2B63240F2B22109205C
:10245000FDF7C6FF40F2B6324FF444710A20FDF793
:10246000BFFFFDF799FF4FF47A70FFF7BFFE4FF4FF
:102470009670FFF7BBFE4FF4967240F25B2103208B
:10248000FDF7AEFF4FF4967240F2F7210420FDF7FE
:10249000A7FF4FF4967240F20A210520FDF7A0FF36
:1024A0004FF4967240F21B110620FDF799FF4FF48E
:1024B000967240F2DB110720FDF792FF962240F260
:1024C000EB110820FDF78CFF4FF49672F5210920DF
:1024D000FDF786FF4FF496724FF4FF710A20FDF767
:1024E0007FFFFDF759FF4FF47A70FFF77FFE4FF43F
:1024F0009670FFF77BFE4FF4967240F25221032054
:10250000FDF76EFF4FF496724FF414710420FDF73F
:1025100067FF4FF496724FF400710520FDF760FFDE
:102520004FF4967240F27D110620FDF759FF4FF4EB
:1025300096724FF4EA710720FDF752FF962240F29F
:102540002F310820FDF74CFF4FF49672ED21092042
:10255000FDF746FF4FF4967240F2F3110A20FDF7A3
:102560003FFFFDF719FF4FF47A70FFF73FFE4FF47E
:102570009670FFF73BFE4FF4967240F2E311012094
:10258000FDF72EFF4FF496724FF4F8710220FDF71D
:1025900027FF4FF496724FF4C4710320FDF720FF1C
:1025A0004FF496724FF4DA710420FDF719FF4FF4DF
:1025B000967240F297210520FDF712FF4FF49672B4
:1025C0004FF41E710620FDF70BFF4FF4967240F298
:1025D000EF110720FDF704FF4FF4967240F25331DC
:1025E0000820FDF7FDFE4FF49672F4210920FDF757
:1025F000F7FE4FF496724FF4FD710A20FDF7F0FEDE
:10260000FDF7CAFE4FF47A70FFF7F0FD4FF47A70D1
:10261000FFF7ECFD10BD00004FF4A060FEF7E4F9F9
:10262000FEF702F84FF4E13001F050F9FFF79AF8A5
:10263000FFF7BAFD4848FFF7FFFDFEF7A5FC47A0EE
:10264000FEF7CEFEFEF7F7F9FF20FEF7D7F9474871
:10265000FFF7F2FD0020FEF7D1F94548FFF7ECFD4A
:10266000002211461046FEF753FA012200211020E5
:10267000FEF74EFA022200212020FEF749FA03223B
:1026800000213020FEF744FA042200214020FEF70A
:102690003FFA052200215020FEF73AFA06220021D7
:1026A0006020FEF735FA072200217020FEF730FA8D
:1026B0000920FEF7C9FBFFF777FD4FF4E13001F089
:1026C00005F948E02B480068322806D30020294944
:1026D0000860FEF7FFF8FFF7C9F800F01BFE4FF4A3
:1026E0007A70FFF783FD00F015FE4FF47A70FFF764
:1026F0007DFDFFF7DBFDFFF7D9FDFFF717FD01F0CB
:1027000035F900F007FE4FF47A70FFF76FFDFFF721
:1027100023F9FFF723FB00F02FF8FFF7C7FD00F0C8
:102720006FFC00F040FE01F0DFFD01F086F901F0E2
:102730005DFCFFF7FBFC01F019F941F28830FFF76F
:1027400055FD00F0E7FD41F28830FFF74FFD41F203
:102750008830FFF74BFDB5E7FFFF3F00496E697416
:10276000204F4B2121210D0A00000000FFFF1F0018
:10277000FFFF0F002800002010B54FF41672B4219F
:102780000120FDF72DFE4FF4FA72EF210220FDF734
:1027900027FE4FF4AF724FF4CD710320FDF720FEFA
:1027A0004FF4C8724FF4F9710420FDF719FE4FF48D
:1027B000AF724FF421710520FDF712FE4FF4C8727D
:1027C0004FF405710620FDF70BFEFDF7E5FD4FF414
:1027D0007A70FFF70BFDC820FFF708FD4FF4167263
:1027E000FD210120FDF7FCFD4FF496724FF4DD71E1
:1027F0000220FDF7F5FD4FF496724FF4CD710320E2
:10280000FDF7EEFD4FF496724FF4E2710420FDF7F0
:10281000E7FD4FF4967240F279210520FDF7E0FDC7
:102820004FF4967240F246210620FDF7D9FD4FF491
:10283000967240F2EF110720FDF7D2FD4FF4967229
:1028400040F253310820FDF7CBFD4FF49672F4218E
:102850000920FDF7C5FD4FF496724FF4FD710A2073
:10286000FDF7BEFDFDF798FD4FF47A70FFF7BEFC53
:102870004FF4967240F235110120FDF7B1FD4FF48F
:10288000FA724FF400710220FDF7AAFD4FF4AF7207
:1028900040F233110320FDF7A3FD4FF4C8724FF44B
:1028A000D5710420FDF79CFDC82240F2E5210520EA
:1028B000FDF796FDC82240F26E210620FDF790FD3F
:1028C000FDF76AFD4FF47A70FFF790FC4FF4AF729A
:1028D0004FF4CC710320FDF783FD4FF4C8724FF421
:1028E00089710420FDF77CFDFDF756FD4FF4FA7069
:1028F000FFF77CFC4FF4AF7240F233210320FDF769
:102900006FFD4FF4C87240F21B210420FDF768FDF3
:10291000FDF742FD4FF4FA70FFF768FC4FF4AF7219
:1029200040F236310320FDF75BFD4FF4C87240F2F0
:1029300029310420FDF754FDFDF72EFD4FF44870BA
:10294000FFF754FCFA22F0210120FDF749FD4FF476
:10295000FA724FF400710220FDF742FDFA224FF4A3
:1029600016710520FDF73CFD4FF4C87240F23F316F
:102970000620FDF735FDFDF70FFD4FF44870FFF71A
:1029800035FC4FF4967211460120FDF729FD4FF4F6
:10299000FA724FF400710220FDF722FDFA2240F294
:1029A000E5210520FDF71CFD4FF4C87240F26E21B1
:1029B0000620FDF715FDFDF7EFFC4FF44870FFF71B
:1029C00015FCFA22F0210120FDF70AFD4FF4FA72FE
:1029D0004FF400710220FDF703FDFA224FF4167147
:1029E0000520FDF7FDFC4FF4C87240F23F31062090
:1029F000FDF7F6FCFDF7D0FC4FF44870FFF7F6FB4F
:102A00004FF4967211460120FDF7EAFC4FF4FA727A
:102A10004FF400710220FDF7E3FCFA2240F2E521B9
:102A20000520FDF7DDFC4FF4C87240F26E21062050
:102A3000FDF7D6FCFDF7B0FC4FF44870FFF7D6FB6E
:102A40006420FFF7D3FB4FF4AF7240F23321032031
:102A5000FDF7C6FC4FF4C8724FF489710420FDF7EE
:102A6000BFFCFDF799FC4FF44870FFF7BFFB4FF434
:102A7000AF724FF4CC710320FDF7B2FC4FF4C87273
:102A80004FF489710420FDF7ABFCFDF785FC4FF492
:102A9000FA70FFF7ABFB4FF4967211460120FDF779
:102AA0009FFC4FF4AF7240F233110320FDF798FC06
:102AB0004FF4C8724FF4D5710420FDF791FCFDF777
:102AC0006BFC4FF44870FFF791FBC82240F2A7213E
:102AD0000520FDF785FCC82240F2E3210620FDF722
:102AE0007FFCFDF759FC4FF44870FFF77FFBC822CD
:102AF0004FF4EF710520FDF773FCC8224FF4FA7113
:102B00000620FDF76DFCFDF747FC4FF44870FFF71A
:102B10006DFB4FF4AF72E2210520FDF761FC4FF42D
:102B2000C872B2210620FDF75BFCFDF735FC4FF4BF
:102B30004870FFF75BFB4FF49672F7210120FDF719
:102B40004FFC4FF4FA724FF4F0710220FDF748FC8D
:102B5000FA2240F2D1110320FDF742FC4FF4BE727D
:102B6000D4210420FDF73CFCFDF716FC4FF448701F
:102B7000FFF73CFB4FF4967240F205110120FDF780
:102B80002FFC4FF4FA724FF4F0710220FDF728FC8D
:102B9000FA2240F233110320FDF722FC4FF4BE72FB
:102BA0004FF4D5710420FDF71BFCFDF7F5FB4FF446
:102BB0004870FFF71BFB4FF49672F8210120FDF7D8
:102BC0000FFC4FF4FA724FF4F0710220FDF708FC8D
:102BD000FA2240F2D1110320FDF702FC4FF4BE723D
:102BE000D4210420FDF7FCFBFDF7D6FB4FF4487021
:102BF000FFF7FCFA4FF4967240F205110120FDF741
:102C0000EFFB4FF4FA724FF4F0710220FDF7E8FB8E
:102C1000FA2240F233110320FDF7E2FB4FF4BE72BB
:102C20004FF4D5710420FDF7DBFBFDF7B5FB4FF446
:102C30004870FFF7DBFA4FF496724FF4EF710520FE
:102C4000FDF7CEFB4FF4C87240F2E3210620FDF7FA
:102C5000C7FBFDF7A1FB4FF44870FFF7C7FA4FF42D
:102C6000967240F2A7210520FDF7BAFB4FF4C87217
:102C700040F2E3210620FDF7B3FBFDF78DFB4FF497
:102C80004870FFF7B3FAC82240F2E5210520FDF7AE
:102C9000A7FBC82240F26E210620FDF7A1FBFDF73D
:102CA0007BFB4FF4FA70FFF7A1FA642240F22D117A
:102CB0000120FDF795FB4FF4FA724FF4E771022003
:102CC000FDF78EFBC82240F231110320FDF788FB8F
:102CD0004FF4C8724FF4EF710420FDF781FBC82256
:102CE00040F2DB210520FDF77BFB4FF4C8724FF467
:102CF00010710620FDF774FBFDF74EFB4FF4487092
:102D0000FFF774FAC820FFF771FA4FF4C87240F267
:102D10003E210320FDF764FB4FF4A572DC21042063
:102D2000FDF75EFB4FF4C87240F2D3110520FDF7AA
:102D300057FB4FF4A5724FF44E710620FDF750FB80
:102D40006422EE210120FDF74BFB4FF4FA72D11FF4
:102D50000220FDF745FB4FF4967240F2EF11072079
:102D6000FDF73EFB4FF4967240F253310820FDF719
:102D700037FB4FF49672F4210920FDF731FB4FF435
:102D800096724FF4FD710A20FDF72AFBFDF704FB54
:102D90004FF44870FFF72AFA642240F22D11012007
:102DA000FDF71EFB4FF4C8724FF4E7710220FDF7E8
:102DB00017FB4FF4C87240F231110320FDF710FBEE
:102DC0004FF4A5724FF4EF710420FDF709FB4FF4A7
:102DD000C87240F2DB210520FDF702FB4FF4A5721B
:102DE0004FF410710620FDF7FBFAFDF7D5FA4FF40A
:102DF0004870FFF7FBF9C820FFF7F8F94FF4C872E5
:102E000040F23E210320FDF7EBFA4FF4A572DC21DE
:102E10000420FDF7E5FA4FF4C87240F2D311052003
:102E2000FDF7DEFA4FF4A5724FF44E710620FDF760
:102E3000D7FA6422EE210120FDF7D2FA4FF4FA729C
:102E4000D11F0220FDF7CCFA4FF4967240F2EF1139
:102E50000720FDF7C5FA4FF4967240F2533108206F
:102E6000FDF7BEFA4FF49672F4210920FDF7B8FA87
:102E70004FF496724FF4FD710A20FDF7B1FAFDF799
:102E80008BFA4FF44870FFF7B1F9642240F22D112C
:102E90000120FDF7A5FA4FF4C8724FF4E771022044
:102EA000FDF79EFA4FF4C87240F231110320FDF78E
:102EB00097FA4FF4A5724FF4EF710420FDF790FAE2
:102EC0004FF4C87240F2DB210520FDF789FA4FF478
:102ED000A5724FF410710620FDF782FAFDF75CFA37
:102EE0004FF44870FFF782F9C820FFF77FF94FF4DD
:102EF00096724FF4CD710320FDF772FA4FF496727B
:102F00004FF4E2710420FDF76BFA4FF4967240F231
:102F100079210520FDF764FA4FF4967240F24621BC
:102F20000620FDF75DFAFDF737FA4FF44870FFF71A
:102F30005DF94FF49672EF210120FDF751FA4FF43D
:102F40009672E4210220FDF74BFA4FF4967240F29C
:102F500081110320FDF744FA4FF496724FF4F47197
:102F60000420FDF73DFA4FF4967240F29F210520B0
:102F7000FDF736FA4FF496724FF407710620FDF70D
:102F80002FFAFDF709FA4FF44870FFF72FF94FF4C5
:102F9000967240F2E3110120FDF722FA4FF4967287
:102FA0004FF4F8710220FDF71BFA4FF496724FF4BC
:102FB000C4710320FDF714FA4FF496724FF4DA71DE
:102FC0000420FDF70DFA4FF4967240F29721052088
:102FD000FDF706FA4FF496724FF41E710620FDF7C6
:102FE000FFF9FDF7D9F94FF47A70FFF7FFF84FF4C6
:102FF0007A70FFF7FBF84FF47A70FFF7F7F810BD1F
:1030000010B54FF4967240F2EB110120FDF7E8F98C
:103010004FF4967240F2F3110220FDF7E1F94FF4FC
:10302000967240F205210320FDF7DAF94FF496720B
:1030300040F265210420FDF7D3F94FF4967240F277
:1030400055110520FDF7CCF94FF49672802106202A
:10305000FDF7C6F94FF4967240F26F210720FDF795
:10306000BFF94FF4967240F29A310820FDF7B8F993
:103070009622F9210920FDF7B3F996224FF4F97150
:103080000A20FDF7ADF9FDF787F94FF47A70FFF7E5
:10309000ADF84FF496724FF40E710320FDF7A0F9CE
:1030A0004FF4967240F29E210420FDF799F9962282
:1030B0004FF417710720FDF793F94FF4967240F221
:1030C000AD210820FDF78CF9FDF766F94FF47A7011
:1030D000FFF78CF8C820FFF789F8FA224FF4447103
:1030E0000320FDF77DF9FA224FF465710420FDF706
:1030F00077F94FF496724FF49B710520FDF770F944
:103100004FF4967290210620FDF76AF94FF49672FB
:1031100040F2CB110720FDF763F94FF4C87240F27B
:1031200071110820FDF75CF9FDF736F94FF47A705C
:10313000FFF75CF86420FFF759F84FF42F72CE21A7
:103140000720FDF74DF94FF42F7240F28F11082040
:10315000FDF746F940F2EE2240F2BF210920FDF7CB
:103160003FF940F2EE224FF4F8710A20FDF738F9EA
:10317000FDF712F94FF47A70FFF738F84FF49670B4
:10318000FFF734F8C82240F235210320FDF728F973
:103190004FF496724FF412710420FDF721F9C82202
:1031A00040F2F5110520FDF71BF9C8224FF4E97133
:1031B0000620FDF715F9C8224FF400710720FDF72E
:1031C0000FF94FF4967240F246310820FDF708F9E6
:1031D0004FF4967240F20A210920FDF701F9C82246
:1031E00040F22D210A20FDF7FBF8FDF7D5F84FF44A
:1031F0007A70FEF7FBFFC8224FF417710320FDF72A
:10320000EFF84FF496724FF412710420FDF7E8F8CE
:10321000C82240F2F5110520FDF7E2F8C8224FF46C
:10322000E9710620FDF7DCF8C8224FF40071072091
:10323000FDF7D6F84FF4967240F246310820FDF7BC
:10324000CFF84FF49672111D0920FDF7C9F8C82276
:1032500040F219210A20FDF7C3F8FDF79DF84FF45D
:103260007A70FEF7C3FFC820FEF7C0FF4FF49672D6
:1032700040F2E3110120FDF7B3F84FF496724FF4DA
:10328000F8710220FDF7ACF84FF496724FF4C47158
:103290000320FDF7A5F84FF496724FF4DA7104207D
:1032A000FDF79EF84FF4967240F297210520FDF746
:1032B00097F84FF496724FF41E710620FDF790F8C0
:1032C0004FF4967240F2EF110720FDF789F84FF4A2
:1032D000967240F253310820FDF782F84FF496724F
:1032E000F4210920FDF77CF84FF496724FF4FD713C
:1032F0000A20FDF775F8FDF74FF84FF47A70FEF7E6
:1033000075FF4FF47A70FEF771FF4FF47A70FEF795
:103310006DFF10BD10B54FF4967240F2E31101201D
:10332000FDF75EF84FF496724FF4F8710220FDF746
:1033300057F84FF496724FF4C4710320FDF750F81C
:103340004FF496724FF4DA710420FDF749F84FF408
:10335000967240F297210520FDF742F84FF49672DD
:103360004FF41E710620FDF73BF84FF4967240F2C1
:10337000EF110720FDF734F84FF4967240F2533105
:103380000820FDF72DF84FF49672F4210920FDF77F
:1033900027F84FF496724FF4FD710A20FDF720F8DC
:1033A000FCF7FAFF10BD10B54FF41672B4210120DE
:1033B000FDF716F84FF4FA72FD210220FDF710F820
:1033C0004FF496724FF4CF710320FDF709F84FF4D4
:1033D000967240F21A210420FDF702F84FF496721B
:1033E00040F281210520FCF7FBFF4FF496724FF469
:1033F000FB710620FCF7F4FF4FF4967240F2EF11D8
:103400000720FCF7EDFF4FF4967240F2533108208D
:10341000FCF7E6FF4FF49672F4210920FCF7E0FF79
:103420004FF496724FF4FD710A20FCF7D9FFFCF7B8
:10343000B3FF4FF47A70FEF7D9FE4FF4967240F264
:1034400029210320FCF7CCFF4FF4967240F2E221D1
:103450000420FCF7C5FF4FF4967240F2E9110520F5
:10346000FCF7BEFF4FF4967240F239110620FCF7CC
:10347000B7FFFCF791FF6420FEF7B8FE4FF4967299
:1034800040F291210120FCF7ABFFC8227E210220EF
:10349000FCF7A6FF4FF4967240F223210320FCF7BD
:1034A0009FFF4FF4967240F2E5210420FCF798FF4D
:1034B0004FF4967240F205210520FCF791FF4FF47E
:1034C0009672D11D0620FCF78BFFFCF765FF4FF4C9
:1034D0007A70FEF78BFE4FF47A70FEF787FE4FF49A
:1034E000967240F25A310920FCF77AFFFCF754FF3C
:1034F0004FF47A70FEF77AFE4FF44870FEF776FECE
:103500004FF4487240F2EE210720FCF769FF4FF4B8
:1035100096724FF4EA710120FCF762FF4FF4967245
:10352000C1210220FCF75CFFFCF736FF4FF47A70F4
:10353000FEF75CFE4FF4967240F2F1110720FCF7A3
:103540004FFF4FF4967240F221210820FCF748FF0C
:103550004FF4967240F227210920FCF741FFFCF757
:103560001BFF4FF47A70FEF741FE4FF4C8724FF420
:10357000F4710220FCF734FF4FF496724FF4577148
:103580000820FCF72DFF4FF49672F1210920FCF77B
:1035900027FFFCF701FF4FF44870FEF727FE4FF4BA
:1035A000967240F21B310320FCF71AFF4FF496721B
:1035B00040F211210420FCF713FF4FF49672E92129
:1035C0000520FCF70DFF4FF496724FF4FB710620B7
:1035D000FCF706FFFCF7E0FE4FF47A70FEF706FEFC
:1035E000C820FEF703FE4FF49672B3210720FCF7C4
:1035F000F7FE4FF496724FF406710820FCF7F0FEC8
:103600004FF4967240F227210920FCF7E9FE4FF4AF
:1036100096724FF44C710A20FCF7E2FEFCF7BCFEF8
:103620004FF47A70FEF7E2FDC820FEF7DFFD4FF49D
:10363000967240F2F1110720FCF7D2FE4FF4967219
:1036400040F25A310820FCF7CBFE4FF49672F62177
:103650000920FCF7C5FE4FF4967240F2FD110A20D6
:10366000FCF7BEFEFCF798FE4FF47A70FEF7BEFD45
:10367000C820FEF7BBFD4FF4967240F215210320DF
:10368000FCF7AEFE4FF4967240F2D2210420FCF714
:10369000A7FE4FF4967240F2EF110520FCF7A0FE52
:1036A0004FF49672D11D0620FCF79AFEFCF774FECB
:1036B0004FF49660FEF79AFD96224FF44371022074
:1036C000FCF78EFEFCF768FE4FF47A70FEF78EFD75
:1036D0004FF44870FEF78AFD4B224FF4A071012091
:1036E000FCF77EFEFCF758FE4FF47A70FEF77EFD85
:1036F0004FF4FA70FEF77AFD4FF496724FF434717E
:103700000120FCF76DFE4FF496724FF43B710220DE
:10371000FCF766FEFCF740FE40F28A20FEF766FDED
:103720004FF4967240F22B210320FCF759FE4FF420
:10373000967240F203210420FCF752FE4FF4967279
:1037400040F2E1110520FCF74BFE4FF496724FF466
:1037500005710620FCF744FEFCF71EFE4FF448708E
:10376000FEF744FD4FF4967240F2E5210120FCF78C
:1037700037FE4FF496724FF43A710220FCF730FE98
:103780004FF4967240F235110320FCF729FE4FF4F6
:1037900096724FF410710420FCF722FE4FF49672DB
:1037A00040F2CA210520FCF71BFE4FF4967240F24E
:1037B000FD110620FCF714FEFCF7EEFD4FF47A70C5
:1037C000FEF714FD4FF4967240F2AA210120FCF797
:1037D00007FE4FF496724FF439710220FCF700FE99
:1037E0004FF496724FF4AD710320FCF7F9FD4FF4DE
:1037F000967240F231210420FCF7F2FD4FF49672EC
:103800004FF43A710520FCF7EBFD4FF4967240F24D
:10381000E3110620FCF7E4FDFCF7BEFD4FF49670C3
:10382000FEF7E4FC4FF4967240F2F5110120FCF72C
:10383000D7FD4FF4C87240F2EB110220FCF7D0FD27
:103840004FF496724FF4B4710320FCF7C9FD4FF4A6
:10385000967240F2F1110420FCF7C2FD4FF496720B
:1038600040F2AB210520FCF7BBFD4FF4967240F20D
:1038700026210620FCF7B4FD4FF4967240F2EF11BA
:103880000720FCF7ADFD4FF4967240F2533108204B
:10389000FCF7A6FD4FF49672F4210920FCF7A0FD79
:1038A0004FF496724FF4FD710A20FCF799FDFCF776
:1038B00073FD4FF47A70FEF799FC4FF47A70FEF7BF
:1038C00095FC4FF47A70FEF791FC10BD10B586B0F0
:1038D0000446012144F20400FDF7BAF94FF40070E8
:1038E000ADF8140003208DF8160018208DF817008D
:1038F00005A91C48FCF7CAFE4FF48060ADF814001F
:1039000004208DF8170005A91648FCF7BFFE2520F6
:103910008DF8000003208DF801008DF802000120D1
:103920008DF803006846FDF727F801940020ADF8F4
:103930000800ADF80A00ADF80C00ADF810000C203E
:10394000ADF80E0001A90848FDF768FC012240F21D
:1039500025510548FDF73CFC01210348FDF702FC19
:1039600006B010BD000801400038014010B54FF40A
:10397000967240F2E6210320FCF732FDFCF70CFDC5
:103980004FF44870FEF732FC4FF4E17240F22A31F6
:103990000420FCF725FD4FF496724FF44D7103207F
:1039A000FCF71EFDFCF7F8FC4FF44870FEF71EFC18
:1039B0004FF4E1724FF4FF710420FCF711FD4FF456
:1039C000967240F2E6210320FCF70AFDFCF7E4FCC6
:1039D0004FF44870FEF70AFC4FF4E17240F22A31CE
:1039E0000420FCF7FDFC4FF496724FF44D71032058
:1039F000FCF7F6FCFCF7D0FC4FF44870FEF7F6FB42
:103A00004FF496724FF4C4710320FCF7E9FC4FF4B5
:103A1000E1724FF4DA710420FCF7E2FCFCF7BCFC25
:103A20004FF47A70FEF7E2FB4FF47A70FEF7DEFB9C
:103A30004FF47A70FEF7DAFB10BD10B54FF49672B2
:103A40004FF4F4710120FCF7CBFC4FF4967240F276
:103A5000EB110220FCF7C4FC4FF4967240F26A218D
:103A60000320FCF7BDFC4FF4967240F2B221042013
:103A7000FCF7B6FC4FF496724FF4F1710520FCF799
:103A8000AFFC4FF4967240F251110620FCF7A8FCEF
:103A90004FF4C8724FF409710720FCF7A1FC4FF4F2
:103AA000967240F261310820FCF79AFC4FF496724E
:103AB000AD210920FCF794FC4FF4967240F25D11A1
:103AC0000A20FCF78DFCFCF767FC4FF47A70FEF7D8
:103AD0008DFB4FF4967240F2E7110520FCF780FC55
:103AE0004FF4967240F219110620FCF779FC4FF45E
:103AF000C87240F2FD110720FCF772FC4FF4967279
:103B000040F25B310820FCF76BFC4FF4967240F2F8
:103B100067110920FCF764FC4FF4967240F26311C0
:103B20000A20FCF75DFCFCF737FC4FF47A70FEF7D7
:103B30005DFBC820FEF75AFB4FF496724FF4F67106
:103B40000120FCF74DFC4FF4967240F2E91102207F
:103B5000FCF746FC4FF496724FF419710320FCF702
:103B60003FFC4FF4967240F295210420FCF738FC9C
:103B70004FF49672D11C0520FCF732FC4FF496727C
:103B800094210620FCF72CFC4FF4967240F2C921D8
:103B90000920FCF725FC4FF4967240F2FF110A2031
:103BA000FCF71EFCFCF7F8FB4FF47A70FEF71EFBE7
:103BB000C820FEF71BFB4FF42F7240F2F9110720CB
:103BC000FCF70EFC4FF4617240F267110820FCF71D
:103BD00007FC40F2B63240F2B2210920FCF700FCAB
:103BE00040F2B6324FF444710A20FCF7F9FBFCF7BF
:103BF000D3FB4FF47A70FEF7F9FA4FF49672B321C3
:103C00000720FCF7EDFB4FF496724FF40671082085
:103C1000FCF7E6FB4FF4967240F227210920FCF7EF
:103C2000DFFB4FF496724FF44C710A20FCF7D8FB7F
:103C3000FCF7B2FB4FF47A70FEF7D8FA4FF49672A5
:103C400040F2F1110720FCF7CBFB4FF4967240F2E3
:103C50005A310820FCF7C4FB4FF49672F621092074
:103C6000FCF7BEFB4FF4967240F2FD110A20FCF700
:103C7000B7FBFCF791FB4FF44870FEF7B7FA4FF42F
:103C8000967240F2EB110220FCF7AAFB4FF49672F9
:103C900040F235210320FCF7A3FB4FF4967240F26B
:103CA0002B210420FCF79CFB642240F22F110520FD
:103CB000FCF796FB642294210620FCF791FBFCF7AD
:103CC0006BFB4FF41670FEF791FA4FF496724FF4B7
:103CD000D2710320FCF784FB4FF496724FF4E0712D
:103CE0000420FCF77DFB4FF496724FF4827107209D
:103CF000FCF776FB4FF4967240F23D110A20FCF778
:103D00006FFBFCF749FB4FF44870FEF76FFA4FF476
:103D1000967240F256210320FCF762FB4FF4967234
:103D200040F2CB110420FCF75BFB4FF4967240F29B
:103D3000CA210720FCF754FB4FF4967240F28B2106
:103D40000A20FCF74DFBFCF727FB4FF44870FEF709
:103D50004DFA4FF496724FF4D2710320FCF740FBFA
:103D60004FF496724FF4E0710420FCF739FB4FF4E6
:103D700096724FF482710720FCF732FB4FF4967273
:103D800040F23D110A20FCF72BFBFCF705FB4FF43A
:103D90004870FEF72BFA4FF4967240F2562103203A
:103DA000FCF71EFB4FF4967240F2CB110420FCF797
:103DB00017FB4FF4967240F2F1110720FCF710FB4D
:103DC0004FF4967240F25A310820FCF709FB4FF489
:103DD0009672F6210920FCF703FB4FF4967240F22D
:103DE000FD110A20FCF7FCFAFCF7D6FA4FF47A70C2
:103DF000FEF7FCF9C82240F2F7110120FCF7F0FAB7
:103E0000C82240F207210220FCF7EAFAC82240F259
:103E100032210320FCF7E4FAC82240F2F311042017
:103E2000FCF7DEFA6422E1210520FCF7D9FA6422CE
:103E30004FF4E6710620FCF7D3FA4FF4967240F285
:103E4000A7210920FCF7CCFA642240F201210A20C4
:103E5000FCF7C6FAFCF7A0FA4FF47A70FEF7C6F941
:103E6000C82240F232210320FCF7BAFA4FF49672CE
:103E700040F296210420FCF7B3FAC82240F2451123
:103E80000520FCF7ADFAC82240F201110620FCF72C
:103E9000A7FA4FF4967240F29A310820FCF7A0FA84
:103EA0004FF4967240F2A7210920FCF799FAC82234
:103EB00040F201210A20FCF793FAFCF76DFA4FF467
:103EC000C870FEF793F94FF496724FF4F671022022
:103ED000FCF786FAC82240F23E210320FCF780FA64
:103EE0004FF4967240F297210420FCF779FAC82229
:103EF00040F2FB110520FCF773FAC82240F2991139
:103F00000620FCF76DFA4FF496724FF4FE7107200D
:103F1000FCF766FA4FF4AF7240F29A310820FCF7D2
:103F20005FFAFA224FF415710920FCF759FAFA22C8
:103F300040F25A210A20FCF753FAFCF72DFA4FF40D
:103F40007A70FEF753F9C820FEF750F94FF49672D5
:103F500040F2E3110120FCF743FA4FF496724FF45C
:103F6000F8710220FCF73CFA4FF496724FF4C471DA
:103F70000320FCF735FA4FF496724FF4DA710420FF
:103F8000FCF72EFA4FF4967240F297210520FCF7C9
:103F900027FA4FF496724FF41E710620FCF720FAB0
:103FA0004FF4967240F2EF110720FCF719FA4FF424
:103FB000967240F253310820FCF712FA4FF49672D1
:103FC000F4210920FCF70CFA4FF496724FF4FD71BE
:103FD0000A20FCF705FAFCF7DFF94FF47A70FEF7D8
:103FE00005F94FF4FA70FEF701F910BD10B54FF462
:103FF000967240F206210320FCF7F2F94FF4967214
:104000004FF419710420FCF7EBF94FF496724FF45A
:10401000FB710520FCF7E4F94FF4967240F2C111F0
:104020000620FCF7DDF94FF4967240F2E311072009
:10403000FCF7D6F94FF496724FF453710820FCF751
:10404000CFF94FF49672FB210920FCF7C9F94FF420
:10405000967240F203210A20FCF7C2F9FCF79CF9A2
:104060004FF47A70FEF7C2F84FF496724FF42B714A
:104070000320FCF7B5F94FF4967240F28531042025
:10408000FCF7AEF94FF496724FF4FE710520FCF781
:10409000A7F94FF496724FF4E5710620FCF7A0F9EA
:1040A0004FF4967240F203210720FCF799F94FF480
:1040B000967240F289310820FCF792F94FF496721B
:1040C00040F287110920FCF78BF94FF4967240F209
:1040D00072210A20FCF784F9FCF75EF94FF47A703C
:1040E000FEF784F84FF4967240F206210320FCF7A5
:1040F00077F94FF496724FF419710420FCF770F9B8
:104100004FF496724FF4FB710520FCF769F94FF4F8
:1041100096724FF4CE710620FCF762F94FF4967256
:1041200040F29F110720FCF75BF94FF4967240F2C2
:10413000F2210820FCF754F94FF49672E921092086
:10414000FCF74EF94FF496724FF400710A20FCF719
:1041500047F9FCF721F94FF47A70FEF747F84FF46E
:10416000967240F206210320FCF73AF94FF496725A
:104170004FF419710420FCF733F94FF496724FF4A1
:10418000FB710520FCF72CF94FF4967240F2C11137
:104190000620FCF725F94FF4967240F2E311072050
:1041A000FCF71EF94FF496724FF453710820FCF798
:1041B00017F94FF49672FB210920FCF711F94FF41F
:1041C000967240F203210A20FCF70AF9FCF7E4F8A2
:1041D0004FF47A70FEF70AF84FF4967240F24E21CF
:1041E0000320FCF7FDF84FF4967240F24B210420B7
:1041F000FCF7F6F84FF496724FF4D9710520FCF7EE
:10420000EFF84FF4967281210620FCF7E9F84FF49D
:1042100096724FF4BC710720FCF7E2F84FF49672E7
:1042200040F2B9210820FCF7DBF84FF49672B62172
:104230000920FCF7D5F84FF496724FF4EF710A207D
:10424000FCF7CEF8FCF7A8F84FF47A70FDF7CEFF34
:104250004FF4967240F2E3110120FCF7C1F84FF4DD
:1042600096724FF4F8710220FCF7BAF84FF4967288
:104270004FF4C4710320FCF7B3F84FF496724FF477
:10428000DA710420FCF7ACF84FF4967240F29721F3
:104290000520FCF7A5F84FF496724FF41E71062026
:1042A000FCF79EF84FF4967240F2EF110720FCF7EE
:1042B00097F84FF4967240F253310820FCF790F8CB
:1042C0004FF49672F4210920FCF78AF84FF49672A5
:1042D0004FF4FD710A20FCF783F8FCF75DF84FF40A
:1042E0007A70FDF783FF10BD10B54FF4FA72BE214E
:1042F0000120FCF775F84FF4C872FD210220FCF78D
:104300006FF84FF496724FF4CF710320FCF768F802
:104310004FF4967240F21A210420FCF761F84FF432
:10432000967240F281210520FCF75AF84FF49672FC
:104330004FF4FB710620FCF753F84FF4967240F2ED
:10434000EF110720FCF74CF84FF4967240F253310E
:104350000820FCF745F84FF49672F4210920FCF789
:104360003FF84FF496724FF4FD710A20FCF738F8CD
:10437000FCF712F84FF47A70FDF738FF4FF496729D
:1043800040F229210320FCF72BF84FF4967240F2FB
:10439000E2210420FCF724F84FF4967240F2E91170
:1043A0000520FCF71DF84FF4967240F239110620F3
:1043B000FCF716F8FBF7F0FF6420FDF717FF4FF44A
:1043C000967240F291210120FCF70AF8C8227E2162
:1043D0000220FCF705F84FF4967240F223210320E7
:1043E000FBF7FEFF4FF4967240F2E5210420FBF745
:1043F000F7FF4FF4967240F205210520FBF7F0FF1E
:104400004FF49672D11D0620FBF7EAFFFBF7C4FFBD
:104410004FF47A70FDF7EAFE4FF47A70FDF7E6FE8E
:104420004FF4967240F25A310920FBF7D9FFFBF79F
:10443000B3FF4FF47A70FDF7D9FE4FF44870FDF7E3
:10444000D5FE4FF496724FF4EA710120FBF7C8FFD6
:104450004FF49672C1210220FBF7C2FF4FF448725D
:1044600040F2EE210720FBF7BBFFFBF795FF4FF46F
:104470007A70FDF7BBFE4FF4967240F2F1110720FF
:10448000FBF7AEFF4FF4967240F221210820FBF7B4
:10449000A7FF4FF4967240F227210920FBF7A0FFF7
:1044A000FBF77AFF4FF47A70FDF7A0FEC82240F2C6
:1044B000EF110120FBF794FFC822C1210220FBF776
:1044C0008FFFC82240F24E310320FBF789FFC8223C
:1044D0004FF48E710420FBF783FFC822CA21052008
:1044E000FBF77EFFC82240F20E310620FBF778FF73
:1044F000C82240F2EF110720FBF772FFC82240F2FA
:1045000022210820FBF76CFFC82240F22921092054
:10451000FBF766FFC82240F2F7110A20FBF760FFA5
:10452000FBF73AFF4FF47A70FDF760FE4FF47A70B4
:10453000FDF75CFE4FF4A0724FF4F9710220FBF717
:104540004FFFFBF729FF4FF41670FDF74FFEC8220F
:1045500040F23D310320FBF743FFC8224FF40471C2
:104560000420FBF73DFFC822E4210520FBF738FFBC
:10457000C82240F246310620FBF732FFC82240F243
:10458000FB210720FBF72CFFC82240F25D310820F9
:10459000FBF726FFC822F8210920FBF721FFC822DC
:1045A00040F2E2210A20FBF71BFFFBF7F5FE4FF478
:1045B0007A70FDF71BFE4FF47A70FDF717FEC822E4
:1045C00040F24E310320FBF70BFFC8224FF48E71EF
:1045D0000420FBF705FFC822CA210520FBF700FFD6
:1045E000C82240F20E310620FBF7FAFEC82240F244
:1045F000EF110720FBF7F4FEC82240F22221082029
:10460000FBF7EEFEC82240F229210920FBF7E8FE65
:10461000C82240F2F7110A20FBF7E2FEFBF7BCFECE
:104620004FF47A70FDF7E2FD4FF47A70FDF7DEFD8E
:10463000C8224FF437710320FBF7D2FEC82240F2A4
:104640004D110420FBF7CCFEC8224FF48F710520DA
:10465000FBF7C6FEC82240F2E9110620FBF7C0FEB8
:10466000C8224FF495710720FBF7BAFEC8224FF419
:1046700053710820FBF7B4FEC822F8210920FBF78C
:10468000AFFEC8224FF485710A20FBF7A9FEFBF7A5
:1046900083FE4FF47A70FDF7A9FD4FF47A70FDF7B1
:1046A000A5FD4FF4C8724FF4F4710220FBF798FE99
:1046B000C82240F21B310320FBF792FEC82240F2D1
:1046C00011210420FBF78CFEC822E9210520FBF70D
:1046D00087FEC8224FF4FB710620FBF781FEC8223B
:1046E00040F2EF110720FBF77BFEC8224FF4577111
:1046F0000820FBF775FEC822F1210920FBF770FEA8
:10470000C82240F2F7110A20FBF76AFEFBF744FECD
:104710004FF47A70FDF76AFD4FF4967240F215215E
:104720000320FBF75DFE4FF4967240F2D221042085
:10473000FBF756FE4FF4967240F2EF110520FBF79F
:104740004FFE4FF49672D11D0620FBF749FEFBF792
:1047500023FE4FF47A70FDF749FD9622E5210220F1
:10476000FBF73EFEFBF718FE4FF47A70FDF73EFDB7
:104770004FF44870FDF73AFD4B224FF430710120A1
:10478000FBF72EFEFBF708FE4FF47A70FDF72EFDC7
:104790004FF4FA70FDF72AFD4FF49672AE21012016
:1047A000FBF71EFE4FF4967240F25B110220FBF7FE
:1047B00017FEFBF7F1FD4FF44870FDF717FD4FF4BE
:1047C000967240F22B210320FBF70AFE4FF49672FB
:1047D00040F203210420FBF703FE4FF4967240F2EF
:1047E000E1110520FBF7FCFD4FF496724FF40571C3
:1047F0000620FBF7F5FDFBF7CFFD4FF44870FDF702
:10480000F5FC4FF4967240F201110120FBF7E8FD30
:104810004FF4967240F20F110220FBF7E1FD4FF4C6
:10482000967240F253110320FBF7DAFD4FF49672B3
:1048300040F2FF110420FBF7D3FD4FF4967240F2D3
:10484000C7210520FBF7CCFD4FF496724FF406719B
:104850000620FBF7C5FDFBF79FFD4FF47A70FDF7CF
:10486000C5FC4FF49672EF210120FBF7B9FD4FF420
:104870009672E4210220FBF7B3FD4FF4967240F2EA
:1048800081110320FBF7ACFD4FF496724FF4F471E5
:104890000420FBF7A5FD4FF4967240F29F210520FE
:1048A000FBF79EFD4FF496724FF407710620FBF75D
:1048B00097FDFBF771FD4FF49670FDF797FC4FF4F1
:1048C000967240F2F5110120FBF78AFD4FF49672C3
:1048D00040F2EB110220FBF783FD4FF496724FF488
:1048E000B4710320FBF77CFD4FF4967240F2F11196
:1048F0000420FBF775FD4FF4967240F2AB210520C2
:10490000FBF76EFD4FF4967240F226210620FBF76E
:1049100067FD4FF4967240F2EF110720FBF760FD40
:104920004FF4967240F253310820FBF759FD4FF4D3
:104930009672F4210920FBF753FD4FF496724FF461
:10494000FD710A20FBF74CFDFBF726FD4FF47A7052
:10495000FDF74CFC4FF47A70FDF748FC4FF47A7089
:10496000FDF744FC10BD00E010080810E000000F47
:10497000102020100F00001010F800000000002090
:10498000203F2020000000700808088870000030D8
:104990002824222130000030088888483000001880
:1049A000202020110E000000C02010F80000000799
:1049B0000424243F240000F808888808080000190F
:1049C000212020110E0000E0108888180000000F40
:1049D000112020110E0000380808C8380800000017
:1049E000003F000000000070880808887000001C6C
:1049F000222121221C0000E010080810E000000025
:104A0000312222110F0000000000000000000030E1
:104A10003000000000000878880000C83808000056
:104A200007380E010000000000000080C040404038
:104A3000C080000000000000F0FE0F010000000038
:104A4000000107FEF00000001FFFE0000000000072
:104A50000000C0FF1F000000000001030604040462
:104A60000603010000000000000000000080C000FC
:104A700000000000000000000001010101FFFF0034
:104A800000000000000000000000000000FFFF0028
:104A900000000000000000000004040406070706F0
:104AA000040404000000000000008040404040403A
:104AB000C0808000000000001E19000000000000FF
:104AC00000C17F3E0000000000804020100804026A
:104AD000010000E0000000000706060606060606C4
:104AE000060607010000000000808040404040C0F2
:104AF00080800000000000000F0F0000808080C058
:104B0000613F1E0000000000E0E000000000000126
:104B10000103FE7800000000010302040404040401
:104B200002030100000000000000000000000080FF
:104B3000C0C000000000000000008060300C02FFD8
:104B4000FFFF0000000000101C121110101010FFD9
:104B5000FFFF101010000000000000000808080F00
:104B60000F0F0808080000000000C0C0C0C0C0C08F
:104B7000C0C0C0C00000000000F8874020202020F6
:104B800060C0800000000000E06100000000000044
:104B90000080FF7E000000000102040404040404FD
:104BA00002030100000000000000000080C040403F
:104BB0004040800000000000E0FC0E81804040404A
:104BC00040C08303000000003FFFC301000000005D
:104BD000000001FF7E000000000001030604040441
:104BE000040203010000000000C0C0C0C0C0C0C07B
:104BF000C0C0C0C0000000000F03010000008060C2
:104C0000180601000000000000000000E0FC0300A6
:104C10000000000000000000000000000707000086
:104C20000000000000000000000080C04040404044
:104C3000C0800000000000001E3F71E0C080808046
:104C400080613F1E000000F8FC0603010001010323
:104C5000070EFCF800000000010302040404040431
:104C600002030100000000000080804040404040FE
:104C700080000000000000FCFF03000000000000B6
:104C80000083FEF80000000081830604040404028F
:104C900083F17F0F000000000303040404040603F3
:104CA0000100000000000000000000000000000003
:104CB00000000000000000000000000000000000F4
:104CC00000000000000000000080800000000000E4
:104CD00000000000000000000307070300000000C0
:104CE000000000000000004040C0C0400000000084
:104CF000004040C04040000000033FFCC0000000F6
:104D000000C03C0300000000000000031FFEE0E0C4
:104D10001E03000000000000000000000001070169
:104D20000000000000000000484D000800000020C6
:104D300040010000B8010008204E0008400100209A
:104D40000806000010140008412D0102030404109D
:104D500009060708090204060884A24A0469180122
:104D600016100A8088898EF88C8B888016FE0222A5
:104D7000DA0620094020100C0304083026FF081032
:104D8000080712E012FF1320C02AFE0522FF45810A
:104D900040300F423F19104A20015AFF08113B8052
:104DA0008042111008030C10204080801808403009
:104DB0001196909091041698141350302A04013ED5
:104DC00044847E06050A111C1010F11C100A1028DC
:104DD0002724E42424E4041F80601F40807F0627EA
:104DE000207F44444440100F1088C433105454545E
:104DF000FF54547C10101B0201761E10121212FF79
:104E00000432108B04840119F4598869012149D7AF
:104E100039AC5119D71688472018071B0718A1313C
:0400000508000131BD
:00000001FF
