:020000040800F2
:1000000048070020450100084D0100084F01000885
:1000100051010008530100085501000800000000CC
:100020000000000000000000000000005701000870
:1000300059010008000000005B0100085D01000894
:100040005F0100085F0100085F0100085F01000810
:100050005F0100085F0100085F0100085F01000800
:100060005F0100085F0100085F0100085F010008F0
:100070005F0100085F0100085F0100085F010008E0
:100080005F0100085F0100085F0100085F010008D0
:100090005F0100085F0100085F0100085F010008C0
:1000A0005F0100085F0100085F0100085F010008B0
:1000B000610F00085F0100085F0100085F01000890
:1000C0005F0100085F0100085F0100085F01000890
:1000D0005F010008DD1000085F0100085F010008F3
:1000E0005F0100085F0100085F0100085F01000870
:1000F0005F0100085F0100085F0100085F01000860
:100100005F0100085F0100085F0100085F0100084F
:100110005F0100085F0100085F0100085F0100083F
:100120005F0100085F0100085F0100085F0100082F
:10013000DFF80CD000F02EF800480047D91E000868
:10014000480700200648804706480047FEE7FEE7CC
:10015000FEE7FEE7FEE7FEE7FEE7FEE7FEE7FEE777
:10016000010F00083101000830B50B4601460020A0
:100170002022012409E021FA02F59D4205D303FA69
:1001800002F5491B04FA02F52844151EA2F10102EA
:10019000F1DC30BD064C074D06E0E06840F001039D
:1001A00094E8070098471034AC42F6D3FFF7C4FF39
:1001B000D8250008F825000870B58C1810F8015BE8
:1001C00015F0070301D110F8013B2A1106D110F8F0
:1001D000012B03E010F8016B01F8016B5B1EF9D1F4
:1001E0002B0705D40023521E0DD401F8013BFAE77A
:1001F00010F8013BCB1A921C03E013F8015B01F8E5
:10020000015B521EF9D5A142D8D3002070BD21B1A7
:10021000826842F00102826003E0826822F00102FB
:100220008260704721B1826842F48072826003E08C
:10023000826822F4807282607047014600208A68DA
:1002400002F004020AB1012000E0002070470146DC
:1002500000208A6802F008020AB1012000E00020B4
:100260007047000030B502460020002350680F4C54
:1002700020400D790C6844EA0524204350609068C2
:100280000B4C2040D1E902542C434D7944EA4504FB
:1002900020439060D06A20F470000C7C641EE4B2AD
:1002A000234340EA0350D06230BD0000FFFEF0FF60
:1002B000FDF7F1FFF0B504460D4600200021092DA1
:1002C00011DDE068A5F10A0606EB4607072606FAE7
:1002D00007F18843A5F10A0606EB460603FA06F184
:1002E0000843E0600CE0206905EB4507072606FAA5
:1002F00007F1884305EB450603FA06F10843206140
:10030000072A0FDA606B561E06EB86071F2606FAD1
:1003100007F18843561E06EB860605FA06F10843E8
:10032000606322E00D2A0FDA206BD61F06EB8607EA
:100330001F2606FA07F18843D61F06EB860605FA44
:1003400006F10843206310E0E06AA2F10D0606EB17
:1003500086071F2606FA07F18843A2F10D0606EB71
:10036000860605FA06F10843E062F0BD816841F0B7
:1003700008018160704721B1826842F4A002826066
:1003800003E0826822F4A00282607047816841F035
:10039000040181607047000010B50024FF2000F0C8
:1003A000D1FCFF2000F0CEFCFE2000F0CBFC0220B0
:1003B00000F0C8FC052000F0C5FC0524E043C4B2F1
:1003C000204600F0BFFC00BF0448008800F0400059
:1003D0000028F9D0022001F01FFD10BD00380140B7
:1003E0002DE9FC5F06460C4615460027B846B9467F
:1003F000BA46BB460020019000902F46A0464FEA27
:10040000272907F0FF0A4FEA282B08F0FF00019088
:10041000FF2000F097FCFF2000F094FC304600F035
:1004200091FC072000F08EFC042000F08BFC1E20C5
:1004300000F088FC019800F085FC584600F082FC32
:10044000504600F07FFC484600F07CFC06F1290095
:1004500001990844584450444844C0B20090009860
:10046000C043C0B20090009800F06CFC00BF05488B
:10047000008800F040000028F9D0022001F0CCFCF8
:10048000BDE8FC9F0038014021B1026842F0010242
:10049000026004E002684FF6FE731A400260704783
:1004A00001684FF6FE721140016000210160416059
:1004B0008160C1604B49884208D14A49083949687E
:1004C00041F00F01474A083A51608AE0454914312A
:1004D000884208D143490839496841F0F001414A4E
:1004E000083A51607DE03F492831884208D13D49B2
:1004F0000839496841F470613A4A083A516070E03D
:1005000038493C31884208D136490839496841F4B4
:100510007041344A083A516063E0324950318842B0
:1005200008D130490839496841F470212D4A083A08
:10053000516056E02B496431884208D12949083975
:10054000496841F47001274A083A516049E0254959
:100550007831884208D123490839496841F07061EF
:10056000204A083A51603CE01F49884206D1011FE9
:10057000096841F00F01021F116032E01A4914317D
:10058000884208D11849091F096841F0F001164A4C
:10059000121F116025E014492831884208D1124900
:1005A000091F096841F470610F4A121F116018E0B9
:1005B0000D493C31884208D10B49091F096841F4B3
:1005C0007041094A121F11600BE0074950318842FF
:1005D00007D10549091F096841F47021024A121F19
:1005E00011607047080002400804024010B5002264
:1005F000026847F6F0739A430C6A8B6823430C69D0
:1006000023434C6923438C692343CC6923434C6ABD
:1006100023438C6A23431A430260CB6843600B6810
:1006200083604B68C36010BD08B501210D2000F048
:100630000FFB0121124800F0B5F80C20ADF80000C6
:1006400003208DF8020010208DF8030069460D4844
:1006500000F01CF80C210B4800F0EEF80420ADF877
:10066000000002208DF8020010208DF8030069467A
:10067000054800F00BF80421034800F0DBF808BD42
:100680000002300000080140000C01402DE9F0415B
:10069000024600250026002000230024002791F8B0
:1006A00003C00CF00F0591F803C00CF0100CBCF166
:1006B000000F03D091F802C04CEA050591F800C084
:1006C000BCF1000F31D0146800202BE04FF0010C7A
:1006D0000CFA00F3B1F800C00CEA03069E4220D1E8
:1006E00083004FF00F0C0CFA03F7BC4305FA03FC30
:1006F0004CEA040491F803C0BCF1280F06D14FF076
:10070000010C0CFA00FCC2F814C00AE091F803C016
:10071000BCF1480F05D14FF0010C0CFA00FCC2F8F7
:1007200010C0401C0828D1D31460B1F800C0BCF13F
:10073000FF0F34DD546800202EE000F1080C4FF06C
:10074000010808FA0CF3B1F800C00CEA03069E4257
:1007500021D183004FF00F0C0CFA03F7BC4305FACC
:1007600003FC4CEA040491F803C0BCF1280F05D146
:1007700000F1080C08FA0CF8C2F8148091F803C0D4
:10078000BCF1480F07D100F1080C4FF0010808FA3E
:100790000CF8C2F81080401C0828CED35460BDE885
:1007A000F0810000F0B50A46002300240021002556
:1007B00000F00046B6F1004F02D11D4EF16901E094
:1007C0001B4E7168C0F3034583B200F44016B6F5C2
:1007D000401F08D121F07061154E766826F07066D2
:1007E000134F7E6012E000F48016B6F5801F06D12C
:1007F000032606FA05F4A14341F0706106E0460DB8
:10080000360103FA06F6B14341F0706122B1460D9C
:10081000360103FA06F6314300F00046B6F1004F08
:1008200002D1034EF16101E0014E7160F0BD0000A4
:1008300000000140416170470161704710B50F48E9
:10084000006820F470600D4908600846006840F4B4
:100850004070086001200A4908600A49C1F88C010B
:10086000042001F005FB002005490860042001F088
:10087000FFFA00200349C1F88C0110BD00080140B7
:10088000880121420000214210B50F48006820F481
:1008900070600D4908600846006840F440700860C8
:1008A00000200A4908600A49C1F88801042001F0C3
:1008B000DFFA0120054908600549C1F888010420D4
:1008C00001F0D6FA10BD0000000801408C01214261
:1008D0000000214210B50848006800F0040028B16B
:1008E000042105480838FFF7A5FF04E00421024869
:1008F0000838FFF7A1FF10BD080C014000B500202B
:1009000015490861C8601420486100208861C861E9
:100910000846006840F001000860084640680F493A
:1009200008400D494860084600680D4908400A49DA
:1009300008600846006820F4802008600846406887
:1009400020F4FE0048600020886000214FF0006025
:1009500000F008F800BD0000001002400000FFF8A1
:10096000FFFFF6FE024A0A400243024B1A6070473C
:1009700080FFFF1F08ED00E070B5002100230F226B
:10098000C47804B3154C246804F4E064C4F5E0644E
:10099000210AC1F10403CA40447804FA03F18478BF
:1009A0001440214309010E4C0678A155047804F047
:1009B0001F050124AC4005786D11AD0005F1E0255F
:1009C000C5F8004109E0047804F01F050124AC409B
:1009D000044D0678761145F8264070BD0CED00E018
:1009E00000E400E080E100E002490143024A1160B6
:1009F000704700000000FA050CED00E070B50646F7
:100A0000002415E004F1B001C8B200F078FC002029
:100A100000F075FC102000F072FC002504E0304668
:100A200000F07DFC681CC5B2802DF8DB601CC4B2F0
:100A3000082CE7DB70BD10B5AE2000F060FCD520BF
:100A400000F05DFCF02000F05AFCA82000F057FCFC
:100A50003F2000F054FCD32000F051FC002000F0B7
:100A60004EFC402000F04BFC8D2000F048FC142090
:100A700000F045FCAF2000F042FC102000F03FFCED
:100A8000A12000F03CFCC82000F039FCDA2000F086
:100A900036FC122000F033FC812000F030FCFF20F7
:100AA00000F02DFCD92000F02AFC222000F027FCC9
:100AB000DB2000F024FC302000F021FCA42000F01A
:100AC0001EFCA62000F01BFCAF2000F018FC20202C
:100AD00000F015FCB02000F012FC002000F00FFC2C
:100AE000102000F00CFC10BD70B504460D4605F159
:100AF000B001C8B200F003FC102141EA141000F06C
:100B0000FEFB04F00F0141F0010000F0F8FB70BDA6
:100B10002DE9F04180460E46174600247D013146FE
:100B20004046FFF7E1FF00BF06E00D49485D00F0D9
:100B3000F6FB6D1C601CC4B2102CF6DB701CC1B23D
:100B40004046FFF7D1FF002406E00549485D00F06C
:100B5000E6FB6D1C601CC4B2102CF6DBBDE8F08116
:100B60003E0000202DE9F04180460E461746002445
:100B7000BD0131464046FFF7B7FF00BF06E01D4903
:100B8000485D00F0CCFB6D1C601CC4B2102CF6DB81
:100B9000701CC1B24046FFF7A7FF002406E01549CC
:100BA000485D00F0BCFB6D1C601CC4B2102CF6DB71
:100BB000B01CC1B24046FFF797FF002406E00D4984
:100BC000485D00F0ACFB6D1C601CC4B2102CF6DB61
:100BD000F01CC1B24046FFF787FF002406E005493C
:100BE000485D00F09CFB6D1C601CC4B2102CF6DB51
:100BF000BDE8F081D622000801460020034A506873
:100C000020F440400843506070470000001002404C
:100C100029B1064A52690243044B5A6104E0034A6F
:100C200052698243014B5A61704700000010024034
:100C300029B1064AD2690243044BDA6104E0034A4F
:100C4000D2698243014BDA61704700000010024014
:100C500029B1064A92690243044B9A6104E0034AAF
:100C600092698243014B9A61704700000010024074
:100C700030B500210022002400232D4D6D6805F0C1
:100C80000C0121B1042905D0082923D105E0294D03
:100C9000056022E0274D05601FE0254D6D6805F4D5
:100CA0007012234D6D6805F48034022505EB9242E5
:100CB0001CB9214D554305600BE01D4D6D6805F4D1
:100CC00000351DB11C4D5543056002E0194D5543DB
:100CD000056002E0174D056000BF00BF144D6D6850
:100CE00005F0F0010909154D6B5C0568DD404560B4
:100CF0000F4D6D6805F4E061090A104D6B5C4568A5
:100D0000DD4085600A4D6D6805F46051C90A0B4DE0
:100D10006B5C4568DD40C560054D6D6805F440417C
:100D2000890B074D6B5CC568B5FBF3F5056130BDFC
:100D30000010024000127A0000093D00000000206F
:100D4000100000200549088000BF0449091F0988D8
:100D500001F040010029F8D070470000043801403C
:100D600010B500F001F810BD0CB500200190009006
:100D70003348006840F480303149086000BF304893
:100D8000006800F4003000900198401C0190009829
:100D900018B90198B0F5A06FF1D12948006800F4A6
:100DA000003010B10120009001E000200090009878
:100DB000012843D12348006840F010002149086011
:100DC0000846006820F0030008600846006840F00C
:100DD000020008601A48406819494860084640689F
:100DE00048600846406840F48060486008464068B3
:100DF00020F47C1048600846406840F4E8104860E1
:100E00000846006840F08070086000BF0C48006829
:100E100000F000700028F9D00948406820F0030075
:100E2000074948600846406840F00200486000BF3B
:100E30000348406800F00C000828F9D10CBD000000
:100E4000001002400020024030B504460025FFF7A4
:100E500055FD1F48006840F480301D49086000BF00
:100E60001B480068400C0028FAD04FF480601849F5
:100E70004860A01EC4B20846406840EA844048600A
:100E80000846406840F4803048601248006840F0EE
:100E90003200104908600E48006840F080700C492C
:100EA000086000BF0A480068400E0028FAD00848D1
:100EB000406840F002000649486005E00448406888
:100EC000C0F3870505F00305022DF7D130BD000002
:100ED0000010024000200240042808D14FF0E02119
:100EE000096941F004014FF0E022116107E04FF081
:100EF000E021096921F004014FF0E02211617047FF
:100F000010B51348006840F0010011490860084618
:100F10004068104908400E494860084600680E497C
:100F200008400B4908600846006820F480200860EB
:100F30000846406820F4FE0048604FF41F008860B7
:100F4000FFF70EFF4FF000600449086010BD00007D
:100F5000001002400000FFF8FFFFF6FE08ED00E081
:100F600010B50121880700F04CF8012808D10121B3
:100F7000800700F037F803480068401C014908600A
:100F800010BD0000280000201FB501210846FFF712
:100F90004FFE1C208DF8000000208DF801008DF818
:100FA000020001208DF803006846FFF7E5FC42F2DD
:100FB0000F70ADF808004720ADF804000020ADF830
:100FC0000600ADF80A0001A94FF0804000F034F8A7
:100FD00001221146900700F025F80121880700F052
:100FE00004F81FBDCA430282704721B1028842F053
:100FF0000102028004E002884FF6FE731A4002806C
:10100000704730B50246002000230024158A05EA07
:101010000103958905EA010413B10CB1012000E038
:10102000002030BD1AB183890B43838102E083899C
:101030008B43838170470000002202881D4B984239
:101040000ED01D4B98420BD0B0F1804F08D01B4BF7
:10105000984205D01A4B984202D01A4B984204D1BC
:101060004FF68F731A404B881A43174B984207D09C
:10107000164B984204D04FF6FF431A40CB881A43D0
:1010800002808B8883850B8803850A4B98420BD09E
:10109000094B984208D00E4B984205D00D4B984210
:1010A00002D00D4B984201D10B7A03860123838233
:1010B00070470000002C0140003401400004004053
:1010C00000080040000C00400010004000140040E8
:1010D00000400140004401400048014010B540F28A
:1010E00025511D4800F04AF810B31B4800F002F9E2
:1010F000C4B21A48008800F40040C8B917480088F4
:1011000000F4804060B10A2C03D00020134908800D
:1011100020E01248008840F400401049088019E09F
:101120000D2C06D10D48008840F480400B49088002
:1011300010E00A480088C0F30D0009490C54074824
:101140000088401C0549088008460088C72801DD42
:101150000020088010BD0000003801403C00002045
:101160008002002021B1828942F40052828104E091
:1011700082894DF6FF731A408281704770B502462E
:10118000002400230025002040F66A16B14200D159
:1011900000BFC1F3421501F01F03012606FA03F355
:1011A000012D02D19689334006E0022D02D1168A24
:1011B000334001E0968A33400C12012606FA04F40B
:1011C0001688344013B10CB1012000E0002070BD3E
:1011D000F0B50346002400260025002040F66A17DB
:1011E000B94200D100BF1846C1F3421401F01F06F6
:1011F000012707FA06F5012C01D10C3004E0022C7E
:1012000001D1103000E014301AB107682F43076095
:1012100002E00768AF430760F0BD00002DE9F0472A
:1012200086B005460E460024A24600BFA146002710
:10123000B08900B100BF2F462C8A4CF6FF700440E5
:10124000F08804432C82AC894EF6F3100440B08839
:1012500031890843718908430443AC81AC8A4FF655
:10126000FF400440B0890443AC8201A8FFF700FDB1
:101270001F48874202D1DDF810A001E0DDF80CA084
:10128000A88900F4004040B10AEBCA0000EB0A1044
:1012900031684900B0FBF1F807E00AEBCA0000EB47
:1012A0000A1031688900B0FBF1F86420B8FBF0F057
:1012B00004012009642101FB1089A88900F4004081
:1012C00040B1322000EBC900B0FBF1F000F00700A4
:1012D000044308E0322000EB09106421B0FBF1F078
:1012E00000F00F0004432C8106B0BDE8F087000039
:1012F0000038014001468888C0F30800704710B5E7
:101300000446FFF79BFA782000F01AF8002000F05E
:1013100017F8204600F014F8FFF7B6FA10BD10B524
:101320000446FFF78BFA782000F00AF8402000F01E
:1013300007F8204600F004F8FFF7A6FA10BD0000F9
:1013400070B504462348006820F4706021490860A5
:101350000846006840F44070086000201E4908609C
:1013600000251FE004F0800020B101201A49091F68
:10137000086003E000201849091F08606006040E99
:10138000022000F075FD012013490860022000F0E2
:101390006FFD00201149C1F88C01022000F068FDAA
:1013A000681CC5B2082DDDDB01200B49091F086050
:1013B000022000F05DFD01200849C1F88C010220E7
:1013C00000F056FD002004490860022000F050FDA6
:1013D00070BD0000000801408C0121420000214244
:1013E0000FB4054B10B503A9044A029800F018F891
:1013F00010BC5DF814FB0000BD1E00083800002082
:1014000002E008C8121F08C1002AFAD170477047CD
:10141000002001E001C1121F002AFBD1704700002B
:101420002DE9FF4F8BB088460546002606E02528AB
:101430000BD0DDE90D1290476D1C761C2878002832
:10144000F5D10FB03046BDE8F08F0024A146A2468A
:101450000122AE4900E0044315F8013F203B02FAA7
:1014600003F00842F7D128782A2810D06FF02F0215
:101470002878A0F13001092915D809EB890102EB80
:10148000410144F0020400EB01096D1CF0E758F83B
:10149000041B5FEA010903D544F40054C9F10009B3
:1014A00044F002046D1C28782E2817D115F8010F7E
:1014B00044F004042A280ED06FF02F022878A0F1FF
:1014C000300109290AD80AEB8A0102EB410100EB3D
:1014D000010A6D1CF2E758F804AB6D1C28786C28E3
:1014E0000FD006DC4C2817D068280DD06A2814D1FC
:1014F00004E0742810D07A280FD10DE044F40014D1
:101500000AE044F4801401E044F440146978814214
:1015100002D104F580146D1C6D1C2878692865D0F3
:1015200006DC00288DD0632827D0642806D15DE032
:101530006E2808D073282AD0752877D0DDE90D12DF
:101540009047761CE0E0C4F30250022809D003283B
:101550000DD0D8F8001004280DD00E6008F1040852
:10156000D2E0D8F80010F217C1E90062F6E7D8F827
:1015700000100E80F2E70E70F0E718F8041B8DF8EB
:10158000001000208DF80100EB46012003E058F820
:1015900004BB4FF0FF3061074FF0000701D40AE0B1
:1015A0007F1C57450DDA8742FADB1BF8071000292C
:1015B000F6D106E07F1C8742FCDB1BF807100029F0
:1015C000F8D1DDE90D23A9EB07008146214600F0A3
:1015D000B1F83044C61904E0DDE90D121BF8010B27
:1015E00090477F1EF8D22146484688E058F8040B01
:1015F000C4F302514FF00A0B032900D100B20429B1
:1016000000D140B2002802DA40422D2102E021053B
:1016100005D52B218DF82410012104E006E0E10717
:1016200010D02021F6E708AF089113E058F8040B1A
:10163000C4F302514FF00A0B032900D180B20429F0
:1016400000D1C0B20021EEE75946FEF78DFD3031E2
:1016500007F8011D0028F7D1ADEB070000F1200BC2
:10166000600702D524F4803401E04FF0010ADA4526
:1016700002DDAAEB0B0000E00020824600EB0B012C
:1016800008980144A9EB01000A90E00306D4DDE9C3
:101690000D2321460A9800F04DF806444FF000094A
:1016A00008E009A911F80900DDE90D12904709F1D8
:1016B0000109761C08998945F3DBE0030CD5DDE9C7
:1016C0000D2321460A9800F035F8064404E0DDE9D0
:1016D0000D1230209047761CBAF10001AAF1010AE0
:1016E000F5DC05E0DDE90D1217F8010B9047761CDB
:1016F000BBF10001ABF1010BF4DC0A982146DDE9F6
:101700000D2300F005F806446D1C97E6092801003A
:101710002DE9F041044600251E461746880404D4EE
:1017200005E039462020B0476D1C641EF9D52846D7
:10173000BDE8F0812DE9F041044600251E469046A3
:10174000C80301D5302700E02027880404D505E030
:1017500041463846B0476D1C641EF9D52846BDE8A1
:10176000F081000000B591B001210846FFF750FA62
:1017700001214FF40170FFF76BFA1020ADF8400023
:1017800000208DF8430010A93448FEF77FFF34484D
:10179000FEF786FE33480090334801900020029007
:1017A00010200390002004908020059040000690B7
:1017B00080000790202008900002099000200A90E5
:1017C00069462748FEF712FF01212548FEF75CFE17
:1017D00000200B908DF8300001208DF831004FF47F
:1017E00060200D9000200E9001208DF83C000BA988
:1017F0001C484C38FEF736FD4FF44040FFF7FCF92B
:1018000007230122042117484C38FEF753FD01211C
:1018100014484C38FEF706FD012112484C38FEF7FB
:10182000F6FC10484C38FEF7A1FD00BF0D484C38BF
:10183000FEF70DFD0028F9D10A484C38FEF7A6FD49
:1018400000BF08484C38FEF7F8FC0028F9D1012108
:1018500004484C38FEF78FFD11B000BD0010014068
:10186000080002404C240140400200202DE9F047CE
:101870000024002504E0344830F8150004446D1CB1
:10188000102DF8D324094FF4A4706043C0EBC001BD
:10189000C1EB80104FF42041B0FBF1F421462BA0A6
:1018A000FFF79EFD4FF47A70B4FBF0F0C6B24FF430
:1018B0007A70B4FBF0F100FB11406421B0FBF1F051
:1018C000C7B26420B4FBF0F100FB11400A21B0FB69
:1018D000F1F80A20B4FBF0F100FB1149CEB93A4609
:1018E00002211820FFF73EF90A2202212820FFF7E3
:1018F00039F9424602213820FFF734F94A460221DD
:101900004820FFF72FF90B2202215820FFF72AF970
:1019100018E0324602211820FFF724F93A46022146
:101920002820FFF71FF90A2202213820FFF71AF9B1
:10193000424602214820FFF715F94A460221582065
:10194000FFF710F9BDE8F087400200206164342001
:101950003D202534640D0A0010B54FF41672B421F1
:101960000120FEF73DFD4FF4FA7240F217110220FC
:10197000FEF736FD4FF496724FF4CF710320FEF759
:101980002FFD4FF4967240F21A210420FEF728FD35
:101990004FF4967240F281210520FEF721FD4FF4AD
:1019A00096724FF4FB710620FEF71AFD4FF4967203
:1019B00040F2EF110720FEF713FD4FF4967240F24C
:1019C00053310820FEF70CFD4FF49672F4210920E4
:1019D000FEF706FD4FF496724FF4FD710A20FEF7F4
:1019E000FFFCFEF7D9FC4FF47A7000F015FAC8221C
:1019F00040F229210320FEF7F3FCC82240F2E22145
:101A00000420FEF7EDFCC82240F2E9110520FEF7A4
:101A1000E7FCC82240F239110620FEF7E1FCFEF790
:101A2000BBFC642000F0F8F94FF4967240F291216B
:101A30000120FEF7D5FCC8227E210220FEF7D0FC53
:101A40004FF496724FF41A710320FEF7C9FC4FF45D
:101A500096724FF426710420FEF7C2FC4FF4967282
:101A60004FF4E3710520FEF7BBFC4FF496724FF480
:101A7000BA710620FEF7B4FCFEF78EFC4FF47A70C4
:101A800000F0CAF94FF47A7000F0C6F94FF496727C
:101A900040F25A310920FEF7A3FCFEF77DFC4FF41B
:101AA0007A7000F0B9F94FF4487000F0B5F94FF4CE
:101AB000487240F2EE210720FEF792FC4FF4967236
:101AC0004FF4EA710120FEF78BFC4FF49672C121AE
:101AD0000220FEF785FCFEF75FFC4FF47A7000F001
:101AE0009BF94FF4967240F2F1110720FEF778FC53
:101AF0004FF4967240F221210820FEF771FC4FF45A
:101B0000967240F227210920FEF76AFCFEF744FC9A
:101B10004FF47A7000F080F94FF4C8724FF4F4710A
:101B20000220FEF75DFC4FF496724FF457710820C7
:101B3000FEF756FC4FF49672F1210920FEF750FC97
:101B4000FEF72AFC4FF4487000F066F996224FF435
:101B500043710220FEF744FCFEF71EFC4FF47A703E
:101B600000F05AF94FF4487000F056F94B224FF448
:101B7000A0710120FEF734FCFEF70EFC4FF47A70E2
:101B800000F04AF94FF4FA7000F046F94FF49672FB
:101B90004FF434710120FEF723FC4FF496724FF49A
:101BA0003B710220FEF71CFCFEF7F6FB40F28A2098
:101BB00000F032F94FF4967240F22B210320FEF729
:101BC0000FFC4FF4967240F203210420FEF708FC4C
:101BD0004FF4967240F2E1110520FEF701FC4FF43C
:101BE00096724FF405710620FEF7FAFBFEF7D4FB60
:101BF0004FF4487000F010F94FF4967240F2E5216E
:101C00000120FEF7EDFB4FF496724FF43A7102207B
:101C1000FEF7E6FB4FF4967240F235110320FEF713
:101C2000DFFB4FF496724FF410710420FEF7D8FBDF
:101C30004FF4967240F2CA210520FEF7D1FB4FF413
:101C4000967240F2FD110620FEF7CAFBFEF7A4FBD8
:101C50004FF47A7000F0E0F84FF4967240F2AA2147
:101C60000120FEF7BDFB4FF496724FF4397102204C
:101C7000FEF7B6FB4FF496724FF4AD710320FEF7FA
:101C8000AFFB4FF4967240F231210420FEF7A8FB1F
:101C90004FF496724FF43A710520FEF7A1FB4FF412
:101CA000967240F2E3110620FEF79AFBFEF774FBF2
:101CB0004FF4967000F0B0F84FF4967240F2F511C0
:101CC0000120FEF78DFB4FF4C87240F2EB110220A9
:101CD000FEF786FB4FF496724FF4B4710320FEF7C3
:101CE0007FFB4FF4967240F2F1110420FEF778FB6F
:101CF0004FF4967240F2AB210520FEF771FB4FF4D2
:101D0000967240F226210620FEF76AFB4FF4967287
:101D100040F2EF110720FEF763FB4FF4967240F29A
:101D200053310820FEF75CFB4FF49672F421092032
:101D3000FEF756FB4FF496724FF4FD710A20FEF742
:101D40004FFBFEF729FB4FF47A7000F065F84FF473
:101D5000FA7000F061F810BD10B54FF496724FF4B0
:101D6000C4710320FEF73CFB4FF496724FF4DA7116
:101D70000420FEF735FB4FF4967240F297210520C0
:101D8000FEF72EFB4FF496724FF41E710620FEF7FD
:101D900027FBFEF701FB4FF4967000F03DF84FF47F
:101DA000AF7240F249110220FEF71AFBFEF7F4FA77
:101DB0004FF4167000F030F84FF4AF7240F2EB11B0
:101DC0000220FEF70DFBFEF7E7FA4FF4FA7000F081
:101DD00023F810BD10B56FF00400FFF77DF80A4836
:101DE00000680A49B0FBF1F009490870084600781C
:101DF00000EB4001C1EBC0104FF6FF7101EAC000DB
:101E00000449088010BD00001400002000127A0070
:101E100034000020360000200146114A12884A434F
:101E20004FF0E0235A6100229A611A46126942F08B
:101E300001021A6100BF4FF0E022106900F00102B8
:101E40001AB100F48032002AF5D04FF0E022126976
:101E500022F001024FF0E0231A6100229A617047DC
:101E60003600002000BF011EA0F10100FBD1704729
:101E70000146114A12784A434FF0E0235A6100228A
:101E80009A611A46126942F001021A6100BF4FF0CE
:101E9000E022106900F001021AB100F48032002A39
:101EA000F5D04FF0E022126922F001024FF0E0235A
:101EB0001A6100229A6170473400002000BF054A71
:101EC000128802F04002002AF9D0C2B2014B1B1D59
:101ED0001A807047003801404FF4A060FEF784FD7F
:101EE000FEF7A2FB4FF4E13000F0DEF8FFF73AFC1A
:101EF000FFF770FF3F48FFF7B5FFFFF745F83EA03B
:101F0000FFF76EFAFEF797FDFF20FEF777FD3E48DC
:101F1000FFF7A8FF0020FEF771FD3C48FFF7A2FF86
:101F2000002211461046FEF7F3FD01220021102089
:101F3000FEF7EEFD022200212020FEF7E9FD03223C
:101F400000213020FEF7E4FD042200214020FEF7AE
:101F5000DFFD052200215020FEF7DAFD06220021D8
:101F60006020FEF7D5FD072200217020FEF7D0FD8E
:101F70000920FEF769FFFFF72DFF4FF4E13000F075
:101F800093F836E022480068322806D30020204922
:101F90000860FEF79FFCFFF769FC00F03BF84FF488
:101FA0007A70FFF739FF00F035F84FF47A70FFF7D9
:101FB00033FFFFF7D1FCFFF7CFFE00F0C5F841F289
:101FC0008830FFF729FF00F025F841F28830FFF74D
:101FD00023FF41F28830FFF71FFF09E000F01AF8F5
:101FE00041F28830FFF718FF41F28830FFF714FF05
:101FF000F4E7C7E7FFFF3F00496E6974204F4B21AC
:1020000021210D0A00000000FFFF1F00FFFF0F004D
:102010002800002010B54FF4967240F2E311012021
:10202000FEF7DEF94FF496724FF4F8710220FEF7D6
:10203000D7F94FF496724FF4C4710320FEF7D0F92C
:102040004FF496724FF4DA710420FEF7C9F94FF499
:10205000967240F297210520FEF7C2F94FF496726E
:102060004FF41E710620FEF7BBF94FF4967240F252
:10207000EF110720FEF7B4F94FF4967240F2533196
:102080000820FEF7ADF94FF49672F4210920FEF70F
:10209000A7F94FF496724FF4FD710A20FEF7A0F9EC
:1020A000FEF77AF910BD000010B586B00446012194
:1020B00044F20400FEF7CCFD4FF40070ADF81400BC
:1020C00003208DF8160018208DF8170005A91C486C
:1020D000FEF7DCFA4FF48060ADF8140004208DF8B0
:1020E000170005A91648FEF7D1FA25208DF8000043
:1020F00003208DF801008DF8020001208DF8030007
:102100006846FEF739FC01940020ADF80800ADF8F0
:102110000A00ADF80C00ADF810000C20ADF80E0070
:1021200001A90848FFF77AF8012240F22551054835
:10213000FFF74EF801210348FFF714F806B010BD71
:10214000000801400038014010B54FF4967240F28B
:10215000E6210320FEF744F9FEF71EF94FF448701C
:10216000FFF75AFE4FF4E17240F22A310420FEF7E5
:1021700037F94FF496724FF44D710320FEF730F9A2
:10218000FEF70AF94FF44870FFF746FE4FF4E1728C
:102190004FF4FF710420FEF723F94FF4967240F2DA
:1021A000E6210320FEF71CF9FEF7F6F84FF448701D
:1021B000FFF732FE4FF4E17240F22A310420FEF7BD
:1021C0000FF94FF496724FF44D710320FEF708F9A2
:1021D000FEF7E2F84FF44870FFF71EFE4FF49672D8
:1021E0004FF4C4710320FEF7FBF84FF4E1724FF493
:1021F000DA710420FEF7F4F8FEF7CEF84FF47A70A7
:10220000FFF70AFE4FF47A70FFF706FE4FF47A707C
:10221000FFF702FE10BD00E010080810E000000FFC
:10222000102020100F00001010F800000000002007
:10223000203F20200000007008080888700000304F
:1022400028242221300000300888884830000018F7
:10225000202020110E000000C02010F80000000710
:102260000424243F240000F8088888080800001986
:10227000212020110E0000E0108888180000000FB7
:10228000112020110E0000380808C838080000008E
:10229000003F000000000070880808887000001CE3
:1022A000222121221C0000E010080810E00000009C
:1022B000312222110F000000000000000000003059
:1022C0003000000000000878880000C838080000CE
:1022D00007380E010000000000000080C0404040B0
:1022E000C080000000000000F0FE0F0100000000B0
:1022F000000107FEF00000001FFFE00000000000EA
:102300000000C0FF1F0000000000010306040404D9
:102310000603010000000000000000000080C00073
:1023200000000000000000000001010101FFFF00AB
:1023300000000000000000000000000000FFFF009F
:102340000000000000000000000404040607070667
:1023500004040400000000000000804040404040B1
:10236000C0808000000000001E1900000000000076
:1023700000C17F3E000000000080402010080402E1
:10238000010000E00000000007060606060606063B
:10239000060607010000000000808040404040C069
:1023A00080800000000000000F0F0000808080C0CF
:1023B000613F1E0000000000E0E00000000000019E
:1023C0000103FE7800000000010302040404040479
:1023D0000203010000000000000000000000008077
:1023E000C0C000000000000000008060300C02FF50
:1023F000FFFF0000000000101C121110101010FF51
:10240000FFFF101010000000000000000808080F77
:102410000F0F0808080000000000C0C0C0C0C0C006
:10242000C0C0C0C00000000000F88740202020206D
:1024300060C0800000000000E061000000000000BB
:102440000080FF7E00000000010204040404040474
:1024500002030100000000000000000080C04040B6
:102460004040800000000000E0FC0E8180404040C1
:1024700040C08303000000003FFFC30100000000D4
:10248000000001FF7E0000000000010306040404B8
:10249000040203010000000000C0C0C0C0C0C0C0F2
:1024A000C0C0C0C0000000000F0301000000806039
:1024B000180601000000000000000000E0FC03001E
:1024C00000000000000000000000000007070000FE
:1024D0000000000000000000000080C040404040BC
:1024E000C0800000000000001E3F71E0C0808080BE
:1024F00080613F1E000000F8FC060301000101039B
:10250000070EFCF8000000000103020404040404A8
:102510000203010000000000008080404040404075
:1025200080000000000000FCFF030000000000002D
:102530000083FEF800000000818306040404040206
:1025400083F17F0F0000000003030404040406036A
:10255000010000000000000000000000000000007A
:10256000000000000000000000000000000000006B
:10257000000000000000000000808000000000005B
:102580000000000000000000030707030000000037
:10259000000000000000004040C0C04000000000FB
:1025A000004040C04040000000033FFCC00000006D
:1025B00000C03C0300000000000000031FFEE0E03C
:1025C0001E030000000000000000000000010701E1
:1025D0000000000000000000F825000800000020B6
:1025E00040010000B8010008D0260008400100208A
:1025F0000806000010140008412D01020304041015
:1026000009060708090204060884A24A0469180199
:1026100016100A8088898EF88C8B888016FE02221C
:10262000DA0620094020100C0304083026FF0810A9
:10263000080712E012FF1320C02AFE0522FF458181
:1026400040300F423F19104A20015AFF08113B80C9
:102650008042111008030C10204080801808403080
:102660001196909091041698141350302A04013E4C
:1026700044847E06050A111C1010F11C100A102853
:102680002724E42424E4041F80601F40807F062761
:10269000207F44444440100F1088C43310545454D5
:1026A000FF54547C10101B0201761E10121212FFF0
:1026B0000442108A080131CA10012149D739AC51AE
:1026C00019D71688472018071B0718A131000000EA
:0400000508000131BD
:00000001FF
