:020000040800F2
:1000000048070020450100084D0100084F01000885
:1000100051010008530100085501000800000000CC
:100020000000000000000000000000005701000870
:1000300059010008000000005B0100085D01000894
:100040005F0100085F0100085F0100085F01000810
:100050005F0100085F0100085F0100085F01000800
:100060005F0100085F0100085F0100085F010008F0
:100070005F0100085F0100085F0100085F010008E0
:100080005F0100085F0100085F0100085F010008D0
:100090005F0100085F0100085F0100085F010008C0
:1000A0005F0100085F0100085F0100085F010008B0
:1000B000610F00085F0100085F0100085F01000890
:1000C0005F0100085F0100085F0100085F01000890
:1000D0005F010008DD1000085F0100085F010008F3
:1000E0005F0100085F0100085F0100085F01000870
:1000F0005F0100085F0100085F0100085F01000860
:100100005F0100085F0100085F0100085F0100084F
:100110005F0100085F0100085F0100085F0100083F
:100120005F0100085F0100085F0100085F0100082F
:10013000DFF80CD000F02EF8004800471126000828
:10014000480700200648804706480047FEE7FEE7CC
:10015000FEE7FEE7FEE7FEE7FEE7FEE7FEE7FEE777
:10016000010F00083101000830B50B4601460020A0
:100170002022012409E021FA02F59D4205D303FA69
:1001800002F5491B04FA02F52844151EA2F10102EA
:10019000F1DC30BD064C074D06E0E06840F001039D
:1001A00094E8070098471034AC42F6D3FFF7C4FF39
:1001B000904F0008B04F000870B58C1810F8015B24
:1001C00015F0070301D110F8013B2A1106D110F8F0
:1001D000012B03E010F8016B01F8016B5B1EF9D1F4
:1001E0002B0705D40023521E0DD401F8013BFAE77A
:1001F00010F8013BCB1A921C03E013F8015B01F8E5
:10020000015B521EF9D5A142D8D3002070BD21B1A7
:10021000826842F00102826003E0826822F00102FB
:100220008260704721B1826842F48072826003E08C
:10023000826822F4807282607047014600208A68DA
:1002400002F004020AB1012000E0002070470146DC
:1002500000208A6802F008020AB1012000E00020B4
:100260007047000030B502460020002350680F4C54
:1002700020400D790C6844EA0524204350609068C2
:100280000B4C2040D1E902542C434D7944EA4504FB
:1002900020439060D06A20F470000C7C641EE4B2AD
:1002A000234340EA0350D06230BD0000FFFEF0FF60
:1002B000FDF7F1FFF0B504460D4600200021092DA1
:1002C00011DDE068A5F10A0606EB4607072606FAE7
:1002D00007F18843A5F10A0606EB460603FA06F184
:1002E0000843E0600CE0206905EB4507072606FAA5
:1002F00007F1884305EB450603FA06F10843206140
:10030000072A0FDA606B561E06EB86071F2606FAD1
:1003100007F18843561E06EB860605FA06F10843E8
:10032000606322E00D2A0FDA206BD61F06EB8607EA
:100330001F2606FA07F18843D61F06EB860605FA44
:1003400006F10843206310E0E06AA2F10D0606EB17
:1003500086071F2606FA07F18843A2F10D0606EB71
:10036000860605FA06F10843E062F0BD816841F0B7
:1003700008018160704721B1826842F4A002826066
:1003800003E0826822F4A00282607047816841F035
:10039000040181607047000010B50024FF2000F0C8
:1003A000D1FCFF2000F0CEFCFE2000F0CBFC0220B0
:1003B00000F0C8FC052000F0C5FC0524E043C4B2F1
:1003C000204600F0BFFC00BF0448008800F0400059
:1003D0000028F9D0022001F009FF10BD00380140CB
:1003E0002DE9FC5F06460C4615460027B846B9467F
:1003F000BA46BB460020019000902F46A0464FEA27
:10040000272907F0FF0A4FEA282B08F0FF00019088
:10041000FF2000F097FCFF2000F094FC304600F035
:1004200091FC072000F08EFC042000F08BFC1E20C5
:1004300000F088FC019800F085FC584600F082FC32
:10044000504600F07FFC484600F07CFC06F1290095
:1004500001990844584450444844C0B20090009860
:10046000C043C0B20090009800F06CFC00BF05488B
:10047000008800F040000028F9D0022001F0B6FE0C
:10048000BDE8FC9F0038014021B1026842F0010242
:10049000026004E002684FF6FE731A400260704783
:1004A00001684FF6FE721140016000210160416059
:1004B0008160C1604B49884208D14A49083949687E
:1004C00041F00F01474A083A51608AE0454914312A
:1004D000884208D143490839496841F0F001414A4E
:1004E000083A51607DE03F492831884208D13D49B2
:1004F0000839496841F470613A4A083A516070E03D
:1005000038493C31884208D136490839496841F4B4
:100510007041344A083A516063E0324950318842B0
:1005200008D130490839496841F470212D4A083A08
:10053000516056E02B496431884208D12949083975
:10054000496841F47001274A083A516049E0254959
:100550007831884208D123490839496841F07061EF
:10056000204A083A51603CE01F49884206D1011FE9
:10057000096841F00F01021F116032E01A4914317D
:10058000884208D11849091F096841F0F001164A4C
:10059000121F116025E014492831884208D1124900
:1005A000091F096841F470610F4A121F116018E0B9
:1005B0000D493C31884208D10B49091F096841F4B3
:1005C0007041094A121F11600BE0074950318842FF
:1005D00007D10549091F096841F47021024A121F19
:1005E00011607047080002400804024010B5002264
:1005F000026847F6F0739A430C6A8B6823430C69D0
:1006000023434C6923438C692343CC6923434C6ABD
:1006100023438C6A23431A430260CB6843600B6810
:1006200083604B68C36010BD08B501210D2000F048
:100630000FFB0121124800F0B5F80C20ADF80000C6
:1006400003208DF8020010208DF8030069460D4844
:1006500000F01CF80C210B4800F0EEF80420ADF877
:10066000000002208DF8020010208DF8030069467A
:10067000054800F00BF80421034800F0DBF808BD42
:100680000002300000080140000C01402DE9F0415B
:10069000024600250026002000230024002791F8B0
:1006A00003C00CF00F0591F803C00CF0100CBCF166
:1006B000000F03D091F802C04CEA050591F800C084
:1006C000BCF1000F31D0146800202BE04FF0010C7A
:1006D0000CFA00F3B1F800C00CEA03069E4220D1E8
:1006E00083004FF00F0C0CFA03F7BC4305FA03FC30
:1006F0004CEA040491F803C0BCF1280F06D14FF076
:10070000010C0CFA00FCC2F814C00AE091F803C016
:10071000BCF1480F05D14FF0010C0CFA00FCC2F8F7
:1007200010C0401C0828D1D31460B1F800C0BCF13F
:10073000FF0F34DD546800202EE000F1080C4FF06C
:10074000010808FA0CF3B1F800C00CEA03069E4257
:1007500021D183004FF00F0C0CFA03F7BC4305FACC
:1007600003FC4CEA040491F803C0BCF1280F05D146
:1007700000F1080C08FA0CF8C2F8148091F803C0D4
:10078000BCF1480F07D100F1080C4FF0010808FA3E
:100790000CF8C2F81080401C0828CED35460BDE885
:1007A000F0810000F0B50A46002300240021002556
:1007B00000F00046B6F1004F02D11D4EF16901E094
:1007C0001B4E7168C0F3034583B200F44016B6F5C2
:1007D000401F08D121F07061154E766826F07066D2
:1007E000134F7E6012E000F48016B6F5801F06D12C
:1007F000032606FA05F4A14341F0706106E0460DB8
:10080000360103FA06F6B14341F0706122B1460D9C
:10081000360103FA06F6314300F00046B6F1004F08
:1008200002D1034EF16101E0014E7160F0BD0000A4
:1008300000000140416170470161704710B50F48E9
:10084000006820F470600D4908600846006840F4B4
:100850004070086001200A4908600A49C1F88C010B
:10086000042001F0EFFC002005490860042001F09D
:10087000E9FC00200349C1F88C0110BD00080140CB
:10088000880121420000214210B50F48006820F481
:1008900070600D4908600846006840F440700860C8
:1008A00000200A4908600A49C1F88801042001F0C3
:1008B000C9FC0120054908600549C1F888010420E8
:1008C00001F0C0FC10BD0000000801408C01214275
:1008D0000000214210B50848006800F0040028B16B
:1008E000042105480838FFF7A5FF04E00421024869
:1008F0000838FFF7A1FF10BD080C014000B500202B
:1009000015490861C8601420486100208861C861E9
:100910000846006840F001000860084640680F493A
:1009200008400D494860084600680D4908400A49DA
:1009300008600846006820F4802008600846406887
:1009400020F4FE0048600020886000214FF0006025
:1009500000F008F800BD0000001002400000FFF8A1
:10096000FFFFF6FE024A0A400243024B1A6070473C
:1009700080FFFF1F08ED00E070B5002100230F226B
:10098000C47804B3154C246804F4E064C4F5E0644E
:10099000210AC1F10403CA40447804FA03F18478BF
:1009A0001440214309010E4C0678A155047804F047
:1009B0001F050124AC4005786D11AD0005F1E0255F
:1009C000C5F8004109E0047804F01F050124AC409B
:1009D000044D0678761145F8264070BD0CED00E018
:1009E00000E400E080E100E002490143024A1160B6
:1009F000704700000000FA050CED00E070B50646F7
:100A0000002415E004F1B001C8B200F078FC002029
:100A100000F075FC102000F072FC002504E0304668
:100A200000F07DFC681CC5B2802DF8DB601CC4B2F0
:100A3000082CE7DB70BD10B5AE2000F060FCD520BF
:100A400000F05DFCF02000F05AFCA82000F057FCFC
:100A50003F2000F054FCD32000F051FC002000F0B7
:100A60004EFC402000F04BFC8D2000F048FC142090
:100A700000F045FCAF2000F042FC102000F03FFCED
:100A8000A12000F03CFCC82000F039FCDA2000F086
:100A900036FC122000F033FC812000F030FCFF20F7
:100AA00000F02DFCD92000F02AFC222000F027FCC9
:100AB000DB2000F024FC302000F021FCA42000F01A
:100AC0001EFCA62000F01BFCAF2000F018FC20202C
:100AD00000F015FCB02000F012FC002000F00FFC2C
:100AE000102000F00CFC10BD70B504460D4605F159
:100AF000B001C8B200F003FC102141EA141000F06C
:100B0000FEFB04F00F0141F0010000F0F8FB70BDA6
:100B10002DE9F04180460E46174600247D013146FE
:100B20004046FFF7E1FF00BF06E00D49485D00F0D9
:100B3000F6FB6D1C601CC4B2102CF6DB701CC1B23D
:100B40004046FFF7D1FF002406E00549485D00F06C
:100B5000E6FB6D1C601CC4B2102CF6DBBDE8F08116
:100B60003E0000202DE9F04180460E461746002445
:100B7000BD0131464046FFF7B7FF00BF06E01D4903
:100B8000485D00F0CCFB6D1C601CC4B2102CF6DB81
:100B9000701CC1B24046FFF7A7FF002406E01549CC
:100BA000485D00F0BCFB6D1C601CC4B2102CF6DB71
:100BB000B01CC1B24046FFF797FF002406E00D4984
:100BC000485D00F0ACFB6D1C601CC4B2102CF6DB61
:100BD000F01CC1B24046FFF787FF002406E005493C
:100BE000485D00F09CFB6D1C601CC4B2102CF6DB51
:100BF000BDE8F0818E4C000801460020034A506891
:100C000020F440400843506070470000001002404C
:100C100029B1064A52690243044B5A6104E0034A6F
:100C200052698243014B5A61704700000010024034
:100C300029B1064AD2690243044BDA6104E0034A4F
:100C4000D2698243014BDA61704700000010024014
:100C500029B1064A92690243044B9A6104E0034AAF
:100C600092698243014B9A61704700000010024074
:100C700030B500210022002400232D4D6D6805F0C1
:100C80000C0121B1042905D0082923D105E0294D03
:100C9000056022E0274D05601FE0254D6D6805F4D5
:100CA0007012234D6D6805F48034022505EB9242E5
:100CB0001CB9214D554305600BE01D4D6D6805F4D1
:100CC00000351DB11C4D5543056002E0194D5543DB
:100CD000056002E0174D056000BF00BF144D6D6850
:100CE00005F0F0010909154D6B5C0568DD404560B4
:100CF0000F4D6D6805F4E061090A104D6B5C4568A5
:100D0000DD4085600A4D6D6805F46051C90A0B4DE0
:100D10006B5C4568DD40C560054D6D6805F440417C
:100D2000890B074D6B5CC568B5FBF3F5056130BDFC
:100D30000010024000127A0000093D00000000206F
:100D4000100000200549088000BF0449091F0988D8
:100D500001F040010029F8D070470000043801403C
:100D600010B500F001F810BD0CB500200190009006
:100D70003348006840F480303149086000BF304893
:100D8000006800F4003000900198401C0190009829
:100D900018B90198B0F5A06FF1D12948006800F4A6
:100DA000003010B10120009001E000200090009878
:100DB000012843D12348006840F010002149086011
:100DC0000846006820F0030008600846006840F00C
:100DD000020008601A48406819494860084640689F
:100DE00048600846406840F48060486008464068B3
:100DF00020F47C1048600846406840F4E8104860E1
:100E00000846006840F08070086000BF0C48006829
:100E100000F000700028F9D00948406820F0030075
:100E2000074948600846406840F00200486000BF3B
:100E30000348406800F00C000828F9D10CBD000000
:100E4000001002400020024030B504460025FFF7A4
:100E500055FD1F48006840F480301D49086000BF00
:100E60001B480068400C0028FAD04FF480601849F5
:100E70004860A01EC4B20846406840EA844048600A
:100E80000846406840F4803048601248006840F0EE
:100E90003200104908600E48006840F080700C492C
:100EA000086000BF0A480068400E0028FAD00848D1
:100EB000406840F002000649486005E00448406888
:100EC000C0F3870505F00305022DF7D130BD000002
:100ED0000010024000200240042808D14FF0E02119
:100EE000096941F004014FF0E022116107E04FF081
:100EF000E021096921F004014FF0E02211617047FF
:100F000010B51348006840F0010011490860084618
:100F10004068104908400E494860084600680E497C
:100F200008400B4908600846006820F480200860EB
:100F30000846406820F4FE0048604FF41F008860B7
:100F4000FFF70EFF4FF000600449086010BD00007D
:100F5000001002400000FFF8FFFFF6FE08ED00E081
:100F600010B50121880700F04CF8012808D10121B3
:100F7000800700F037F803480068401C014908600A
:100F800010BD0000280000201FB501210846FFF712
:100F90004FFE1C208DF8000000208DF801008DF818
:100FA000020001208DF803006846FFF7E5FC42F2DD
:100FB0000F70ADF808004720ADF804000020ADF830
:100FC0000600ADF80A0001A94FF0804000F034F8A7
:100FD00001221146900700F025F80121880700F052
:100FE00004F81FBDCA430282704721B1028842F053
:100FF0000102028004E002884FF6FE731A4002806C
:10100000704730B50246002000230024158A05EA07
:101010000103958905EA010413B10CB1012000E038
:10102000002030BD1AB183890B43838102E083899C
:101030008B43838170470000002202881D4B984239
:101040000ED01D4B98420BD0B0F1804F08D01B4BF7
:10105000984205D01A4B984202D01A4B984204D1BC
:101060004FF68F731A404B881A43174B984207D09C
:10107000164B984204D04FF6FF431A40CB881A43D0
:1010800002808B8883850B8803850A4B98420BD09E
:10109000094B984208D00E4B984205D00D4B984210
:1010A00002D00D4B984201D10B7A03860123838233
:1010B00070470000002C0140003401400004004053
:1010C00000080040000C00400010004000140040E8
:1010D00000400140004401400048014010B540F28A
:1010E00025511D4800F04AF810B31B4800F002F9E2
:1010F000C4B21A48008800F40040C8B917480088F4
:1011000000F4804060B10A2C03D00020134908800D
:1011100020E01248008840F400401049088019E09F
:101120000D2C06D10D48008840F480400B49088002
:1011300010E00A480088C0F30D0009490C54074824
:101140000088401C0549088008460088C72801DD42
:101150000020088010BD0000003801403C00002045
:101160008002002021B1828942F40052828104E091
:1011700082894DF6FF731A408281704770B502462E
:10118000002400230025002040F66A16B14200D159
:1011900000BFC1F3421501F01F03012606FA03F355
:1011A000012D02D19689334006E0022D02D1168A24
:1011B000334001E0968A33400C12012606FA04F40B
:1011C0001688344013B10CB1012000E0002070BD3E
:1011D000F0B50346002400260025002040F66A17DB
:1011E000B94200D100BF1846C1F3421401F01F06F6
:1011F000012707FA06F5012C01D10C3004E0022C7E
:1012000001D1103000E014301AB107682F43076095
:1012100002E00768AF430760F0BD00002DE9F0472A
:1012200086B005460E460024A24600BFA146002710
:10123000B08900B100BF2F462C8A4CF6FF700440E5
:10124000F08804432C82AC894EF6F3100440B08839
:1012500031890843718908430443AC81AC8A4FF655
:10126000FF400440B0890443AC8201A8FFF700FDB1
:101270001F48874202D1DDF810A001E0DDF80CA084
:10128000A88900F4004040B10AEBCA0000EB0A1044
:1012900031684900B0FBF1F807E00AEBCA0000EB47
:1012A0000A1031688900B0FBF1F86420B8FBF0F057
:1012B00004012009642101FB1089A88900F4004081
:1012C00040B1322000EBC900B0FBF1F000F00700A4
:1012D000044308E0322000EB09106421B0FBF1F078
:1012E00000F00F0004432C8106B0BDE8F087000039
:1012F0000038014001468888C0F30800704710B5E7
:101300000446FFF79BFA782000F01AF8002000F05E
:1013100017F8204600F014F8FFF7B6FA10BD10B524
:101320000446FFF78BFA782000F00AF8402000F01E
:1013300007F8204600F004F8FFF7A6FA10BD0000F9
:1013400070B504462348006820F4706021490860A5
:101350000846006840F44070086000201E4908609C
:1013600000251FE004F0800020B101201A49091F68
:10137000086003E000201849091F08606006040E99
:10138000022000F05FFF012013490860022000F0F6
:1013900059FF00201149C1F88C01022000F052FFD2
:1013A000681CC5B2082DDDDB01200B49091F086050
:1013B000022000F047FF01200849C1F88C010220FB
:1013C00000F040FF002004490860022000F03AFFCE
:1013D00070BD0000000801408C0121420000214244
:1013E0000FB4054B10B503A9044A029800F018F891
:1013F00010BC5DF814FB00009122000838000020AA
:1014000002E008C8121F08C1002AFAD170477047CD
:10141000002001E001C1121F002AFBD1704700002B
:101420002DE9FF4F8BB088460546002606E02528AB
:101430000BD0DDE90D1290476D1C761C2878002832
:10144000F5D10FB03046BDE8F08F0024A146A2468A
:101450000122AE4900E0044315F8013F203B02FAA7
:1014600003F00842F7D128782A2810D06FF02F0215
:101470002878A0F13001092915D809EB890102EB80
:10148000410144F0020400EB01096D1CF0E758F83B
:10149000041B5FEA010903D544F40054C9F10009B3
:1014A00044F002046D1C28782E2817D115F8010F7E
:1014B00044F004042A280ED06FF02F022878A0F1FF
:1014C000300109290AD80AEB8A0102EB410100EB3D
:1014D000010A6D1CF2E758F804AB6D1C28786C28E3
:1014E0000FD006DC4C2817D068280DD06A2814D1FC
:1014F00004E0742810D07A280FD10DE044F40014D1
:101500000AE044F4801401E044F440146978814214
:1015100002D104F580146D1C6D1C2878692865D0F3
:1015200006DC00288DD0632827D0642806D15DE032
:101530006E2808D073282AD0752877D0DDE90D12DF
:101540009047761CE0E0C4F30250022809D003283B
:101550000DD0D8F8001004280DD00E6008F1040852
:10156000D2E0D8F80010F217C1E90062F6E7D8F827
:1015700000100E80F2E70E70F0E718F8041B8DF8EB
:10158000001000208DF80100EB46012003E058F820
:1015900004BB4FF0FF3061074FF0000701D40AE0B1
:1015A0007F1C57450DDA8742FADB1BF8071000292C
:1015B000F6D106E07F1C8742FCDB1BF807100029F0
:1015C000F8D1DDE90D23A9EB07008146214600F0A3
:1015D000B1F83044C61904E0DDE90D121BF8010B27
:1015E00090477F1EF8D22146484688E058F8040B01
:1015F000C4F302514FF00A0B032900D100B20429B1
:1016000000D140B2002802DA40422D2102E021053B
:1016100005D52B218DF82410012104E006E0E10717
:1016200010D02021F6E708AF089113E058F8040B1A
:10163000C4F302514FF00A0B032900D180B20429F0
:1016400000D1C0B20021EEE75946FEF78DFD3031E2
:1016500007F8011D0028F7D1ADEB070000F1200BC2
:10166000600702D524F4803401E04FF0010ADA4526
:1016700002DDAAEB0B0000E00020824600EB0B012C
:1016800008980144A9EB01000A90E00306D4DDE9C3
:101690000D2321460A9800F04DF806444FF000094A
:1016A00008E009A911F80900DDE90D12904709F1D8
:1016B0000109761C08998945F3DBE0030CD5DDE9C7
:1016C0000D2321460A9800F035F8064404E0DDE9D0
:1016D0000D1230209047761CBAF10001AAF1010AE0
:1016E000F5DC05E0DDE90D1217F8010B9047761CDB
:1016F000BBF10001ABF1010BF4DC0A982146DDE9F6
:101700000D2300F005F806446D1C97E6092801003A
:101710002DE9F041044600251E461746880404D4EE
:1017200005E039462020B0476D1C641EF9D52846D7
:10173000BDE8F0812DE9F041044600251E469046A3
:10174000C80301D5302700E02027880404D505E030
:1017500041463846B0476D1C641EF9D52846BDE8A1
:10176000F081000000B591B001210846FFF750FA62
:1017700001214FF40170FFF76BFA1020ADF8400023
:1017800000208DF8430010A93448FEF77FFF34484D
:10179000FEF786FE33480090334801900020029007
:1017A00010200390002004908020059040000690B7
:1017B00080000790202008900002099000200A90E5
:1017C00069462748FEF712FF01212548FEF75CFE17
:1017D00000200B908DF8300001208DF831004FF47F
:1017E00060200D9000200E9001208DF83C000BA988
:1017F0001C484C38FEF736FD4FF44040FFF7FCF92B
:1018000007230122042117484C38FEF753FD01211C
:1018100014484C38FEF706FD012112484C38FEF7FB
:10182000F6FC10484C38FEF7A1FD00BF0D484C38BF
:10183000FEF70DFD0028F9D10A484C38FEF7A6FD49
:1018400000BF08484C38FEF7F8FC0028F9D1012108
:1018500004484C38FEF78FFD11B000BD0010014068
:10186000080002404C240140400200202DE9F047CE
:101870000024002504E0344830F8150004446D1CB1
:10188000102DF8D324094FF4A4706043C0EBC001BD
:10189000C1EB80104FF42041B0FBF1F421462BA0A6
:1018A000FFF79EFD4FF47A70B4FBF0F0C6B24FF430
:1018B0007A70B4FBF0F100FB11406421B0FBF1F051
:1018C000C7B26420B4FBF0F100FB11400A21B0FB69
:1018D000F1F80A20B4FBF0F100FB1149CEB93A4609
:1018E00002211820FFF73EF90A2202212820FFF7E3
:1018F00039F9424602213820FFF734F94A460221DD
:101900004820FFF72FF90B2202215820FFF72AF970
:1019100018E0324602211820FFF724F93A46022146
:101920002820FFF71FF90A2202213820FFF71AF9B1
:10193000424602214820FFF715F94A460221582065
:10194000FFF710F9BDE8F087400200206164342001
:101950003D202534640D0A0010B54FF41672B421F1
:101960000120FEF73DFD4FF4FA7240F217110220FC
:10197000FEF736FD4FF496724FF4CF710320FEF759
:101980002FFD4FF4967240F21A210420FEF728FD35
:101990004FF4967240F281210520FEF721FD4FF4AD
:1019A00096724FF4FB710620FEF71AFD4FF4967203
:1019B00040F2EF110720FEF713FD4FF4967240F24C
:1019C00053310820FEF70CFD4FF49672F4210920E4
:1019D000FEF706FD4FF496724FF4FD710A20FEF7F4
:1019E000FFFCFEF7D9FC4FF47A7000F0FFFBC82231
:1019F00040F229210320FEF7F3FCC82240F2E22145
:101A00000420FEF7EDFCC82240F2E9110520FEF7A4
:101A1000E7FCC82240F239110620FEF7E1FCFEF790
:101A2000BBFC642000F0E2FB4FF4967240F291217F
:101A30000120FEF7D5FCC8227E210220FEF7D0FC53
:101A40004FF496724FF41A710320FEF7C9FC4FF45D
:101A500096724FF426710420FEF7C2FC4FF4967282
:101A60004FF4E3710520FEF7BBFC4FF496724FF480
:101A7000BA710620FEF7B4FCFEF78EFC4FF47A70C4
:101A800000F0B4FB4FF47A7000F0B0FB4FF49672A4
:101A900040F25A310920FEF7A3FCFEF77DFC4FF41B
:101AA0007A7000F0A3FB4FF4487000F09FFB4FF4F6
:101AB000487240F2EE210720FEF792FC4FF4967236
:101AC0004FF4EA710120FEF78BFC4FF49672C121AE
:101AD0000220FEF785FCFEF75FFC4FF47A7000F001
:101AE00085FB4FF4967240F2F1110720FEF778FC67
:101AF0004FF4967240F221210820FEF771FC4FF45A
:101B0000967240F227210920FEF76AFCFEF744FC9A
:101B10004FF47A7000F06AFB4FF4C8724FF4F4711E
:101B20000220FEF75DFC4FF496724FF457710820C7
:101B3000FEF756FC4FF49672F1210920FEF750FC97
:101B4000FEF72AFC4FF4487000F050FB96224FF449
:101B500043710220FEF744FCFEF71EFC4FF47A703E
:101B600000F044FB4FF4487000F040FB4B224FF470
:101B7000A0710120FEF734FCFEF70EFC4FF47A70E2
:101B800000F034FB4FF4FA7000F030FB4FF4967223
:101B90004FF434710120FEF723FC4FF496724FF49A
:101BA0003B710220FEF71CFCFEF7F6FB40F28A2098
:101BB00000F01CFB4FF4967240F22B210320FEF73D
:101BC0000FFC4FF4967240F203210420FEF708FC4C
:101BD0004FF4967240F2E1110520FEF701FC4FF43C
:101BE00096724FF405710620FEF7FAFBFEF7D4FB60
:101BF0004FF4487000F0FAFA4FF4967240F2E52183
:101C00000120FEF7EDFB4FF496724FF43A7102207B
:101C1000FEF7E6FB4FF4967240F235110320FEF713
:101C2000DFFB4FF496724FF410710420FEF7D8FBDF
:101C30004FF4967240F2CA210520FEF7D1FB4FF413
:101C4000967240F2FD110620FEF7CAFBFEF7A4FBD8
:101C50004FF47A7000F0CAFA4FF4967240F2AA215B
:101C60000120FEF7BDFB4FF496724FF4397102204C
:101C7000FEF7B6FB4FF496724FF4AD710320FEF7FA
:101C8000AFFB4FF4967240F231210420FEF7A8FB1F
:101C90004FF496724FF43A710520FEF7A1FB4FF412
:101CA000967240F2E3110620FEF79AFBFEF774FBF2
:101CB0004FF4967000F09AFA4FF4967240F2F511D4
:101CC0000120FEF78DFB4FF4C87240F2EB110220A9
:101CD000FEF786FB4FF496724FF4B4710320FEF7C3
:101CE0007FFB4FF4967240F2F1110420FEF778FB6F
:101CF0004FF4967240F2AB210520FEF771FB4FF4D2
:101D0000967240F226210620FEF76AFB4FF4967287
:101D100040F2EF110720FEF763FB4FF4967240F29A
:101D200053310820FEF75CFB4FF49672F421092032
:101D3000FEF756FB4FF496724FF4FD710A20FEF742
:101D40004FFBFEF729FB4FF47A7000F04FFA4FF487
:101D5000FA7000F04BFA10BD10B540F28A2240F242
:101D60005F310120FEF73CFB40F28F224FF43D71C2
:101D70000220FEF735FB4FF496724FF4BD7103203D
:101D8000FEF72EFB4FF4967240F246210420FEF738
:101D900027FB4FF4967240F2A5210520FEF720FBA9
:101DA0004FF496724FF4E4710620FEF719FB4FF4DE
:101DB000967240F2EF110720FEF712FB4FF4967275
:101DC00040F253310820FEF70BFB4FF49672F421DA
:101DD0000920FEF705FB4FF496724FF4FD710A20BF
:101DE000FEF7FEFAFEF7D8FA4FF47A7000F0FEF92B
:101DF000FA2000F0FBF94FF4967240F245110120F1
:101E0000FEF7EEFA4FF4967240F255310220FEF7DB
:101E1000E7FA4FF4967240F229210320FEF7E0FA28
:101E20004FF4967240F2E2210420FEF7D9FA4FF403
:101E3000967240F2E9110520FEF7D2FA4FF496723D
:101E400040F239110620FEF7CBFAFEF7A5FA4FF45F
:101E50007A7000F0CBF94FF4487000F0C7F94FF4F6
:101E60009672EB210820FEF7BBFAFEF795FA4FF4C5
:101E70007A7000F0BBF94FF4487000F0B7F94FF4F6
:101E800096724FF4F9710120FEF7AAFA4FF4967298
:101E900040F241310220FEF7A3FA40F252324FF4F1
:101EA0003A710A20FEF79CFAFEF776FA4FF47A7040
:101EB00000F09CF94FF496724FF4FB710A20FEF784
:101EC0008FFA4FF4967240F21A210820FEF788FA32
:101ED0004FF4967240F22B210920FEF781FAFEF7AB
:101EE0005BFA4FF47A7000F081F94FF4C87240F257
:101EF000E5110220FEF774FA4FF496724FF4567112
:101F00000820FEF76DFA4FF49672F3210920FEF7D0
:101F100067FAFEF741FA4FF4487000F067F996222D
:101F2000E5210220FEF75CFAFEF736FA4FF47A70EC
:101F300000F05CF94FF4487000F058F94B224FF470
:101F400030710120FEF74CFAFEF726FA4FF47A7052
:101F500000F04CF94FF4FA7000F048F94FF4967223
:101F6000AE210120FEF73CFA4FF4967240F20511C3
:101F70000220FEF735FAFEF70FFA4FF4487000F032
:101F800035F94FF4967240F22B210320FEF728FA20
:101F90004FF4967240F203210420FEF721FA4FF429
:101FA000967240F2E1110520FEF71AFA4FF496728C
:101FB0004FF405710620FEF713FAFEF7EDF94FF422
:101FC000487000F013F94FF4967240F201110120AD
:101FD000FEF706FA4FF496724FF4A9710220FEF74D
:101FE000FFF94FF4967240F253110320FEF7F8F90F
:101FF0004FF4967240F2FF110420FEF7F1F94FF40E
:10200000967240F2C7210520FEF7EAF94FF4967266
:102010004FF406710620FEF7E3F9FEF7BDF94FF421
:102020007A7000F0E3F84FF49672EF210120FEF78A
:10203000D7F94FF49672E4210220FEF7D1F94FF45C
:10204000967240F281110320FEF7CAF94FF496729E
:102050004FF4F4710420FEF7C3F94FF4967240F286
:102060009F210520FEF7BCF94FF496724FF40771DB
:102070000620FEF7B5F9FEF78FF94FF4967000F0E1
:10208000B5F84FF4967240F2F5110120FEF7A8F969
:102090004FF4967240F2EB110220FEF7A1F94FF4D3
:1020A00096724FF4B4710320FEF79AF94FF49672CA
:1020B00040F2F1110420FEF793F94FF4967240F2CA
:1020C000AB210520FEF78CF94FF4967240F22621E1
:1020D0000620FEF785F94FF4967240F2EF110720C3
:1020E000FEF77EF94FF4967240F253310820FEF766
:1020F00077F94FF49672F4210920FEF771F94FF445
:1021000096724FF4FD710A20FEF76AF9FEF744F962
:102110004FF47A7000F06AF84FF47A7000F066F8C5
:102120004FF47A7000F062F810BD10B54FF496725B
:102130004FF4C4710320FEF753F94FF496724FF435
:10214000DA710420FEF74CF94FF4967240F29721B1
:102150000520FEF745F94FF496724FF41E710620E4
:10216000FEF73EF9FEF718F94FF4967000F03EF8CE
:102170004FF4AF7240F249110220FEF731F9FEF739
:102180000BF94FF4167000F031F84FF4AF7240F2D3
:10219000EB110220FEF724F9FEF7FEF84FF4FA7077
:1021A00000F024F810BD000010B56FF00400FEF739
:1021B00093FE0A4800680A49B0FBF1F0094908702B
:1021C0000846007800EB4001C1EBC0104FF6FF71EC
:1021D00001EAC0000449088010BD0000140000207E
:1021E00000127A0034000020360000200146114A17
:1021F00012884A434FF0E0235A6100229A611A463E
:10220000126942F001021A6100BF4FF0E02210692A
:1022100000F001021AB100F48032002AF5D04FF02C
:10222000E022126922F001024FF0E0231A6100223D
:102230009A6170473600002000BF011EA0F1010026
:10224000FBD170470146114A12784A434FF0E02310
:102250005A6100229A611A46126942F001021A611B
:1022600000BF4FF0E022106900F001021AB100F443
:102270008032002AF5D04FF0E022126922F00102EC
:102280004FF0E0231A6100229A6170473400002069
:1022900000BF054A128802F04002002AF9D0C2B2FB
:1022A000014B1B1D1A8070470038014010B54FF4D8
:1022B00096724FF4F4710120FEF792F84FF4967283
:1022C00040F2EB110220FEF78BF84FF4967240F2C9
:1022D0006A210320FEF784F84FF4967240F2B2218F
:1022E0000420FEF77DF84FF496724FF4F17105204B
:1022F000FEF776F84FF4967240F251110620FEF781
:102300006FF84FF4C8724FF409710720FEF768F8B0
:102310004FF4967240F261310820FEF761F84FF4F5
:102320009672AD210920FEF75BF84FF4967240F2E9
:102330005D110A20FEF754F8FEF72EF84FF47A707C
:10234000FFF754FF4FF4967240F2E7110520FEF7B5
:1023500047F84FF4967240F219110620FEF740F844
:102360004FF4C87240F2FD110720FEF739F84FF420
:10237000967240F25B310820FEF732F84FF4967205
:1023800040F267110920FEF72BF84FF4967240F2E5
:1023900063110A20FEF724F8FDF7FEFF4FF47A7070
:1023A000FFF724FFC820FFF721FF4FF4967240F299
:1023B00013310320FEF714F84FF4967240F28D317A
:1023C0000420FEF70DF84FF4967240F23911052003
:1023D000FEF706F84FF4967298210620FEF700F8F3
:1023E0004FF4E17240F2E5110720FDF7F9FF4FF4D9
:1023F00096724FF45D710820FDF7F2FF4FF496726C
:1024000040F2CB210920FDF7EBFF4FF4967240F22A
:1024100005210A20FDF7E4FFFDF7BEFF4FF47A70B7
:10242000FFF7E4FEC820FFF7E1FE4FF42F7240F201
:10243000F9110720FDF7D4FF4FF4617240F26711E4
:102440000820FDF7CDFF40F2B63240F2B22109205C
:10245000FDF7C6FF40F2B6324FF444710A20FDF793
:10246000BFFFFDF799FF4FF47A70FFF7BFFE4FF4FF
:102470009670FFF7BBFE4FF4967240F25B2103208B
:10248000FDF7AEFF4FF4967240F2F7210420FDF7FE
:10249000A7FF4FF4967240F20A210520FDF7A0FF36
:1024A0004FF4967240F21B110620FDF799FF4FF48E
:1024B000967240F2DB110720FDF792FF962240F260
:1024C000EB110820FDF78CFF4FF49672F5210920DF
:1024D000FDF786FF4FF496724FF4FF710A20FDF767
:1024E0007FFFFDF759FF4FF47A70FFF77FFE4FF43F
:1024F0009670FFF77BFE4FF4967240F25221032054
:10250000FDF76EFF4FF496724FF414710420FDF73F
:1025100067FF4FF496724FF400710520FDF760FFDE
:102520004FF4967240F27D110620FDF759FF4FF4EB
:1025300096724FF4EA710720FDF752FF962240F29F
:102540002F310820FDF74CFF4FF49672ED21092042
:10255000FDF746FF4FF4967240F2F3110A20FDF7A3
:102560003FFFFDF719FF4FF47A70FFF73FFE4FF47E
:102570009670FFF73BFE4FF4967240F2E311012094
:10258000FDF72EFF4FF496724FF4F8710220FDF71D
:1025900027FF4FF496724FF4C4710320FDF720FF1C
:1025A0004FF496724FF4DA710420FDF719FF4FF4DF
:1025B000967240F297210520FDF712FF4FF49672B4
:1025C0004FF41E710620FDF70BFF4FF4967240F298
:1025D000EF110720FDF704FF4FF4967240F25331DC
:1025E0000820FDF7FDFE4FF49672F4210920FDF757
:1025F000F7FE4FF496724FF4FD710A20FDF7F0FEDE
:10260000FDF7CAFE4FF47A70FFF7F0FD10BD000031
:102610004FF4A060FEF7E8F9FEF706F84FF4E1305A
:1026200001F064F9FFF79EF8FFF7BEFD4E48FFF793
:1026300003FEFEF7A9FC4DA0FEF7D2FEFEF7FBF964
:10264000FF20FEF7DBF94D48FFF7F6FD0020FEF70F
:10265000D5F94B48FFF7F0FD002211461046FEF772
:1026600057FA012200211020FEF752FA022200211F
:102670002020FEF74DFA032200213020FEF748FA11
:10268000042200214020FEF743FA052200215020B9
:10269000FEF73EFA062200216020FEF739FA0722F3
:1026A00000217020FEF734FA0920FEF7CDFBFFF77A
:1026B0007BFD4FF4E13001F019F954E03148006836
:1026C000322806D300202F490860FEF703F9FFF7F0
:1026D000CDF800F032FE4FF47A70FFF787FD00F07E
:1026E0002CFE4FF47A70FFF781FDFFF7DFFDFFF757
:1026F000DDFDFFF71AFD01F049F900F01EFE4FF471
:102700007A70FFF773FDFFF727F9FFF725FB00F05D
:102710003BF8FFF7CBFD00F086FC00F057FE01F020
:102720006FFE01F09AF901F071FCFFF7FEFC01F079
:102730002DF941F28830FFF759FD00F0FEFD41F21E
:102740008830FFF753FD41F28830FFF74FFD09E075
:1027500000F0F3FD41F28830FFF748FD41F2883088
:10276000FFF744FDF4E7A9E7FFFF3F00496E6974F6
:10277000204F4B2121210D0A00000000FFFF1F0008
:10278000FFFF0F002800002010B54FF41672B4218F
:102790000120FDF725FE4FF4FA72EF210220FDF72C
:1027A0001FFE4FF4AF724FF4CD710320FDF718FEFA
:1027B0004FF4C8724FF4F9710420FDF711FE4FF485
:1027C000AF724FF421710520FDF70AFE4FF4C87275
:1027D0004FF405710620FDF703FEFDF7DDFD4FF414
:1027E0007A70FFF703FDC820FFF700FD4FF4167263
:1027F000FD210120FDF7F4FD4FF496724FF4DD71D9
:102800000220FDF7EDFD4FF496724FF4CD710320D9
:10281000FDF7E6FD4FF496724FF4E2710420FDF7E8
:10282000DFFD4FF4967240F279210520FDF7D8FDC7
:102830004FF4967240F246210620FDF7D1FD4FF489
:10284000967240F2EF110720FDF7CAFD4FF4967221
:1028500040F253310820FDF7C3FD4FF49672F42186
:102860000920FDF7BDFD4FF496724FF4FD710A206B
:10287000FDF7B6FDFDF790FD4FF47A70FFF7B6FC5B
:102880004FF4967240F235110120FDF7A9FD4FF487
:10289000FA724FF400710220FDF7A2FD4FF4AF72FF
:1028A00040F247110320FDF79BFD4FF4C872911CC5
:1028B0000420FDF795FDC82240F2F1210520FDF727
:1028C0008FFDC8224FF422710620FDF789FDFDF728
:1028D00063FD4FF47A70FFF789FC4FF4AF724FF449
:1028E000CC710320FDF77CFD4FF4C8724FF4897161
:1028F0000420FDF775FDC82240F2DB210520FDF71D
:102900006FFDC8224FF41B710620FDF769FDFDF72E
:1029100043FD4FF4FA70FFF769FC4FF4AF7240F2D9
:1029200033210320FDF75CFD4FF4C87240F21B21F8
:102930000420FDF755FDFDF72FFD4FF4FA70FFF76A
:1029400055FC4FF4AF7240F236310320FDF748FDDD
:102950004FF4C87240F229310420FDF741FDFDF724
:102960001BFD4FF44870FFF741FCFA22F0210120D3
:10297000FDF736FD4FF4FA724FF400710220FDF7B7
:102980002FFDFA224FF416710520FDF729FD4FF4B3
:10299000C87240F23F310620FDF722FDFDF7FCFC36
:1029A0004FF44870FFF722FC4FF496721146012055
:1029B000FDF716FD4FF4FA724FF400710220FDF797
:1029C0000FFDFA2240F2E5210520FDF709FD4FF445
:1029D000C87240F26E210620FDF702FDFDF7DCFC17
:1029E0004FF44870FFF702FCFA22F0210120FDF7B6
:1029F000F7FC4FF4FA724FF400710220FDF7F0FC7F
:102A0000FA224FF416710520FDF7EAFC4FF4C87264
:102A100040F23F310620FDF7E3FCFDF7BDFC4FF42B
:102A20004870FFF7E3FB4FF4967211460120FDF763
:102A3000D7FC4FF4FA724FF400710220FDF7D0FC7E
:102A4000FA2240F2E5210520FDF7CAFC4FF4C872D6
:102A500040F26E210620FDF7C3FCFDF79DFC4FF40C
:102A60004870FFF7C3FB6420FFF7C0FB4FF4AF7261
:102A700040F233210320FDF7B3FC4FF4C8724FF44A
:102A800089710420FDF7ACFCFDF786FC4FF448701B
:102A9000FFF7ACFB4FF4AF724FF4CC710320FDF79E
:102AA0009FFC4FF4C8724FF489710420FDF798FC25
:102AB000FDF772FC4FF4FA70FFF798FB4FF4967233
:102AC00011460120FDF78CFC4FF4AF7240F2331138
:102AD0000320FDF785FC4FF4C8724FF4D571042034
:102AE000FDF77EFCFDF758FC4FF44870FFF77EFBC6
:102AF000C82240F2A7210520FDF772FCC82240F24F
:102B0000E3210620FDF76CFCFDF746FC4FF448700E
:102B1000FFF76CFBC8224FF4EF710520FDF760FC56
:102B2000C8224FF4FA710620FDF75AFCFDF734FC79
:102B30004FF44870FFF75AFB4FF4AF72E2210520C3
:102B4000FDF74EFC4FF4C872B2210620FDF748FC99
:102B5000FDF722FC4FF44870FFF748FB4FF49672E4
:102B6000F7210120FDF73CFC4FF4FA724FF4F071AD
:102B70000220FDF735FCFA2240F2D1110320FDF7C7
:102B80002FFC4FF4BE72D4210420FDF729FCFDF781
:102B900003FC4FF44870FFF729FB4FF4967240F2A4
:102BA00005110120FDF71CFC4FF4FA724FF4F0718F
:102BB0000220FDF715FCFA2240F233110320FDF745
:102BC0000FFC4FF4BE724FF4D5710420FDF708FCE2
:102BD000FDF7E2FB4FF44870FFF708FB4FF49672E5
:102BE000F8210120FDF7FCFB4FF4FA724FF4F0716D
:102BF0000220FDF7F5FBFA2240F2D1110320FDF788
:102C0000EFFB4FF4BE72D4210420FDF7E9FBFDF782
:102C1000C3FB4FF44870FFF7E9FA4FF4967240F2A5
:102C200005110120FDF7DCFB4FF4FA724FF4F0714F
:102C30000220FDF7D5FBFA2240F233110320FDF705
:102C4000CFFB4FF4BE724FF4D5710420FDF7C8FBE3
:102C5000FDF7A2FB4FF44870FFF7C8FA4FF49672E5
:102C60004FF4EF710520FDF7BBFB4FF4C87240F243
:102C7000E3210620FDF7B4FBFDF78EFB4FF448700F
:102C8000FFF7B4FA4FF4967240F2A7210520FDF742
:102C9000A7FB4FF4C87240F2E3210620FDF7A0FB2A
:102CA000FDF77AFB4FF44870FFF7A0FAC82240F214
:102CB000E5210520FDF794FBC82240F26E21062095
:102CC000FDF78EFBFDF768FB4FF4FA70FFF78EFA05
:102CD000642240F22D110120FDF782FB4FF4FA72BD
:102CE0004FF4E7710220FDF77BFBC82240F231115F
:102CF0000320FDF775FB4FF4C8724FF4EF71042009
:102D0000FDF76EFBC82240F2DB210520FDF768FBD2
:102D10004FF4C8724FF410710620FDF761FBFDF708
:102D20003BFB4FF44870FFF761FAC820FFF75EFAEB
:102D30004FF4C87240F23E210320FDF751FB4FF4DF
:102D4000A572DC210420FDF74BFB4FF4C87240F262
:102D5000D3110520FDF744FB4FF4A5724FF44E71DB
:102D60000620FDF73DFB6422EE210120FDF738FB34
:102D70004FF4FA72D11F0220FDF732FB4FF4967226
:102D800040F2EF110720FDF72BFB4FF4967240F253
:102D900053310820FDF724FB4FF49672F4210920EB
:102DA000FDF71EFB4FF496724FF4FD710A20FDF7FC
:102DB00017FBFDF7F1FA4FF44870FFF717FA64229A
:102DC00040F22D110120FDF70BFB4FF4C8724FF4B8
:102DD000E7710220FDF704FB4FF4C87240F2311195
:102DE0000320FDF7FDFA4FF4A5724FF4EF710420B4
:102DF000FDF7F6FA4FF4C87240F2DB210520FDF72B
:102E0000EFFA4FF4A5724FF410710620FDF7E8FABF
:102E1000FDF7C2FA4FF44870FFF7E8F9C820FFF752
:102E2000E5F94FF4C87240F23E210320FDF7D8FACD
:102E30004FF4A572DC210420FDF7D2FA4FF4C872DA
:102E400040F2D3110520FDF7CBFA4FF4A5724FF4F1
:102E50004E710620FDF7C4FA6422EE210120FDF731
:102E6000BFFA4FF4FA72D11F0220FDF7B9FA4FF4FE
:102E7000967240F2EF110720FDF7B2FA4FF4967206
:102E800040F253310820FDF7ABFA4FF49672F4216B
:102E90000920FDF7A5FA4FF496724FF4FD710A2050
:102EA000FDF79EFAFDF778FA4FF44870FFF79EF9A8
:102EB000642240F22D110120FDF792FA4FF4C872FE
:102EC0004FF4E7710220FDF78BFA4FF4C87240F21D
:102ED00031110320FDF784FA4FF4A5724FF4EF711E
:102EE0000420FDF77DFA4FF4C87240F2DB21052083
:102EF000FDF776FA4FF4A5724FF410710620FDF736
:102F00006FFAFDF749FA4FF44870FFF76FF9C820E0
:102F1000FFF76CF94FF496724FF4CD710320FDF773
:102F20005FFA4FF496724FF4E2710420FDF758FAFD
:102F30004FF4967240F279210520FDF751FA4FF4D3
:102F4000967240F246210620FDF74AFAFDF724FA70
:102F50004FF44870FFF74AF94FF49672EF210120C1
:102F6000FDF73EFA4FF49672E4210220FDF738FA9D
:102F70004FF4967240F281110320FDF731FA4FF4BD
:102F800096724FF4F4710420FDF72AFA4FF496720A
:102F900040F29F210520FDF723FA4FF496724FF47B
:102FA00007710620FDF71CFAFDF7F6F94FF448709B
:102FB000FFF71CF94FF4967240F2E3110120FDF780
:102FC0000FFA4FF496724FF4F8710220FDF708FAE9
:102FD0004FF496724FF4C4710320FDF701FA4FF4D9
:102FE00096724FF4DA710420FDF7FAF94FF49672F5
:102FF00040F297210520FDF7F3F94FF496724FF454
:103000001E710620FDF7ECF9FDF7C6F94FF47A7052
:10301000FFF7ECF84FF47A70FFF7E8F84FF47A70A6
:10302000FFF7E4F810BD10B54FF4967240F2EB11C3
:103030000120FDF7D5F94FF4967240F2F31102200A
:10304000FDF7CEF94FF4967240F205210320FDF70B
:10305000C7F94FF4967240F265210420FDF7C0F9DC
:103060004FF4967240F255110520FDF7B9F94FF46F
:10307000967280210620FDF7B3F94FF4967240F264
:103080006F210720FDF7ACF94FF4967240F29A31A8
:103090000820FDF7A5F99622F9210920FDF7A0F9EE
:1030A00096224FF4F9710A20FDF79AF9FDF774F9A9
:1030B0004FF47A70FFF79AF84FF4967240F2FA21C3
:1030C0000320FDF78DF94FF4967240F2B5210420EC
:1030D000FDF786F9962240F20A210720FDF780F9D4
:1030E0004FF4967240F2E1110820FDF779F9FDF7EF
:1030F00053F94FF47A70FFF779F8C820FFF776F8A4
:10310000FA224FF444710320FDF76AF9FA224FF4D2
:1031100065710420FDF764F94FF496724FF49B71CA
:103120000520FDF75DF94FF4967290210620FDF71A
:1031300057F94FF4967240F2CB110720FDF750F982
:103140004FF4C87240F271110820FDF749F9FDF7FC
:1031500023F94FF47A70FFF749F86420FFF746F837
:103160004FF42F72CE210720FDF73AF94FF42F725A
:1031700040F28F110820FDF733F940F2EE2240F2C1
:10318000BF210920FDF72CF940F2EE224FF4F8712F
:103190000A20FDF725F9FDF7FFF84FF47A70FFF7E5
:1031A00025F84FF49670FFF721F8C82240F29E21CF
:1031B0000320FDF715F94FF4967240F2C721042061
:1031C000FDF70EF9C82240F29B110520FDF708F922
:1031D000C8224FF4A2710620FDF702F9C82240F27E
:1031E000F3110720FDF7FCF84FF496724FF4FB71D2
:1031F0000820FDF7F5F84FF496724FF41D71092081
:10320000FDF7EEF8C82240F226210A20FDF7E8F883
:10321000FDF7C2F84FF47A70FEF7E8FFC82240F2DB
:1032200035210320FDF7DCF84FF496724FF41A7144
:103230000420FDF7D5F84FF4C87240F2DB110520E9
:10324000FDF7CEF84FF4C8724FF4E4710620FDF795
:10325000C7F8C82240F232210720FDF7C1F84FF429
:10326000967240F252310820FDF7BAF84FF4967288
:10327000911D0920FDF7B4F8C8224FF40C710A2003
:10328000FDF7AEF8FDF788F84FF47A70FEF7AEFF61
:10329000C820FEF7ABFF4FF4967240F2E311012015
:1032A000FDF79EF84FF496724FF4F8710220FDF787
:1032B00097F84FF496724FF4C4710320FDF790F81D
:1032C0004FF496724FF4DA710420FDF789F8C822A2
:1032D00040F297210520FDF783F8C8224FF41E71B4
:1032E0000620FDF77DF84FF4C87240F2EF11072079
:1032F000FDF776F84FF4C87240F253310820FDF71D
:103300006FF84FF4C872F4210920FDF769F84FF403
:10331000C8724FF4FD710A20FDF762F8FDF73CF822
:103320004FF47A70FEF762FF4FF47A70FEF75EFF9B
:103330004FF47A70FEF75AFF10BD10B54FF4967235
:1033400040F2E3110120FDF74BF84FF496724FF471
:10335000F8710220FDF744F84FF496724FF4C471EF
:103360000320FDF73DF84FF496724FF4DA71042014
:10337000FDF736F84FF4967240F297210520FDF7DD
:103380002FF84FF496724FF41E710620FDF728F8BF
:103390004FF4967240F2EF110720FDF721F84FF439
:1033A000967240F253310820FDF71AF84FF49672E6
:1033B000F4210920FDF714F84FF496724FF4FD71D3
:1033C0000A20FDF70DF8FCF7E7FF10BD10B54FF42C
:1033D0001672B4210120FDF703F84FF4FA72FD21B3
:1033E0000220FCF7FDFF4FF496724FF4CF710320DB
:1033F000FCF7F6FF4FF4967240F21A210420FCF716
:10340000EFFF4FF4967240F281210520FCF7E8FFB0
:103410004FF496724FF4FB710620FCF7E1FF4FF476
:10342000967240F2EF110720FCF7DAFF4FF4967224
:1034300040F253310820FCF7D3FF4FF49672F42189
:103440000920FCF7CDFF4FF496724FF4FD710A206E
:10345000FCF7C6FFFCF7A0FF4FF47A70FEF7C6FE3C
:10346000C82240F229210320FCF7BAFFC82240F20B
:10347000E2210420FCF7B4FFC82240F2E911052044
:10348000FCF7AEFFC82240F239110620FCF7A8FF76
:10349000FCF782FF6420FEF7A9FE4FF4967240F21B
:1034A00091210120FCF79CFFC8227E210220FCF71D
:1034B00097FF4FF496724FF41A710320FCF790FFB8
:1034C0004FF496724FF426710420FCF789FF4FF4F5
:1034D00096724FF4E3710520FCF782FF4FF4967269
:1034E0004FF4BA710620FCF77BFFFCF755FF4FF451
:1034F0007A70FEF77BFE4FF47A70FEF777FE4FF49A
:10350000967240F25A310920FCF76AFFFCF744FF3B
:103510004FF47A70FEF76AFE4FF44870FEF766FECD
:103520004FF4487240F2EE210720FCF759FF4FF4A8
:1035300096724FF4EA710120FCF752FF4FF4967235
:10354000C1210220FCF74CFFFCF726FF4FF47A70F4
:10355000FEF74CFE4FF4967240F2F1110720FCF793
:103560003FFF4FF4967240F221210820FCF738FF0C
:103570004FF4967240F227210920FCF731FFFCF747
:103580000BFF4FF47A70FEF731FE4FF4C8724FF420
:10359000F4710220FCF724FF4FF496724FF4577138
:1035A0000820FCF71DFF4FF49672F1210920FCF76B
:1035B00017FFFCF7F1FE4FF44870FEF717FE4FF4CB
:1035C000967240F21B310320FCF70AFF4FF496720B
:1035D00040F243210420FCF703FF4FF49672E921E7
:1035E0000520FCF7FDFE4FF4967240F2DF11062035
:1035F000FCF7F6FEFCF7D0FE4FF47A70FEF7F6FD0E
:10360000C820FEF7F3FD4FF49672B3210720FCF7B4
:10361000E7FE4FF496724FF406710820FCF7E0FEC7
:103620004FF4967240F227210920FCF7D9FE4FF49F
:1036300096724FF44C710A20FCF7D2FEFCF7ACFEF8
:103640004FF47A70FEF7D2FDC820FEF7CFFD4FF49D
:10365000967240F2F1110720FCF7C2FE4FF4967209
:1036600040F25A310820FCF7BBFE4FF49672F62167
:103670000920FCF7B5FE4FF4967240F2FD110A20C6
:10368000FCF7AEFEFCF788FE4FF47A70FEF7AEFD55
:10369000C820FEF7ABFD4FF4967240F223210320C1
:1036A000FCF79EFE4FF4967240F2E5210420FCF7F1
:1036B00097FE4FF4967240F205210520FCF790FE2C
:1036C0004FF49672D11D0620FCF78AFEFCF764FECB
:1036D0004FF49660FEF78AFD96224FF44371022064
:1036E000FCF77EFEFCF758FE4FF47A70FEF77EFD85
:1036F0004FF44870FEF77AFD4B224FF4A071012081
:10370000FCF76EFEFCF748FE4FF47A70FEF76EFD94
:103710004FF4FA70FEF76AFD4FF496724FF434716D
:103720000120FCF75DFE4FF496724FF43B710220CE
:10373000FCF756FEFCF730FE40F28A20FEF756FDFD
:103740004FF4967240F22B210320FCF749FE4FF410
:10375000967240F203210420FCF742FE4FF4967269
:1037600040F2E1110520FCF73BFE4FF496724FF456
:1037700005710620FCF734FEFCF70EFE4FF448708E
:10378000FEF734FD4FF4967240F2E5210120FCF77C
:1037900027FE4FF496724FF43A710220FCF720FE98
:1037A0004FF4967240F235110320FCF719FE4FF4E6
:1037B00096724FF410710420FCF712FE4FF49672CB
:1037C00040F2CA210520FCF70BFE4FF4967240F23E
:1037D000FD110620FCF704FEFCF7DEFD4FF47A70C5
:1037E000FEF704FD4FF4967240F2AA210120FCF787
:1037F000F7FD4FF496724FF439710220FCF7F0FD9B
:103800004FF496724FF4AD710320FCF7E9FD4FF4CD
:10381000967240F231210420FCF7E2FD4FF49672DB
:103820004FF43A710520FCF7DBFD4FF4967240F23D
:10383000E3110620FCF7D4FDFCF7AEFD4FF49670C3
:10384000FEF7D4FC4FF4967240F2F5110120FCF71C
:10385000C7FD4FF4C87240F2EB110220FCF7C0FD27
:103860004FF496724FF4B4710320FCF7B9FD4FF496
:10387000967240F2F1110420FCF7B2FD4FF49672FB
:1038800040F2AB210520FCF7ABFD4FF4967240F2FD
:1038900026210620FCF7A4FD4FF4967240F2EF11AA
:1038A0000720FCF79DFD4FF4967240F2533108203B
:1038B000FCF796FD4FF49672F4210920FCF790FD79
:1038C0004FF496724FF4FD710A20FCF789FDFCF766
:1038D00063FD4FF47A70FEF789FC4FF47A70FEF7BF
:1038E00085FC4FF47A70FEF781FC10BD10B586B0F0
:1038F0000446012144F20400FDF7AAF94FF40070D8
:10390000ADF8140003208DF8160018208DF817006C
:1039100005A91C48FCF7BAFE4FF48060ADF814000E
:1039200004208DF8170005A91648FCF7AFFE2520E6
:103930008DF8000003208DF801008DF802000120B1
:103940008DF803006846FDF717F801940020ADF8E4
:103950000800ADF80A00ADF80C00ADF810000C201E
:10396000ADF80E0001A90848FDF758FC012240F20D
:1039700025510548FDF72CFC01210348FDF7F2FB1A
:1039800006B010BD000801400038014010B54FF4EA
:10399000967240F2E6210320FCF722FDFCF7FCFCC6
:1039A0004FF44870FEF722FC4FF4E17240F22A31E6
:1039B0000420FCF715FD4FF496724FF44D7103206F
:1039C000FCF70EFDFCF7E8FC4FF44870FEF70EFC28
:1039D0004FF4E1724FF4FF710420FCF701FD4FF446
:1039E000967240F2E6210320FCF7FAFCFCF7D4FCC7
:1039F0004FF44870FEF7FAFB4FF4E17240F22A31BF
:103A00000420FCF7EDFC4FF496724FF44D71032047
:103A1000FCF7E6FCFCF7C0FC4FF44870FEF7E6FB51
:103A20004FF496724FF4C4710320FCF7D9FC4FF4A5
:103A3000E1724FF4DA710420FCF7D2FCFCF7ACFC25
:103A40004FF47A70FEF7D2FB4FF47A70FEF7CEFB9C
:103A50004FF47A70FEF7CAFB10BD10B54FF49672A2
:103A60004FF4F4710120FCF7BBFC4FF4967240F266
:103A7000EB110220FCF7B4FC4FF4967240F26A217D
:103A80000320FCF7ADFC4FF4967240F2B221042003
:103A9000FCF7A6FC4FF496724FF4F1710520FCF789
:103AA0009FFC4FF4967240F251110620FCF798FCEF
:103AB0004FF4C8724FF409710720FCF791FC4FF4E2
:103AC000967240F261310820FCF78AFC4FF496723E
:103AD000AD210920FCF784FC4FF4967240F25D1191
:103AE0000A20FCF77DFCFCF757FC4FF47A70FEF7D8
:103AF0007DFB4FF4967240F2E7110520FCF770FC55
:103B00004FF4967240F219110620FCF769FC4FF44D
:103B1000C87240F2FD110720FCF762FC4FF4967268
:103B200040F25B310820FCF75BFC4FF4967240F2E8
:103B300067110920FCF754FC4FF4967240F26311B0
:103B40000A20FCF74DFCFCF727FC4FF47A70FEF7D7
:103B50004DFBC820FEF74AFB4FF496724FF4F67106
:103B60000120FCF73DFC4FF4967240F2E91102206F
:103B7000FCF736FC4FF496724FF419710320FCF7F2
:103B80002FFC4FF4967240F295210420FCF728FC9C
:103B90004FF49672D11C0520FCF722FC4FF496726C
:103BA00094210620FCF71CFC4FF4967240F2C921C8
:103BB0000920FCF715FC4FF4967240F2FF110A2021
:103BC000FCF70EFCFCF7E8FB4FF47A70FEF70EFBF7
:103BD000C820FEF70BFB4FF42F7240F2F9110720BB
:103BE000FCF7FEFB4FF4617240F267110820FCF70E
:103BF000F7FB40F2EE2240F2B2210920FCF7F0FB85
:103C000040F2EE224FF444710A20FCF7E9FBFCF786
:103C1000C3FB4FF47A70FEF7E9FA4FF49672B321C2
:103C20000720FCF7DDFB4FF496724FF40671082075
:103C3000FCF7D6FB4FF4967240F227210920FCF7DF
:103C4000CFFB4FF496724FF44C710A20FCF7C8FB7F
:103C5000FCF7A2FB4FF47A70FEF7C8FA4FF49672A5
:103C600040F2F1110720FCF7BBFB4FF4967240F2D3
:103C70005A310820FCF7B4FB4FF49672F621092064
:103C8000FCF7AEFB4FF4967240F2FD110A20FCF7F0
:103C9000A7FBFCF781FB4FF44870FEF7A7FA4FF43F
:103CA000967240F2EB110220FCF79AFB4FF49672E9
:103CB0004FF413710320FCF793FB4FF4967240F21C
:103CC0002B210420FCF78CFB642240F22F110520ED
:103CD000FCF786FB642294210620FCF781FBFCF7AD
:103CE0005BFB4FF41670FEF781FA4FF496724FF4B7
:103CF000D2710320FCF774FB4FF4967240F29711D7
:103D00000420FCF76DFB4FF496724FF4827107208C
:103D1000FCF766FB4FF4967240F23D110A20FCF767
:103D20005FFBFCF739FB4FF44870FEF75FFA4FF486
:103D300096724FF413710320FCF752FB4FF4967206
:103D400040F22B210420FCF74BFB4FF4967240F21B
:103D5000CA210720FCF744FB4FF4967240F28B21F6
:103D60000A20FCF73DFBFCF717FB4FF44870FEF709
:103D70003DFA4FF496724FF4D2710320FCF730FBFA
:103D80004FF4967240F297110420FCF729FB4FF490
:103D900096724FF482710720FCF722FB4FF4967263
:103DA00040F23D110A20FCF71BFBFCF7F5FA4FF43B
:103DB0004870FEF71BFA4FF4967240F2562103202A
:103DC000FCF70EFB4FF4967240F2CB110420FCF787
:103DD00007FB4FF4967240F2F1110720FCF700FB4D
:103DE0004FF4967240F25A310820FCF7F9FA4FF47A
:103DF0009672F6210920FCF7F3FA4FF4967240F21E
:103E0000FD110A20FCF7ECFAFCF7C6FA4FF47A70C1
:103E1000FEF7ECF9C82240F2F7110120FCF7E0FAB6
:103E2000C82240F207210220FCF7DAFAC82240F249
:103E300032210320FCF7D4FAC82240F2F311042007
:103E4000FCF7CEFA6422E1210520FCF7C9FA6422CE
:103E50004FF4E6710620FCF7C3FA4FF4967240F275
:103E6000A7210920FCF7BCFA642240F201210A20B4
:103E7000FCF7B6FAFCF790FA4FF47A70FEF7B6F951
:103E8000C82240F232210320FCF7AAFA4FF49672BE
:103E900040F296210420FCF7A3FAC82240F2451113
:103EA0000520FCF79DFAC82240F201110620FCF71C
:103EB00097FA4FF4967240F29A310820FCF790FA84
:103EC0004FF4967240F2A7210920FCF789FAC82224
:103ED00040F201210A20FCF783FAFCF75DFA4FF467
:103EE000C870FEF783F94FF496724FF4F671022012
:103EF000FCF776FAC82240F23E210320FCF770FA64
:103F00004FF4967240F297210420FCF769FAC82218
:103F100040F2FB110520FCF763FAC82240F2991128
:103F20000620FCF75DFA4FF496724FF4FE710720FD
:103F3000FCF756FA4FF4AF7240F29A310820FCF7C2
:103F40004FFAFA224FF415710920FCF749FAFA22C8
:103F500040F25A210A20FCF743FAFCF71DFA4FF40D
:103F60007A70FEF743F9C820FEF740F94FF49672D5
:103F700040F2E3110120FCF733FA4FF496724FF44C
:103F8000F8710220FCF72CFA4FF496724FF4C471CA
:103F90000320FCF725FA4FF496724FF4DA710420EF
:103FA000FCF71EFA4FF4967240F297210520FCF7B9
:103FB00017FA4FF496724FF41E710620FCF710FAB0
:103FC0004FF4967240F2EF110720FCF709FA4FF414
:103FD000967240F253310820FCF702FA4FF49672C1
:103FE000F4210920FCF7FCF94FF496724FF4FD71AF
:103FF0000A20FCF7F5F9FCF7CFF94FF47A70FEF7D9
:10400000F5F84FF4FA70FEF7F1F810BD10B54FF463
:10401000967240F206210320FCF7E2F94FF4967203
:104020004FF419710420FCF7DBF94FF496724FF44A
:10403000FB710520FCF7D4F94FF4967240F2C111E0
:104040000620FCF7CDF94FF4967240F2E3110720F9
:10405000FCF7C6F94FF496724FF453710820FCF741
:10406000BFF94FF49672FB210920FCF7B9F94FF420
:10407000967240F203210A20FCF7B2F9FCF78CF9A2
:104080004FF47A70FEF7B2F84FF4967240F2932133
:104090000320FCF7A5F94FF4967240F28531042015
:1040A000FCF79EF94FF496724FF4FA710520FCF775
:1040B00097F94FF4967240F29F110620FCF790F9A1
:1040C0004FF4967240F2AF110720FCF789F94FF4D4
:1040D00096724FF450710820FCF782F94FF49672F3
:1040E0004FF4DB710920FCF77BF94FF4967240F234
:1040F00095210A20FCF774F9FCF74EF94FF47A7019
:10410000FEF774F84FF4967240F275210320FCF725
:1041100067F94FF4967240F2D7210420FCF760F95A
:104120004FF4967240F2A3110520FCF759F94FF4B1
:1041300096724FF4D6710620FCF752F94FF496723E
:104140004FF4E4710720FCF74BF94FF4967240F2FC
:104150002D310820FCF744F94FF4967240F21D11FE
:104160000920FCF73DF94FF4967240F226210A200F
:10417000FCF736F9FCF710F94FF47A70FEF736F8D1
:104180004FF4967240F293210320FCF729F94FF483
:10419000967240F285310420FCF722F94FF49672B2
:1041A0004FF4FA710520FCF71BF94FF4967240F2B8
:1041B0009F110620FCF714F94FF4967240F2AF11EC
:1041C0000720FCF70DF94FF496724FF45071082058
:1041D000FCF706F94FF496724FF4DB710920FCF7F7
:1041E000FFF84FF4967240F295210A20FCF7F8F898
:1041F000FCF7D2F84FF47A70FDF7F8FF4FF496729F
:104200004FF40E710320FCF7EBF84FF4967240F276
:104210006A210420FCF7E4F84FF4967240F2A911E9
:104220000520FCF7DDF84FF49672A3210620FCF779
:10423000D7F84FF4967240F261110720FCF7D0F8DE
:104240004FF496724FF426710820FCF7C9F84FF42A
:104250009672FF210920FCF7C3F84FF4967240F2E2
:104260002F210A20FCF7BCF8FCF796F84FF47A707F
:10427000FDF7BCFF4FF4967240F24D210320FCF78E
:10428000AFF84FF4967240F2CD210420FCF7A8F865
:104290004FF496724FF4D6710520FCF7A1F84FF455
:1042A00096724FF4AB710620FCF79AF84FF49672B1
:1042B0004FF4D8710720FCF793F84FF4967240F250
:1042C0001B310820FCF78CF84FF4967240F23F1136
:1042D0000920FCF785F84FF4967240F247210A2036
:1042E000FCF77EF8FCF758F84FF47A70FDF77EFF84
:1042F0004FF496724FF40E710320FCF771F84FF4EF
:10430000967240F26A210420FCF76AF84FF4967224
:1043100040F2A9110520FCF763F84FF49672A3212F
:104320000620FCF75DF84FF4967240F26111072009
:10433000FCF756F84FF496724FF426710820FCF7FC
:104340004FF84FF49672FF210920FCF749F84FF41B
:10435000967240F22F210A20FCF742F8FCF71CF875
:104360004FF47A70FDF742FF4FF4967240F2E3117A
:104370000120FCF735F84FF496724FF4F8710220E3
:10438000FCF72EF84FF4FA724FF4C4710320FCF7D7
:1043900027F84FF4FA724FF4DA710420FCF720F892
:1043A0004FF4FA7240F297210520FCF719F84FF408
:1043B000FA724FF41E710620FCF712F84FF4967251
:1043C00040F2EF110720FCF70BF84FF4967240F221
:1043D00053310820FCF704F84FF49672F4210920B9
:1043E000FBF7FEFF4FF496724FF4FD710A20FBF7C6
:1043F000F7FFFBF7D1FF4FF47A70FDF7F7FE10BD22
:1044000010B54FF41672B4210120FBF7E9FF4FF409
:10441000FA7240F217110220FBF7E2FF4FF4967296
:104420004FF4CF710320FBF7DBFF4FF4967240F29D
:104430001A210420FBF7D4FF4FF4967240F2812139
:104440000520FBF7CDFF4FF496724FF4FB71062069
:10445000FBF7C6FF4FF4967240F2EF110720FBF70F
:10446000BFFF4FF4967240F253310820FBF7B8FFBC
:104470004FF49672F4210920FBF7B2FF4FF49672C5
:104480004FF4FD710A20FBF7ABFFFBF785FF4FF4FC
:104490007A70FDF7ABFEC82240F229210320FBF71A
:1044A0009FFFC82240F2E2210420FBF799FFC822B7
:1044B00040F2E9110520FBF793FFC82240F23911C1
:1044C0000620FBF78DFFFBF767FF6420FDF78EFEEC
:1044D0004FF4967240F291210120FBF781FFC82230
:1044E0007E210220FBF77CFF4FF496724FF41A7185
:1044F0000320FBF775FF4FF496724FF426710420EA
:10450000FBF76EFF4FF496724FF4E3710520FBF753
:1045100067FF4FF496724FF4BA710620FBF760FF05
:10452000FBF73AFF4FF47A70FDF760FE4FF47A70B4
:10453000FDF75CFE4FF4967240F25A310920FBF70A
:104540004FFFFBF729FF4FF47A70FDF74FFE4FF452
:104550004870FDF74BFE4FF496724FF4EA7101205C
:10456000FBF73EFF4FF49672C1210220FBF738FFA4
:104570004FF4487240F2EE210720FBF731FFFBF7C2
:104580000BFF4FF47A70FDF731FE4FF4967240F254
:10459000F1110720FBF724FF4FF4967240F221211E
:1045A0000820FBF71DFF4FF4967240F227210920E7
:1045B000FBF716FFFBF7F0FE4FF47A70FDF716FEDF
:1045C000C82240F2EF110120FBF70AFFC822C121E7
:1045D0000220FBF705FFC82240F22B310320FBF736
:1045E000FFFEC82240F27B110420FBF7F9FEC8222F
:1045F000F0210520FBF7F4FEC82240F2B32106208B
:10460000FBF7EEFEC82240F2EF110720FBF7E8FEB1
:10461000C82240F222210820FBF7E2FEC82240F225
:1046200029210920FBF7DCFEC82240F2F7110A20FD
:10463000FBF7D6FEFBF7B0FE4FF47A70FDF7D6FD20
:104640004FF49670FDF7D2FDC8224FF4F9710220A5
:10465000FBF7C6FEFBF7A0FE4FF47A70FDF7C6FD30
:104660004FF49670FDF7C2FD4FF496724FF445710A
:104670000320FBF7B5FE4FF4967240F23D21042073
:10468000FBF7AEFE4FF496724FF49B710520FBF7DB
:10469000A7FE4FF496724FF42D710620FBF7A0FE93
:1046A0004FF4967240F2FB210720FBF799FE4FF47E
:1046B000967240F25D310820FBF792FE4FF496723D
:1046C000F8210920FBF78CFE4FF4967240F2E221AC
:1046D0000A20FBF785FEFBF75FFE4FF47A70FDF7CB
:1046E00085FD4FF49670FDF781FD4FF4FA72B3210A
:1046F0000720FBF775FE4FF496724FF40671082001
:10470000FBF76EFE4FF4967240F227210920FBF76B
:1047100067FE4FF4FA724FF44C710A20FBF760FE0B
:10472000FBF73AFE4FF47A70FDF760FD4FF4967296
:1047300040F2FB210720FBF753FE4FF4967240F244
:104740005D310820FBF74CFE4FF49672F8210920EA
:10475000FBF746FE4FF4967240F2E2210A20FBF787
:104760003FFEFBF719FE4FF47A70FDF73FFD4FF463
:10477000967240F2EF110120FBF732FE4FF4967271
:104780004FF4F9710220FBF72BFE4FF4967240F2C2
:104790002B310320FBF724FE4FF4967240F27B117D
:1047A0000420FBF71DFE4FF49672F0210520FBF765
:1047B00017FE4FF4967240F2B3210620FBF710FE6D
:1047C0004FF4FA72511F0720FBF70AFE4FF496725E
:1047D00040F222210820FBF703FE4FF4967240F2CC
:1047E00029210920FBF7FCFD4FF4FA72D11C0A20A5
:1047F000FBF7F6FDFBF7D0FD4FF47A70FDF7F6FC02
:104800004FF49670FDF7F2FC4FF4967240F293214C
:104810000320FBF7E5FD4FF496724FF4CE710420B0
:10482000FBF7DEFD4FF49672CC210520FBF7D8FD97
:104830004FF496724FF4FA710620FBF7D1FD4FF456
:10484000FA724FF495710720FBF7CAFD4FF4967288
:104850004FF453710820FBF7C3FD4FF49672F82113
:104860000920FBF7BDFD4FF4FA724FF485710A2061
:10487000FBF7B6FDFBF790FD4FF47A70FDF7B6FC41
:104880004FF49670FDF7B2FC4FF4FA72B321072093
:10489000FBF7A6FD4FF496724FF406710820FBF764
:1048A0009FFD4FF4967240F227210920FBF798FDF7
:1048B0004FF4FA724FF44C710A20FBF791FDFBF7AD
:1048C0006BFD4FF47A70FDF791FC4FF4FA7240F2F1
:1048D000FB210720FBF784FDC82240F25D31082050
:1048E000FBF77EFD4FF49672F8210920FBF778FD67
:1048F0004FF4FA7240F2E2210A20FBF771FDFBF758
:104900004BFD4FF47A70FDF771FC4FF4C8724FF411
:10491000F4710220FBF764FDC82240F21B31032032
:10492000FBF75EFDC82240F211210420FBF758FD81
:10493000C822E9210520FBF753FDC8224FF4FB7183
:104940000620FBF74DFDC82240F2EF110720FBF7D0
:1049500047FDC8224FF457710820FBF741FDC822DC
:10496000F1210920FBF73CFDC82240F2F7110A2093
:10497000FBF736FDFBF710FD4FF47A70FDF736FCC0
:104980004FF4967240F223210320FBF729FD4FF4E8
:10499000967240F2E5210420FBF722FD4FF4967257
:1049A00040F205210520FBF71BFD4FF49672D11D47
:1049B0000620FBF715FDFBF7EFFC4FF49660FDF7C3
:1049C00015FC9622E5210220FBF70AFDFBF7E4FC2B
:1049D0004FF47A70FDF70AFC4FF44870FDF706FCBF
:1049E0004B224FF430710120FBF7FAFCFBF7D4FCAB
:1049F0004FF47A70FDF7FAFB4FF4FA70FDF7F6FB0F
:104A00004FF49672AE210120FBF7EAFC4FF4967248
:104A100040F205110220FBF7E3FCFBF7BDFC4FF46D
:104A20004870FDF7E3FB4FF4967240F22B21032010
:104A3000FBF7D6FC4FF4967240F203210420FBF7FB
:104A4000CFFC4FF4967240F2E1110520FBF7C8FC51
:104A50004FF496724FF405710620FBF7C1FCFBF78B
:104A60009BFC4FF44870FDF7C1FB4FF4967240F287
:104A700001110120FBF7B4FC4FF496724FF4A971B9
:104A80000220FBF7ADFC4FF4967240F25311032065
:104A9000FBF7A6FC4FF4967240F2FF110420FBF7DF
:104AA0009FFC4FF4967240F2C7210520FBF798FC5B
:104AB0004FF496724FF406710620FBF791FCFBF75A
:104AC0006BFC4FF47A70FDF791FB4FF49672EF2177
:104AD0000120FBF785FC4FF49672E4210220FBF7DE
:104AE0007FFC4FF4967240F281110320FBF778FCB3
:104AF0004FF496724FF4F4710420FBF771FC4FF4FD
:104B0000967240F29F210520FBF76AFC4FF49672E3
:104B10004FF407710620FBF763FCFBF73DFC4FF4F5
:104B20009670FDF763FB4FF4967240F2F511012089
:104B3000FBF756FC4FF4967240F2EB110220FBF7A4
:104B40004FFC4FF496724FF4B4710320FBF748FC0E
:104B50004FF4967240F2F1110420FBF741FC4FF440
:104B6000967240F2AB210520FBF73AFC4FF49672A7
:104B700040F226210620FBF733FC4FF4967240F2F8
:104B8000EF110720FBF72CFC4FF4967240F25331E3
:104B90000820FBF725FC4FF49672F4210920FBF75F
:104BA0001FFC4FF496724FF4FD710A20FBF718FCBE
:104BB000FBF7F2FB4FF47A70FDF718FB4FF47A70B5
:104BC000FDF714FB4FF47A70FDF710FB10BD00E009
:104BD00010080810E000000F102020100F00001037
:104BE00010F8000000000020203F2020000000708E
:104BF0000808088870000030282422213000003086
:104C00000888884830000018202020110E0000007D
:104C1000C02010F8000000070424243F240000F8FE
:104C20000888880808000019212020110E0000E0E3
:104C3000108888180000000F112020110E00003885
:104C40000808C83808000000003F0000000000709D
:104C5000880808887000001C222121221C0000E026
:104C600010080810E0000000312222110F0000009F
:104C70000000000000000030300000000000087854
:104C8000880000C83808000007380E010000000046
:104C900000000080C0404040C080000000000000D4
:104CA000F0FE0F0100000000000107FEF000000010
:104CB0001FFFE000000000000000C0FF1F00000018
:104CC00000000103060404040603010000000000C4
:104CD000000000000080C000000000000000000094
:104CE0000001010101FFFF000000000000000000C2
:104CF0000000000000FFFF000000000000000000B6
:104D00000004040406070706040404000000000071
:104D10000000804040404040C08080000000000013
:104D20001E1900000000000000C17F3E00000000CE
:104D30000080402010080402010000E00000000094
:104D4000070606060606060606060701000000001E
:104D500000808040404040C0808000000000000093
:104D60000F0F0000808080C0613F1E000000000027
:104D7000E0E00000000000010103FE7800000000F8
:104D80000103020404040404020301000000000003
:104D90000000000000000080C0C000000000000013
:104DA00000008060300C02FFFFFF000000000010D8
:104DB0001C121110101010FFFFFF10101000000047
:104DC000000000000808080F0F0F08080800000086
:104DD0000000C0C0C0C0C0C0C0C0C0C00000000053
:104DE00000F887402020202060C0800000000000E4
:104DF000E0610000000000000080FF7E0000000075
:104E00000102040404040404020301000000000081
:104E10000000000080C040404040800000000000D2
:104E2000E0FC0E818040404040C083030000000051
:104E30003FFFC30100000000000001FF7E000000F2
:104E40000000010306040404040203010000000042
:104E500000C0C0C0C0C0C0C0C0C0C0C00000000012
:104E60000F03010000008060180601000000000030
:104E700000000000E0FC0300000000000000000053
:104E80000000000007070000000000000000000014
:104E9000000080C040404040C08000000000000092
:104EA0001E3F71E0C080808080613F1E000000F8DE
:104EB000FC06030100010103070EFCF800000000DE
:104EC00001030204040404040203010000000000C2
:104ED000008080404040404080000000000000FC16
:104EE000FF030000000000000083FEF80000000047
:104EF000818306040404040283F17F0F0000000094
:104F00000303040404040603010000000000000081
:104F10000000000000000000000000000000000091
:104F20000000000000000000000000000000000081
:104F30000080800000000000000000000000000071
:104F4000030707030000000000000000000000400D
:104F500040C0C04000000000004040C04040000091
:104F600000033FFCC000000000C03C030000000044
:104F7000000000031FFEE0E01E0300000000000030
:104F80000000000000010701000000000000000018
:104F9000B04F00080000002040010000B8010008E8
:104FA0008850000840010020080600001014000886
:104FB000412D010203040410090607080902040632
:104FC0000884A24A0469180116100A8088898EF89C
:104FD0008C8B888016FE0222DA0620094020100CF5
:104FE0000304083026FF0810080712E012FF132000
:104FF000C02AFE0522FF458140300F423F19104A6A
:1050000020015AFF08113B808042111008030C1048
:105010002040808018084030119690909104169896
:10502000141350302A04013E44847E06050A111CE4
:105030001010F11C100A10282724E42424E4041F73
:1050400080601F40807F0627207F44444440100F2B
:105050001088C43310545454FF54547C10101B0255
:1050600001761E10121212FF0442108A080131CA82
:1050700010012149D739AC5119D716884720180794
:085080001B0718A1310000001C
:0400000508000131BD
:00000001FF
