:020000040800F2
:1000000048070020450100084D0100084F01000885
:1000100051010008530100085501000800000000CC
:100020000000000000000000000000005701000870
:1000300059010008000000005B0100085D01000894
:100040005F0100085F0100085F0100085F01000810
:100050005F0100085F0100085F0100085F01000800
:100060005F0100085F0100085F0100085F010008F0
:100070005F0100085F0100085F0100085F010008E0
:100080005F0100085F0100085F0100085F010008D0
:100090005F0100085F0100085F0100085F010008C0
:1000A0005F0100085F0100085F0100085F010008B0
:1000B000610F00085F0100085F0100085F01000890
:1000C0005F0100085F0100085F0100085F01000890
:1000D0005F010008DD1000085F0100085F010008F3
:1000E0005F0100085F0100085F0100085F01000870
:1000F0005F0100085F0100085F0100085F01000860
:100100005F0100085F0100085F0100085F0100084F
:100110005F0100085F0100085F0100085F0100083F
:100120005F0100085F0100085F0100085F0100082F
:10013000DFF80CD000F02EF8004800471126000828
:10014000480700200648804706480047FEE7FEE7CC
:10015000FEE7FEE7FEE7FEE7FEE7FEE7FEE7FEE777
:10016000010F00083101000830B50B4601460020A0
:100170002022012409E021FA02F59D4205D303FA69
:1001800002F5491B04FA02F52844151EA2F10102EA
:10019000F1DC30BD064C074D06E0E06840F001039D
:1001A00094E8070098471034AC42F6D3FFF7C4FF39
:1001B000984B0008B84B000870B58C1810F8015B1C
:1001C00015F0070301D110F8013B2A1106D110F8F0
:1001D000012B03E010F8016B01F8016B5B1EF9D1F4
:1001E0002B0705D40023521E0DD401F8013BFAE77A
:1001F00010F8013BCB1A921C03E013F8015B01F8E5
:10020000015B521EF9D5A142D8D3002070BD21B1A7
:10021000826842F00102826003E0826822F00102FB
:100220008260704721B1826842F48072826003E08C
:10023000826822F4807282607047014600208A68DA
:1002400002F004020AB1012000E0002070470146DC
:1002500000208A6802F008020AB1012000E00020B4
:100260007047000030B502460020002350680F4C54
:1002700020400D790C6844EA0524204350609068C2
:100280000B4C2040D1E902542C434D7944EA4504FB
:1002900020439060D06A20F470000C7C641EE4B2AD
:1002A000234340EA0350D06230BD0000FFFEF0FF60
:1002B000FDF7F1FFF0B504460D4600200021092DA1
:1002C00011DDE068A5F10A0606EB4607072606FAE7
:1002D00007F18843A5F10A0606EB460603FA06F184
:1002E0000843E0600CE0206905EB4507072606FAA5
:1002F00007F1884305EB450603FA06F10843206140
:10030000072A0FDA606B561E06EB86071F2606FAD1
:1003100007F18843561E06EB860605FA06F10843E8
:10032000606322E00D2A0FDA206BD61F06EB8607EA
:100330001F2606FA07F18843D61F06EB860605FA44
:1003400006F10843206310E0E06AA2F10D0606EB17
:1003500086071F2606FA07F18843A2F10D0606EB71
:10036000860605FA06F10843E062F0BD816841F0B7
:1003700008018160704721B1826842F4A002826066
:1003800003E0826822F4A00282607047816841F035
:10039000040181607047000010B50024FF2000F0C8
:1003A000D1FCFF2000F0CEFCFE2000F0CBFC0220B0
:1003B00000F0C8FC052000F0C5FC0524E043C4B2F1
:1003C000204600F0BFFC00BF0448008800F0400059
:1003D0000028F9D0022001F009FF10BD00380140CB
:1003E0002DE9FC5F06460C4615460027B846B9467F
:1003F000BA46BB460020019000902F46A0464FEA27
:10040000272907F0FF0A4FEA282B08F0FF00019088
:10041000FF2000F097FCFF2000F094FC304600F035
:1004200091FC072000F08EFC042000F08BFC1E20C5
:1004300000F088FC019800F085FC584600F082FC32
:10044000504600F07FFC484600F07CFC06F1290095
:1004500001990844584450444844C0B20090009860
:10046000C043C0B20090009800F06CFC00BF05488B
:10047000008800F040000028F9D0022001F0B6FE0C
:10048000BDE8FC9F0038014021B1026842F0010242
:10049000026004E002684FF6FE731A400260704783
:1004A00001684FF6FE721140016000210160416059
:1004B0008160C1604B49884208D14A49083949687E
:1004C00041F00F01474A083A51608AE0454914312A
:1004D000884208D143490839496841F0F001414A4E
:1004E000083A51607DE03F492831884208D13D49B2
:1004F0000839496841F470613A4A083A516070E03D
:1005000038493C31884208D136490839496841F4B4
:100510007041344A083A516063E0324950318842B0
:1005200008D130490839496841F470212D4A083A08
:10053000516056E02B496431884208D12949083975
:10054000496841F47001274A083A516049E0254959
:100550007831884208D123490839496841F07061EF
:10056000204A083A51603CE01F49884206D1011FE9
:10057000096841F00F01021F116032E01A4914317D
:10058000884208D11849091F096841F0F001164A4C
:10059000121F116025E014492831884208D1124900
:1005A000091F096841F470610F4A121F116018E0B9
:1005B0000D493C31884208D10B49091F096841F4B3
:1005C0007041094A121F11600BE0074950318842FF
:1005D00007D10549091F096841F47021024A121F19
:1005E00011607047080002400804024010B5002264
:1005F000026847F6F0739A430C6A8B6823430C69D0
:1006000023434C6923438C692343CC6923434C6ABD
:1006100023438C6A23431A430260CB6843600B6810
:1006200083604B68C36010BD08B501210D2000F048
:100630000FFB0121124800F0B5F80C20ADF80000C6
:1006400003208DF8020010208DF8030069460D4844
:1006500000F01CF80C210B4800F0EEF80420ADF877
:10066000000002208DF8020010208DF8030069467A
:10067000054800F00BF80421034800F0DBF808BD42
:100680000002300000080140000C01402DE9F0415B
:10069000024600250026002000230024002791F8B0
:1006A00003C00CF00F0591F803C00CF0100CBCF166
:1006B000000F03D091F802C04CEA050591F800C084
:1006C000BCF1000F31D0146800202BE04FF0010C7A
:1006D0000CFA00F3B1F800C00CEA03069E4220D1E8
:1006E00083004FF00F0C0CFA03F7BC4305FA03FC30
:1006F0004CEA040491F803C0BCF1280F06D14FF076
:10070000010C0CFA00FCC2F814C00AE091F803C016
:10071000BCF1480F05D14FF0010C0CFA00FCC2F8F7
:1007200010C0401C0828D1D31460B1F800C0BCF13F
:10073000FF0F34DD546800202EE000F1080C4FF06C
:10074000010808FA0CF3B1F800C00CEA03069E4257
:1007500021D183004FF00F0C0CFA03F7BC4305FACC
:1007600003FC4CEA040491F803C0BCF1280F05D146
:1007700000F1080C08FA0CF8C2F8148091F803C0D4
:10078000BCF1480F07D100F1080C4FF0010808FA3E
:100790000CF8C2F81080401C0828CED35460BDE885
:1007A000F0810000F0B50A46002300240021002556
:1007B00000F00046B6F1004F02D11D4EF16901E094
:1007C0001B4E7168C0F3034583B200F44016B6F5C2
:1007D000401F08D121F07061154E766826F07066D2
:1007E000134F7E6012E000F48016B6F5801F06D12C
:1007F000032606FA05F4A14341F0706106E0460DB8
:10080000360103FA06F6B14341F0706122B1460D9C
:10081000360103FA06F6314300F00046B6F1004F08
:1008200002D1034EF16101E0014E7160F0BD0000A4
:1008300000000140416170470161704710B50F48E9
:10084000006820F470600D4908600846006840F4B4
:100850004070086001200A4908600A49C1F88C010B
:10086000042001F0EFFC002005490860042001F09D
:10087000E9FC00200349C1F88C0110BD00080140CB
:10088000880121420000214210B50F48006820F481
:1008900070600D4908600846006840F440700860C8
:1008A00000200A4908600A49C1F88801042001F0C3
:1008B000C9FC0120054908600549C1F888010420E8
:1008C00001F0C0FC10BD0000000801408C01214275
:1008D0000000214210B50848006800F0040028B16B
:1008E000042105480838FFF7A5FF04E00421024869
:1008F0000838FFF7A1FF10BD080C014000B500202B
:1009000015490861C8601420486100208861C861E9
:100910000846006840F001000860084640680F493A
:1009200008400D494860084600680D4908400A49DA
:1009300008600846006820F4802008600846406887
:1009400020F4FE0048600020886000214FF0006025
:1009500000F008F800BD0000001002400000FFF8A1
:10096000FFFFF6FE024A0A400243024B1A6070473C
:1009700080FFFF1F08ED00E070B5002100230F226B
:10098000C47804B3154C246804F4E064C4F5E0644E
:10099000210AC1F10403CA40447804FA03F18478BF
:1009A0001440214309010E4C0678A155047804F047
:1009B0001F050124AC4005786D11AD0005F1E0255F
:1009C000C5F8004109E0047804F01F050124AC409B
:1009D000044D0678761145F8264070BD0CED00E018
:1009E00000E400E080E100E002490143024A1160B6
:1009F000704700000000FA050CED00E070B50646F7
:100A0000002415E004F1B001C8B200F078FC002029
:100A100000F075FC102000F072FC002504E0304668
:100A200000F07DFC681CC5B2802DF8DB601CC4B2F0
:100A3000082CE7DB70BD10B5AE2000F060FCD520BF
:100A400000F05DFCF02000F05AFCA82000F057FCFC
:100A50003F2000F054FCD32000F051FC002000F0B7
:100A60004EFC402000F04BFC8D2000F048FC142090
:100A700000F045FCAF2000F042FC102000F03FFCED
:100A8000A12000F03CFCC82000F039FCDA2000F086
:100A900036FC122000F033FC812000F030FCFF20F7
:100AA00000F02DFCD92000F02AFC222000F027FCC9
:100AB000DB2000F024FC302000F021FCA42000F01A
:100AC0001EFCA62000F01BFCAF2000F018FC20202C
:100AD00000F015FCB02000F012FC002000F00FFC2C
:100AE000102000F00CFC10BD70B504460D4605F159
:100AF000B001C8B200F003FC102141EA141000F06C
:100B0000FEFB04F00F0141F0010000F0F8FB70BDA6
:100B10002DE9F04180460E46174600247D013146FE
:100B20004046FFF7E1FF00BF06E00D49485D00F0D9
:100B3000F6FB6D1C601CC4B2102CF6DB701CC1B23D
:100B40004046FFF7D1FF002406E00549485D00F06C
:100B5000E6FB6D1C601CC4B2102CF6DBBDE8F08116
:100B60003E0000202DE9F04180460E461746002445
:100B7000BD0131464046FFF7B7FF00BF06E01D4903
:100B8000485D00F0CCFB6D1C601CC4B2102CF6DB81
:100B9000701CC1B24046FFF7A7FF002406E01549CC
:100BA000485D00F0BCFB6D1C601CC4B2102CF6DB71
:100BB000B01CC1B24046FFF797FF002406E00D4984
:100BC000485D00F0ACFB6D1C601CC4B2102CF6DB61
:100BD000F01CC1B24046FFF787FF002406E005493C
:100BE000485D00F09CFB6D1C601CC4B2102CF6DB51
:100BF000BDE8F0819648000801460020034A50688D
:100C000020F440400843506070470000001002404C
:100C100029B1064A52690243044B5A6104E0034A6F
:100C200052698243014B5A61704700000010024034
:100C300029B1064AD2690243044BDA6104E0034A4F
:100C4000D2698243014BDA61704700000010024014
:100C500029B1064A92690243044B9A6104E0034AAF
:100C600092698243014B9A61704700000010024074
:100C700030B500210022002400232D4D6D6805F0C1
:100C80000C0121B1042905D0082923D105E0294D03
:100C9000056022E0274D05601FE0254D6D6805F4D5
:100CA0007012234D6D6805F48034022505EB9242E5
:100CB0001CB9214D554305600BE01D4D6D6805F4D1
:100CC00000351DB11C4D5543056002E0194D5543DB
:100CD000056002E0174D056000BF00BF144D6D6850
:100CE00005F0F0010909154D6B5C0568DD404560B4
:100CF0000F4D6D6805F4E061090A104D6B5C4568A5
:100D0000DD4085600A4D6D6805F46051C90A0B4DE0
:100D10006B5C4568DD40C560054D6D6805F440417C
:100D2000890B074D6B5CC568B5FBF3F5056130BDFC
:100D30000010024000127A0000093D00000000206F
:100D4000100000200549088000BF0449091F0988D8
:100D500001F040010029F8D070470000043801403C
:100D600010B500F001F810BD0CB500200190009006
:100D70003348006840F480303149086000BF304893
:100D8000006800F4003000900198401C0190009829
:100D900018B90198B0F5A06FF1D12948006800F4A6
:100DA000003010B10120009001E000200090009878
:100DB000012843D12348006840F010002149086011
:100DC0000846006820F0030008600846006840F00C
:100DD000020008601A48406819494860084640689F
:100DE00048600846406840F48060486008464068B3
:100DF00020F47C1048600846406840F4E8104860E1
:100E00000846006840F08070086000BF0C48006829
:100E100000F000700028F9D00948406820F0030075
:100E2000074948600846406840F00200486000BF3B
:100E30000348406800F00C000828F9D10CBD000000
:100E4000001002400020024030B504460025FFF7A4
:100E500055FD1F48006840F480301D49086000BF00
:100E60001B480068400C0028FAD04FF480601849F5
:100E70004860A01EC4B20846406840EA844048600A
:100E80000846406840F4803048601248006840F0EE
:100E90003200104908600E48006840F080700C492C
:100EA000086000BF0A480068400E0028FAD00848D1
:100EB000406840F002000649486005E00448406888
:100EC000C0F3870505F00305022DF7D130BD000002
:100ED0000010024000200240042808D14FF0E02119
:100EE000096941F004014FF0E022116107E04FF081
:100EF000E021096921F004014FF0E02211617047FF
:100F000010B51348006840F0010011490860084618
:100F10004068104908400E494860084600680E497C
:100F200008400B4908600846006820F480200860EB
:100F30000846406820F4FE0048604FF41F008860B7
:100F4000FFF70EFF4FF000600449086010BD00007D
:100F5000001002400000FFF8FFFFF6FE08ED00E081
:100F600010B50121880700F04CF8012808D10121B3
:100F7000800700F037F803480068401C014908600A
:100F800010BD0000280000201FB501210846FFF712
:100F90004FFE1C208DF8000000208DF801008DF818
:100FA000020001208DF803006846FFF7E5FC42F2DD
:100FB0000F70ADF808004720ADF804000020ADF830
:100FC0000600ADF80A0001A94FF0804000F034F8A7
:100FD00001221146900700F025F80121880700F052
:100FE00004F81FBDCA430282704721B1028842F053
:100FF0000102028004E002884FF6FE731A4002806C
:10100000704730B50246002000230024158A05EA07
:101010000103958905EA010413B10CB1012000E038
:10102000002030BD1AB183890B43838102E083899C
:101030008B43838170470000002202881D4B984239
:101040000ED01D4B98420BD0B0F1804F08D01B4BF7
:10105000984205D01A4B984202D01A4B984204D1BC
:101060004FF68F731A404B881A43174B984207D09C
:10107000164B984204D04FF6FF431A40CB881A43D0
:1010800002808B8883850B8803850A4B98420BD09E
:10109000094B984208D00E4B984205D00D4B984210
:1010A00002D00D4B984201D10B7A03860123838233
:1010B00070470000002C0140003401400004004053
:1010C00000080040000C00400010004000140040E8
:1010D00000400140004401400048014010B540F28A
:1010E00025511D4800F04AF810B31B4800F002F9E2
:1010F000C4B21A48008800F40040C8B917480088F4
:1011000000F4804060B10A2C03D00020134908800D
:1011100020E01248008840F400401049088019E09F
:101120000D2C06D10D48008840F480400B49088002
:1011300010E00A480088C0F30D0009490C54074824
:101140000088401C0549088008460088C72801DD42
:101150000020088010BD0000003801403C00002045
:101160008002002021B1828942F40052828104E091
:1011700082894DF6FF731A408281704770B502462E
:10118000002400230025002040F66A16B14200D159
:1011900000BFC1F3421501F01F03012606FA03F355
:1011A000012D02D19689334006E0022D02D1168A24
:1011B000334001E0968A33400C12012606FA04F40B
:1011C0001688344013B10CB1012000E0002070BD3E
:1011D000F0B50346002400260025002040F66A17DB
:1011E000B94200D100BF1846C1F3421401F01F06F6
:1011F000012707FA06F5012C01D10C3004E0022C7E
:1012000001D1103000E014301AB107682F43076095
:1012100002E00768AF430760F0BD00002DE9F0472A
:1012200086B005460E460024A24600BFA146002710
:10123000B08900B100BF2F462C8A4CF6FF700440E5
:10124000F08804432C82AC894EF6F3100440B08839
:1012500031890843718908430443AC81AC8A4FF655
:10126000FF400440B0890443AC8201A8FFF700FDB1
:101270001F48874202D1DDF810A001E0DDF80CA084
:10128000A88900F4004040B10AEBCA0000EB0A1044
:1012900031684900B0FBF1F807E00AEBCA0000EB47
:1012A0000A1031688900B0FBF1F86420B8FBF0F057
:1012B00004012009642101FB1089A88900F4004081
:1012C00040B1322000EBC900B0FBF1F000F00700A4
:1012D000044308E0322000EB09106421B0FBF1F078
:1012E00000F00F0004432C8106B0BDE8F087000039
:1012F0000038014001468888C0F30800704710B5E7
:101300000446FFF79BFA782000F01AF8002000F05E
:1013100017F8204600F014F8FFF7B6FA10BD10B524
:101320000446FFF78BFA782000F00AF8402000F01E
:1013300007F8204600F004F8FFF7A6FA10BD0000F9
:1013400070B504462348006820F4706021490860A5
:101350000846006840F44070086000201E4908609C
:1013600000251FE004F0800020B101201A49091F68
:10137000086003E000201849091F08606006040E99
:10138000022000F05FFF012013490860022000F0F6
:1013900059FF00201149C1F88C01022000F052FFD2
:1013A000681CC5B2082DDDDB01200B49091F086050
:1013B000022000F047FF01200849C1F88C010220FB
:1013C00000F040FF002004490860022000F03AFFCE
:1013D00070BD0000000801408C0121420000214244
:1013E0000FB4054B10B503A9044A029800F018F891
:1013F00010BC5DF814FB00009122000838000020AA
:1014000002E008C8121F08C1002AFAD170477047CD
:10141000002001E001C1121F002AFBD1704700002B
:101420002DE9FF4F8BB088460546002606E02528AB
:101430000BD0DDE90D1290476D1C761C2878002832
:10144000F5D10FB03046BDE8F08F0024A146A2468A
:101450000122AE4900E0044315F8013F203B02FAA7
:1014600003F00842F7D128782A2810D06FF02F0215
:101470002878A0F13001092915D809EB890102EB80
:10148000410144F0020400EB01096D1CF0E758F83B
:10149000041B5FEA010903D544F40054C9F10009B3
:1014A00044F002046D1C28782E2817D115F8010F7E
:1014B00044F004042A280ED06FF02F022878A0F1FF
:1014C000300109290AD80AEB8A0102EB410100EB3D
:1014D000010A6D1CF2E758F804AB6D1C28786C28E3
:1014E0000FD006DC4C2817D068280DD06A2814D1FC
:1014F00004E0742810D07A280FD10DE044F40014D1
:101500000AE044F4801401E044F440146978814214
:1015100002D104F580146D1C6D1C2878692865D0F3
:1015200006DC00288DD0632827D0642806D15DE032
:101530006E2808D073282AD0752877D0DDE90D12DF
:101540009047761CE0E0C4F30250022809D003283B
:101550000DD0D8F8001004280DD00E6008F1040852
:10156000D2E0D8F80010F217C1E90062F6E7D8F827
:1015700000100E80F2E70E70F0E718F8041B8DF8EB
:10158000001000208DF80100EB46012003E058F820
:1015900004BB4FF0FF3061074FF0000701D40AE0B1
:1015A0007F1C57450DDA8742FADB1BF8071000292C
:1015B000F6D106E07F1C8742FCDB1BF807100029F0
:1015C000F8D1DDE90D23A9EB07008146214600F0A3
:1015D000B1F83044C61904E0DDE90D121BF8010B27
:1015E00090477F1EF8D22146484688E058F8040B01
:1015F000C4F302514FF00A0B032900D100B20429B1
:1016000000D140B2002802DA40422D2102E021053B
:1016100005D52B218DF82410012104E006E0E10717
:1016200010D02021F6E708AF089113E058F8040B1A
:10163000C4F302514FF00A0B032900D180B20429F0
:1016400000D1C0B20021EEE75946FEF78DFD3031E2
:1016500007F8011D0028F7D1ADEB070000F1200BC2
:10166000600702D524F4803401E04FF0010ADA4526
:1016700002DDAAEB0B0000E00020824600EB0B012C
:1016800008980144A9EB01000A90E00306D4DDE9C3
:101690000D2321460A9800F04DF806444FF000094A
:1016A00008E009A911F80900DDE90D12904709F1D8
:1016B0000109761C08998945F3DBE0030CD5DDE9C7
:1016C0000D2321460A9800F035F8064404E0DDE9D0
:1016D0000D1230209047761CBAF10001AAF1010AE0
:1016E000F5DC05E0DDE90D1217F8010B9047761CDB
:1016F000BBF10001ABF1010BF4DC0A982146DDE9F6
:101700000D2300F005F806446D1C97E6092801003A
:101710002DE9F041044600251E461746880404D4EE
:1017200005E039462020B0476D1C641EF9D52846D7
:10173000BDE8F0812DE9F041044600251E469046A3
:10174000C80301D5302700E02027880404D505E030
:1017500041463846B0476D1C641EF9D52846BDE8A1
:10176000F081000000B591B001210846FFF750FA62
:1017700001214FF40170FFF76BFA1020ADF8400023
:1017800000208DF8430010A93448FEF77FFF34484D
:10179000FEF786FE33480090334801900020029007
:1017A00010200390002004908020059040000690B7
:1017B00080000790202008900002099000200A90E5
:1017C00069462748FEF712FF01212548FEF75CFE17
:1017D00000200B908DF8300001208DF831004FF47F
:1017E00060200D9000200E9001208DF83C000BA988
:1017F0001C484C38FEF736FD4FF44040FFF7FCF92B
:1018000007230122042117484C38FEF753FD01211C
:1018100014484C38FEF706FD012112484C38FEF7FB
:10182000F6FC10484C38FEF7A1FD00BF0D484C38BF
:10183000FEF70DFD0028F9D10A484C38FEF7A6FD49
:1018400000BF08484C38FEF7F8FC0028F9D1012108
:1018500004484C38FEF78FFD11B000BD0010014068
:10186000080002404C240140400200202DE9F047CE
:101870000024002504E0344830F8150004446D1CB1
:10188000102DF8D324094FF4A4706043C0EBC001BD
:10189000C1EB80104FF42041B0FBF1F421462BA0A6
:1018A000FFF79EFD4FF47A70B4FBF0F0C6B24FF430
:1018B0007A70B4FBF0F100FB11406421B0FBF1F051
:1018C000C7B26420B4FBF0F100FB11400A21B0FB69
:1018D000F1F80A20B4FBF0F100FB1149CEB93A4609
:1018E00002211820FFF73EF90A2202212820FFF7E3
:1018F00039F9424602213820FFF734F94A460221DD
:101900004820FFF72FF90B2202215820FFF72AF970
:1019100018E0324602211820FFF724F93A46022146
:101920002820FFF71FF90A2202213820FFF71AF9B1
:10193000424602214820FFF715F94A460221582065
:10194000FFF710F9BDE8F087400200206164342001
:101950003D202534640D0A0010B54FF41672B421F1
:101960000120FEF73DFD4FF4FA7240F217110220FC
:10197000FEF736FD4FF496724FF4CF710320FEF759
:101980002FFD4FF4967240F21A210420FEF728FD35
:101990004FF4967240F281210520FEF721FD4FF4AD
:1019A00096724FF4FB710620FEF71AFD4FF4967203
:1019B00040F2EF110720FEF713FD4FF4967240F24C
:1019C00053310820FEF70CFD4FF49672F4210920E4
:1019D000FEF706FD4FF496724FF4FD710A20FEF7F4
:1019E000FFFCFEF7D9FC4FF47A7000F0FFFBC82231
:1019F00040F229210320FEF7F3FCC82240F2E22145
:101A00000420FEF7EDFCC82240F2E9110520FEF7A4
:101A1000E7FCC82240F239110620FEF7E1FCFEF790
:101A2000BBFC642000F0E2FB4FF4967240F291217F
:101A30000120FEF7D5FCC8227E210220FEF7D0FC53
:101A40004FF496724FF41A710320FEF7C9FC4FF45D
:101A500096724FF426710420FEF7C2FC4FF4967282
:101A60004FF4E3710520FEF7BBFC4FF496724FF480
:101A7000BA710620FEF7B4FCFEF78EFC4FF47A70C4
:101A800000F0B4FB4FF47A7000F0B0FB4FF49672A4
:101A900040F25A310920FEF7A3FCFEF77DFC4FF41B
:101AA0007A7000F0A3FB4FF4487000F09FFB4FF4F6
:101AB000487240F2EE210720FEF792FC4FF4967236
:101AC0004FF4EA710120FEF78BFC4FF49672C121AE
:101AD0000220FEF785FCFEF75FFC4FF47A7000F001
:101AE00085FB4FF4967240F2F1110720FEF778FC67
:101AF0004FF4967240F221210820FEF771FC4FF45A
:101B0000967240F227210920FEF76AFCFEF744FC9A
:101B10004FF47A7000F06AFB4FF4C8724FF4F4711E
:101B20000220FEF75DFC4FF496724FF457710820C7
:101B3000FEF756FC4FF49672F1210920FEF750FC97
:101B4000FEF72AFC4FF4487000F050FB96224FF449
:101B500043710220FEF744FCFEF71EFC4FF47A703E
:101B600000F044FB4FF4487000F040FB4B224FF470
:101B7000A0710120FEF734FCFEF70EFC4FF47A70E2
:101B800000F034FB4FF4FA7000F030FB4FF4967223
:101B90004FF434710120FEF723FC4FF496724FF49A
:101BA0003B710220FEF71CFCFEF7F6FB40F28A2098
:101BB00000F01CFB4FF4967240F22B210320FEF73D
:101BC0000FFC4FF4967240F203210420FEF708FC4C
:101BD0004FF4967240F2E1110520FEF701FC4FF43C
:101BE00096724FF405710620FEF7FAFBFEF7D4FB60
:101BF0004FF4487000F0FAFA4FF4967240F2E52183
:101C00000120FEF7EDFB4FF496724FF43A7102207B
:101C1000FEF7E6FB4FF4967240F235110320FEF713
:101C2000DFFB4FF496724FF410710420FEF7D8FBDF
:101C30004FF4967240F2CA210520FEF7D1FB4FF413
:101C4000967240F2FD110620FEF7CAFBFEF7A4FBD8
:101C50004FF47A7000F0CAFA4FF4967240F2AA215B
:101C60000120FEF7BDFB4FF496724FF4397102204C
:101C7000FEF7B6FB4FF496724FF4AD710320FEF7FA
:101C8000AFFB4FF4967240F231210420FEF7A8FB1F
:101C90004FF496724FF43A710520FEF7A1FB4FF412
:101CA000967240F2E3110620FEF79AFBFEF774FBF2
:101CB0004FF4967000F09AFA4FF4967240F2F511D4
:101CC0000120FEF78DFB4FF4C87240F2EB110220A9
:101CD000FEF786FB4FF496724FF4B4710320FEF7C3
:101CE0007FFB4FF4967240F2F1110420FEF778FB6F
:101CF0004FF4967240F2AB210520FEF771FB4FF4D2
:101D0000967240F226210620FEF76AFB4FF4967287
:101D100040F2EF110720FEF763FB4FF4967240F29A
:101D200053310820FEF75CFB4FF49672F421092032
:101D3000FEF756FB4FF496724FF4FD710A20FEF742
:101D40004FFBFEF729FB4FF47A7000F04FFA4FF487
:101D5000FA7000F04BFA10BD10B540F28A2240F242
:101D60005F310120FEF73CFB40F28F224FF43D71C2
:101D70000220FEF735FB4FF496724FF4BD7103203D
:101D8000FEF72EFB4FF4967240F246210420FEF738
:101D900027FB4FF4967240F2A5210520FEF720FBA9
:101DA0004FF496724FF4E4710620FEF719FB4FF4DE
:101DB000967240F2EF110720FEF712FB4FF4967275
:101DC00040F253310820FEF70BFB4FF49672F421DA
:101DD0000920FEF705FB4FF496724FF4FD710A20BF
:101DE000FEF7FEFAFEF7D8FA4FF47A7000F0FEF92B
:101DF000FA2000F0FBF94FF4967240F245110120F1
:101E0000FEF7EEFA4FF4967240F255310220FEF7DB
:101E1000E7FA4FF4967240F229210320FEF7E0FA28
:101E20004FF4967240F2E2210420FEF7D9FA4FF403
:101E3000967240F2E9110520FEF7D2FA4FF496723D
:101E400040F239110620FEF7CBFAFEF7A5FA4FF45F
:101E50007A7000F0CBF94FF4487000F0C7F94FF4F6
:101E60009672EB210820FEF7BBFAFEF795FA4FF4C5
:101E70007A7000F0BBF94FF4487000F0B7F94FF4F6
:101E800096724FF4F9710120FEF7AAFA4FF4967298
:101E900040F241310220FEF7A3FA40F252324FF4F1
:101EA0003A710A20FEF79CFAFEF776FA4FF47A7040
:101EB00000F09CF94FF496724FF4FB710A20FEF784
:101EC0008FFA4FF4967240F21A210820FEF788FA32
:101ED0004FF4967240F22B210920FEF781FAFEF7AB
:101EE0005BFA4FF47A7000F081F94FF4C87240F257
:101EF000E5110220FEF774FA4FF496724FF4567112
:101F00000820FEF76DFA4FF49672F3210920FEF7D0
:101F100067FAFEF741FA4FF4487000F067F996222D
:101F2000E5210220FEF75CFAFEF736FA4FF47A70EC
:101F300000F05CF94FF4487000F058F94B224FF470
:101F400030710120FEF74CFAFEF726FA4FF47A7052
:101F500000F04CF94FF4FA7000F048F94FF4967223
:101F6000AE210120FEF73CFA4FF4967240F20511C3
:101F70000220FEF735FAFEF70FFA4FF4487000F032
:101F800035F94FF4967240F22B210320FEF728FA20
:101F90004FF4967240F203210420FEF721FA4FF429
:101FA000967240F2E1110520FEF71AFA4FF496728C
:101FB0004FF405710620FEF713FAFEF7EDF94FF422
:101FC000487000F013F94FF4967240F201110120AD
:101FD000FEF706FA4FF496724FF4A9710220FEF74D
:101FE000FFF94FF4967240F253110320FEF7F8F90F
:101FF0004FF4967240F2FF110420FEF7F1F94FF40E
:10200000967240F2C7210520FEF7EAF94FF4967266
:102010004FF406710620FEF7E3F9FEF7BDF94FF421
:102020007A7000F0E3F84FF49672EF210120FEF78A
:10203000D7F94FF49672E4210220FEF7D1F94FF45C
:10204000967240F281110320FEF7CAF94FF496729E
:102050004FF4F4710420FEF7C3F94FF4967240F286
:102060009F210520FEF7BCF94FF496724FF40771DB
:102070000620FEF7B5F9FEF78FF94FF4967000F0E1
:10208000B5F84FF4967240F2F5110120FEF7A8F969
:102090004FF4967240F2EB110220FEF7A1F94FF4D3
:1020A00096724FF4B4710320FEF79AF94FF49672CA
:1020B00040F2F1110420FEF793F94FF4967240F2CA
:1020C000AB210520FEF78CF94FF4967240F22621E1
:1020D0000620FEF785F94FF4967240F2EF110720C3
:1020E000FEF77EF94FF4967240F253310820FEF766
:1020F00077F94FF49672F4210920FEF771F94FF445
:1021000096724FF4FD710A20FEF76AF9FEF744F962
:102110004FF47A7000F06AF84FF47A7000F066F8C5
:102120004FF47A7000F062F810BD10B54FF496725B
:102130004FF4C4710320FEF753F94FF496724FF435
:10214000DA710420FEF74CF94FF4967240F29721B1
:102150000520FEF745F94FF496724FF41E710620E4
:10216000FEF73EF9FEF718F94FF4967000F03EF8CE
:102170004FF4AF7240F249110220FEF731F9FEF739
:102180000BF94FF4167000F031F84FF4AF7240F2D3
:10219000EB110220FEF724F9FEF7FEF84FF4FA7077
:1021A00000F024F810BD000010B56FF00400FEF739
:1021B00093FE0A4800680A49B0FBF1F0094908702B
:1021C0000846007800EB4001C1EBC0104FF6FF71EC
:1021D00001EAC0000449088010BD0000140000207E
:1021E00000127A0034000020360000200146114A17
:1021F00012884A434FF0E0235A6100229A611A463E
:10220000126942F001021A6100BF4FF0E02210692A
:1022100000F001021AB100F48032002AF5D04FF02C
:10222000E022126922F001024FF0E0231A6100223D
:102230009A6170473600002000BF011EA0F1010026
:10224000FBD170470146114A12784A434FF0E02310
:102250005A6100229A611A46126942F001021A611B
:1022600000BF4FF0E022106900F001021AB100F443
:102270008032002AF5D04FF0E022126922F00102EC
:102280004FF0E0231A6100229A6170473400002069
:1022900000BF054A128802F04002002AF9D0C2B2FB
:1022A000014B1B1D1A8070470038014010B54FF4D8
:1022B00096724FF4F4710120FEF792F84FF4967283
:1022C00040F2EB110220FEF78BF84FF4967240F2C9
:1022D0006A210320FEF784F84FF4967240F2B2218F
:1022E0000420FEF77DF84FF496724FF4F17105204B
:1022F000FEF776F84FF4967240F251110620FEF781
:102300006FF84FF4C8724FF409710720FEF768F8B0
:102310004FF4967240F261310820FEF761F84FF4F5
:102320009672AD210920FEF75BF84FF4967240F2E9
:102330005D110A20FEF754F8FEF72EF84FF47A707C
:10234000FFF754FF4FF4967240F2E7110520FEF7B5
:1023500047F84FF4967240F219110620FEF740F844
:102360004FF4C87240F2FD110720FEF739F84FF420
:10237000967240F25B310820FEF732F84FF4967205
:1023800040F267110920FEF72BF84FF4967240F2E5
:1023900063110A20FEF724F8FDF7FEFF4FF47A7070
:1023A000FFF724FFC820FFF721FF4FF4967240F299
:1023B00013310320FEF714F84FF4967240F28D317A
:1023C0000420FEF70DF84FF4967240F23911052003
:1023D000FEF706F84FF4967298210620FEF700F8F3
:1023E0004FF4E17240F2E5110720FDF7F9FF4FF4D9
:1023F00096724FF45D710820FDF7F2FF4FF496726C
:1024000040F2CB210920FDF7EBFF4FF4967240F22A
:1024100005210A20FDF7E4FFFDF7BEFF4FF47A70B7
:10242000FFF7E4FEC820FFF7E1FE4FF42F7240F201
:10243000F9110720FDF7D4FF4FF4617240F26711E4
:102440000820FDF7CDFF40F2B63240F2B22109205C
:10245000FDF7C6FF40F2B6324FF444710A20FDF793
:10246000BFFFFDF799FF4FF47A70FFF7BFFE4FF4FF
:102470009670FFF7BBFE4FF4967240F25B2103208B
:10248000FDF7AEFF4FF4967240F2F7210420FDF7FE
:10249000A7FF4FF4967240F20A210520FDF7A0FF36
:1024A0004FF4967240F21B110620FDF799FF4FF48E
:1024B000967240F2DB110720FDF792FF962240F260
:1024C000EB110820FDF78CFF4FF49672F5210920DF
:1024D000FDF786FF4FF496724FF4FF710A20FDF767
:1024E0007FFFFDF759FF4FF47A70FFF77FFE4FF43F
:1024F0009670FFF77BFE4FF4967240F25221032054
:10250000FDF76EFF4FF496724FF414710420FDF73F
:1025100067FF4FF496724FF400710520FDF760FFDE
:102520004FF4967240F27D110620FDF759FF4FF4EB
:1025300096724FF4EA710720FDF752FF962240F29F
:102540002F310820FDF74CFF4FF49672ED21092042
:10255000FDF746FF4FF4967240F2F3110A20FDF7A3
:102560003FFFFDF719FF4FF47A70FFF73FFE4FF47E
:102570009670FFF73BFE4FF4967240F2E311012094
:10258000FDF72EFF4FF496724FF4F8710220FDF71D
:1025900027FF4FF496724FF4C4710320FDF720FF1C
:1025A0004FF496724FF4DA710420FDF719FF4FF4DF
:1025B000967240F297210520FDF712FF4FF49672B4
:1025C0004FF41E710620FDF70BFF4FF4967240F298
:1025D000EF110720FDF704FF4FF4967240F25331DC
:1025E0000820FDF7FDFE4FF49672F4210920FDF757
:1025F000F7FE4FF496724FF4FD710A20FDF7F0FEDE
:10260000FDF7CAFE4FF47A70FFF7F0FD10BD000031
:102610004FF4A060FEF7E8F9FEF706F84FF4E1305A
:1026200001F062F9FFF79EF8FFF7BEFD4D48FFF796
:1026300003FEFEF7A9FC4CA0FEF7D2FEFEF7FBF965
:10264000FF20FEF7DBF94C48FFF7F6FD0020FEF710
:10265000D5F94A48FFF7F0FD002211461046FEF773
:1026600057FA012200211020FEF752FA022200211F
:102670002020FEF74DFA032200213020FEF748FA11
:10268000042200214020FEF743FA052200215020B9
:10269000FEF73EFA062200216020FEF739FA0722F3
:1026A00000217020FEF734FA0920FEF7CDFBFFF77A
:1026B0007BFD4FF4E13001F017F952E0304800683B
:1026C000322806D300202E490860FEF703F9FFF7F1
:1026D000CDF800F030FE4FF47A70FFF787FD00F080
:1026E0002AFE4FF47A70FFF781FDFFF7DFFDFFF759
:1026F000DDFDFFF71AFD01F047F900F01CFE4FF475
:102700007A70FFF773FDFFF727F9FFF725FB00F05D
:1027100039F8FFF7CBFD00F084FC00F055FE01F026
:1027200073FC01F098F9FFF700FD01F02DF941F27B
:102730008830FFF75BFD00F0FEFD41F28830FFF7C7
:1027400055FD41F28830FFF751FD09E000F0F3FD3F
:1027500041F28830FFF74AFD41F28830FFF746FD2D
:10276000F4E7ABE7FFFF3F00496E6974204F4B2150
:1027700021210D0A00000000FFFF1F00FFFF0F00D6
:102780002800002010B54FF41672B4210120FDF787
:1027900027FE4FF4FA72EF210220FDF721FE4FF4DD
:1027A000AF724FF4CD710320FDF71AFE4FF4C872DB
:1027B0004FF4F9710420FDF713FE4FF4AF724FF49C
:1027C00021710520FDF70CFE4FF4C8724FF405711E
:1027D0000620FDF705FEFDF7DFFD4FF47A70FFF7E9
:1027E00005FDC820FFF702FD4FF41672FD21012000
:1027F000FDF7F6FD4FF496724FF4DD710220FDF700
:10280000EFFD4FF496724FF4CD710320FDF7E8FD14
:102810004FF496724FF4E2710420FDF7E1FD4FF49E
:10282000967240F279210520FDF7DAFD4FF4967299
:1028300040F246210620FDF7D3FD4FF4967240F298
:10284000EF110720FDF7CCFD4FF4967240F25331A3
:102850000820FDF7C5FD4FF49672F4210920FDF71D
:10286000BFFD4FF496724FF4FD710A20FDF7B8FDDD
:10287000FDF792FD4FF47A70FFF7B8FC4FF49672B3
:1028800040F235110120FDF7ABFD4FF4FA724FF421
:1028900000710220FDF7A4FD4FF4AF7240F2471122
:1028A0000320FDF79DFD4FF4C872911C0420FDF735
:1028B00097FDC82240F2F1210520FDF791FDC822C5
:1028C0004FF422710620FDF78BFDFDF765FD4FF4F7
:1028D0007A70FFF78BFC4FF4AF724FF4CC7103208A
:1028E000FDF77EFD4FF4C8724FF489710420FDF7A7
:1028F00077FDC82240F2DB210520FDF771FDC822DB
:102900004FF41B710620FDF76BFDFDF745FD4FF4FD
:10291000FA70FFF76BFC4FF4AF7240F233210320E3
:10292000FDF75EFD4FF4C87240F21B210420FDF755
:1029300057FDFDF731FD4FF4FA70FFF757FC4FF4E8
:10294000AF7240F236310320FDF74AFD4FF4C872F2
:1029500040F229310420FDF743FDFDF71DFD4FF442
:102960004870FFF743FCFA22F0210120FDF738FD03
:102970004FF4FA724FF400710220FDF731FDFA2294
:102980004FF416710520FDF72BFD4FF4C87240F28D
:102990003F310620FDF724FDFDF7FEFC4FF44870A3
:1029A000FFF724FC4FF4967211460120FDF718FD45
:1029B0004FF4FA724FF400710220FDF711FDFA2274
:1029C00040F2E5210520FDF70BFD4FF4C87240F2FF
:1029D0006E210620FDF704FDFDF7DEFC4FF4487084
:1029E000FFF704FCFA22F0210120FDF7F9FC4FF477
:1029F000FA724FF400710220FDF7F2FCFA224FF454
:102A000016710520FDF7ECFC4FF4C87240F23F311F
:102A10000620FDF7E5FCFDF7BFFC4FF44870FFF71B
:102A2000E5FB4FF4967211460120FDF7D9FC4FF4F7
:102A3000FA724FF400710220FDF7D2FCFA2240F244
:102A4000E5210520FDF7CCFC4FF4C87240F26E2161
:102A50000620FDF7C5FCFDF79FFC4FF44870FFF71B
:102A6000C5FB6420FFF7C2FB4FF4AF7240F2332185
:102A70000320FDF7B5FC4FF4C8724FF489710420B0
:102A8000FDF7AEFCFDF788FC4FF44870FFF7AEFB96
:102A90004FF4AF724FF4CC710320FDF7A1FC4FF45B
:102AA000C8724FF489710420FDF79AFCFDF774FC9D
:102AB0004FF4FA70FFF79AFB4FF49672114601201B
:102AC000FDF78EFC4FF4AF7240F233110320FDF797
:102AD00087FC4FF4C8724FF4D5710420FDF780FCD9
:102AE000FDF75AFC4FF44870FFF780FBC82240F214
:102AF000A7210520FDF774FCC82240F2E32106203F
:102B0000FDF76EFCFDF748FC4FF44870FFF76EFBD5
:102B1000C8224FF4EF710520FDF762FCC8224FF484
:102B2000FA710620FDF75CFCFDF736FC4FF44870A7
:102B3000FFF75CFB4FF4AF72E2210520FDF750FC7C
:102B40004FF4C872B2210620FDF74AFCFDF724FCC1
:102B50004FF44870FFF74AFB4FF49672F7210120BB
:102B6000FDF73EFC4FF4FA724FF4F0710220FDF7CE
:102B700037FCFA2240F2D1110320FDF731FC4FF46B
:102B8000BE72D4210420FDF72BFCFDF705FC4FF4A9
:102B90004870FFF72BFB4FF4967240F205110120AD
:102BA000FDF71EFC4FF4FA724FF4F0710220FDF7AE
:102BB00017FCFA2240F233110320FDF711FC4FF409
:102BC000BE724FF4D5710420FDF70AFCFDF7E4FB5B
:102BD0004FF44870FFF70AFB4FF49672F82101207A
:102BE000FDF7FEFB4FF4FA724FF4F0710220FDF78F
:102BF000F7FBFA2240F2D1110320FDF7F1FB4FF46D
:102C0000BE72D4210420FDF7EBFBFDF7C5FB4FF4AA
:102C10004870FFF7EBFA4FF4967240F2051101206D
:102C2000FDF7DEFB4FF4FA724FF4F0710220FDF76E
:102C3000D7FBFA2240F233110320FDF7D1FB4FF40A
:102C4000BE724FF4D5710420FDF7CAFBFDF7A4FB5B
:102C50004FF44870FFF7CAFA4FF496724FF4EF71D1
:102C60000520FDF7BDFB4FF4C87240F2E3210620BA
:102C7000FDF7B6FBFDF790FB4FF44870FFF7B6FA8F
:102C80004FF4967240F2A7210520FDF7A9FB4FF4FF
:102C9000C87240F2E3210620FDF7A2FBFDF77CFBA2
:102CA0004FF44870FFF7A2FAC82240F2E521052050
:102CB000FDF796FBC82240F26E210620FDF790FB3F
:102CC000FDF76AFB4FF4FA70FFF790FA642240F2C6
:102CD0002D110120FDF784FB4FF4FA724FF4E771D8
:102CE0000220FDF77DFBC82240F231110320FDF7E1
:102CF00077FB4FF4C8724FF4EF710420FDF770FBBF
:102D0000C82240F2DB210520FDF76AFB4FF4C872B0
:102D10004FF410710620FDF763FBFDF73DFB4FF408
:102D20004870FFF763FAC820FFF760FA4FF4C872E3
:102D300040F23E210320FDF753FB4FF4A572DC2146
:102D40000420FDF74DFB4FF4C87240F2D31105206B
:102D5000FDF746FB4FF4A5724FF44E710620FDF7C8
:102D60003FFB6422EE210120FDF73AFB4FF4FA729B
:102D7000D11F0220FDF734FB4FF4967240F2EF11A1
:102D80000720FDF72DFB4FF4967240F253310820D7
:102D9000FDF726FB4FF49672F4210920FDF720FB86
:102DA0004FF496724FF4FD710A20FDF719FBFDF701
:102DB000F3FA4FF44870FFF719FA642240F22D112C
:102DC0000120FDF70DFB4FF4C8724FF4E7710220AC
:102DD000FDF706FB4FF4C87240F231110320FDF7F6
:102DE000FFFA4FF4A5724FF4EF710420FDF7F8FAE3
:102DF0004FF4C87240F2DB210520FDF7F1FA4FF4E1
:102E0000A5724FF410710620FDF7EAFAFDF7C4FA37
:102E10004FF44870FFF7EAF9C820FFF7E7F94FF4DD
:102E2000C87240F23E210320FDF7DAFA4FF4A57292
:102E3000DC210420FDF7D4FA4FF4C87240F2D3111C
:102E40000520FDF7CDFA4FF4A5724FF44E71062020
:102E5000FDF7C6FA6422EE210120FDF7C1FA4FF416
:102E6000FA72D11F0220FDF7BBFA4FF4967240F2BE
:102E7000EF110720FDF7B4FA4FF4967240F2533188
:102E80000820FDF7ADFA4FF49672F4210920FDF702
:102E9000A7FA4FF496724FF4FD710A20FDF7A0FADD
:102EA000FDF77AFA4FF44870FFF7A0F9642240F278
:102EB0002D110120FDF794FA4FF4C8724FF4E77119
:102EC0000220FDF78DFA4FF4C87240F23111032051
:102ED000FDF786FA4FF4A5724FF4EF710420FDF769
:102EE0007FFA4FF4C87240F2DB210520FDF778FA33
:102EF0004FF4A5724FF410710620FDF771FAFDF73B
:102F00004BFA4FF44870FFF771F9C820FFF76EF9DC
:102F10004FF496724FF4CD710320FDF761FA4FF430
:102F200096724FF4E2710420FDF75AFA4FF496724C
:102F300040F279210520FDF753FA4FF4967240F2E2
:102F400046210620FDF74CFAFDF726FA4FF44870AB
:102F5000FFF74CF94FF49672EF210120FDF740FA8C
:102F60004FF49672E4210220FDF73AFA4FF496727C
:102F700040F281110320FDF733FA4FF496724FF4BB
:102F8000F4710420FDF72CFA4FF4967240F29F2161
:102F90000520FDF725FA4FF496724FF407710620CD
:102FA000FDF71EFAFDF7F8F94FF44870FFF71EF928
:102FB0004FF4967240F2E3110120FDF711FA4FF43D
:102FC00096724FF4F8710220FDF70AFA4FF49672E8
:102FD0004FF4C4710320FDF703FA4FF496724FF4D7
:102FE000DA710420FDF7FCF94FF4967240F2972154
:102FF0000520FDF7F5F94FF496724FF41E71062087
:10300000FDF7EEF9FDF7C8F94FF47A70FFF7EEF827
:103010004FF47A70FFF7EAF84FF47A70FFF7E6F8AA
:1030200010BD10B54FF4967240F2EB110120FDF780
:10303000D7F94FF4967240F2F3110220FDF7D0F960
:103040004FF4967240F205210320FDF7C9F94FF4C1
:10305000967240F265210420FDF7C2F94FF4967292
:1030600040F255110520FDF7BBF94FF4967280210F
:103070000620FDF7B5F94FF4967240F26F21072054
:10308000FDF7AEF94FF4967240F29A310820FDF741
:10309000A7F99622F9210920FDF7A2F996224FF40B
:1030A000F9710A20FDF79CF9FDF776F94FF47A7073
:1030B000FFF79CF84FF4967240F2FA210320FDF7D7
:1030C0008FF94FF4967240F2B5210420FDF788F98C
:1030D000962240F20A210720FDF782F94FF49672FA
:1030E00040F2E1110820FDF77BF9FDF755F94FF4A7
:1030F0007A70FFF77BF8C820FFF778F8FA224FF4D0
:1031000044710320FDF76CF9FA224FF46571042035
:10311000FDF766F94FF496724FF49B710520FDF7A9
:103120005FF94FF4967290210620FDF759F94FF49C
:10313000967240F2CB110720FDF752F94FF4C87296
:1031400040F271110820FDF74BF9FDF725F94FF416
:103150007A70FFF74BF86420FFF748F84FF42F72AE
:10316000CE210720FDF73CF94FF42F7240F28F116A
:103170000820FDF735F940F2EE2240F2BF21092088
:10318000FDF72EF940F2EE224FF4F8710A20FDF718
:1031900027F9FDF701F94FF47A70FFF727F84FF49C
:1031A0009670FFF723F8C82240F29E210320FDF716
:1031B00017F94FF4967240F2C7210420FDF710F979
:1031C000C82240F29B110520FDF70AF9C8224FF4EE
:1031D000A2710620FDF704F9C82240F2F31107207E
:1031E000FDF7FEF84FF496724FF4FB710820FDF7DF
:1031F000F7F84FF496724FF41D710920FDF7F0F8BF
:10320000C82240F226210A20FDF7EAF8FDF7C4F8AB
:103210004FF47A70FEF7EAFFC82240F2352103200E
:10322000FDF7DEF84FF496724FF41A710420FDF7A3
:10323000D7F84FF4C87240F2DB110520FDF7D0F843
:103240004FF4C8724FF4E4710620FDF7C9F8C822A4
:1032500040F232210720FDF7C3F84FF4967240F296
:1032600052310820FDF7BCF84FF49672911D0920E9
:10327000FDF7B6F8C8224FF40C710A20FDF7B0F83C
:10328000FDF78AF84FF47A70FEF7B0FFC820FEF71A
:10329000ADFF4FF4967240F2E3110120FDF7A0F864
:1032A0004FF496724FF4F8710220FDF799F84FF43D
:1032B00096724FF4C4710320FDF792F84FF49672A2
:1032C0004FF4DA710420FDF78BF8C82240F2972101
:1032D0000520FDF785F8C8224FF41E710620FDF782
:1032E0007FF84FF4C87240F2EF110720FDF778F82D
:1032F0004FF4C87240F253310820FDF771F84FF4D3
:10330000C872F4210920FDF76BF84FF4C8724FF42E
:10331000FD710A20FDF764F8FDF73EF84FF47A706E
:10332000FEF764FF4FF47A70FEF760FF4FF47A7097
:10333000FEF75CFF10BD10B54FF4967240F2E3113A
:103340000120FDF74DF84FF496724FF4F87102200A
:10335000FDF746F84FF496724FF4C4710320FDF761
:103360003FF84FF496724FF4DA710420FDF738F805
:103370004FF4967240F297210520FDF731F84FF493
:1033800096724FF41E710620FDF72AF84FF49672DC
:1033900040F2EF110720FDF723F84FF4967240F248
:1033A00053310820FDF71CF84FF49672F4210920E0
:1033B000FDF716F84FF496724FF4FD710A20FDF7F1
:1033C0000FF8FCF7E9FF10BD10B54FF41672B421E9
:1033D0000120FDF705F84FF4FA72FD210220FCF7F9
:1033E000FFFF4FF496724FF4CF710320FCF7F8FF04
:1033F0004FF4967240F21A210420FCF7F1FF4FF4CB
:10340000967240F281210520FCF7EAFF4FF4967294
:103410004FF4FB710620FCF7E3FF4FF4967240F285
:10342000EF110720FCF7DCFF4FF4967240F25331A6
:103430000820FCF7D5FF4FF49672F4210920FCF721
:10344000CFFF4FF496724FF4FD710A20FCF7C8FFCE
:10345000FCF7A2FF4FF47A70FEF7C8FEC82240F2D4
:1034600029210320FCF7BCFFC82240F2E2210420FE
:10347000FCF7B6FFC82240F2E9110520FCF7B0FFC7
:10348000C82240F239110620FCF7AAFFFCF784FF9E
:103490006420FEF7ABFE4FF4967240F291210120BA
:1034A000FCF79EFFC8227E210220FCF799FF4FF413
:1034B00096724FF41A710320FCF792FF4FF4967244
:1034C0004FF426710420FCF78BFF4FF496724FF4F3
:1034D000E3710520FCF784FF4FF496724FF4BA7144
:1034E0000620FCF77DFFFCF757FF4FF47A70FEF7DC
:1034F0007DFE4FF47A70FEF779FE4FF4967240F23B
:103500005A310920FCF76CFFFCF746FF4FF47A7044
:10351000FEF76CFE4FF44870FEF768FE4FF44872F9
:1035200040F2EE210720FCF75BFF4FF496724FF458
:10353000EA710120FCF754FF4FF49672C12102207A
:10354000FCF74EFFFCF728FF4FF47A70FEF74EFEB3
:103550004FF4967240F2F1110720FCF741FF4FF44F
:10356000967240F221210820FCF73AFF4FF4967240
:1035700040F227210920FCF733FFFCF70DFF4FF441
:103580007A70FEF733FE4FF4C8724FF4F4710220E4
:10359000FCF726FF4FF496724FF457710820FCF7A2
:1035A0001FFF4FF49672F1210920FCF719FFFCF779
:1035B000F3FE4FF44870FEF719FE4FF4967240F296
:1035C0001B310320FCF70CFF4FF4967240F24321AD
:1035D0000420FCF705FF4FF49672E9210520FCF763
:1035E000FFFE4FF4967240F2DF110620FCF7F8FE62
:1035F000FCF7D2FE4FF47A70FEF7F8FDC820FEF714
:10360000F5FD4FF49672B3210720FCF7E9FE4FF465
:1036100096724FF406710820FCF7E2FE4FF49672A2
:1036200040F227210920FCF7DBFE4FF496724FF49D
:103630004C710A20FCF7D4FEFCF7AEFE4FF47A7012
:10364000FEF7D4FDC820FEF7D1FD4FF4967240F28C
:10365000F1110720FCF7C4FE4FF4967240F25A3184
:103660000820FCF7BDFE4FF49672F6210920FCF706
:10367000B7FE4FF4967240F2FD110A20FCF7B0FE3F
:10368000FCF78AFE4FF47A70FEF7B0FDC820FEF713
:10369000ADFD4FF4967240F223210320FCF7A0FE0B
:1036A0004FF4967240F2E5210420FCF799FE4FF4A6
:1036B000967240F205210520FCF792FE4FF49672B7
:1036C000D11D0620FCF78CFEFCF766FE4FF49660D9
:1036D000FEF78CFD96224FF443710220FCF780FE2A
:1036E000FCF75AFE4FF47A70FEF780FD4FF44870F5
:1036F000FEF77CFD4B224FF4A0710120FCF770FE19
:10370000FCF74AFE4FF47A70FEF770FD4FF4FA7042
:10371000FEF76CFD4FF496724FF434710120FCF704
:103720005FFE4FF496724FF43B710220FCF758FE97
:10373000FCF732FE40F28A20FEF758FD4FF49672F5
:1037400040F22B210320FCF74BFE4FF4967240F21F
:1037500003210420FCF744FE4FF4967240F2E1117D
:103760000520FCF73DFE4FF496724FF405710620DC
:10377000FCF736FEFCF710FE4FF44870FEF736FDFE
:103780004FF4967240F2E5210120FCF729FE4FF438
:1037900096724FF43A710220FCF722FE4FF49672B3
:1037A00040F235110320FCF71BFE4FF496724FF4E4
:1037B00010710420FCF714FE4FF4967240F2CA21F7
:1037C0000520FCF70DFE4FF4967240F2FD11062025
:1037D000FCF706FEFCF7E0FD4FF47A70FEF706FDFD
:1037E0004FF4967240F2AA210120FCF7F9FD4FF444
:1037F00096724FF439710220FCF7F2FD4FF4967285
:103800004FF4AD710320FCF7EBFD4FF4967240F2DC
:1038100031210420FCF7E4FD4FF496724FF43A7125
:103820000520FCF7DDFD4FF4967240F2E31106200F
:10383000FCF7D6FDFCF7B0FD4FF49670FEF7D6FC12
:103840004FF4967240F2F5110120FCF7C9FD4FF4D8
:10385000C87240F2EB110220FCF7C2FD4FF49672E1
:103860004FF4B4710320FCF7BBFD4FF4967240F2A5
:10387000F1110420FCF7B4FD4FF4967240F2AB2135
:103880000520FCF7ADFD4FF4967240F2262106208C
:10389000FCF7A6FD4FF4967240F2EF110720FCF7FB
:1038A0009FFD4FF4967240F253310820FCF798FDCB
:1038B0004FF49672F4210920FCF792FD4FF49672B2
:1038C0004FF4FD710A20FCF78BFDFCF765FD4FF40A
:1038D0007A70FEF78BFC4FF47A70FEF787FC4FF49A
:1038E0007A70FEF783FC10BD10B586B00446012146
:1038F00044F20400FDF7ACF94FF40070ADF8140089
:1039000003208DF8160018208DF8170005A91C4813
:10391000FCF7BCFE4FF48060ADF8140004208DF875
:10392000170005A91648FCF7B1FE25208DF8000008
:1039300003208DF801008DF8020001208DF80300AE
:103940006846FDF719F801940020ADF80800ADF8BD
:103950000A00ADF80C00ADF810000C20ADF80E0018
:1039600001A90848FDF75AFC012240F225510548FB
:10397000FDF72EFC01210348FDF7F4FB06B010BD56
:10398000000801400038014010B54FF4967240F233
:10399000E6210320FCF724FDFCF7FEFC4FF4487001
:1039A000FEF724FC4FF4E17240F22A310420FCF7C8
:1039B00017FD4FF496724FF44D710320FCF710FD84
:1039C000FCF7EAFC4FF44870FEF710FC4FF4E1728C
:1039D0004FF4FF710420FCF703FD4FF4967240F2A0
:1039E000E6210320FCF7FCFCFCF7D6FC4FF4487002
:1039F000FEF7FCFB4FF4E17240F22A310420FCF7A1
:103A0000EFFC4FF496724FF44D710320FCF7E8FC85
:103A1000FCF7C2FC4FF44870FEF7E8FB4FF49672D7
:103A20004FF4C4710320FCF7DBFC4FF4E1724FF458
:103A3000DA710420FCF7D4FCFCF7AEFC4FF47A708A
:103A4000FEF7D4FB4FF47A70FEF7D0FB4FF47A7098
:103A5000FEF7CCFB10BD10B54FF496724FF4F47125
:103A60000120FCF7BDFC4FF4967240F2EB110220EE
:103A7000FCF7B6FC4FF4967240F26A210320FCF783
:103A8000AFFC4FF4967240F2B2210420FCF7A8FC80
:103A90004FF496724FF4F1710520FCF7A1FC4FF43E
:103AA000967240F251110620FCF79AFC4FF4C8724E
:103AB0004FF409710720FCF793FC4FF4967240F223
:103AC00061310820FCF78CFC4FF49672AD2109207F
:103AD000FCF786FC4FF4967240F25D110A20FCF769
:103AE0007FFCFCF759FC4FF47A70FEF77FFB4FF434
:103AF000967240F2E7110520FCF772FC4FF49672C3
:103B000040F219110620FCF76BFC4FF4C87240F22A
:103B1000FD110720FCF764FC4FF4967240F25B3114
:103B20000820FCF75DFC4FF4967240F26711092003
:103B3000FCF756FC4FF4967240F263110A20FCF732
:103B40004FFCFCF729FC4FF47A70FEF74FFBC820BE
:103B5000FEF74CFB4FF496724FF4F6710120FCF720
:103B60003FFC4FF4967240F2E9110220FCF738FC5A
:103B70004FF496724FF419710320FCF731FC4FF4A7
:103B8000967240F295210420FCF72AFC4FF49672BD
:103B9000D11C0520FCF724FC4FF4967294210620DA
:103BA000FCF71EFC4FF4967240F2C9210920FCF785
:103BB00017FC4FF4967240F2FF110A20FCF710FC3C
:103BC000FCF7EAFB4FF47A70FEF710FBC820FEF713
:103BD0000DFB4FF42F7240F2F9110720FCF700FCA7
:103BE0004FF4617240F267110820FCF7F9FB40F2D4
:103BF000EE2240F2B2210920FCF7F2FB40F2EE2265
:103C00004FF444710A20FCF7EBFBFCF7C5FB4FF4C3
:103C10007A70FEF7EBFA4FF49672B3210720FCF7A7
:103C2000DFFB4FF496724FF406710820FCF7D8FBC7
:103C30004FF4967240F227210920FCF7D1FB4FF494
:103C400096724FF44C710A20FCF7CAFBFCF7A4FBF8
:103C50004FF47A70FEF7CAFA4FF4967240F2F111FF
:103C60000720FCF7BDFB4FF4967240F25A31082052
:103C7000FCF7B6FB4FF49672F6210920FCF7B0FB77
:103C80004FF4967240F2FD110A20FCF7A9FBFCF7F5
:103C900083FB4FF44870FEF7A9FA4FF4967240F296
:103CA000EB110220FCF79CFB4FF496724FF413715A
:103CB0000320FCF795FB4FF4967240F22B21042071
:103CC000FCF78EFB642240F22F110520FCF788FBE5
:103CD000642294210620FCF783FBFCF75DFB4FF484
:103CE0001670FEF783FA4FF496724FF4D2710320E8
:103CF000FCF776FB4FF4967240F297110420FCF724
:103D00006FFB4FF496724FF482710720FCF768FB4B
:103D10004FF4967240F23D110A20FCF761FBFCF76C
:103D20003BFB4FF44870FEF761FA4FF496724FF484
:103D300013710320FCF754FB4FF4967240F22B21D1
:103D40000420FCF74DFB4FF4967240F2CA21072085
:103D5000FCF746FB4FF4967240F28B210A20FCF7E9
:103D60003FFBFCF719FB4FF44870FEF73FFA4FF4A6
:103D700096724FF4D2710320FCF732FB4FF4967227
:103D800040F297110420FCF72BFB4FF496724FF48E
:103D900082710720FCF724FB4FF4967240F23D112C
:103DA0000A20FCF71DFBFCF7F7FA4FF44870FEF70A
:103DB0001DFA4FF4967240F256210320FCF710FBD7
:103DC0004FF4967240F2CB110420FCF709FB4FF43C
:103DD000967240F2F1110720FCF702FB4FF4967245
:103DE00040F25A310820FCF7FBFA4FF49672F621A4
:103DF0000920FCF7F5FA4FF4967240F2FD110A2003
:103E0000FCF7EEFAFCF7C8FA4FF47A70FEF7EEF919
:103E1000C82240F2F7110120FCF7E2FAC82240F272
:103E200007210220FCF7DCFAC82240F232210320ED
:103E3000FCF7D6FAC82240F2F3110420FCF7D0FABE
:103E40006422E1210520FCF7CBFA64224FF4E671ED
:103E50000620FCF7C5FA4FF4967240F2A72109201C
:103E6000FCF7BEFA642240F201210A20FCF7B8FAFE
:103E7000FCF792FA4FF47A70FEF7B8F9C82240F2D4
:103E800032210320FCF7ACFA4FF4967240F29621EF
:103E90000420FCF7A5FAC82240F245110520FCF7E2
:103EA0009FFAC82240F201110620FCF799FA4FF45C
:103EB000967240F29A310820FCF792FA4FF496720B
:103EC00040F2A7210920FCF78BFAC82240F2012119
:103ED0000A20FCF785FAFCF75FFA4FF4C870FEF78A
:103EE00085F94FF496724FF4F6710220FCF778FAD8
:103EF000C82240F23E210320FCF772FA4FF496727A
:103F000040F297210420FCF76BFAC82240F2FB1123
:103F10000520FCF765FAC82240F299110620FCF74B
:103F20005FFA4FF496724FF4FE710720FCF758FACF
:103F30004FF4AF7240F29A310820FCF751FAFA229E
:103F40004FF415710920FCF74BFAFA2240F25A217E
:103F50000A20FCF745FAFCF71FFA4FF47A70FEF7D7
:103F600045F9C820FEF742F94FF4967240F2E3118A
:103F70000120FCF735FA4FF496724FF4F8710220E5
:103F8000FCF72EFA4FF496724FF4C4710320FCF73D
:103F900027FA4FF496724FF4DA710420FCF720FAF6
:103FA0004FF4967240F297210520FCF719FA4FF46E
:103FB00096724FF41E710620FCF712FA4FF49672B7
:103FC00040F2EF110720FCF70BFA4FF4967240F223
:103FD00053310820FCF704FA4FF49672F4210920BB
:103FE000FCF7FEF94FF496724FF4FD710A20FCF7CE
:103FF000F7F9FCF7D1F94FF47A70FEF7F7F84FF4C0
:10400000FA70FEF7F3F810BD10B54FF41672B42134
:104010000120FCF7E5F94FF4FA7240F21711022083
:10402000FCF7DEF94FF496724FF4CF710320FCF7E2
:10403000D7F94FF4967240F21A210420FCF7D0F918
:104040004FF4967240F281210520FCF7C9F94FF434
:1040500096724FF4FB710620FCF7C2F94FF496728A
:1040600040F2EF110720FCF7BBF94FF4967240F2D3
:1040700053310820FCF7B4F94FF49672F42109206B
:10408000FCF7AEF94FF496724FF4FD710A20FCF77D
:10409000A7F9FCF781F94FF47A70FEF7A7F8C82268
:1040A00040F229210320FCF79BF9C82240F2E221CB
:1040B0000420FCF795F9C82240F2E9110520FCF72D
:1040C0008FF9C82240F239110620FCF789F9FCF774
:1040D00063F96420FEF78AF84FF4967240F291215A
:1040E0000120FCF77DF9C8227E210220FCF778F937
:1040F0004FF496724FF41A710320FCF771F94FF4E4
:1041000096724FF426710420FCF76AF94FF4967208
:104110004FF4E3710520FCF763F94FF496724FF406
:10412000BA710620FCF75CF9FCF736F94FF47A70A7
:10413000FEF75CF84FF47A70FEF758F84FF4967279
:1041400040F25A310920FCF74BF9FCF725F94FF4FE
:104150007A70FEF74BF84FF44870FEF747F84FF4CB
:1041600096724FF4EA710120FCF73AF94FF4967217
:10417000C1210220FCF734F94FF4487240F2EE21DD
:104180000720FCF72DF9FCF707F94FF47A70FEF7DA
:104190002DF84FF4967240F2F1110720FCF720F948
:1041A0004FF4967240F221210820FCF719F94FF4E0
:1041B000967240F227210920FCF712F9FCF7ECF87F
:1041C0004FF47A70FEF712F8C82240F2EF11012086
:1041D000FCF706F9C822C1210220FCF701F9C82228
:1041E00040F22B310320FCF7FBF8C82240F27B1190
:1041F0000420FCF7F5F8C822F0210520FCF7F0F8C0
:10420000C82240F2B3210620FCF7EAF8C82240F2A7
:10421000EF110720FCF7E4F8C82240F22221082021
:10422000FCF7DEF8C82240F229210920FCF7D8F873
:10423000C82240F2F7110A20FCF7D2F8FCF7ACF8DC
:104240004FF47A70FDF7D2FF4FF49670FDF7CEFF72
:10425000C8224FF4F9710220FCF7C2F8FCF79CF871
:104260004FF47A70FDF7C2FF4FF49670FDF7BEFF72
:104270004FF496724FF445710320FCF7B1F84FF4F8
:10428000967240F23D210420FCF7AAF84FF4967292
:104290004FF49B710520FCF7A3F84FF496724FF48E
:1042A0002D710620FCF79CF84FF4967240F2FB212A
:1042B0000720FCF795F84FF4967240F25D31082024
:1042C000FCF78EF84FF49672F8210920FCF788F875
:1042D0004FF4967240F2E2210A20FCF781F8FCF7D5
:1042E0005BF84FF47A70FDF781FF4FF49670FDF79D
:1042F0007DFF4FF4FA72B3210720FCF771F84FF4F9
:1043000096724FF406710820FCF76AF84FF4967223
:1043100040F227210920FCF763F84FF4FA724FF4BA
:104320004C710A20FCF75CF8FCF736F84FF47A7011
:10433000FDF75CFF4FF4967240F2FB210720FCF77B
:104340004FF84FF4967240F25D310820FCF748F8C0
:104350004FF49672F8210920FCF742F84FF4967258
:1043600040F2E2210A20FCF73BF8FCF715F84FF485
:104370007A70FDF73BFF4FF4967240F2EF11012087
:10438000FCF72EF84FF496724FF4F9710220FCF707
:1043900027F84FF4967240F22B310320FCF720F8F7
:1043A0004FF4967240F27B110420FCF719F84FF499
:1043B0009672F0210520FCF713F84FF4967240F244
:1043C000B3210620FCF70CF84FF4FA72511F0720B6
:1043D000FCF706F84FF4967240F222210820FBF712
:1043E000FFFF4FF4967240F229210920FBF7F8FFF6
:1043F0004FF4FA72D11C0A20FBF7F2FFFBF7CCFF57
:104400004FF47A70FDF7F2FE4FF49670FDF7EEFE72
:104410004FF4967240F293210320FBF7E1FF4FF433
:1044200096724FF4CE710420FBF7DAFF4FF49672C8
:10443000CC210520FBF7D4FF4FF496724FF4FA71AC
:104440000620FBF7CDFF4FF4FA724FF49571072069
:10445000FBF7C6FF4FF496724FF453710820FBF739
:10446000BFFF4FF49672F8210920FBF7B9FF4FF414
:10447000FA724FF485710A20FBF7B2FFFBF78CFF4D
:104480004FF47A70FDF7B2FE4FF49670FDF7AEFE72
:104490004FF4FA72B3210720FBF7A2FF4FF4967294
:1044A0004FF406710820FBF79BFF4FF4967240F221
:1044B00027210920FBF794FF4FF4FA724FF44C7157
:1044C0000A20FBF78DFFFBF767FF4FF47A70FDF7CB
:1044D0008DFE4FF4FA7240F2FB210720FBF780FFBC
:1044E000C82240F25D310820FBF77AFF4FF4967244
:1044F000F8210920FBF774FF4FF4FA7240F2E22131
:104500000A20FBF76DFFFBF747FF4FF47A70FDF7CA
:104510006DFE4FF4C8724FF4F4710220FBF760FF98
:10452000C82240F21B310320FBF75AFFC82240F299
:1045300011210420FBF754FFC822E9210520FBF7D5
:104540004FFFC8224FF4FB710620FBF749FFC8223A
:1045500040F2EF110720FBF743FFC8224FF45771D9
:104560000820FBF73DFFC822F1210920FBF738FFA7
:10457000C82240F2F7110A20FBF732FFFBF70CFFCD
:104580004FF47A70FDF732FE4FF4967240F2232119
:104590000320FBF725FF4FF4967240F2E52104203B
:1045A000FBF71EFF4FF4967240F205210520FBF742
:1045B00017FF4FF49672D11D0620FBF711FFFBF792
:1045C000EBFE4FF49660FDF711FE9622E5210220E6
:1045D000FBF706FFFBF7E0FE4FF47A70FDF706FEEF
:1045E0004FF44870FDF702FE4B224FF4307101206A
:1045F000FBF7F6FEFBF7D0FE4FF47A70FDF7F6FD01
:104600004FF4FA70FDF7F2FD4FF49672AE210120DF
:10461000FBF7E6FE4FF4967240F205110220FBF71D
:10462000DFFEFBF7B9FE4FF44870FDF7DFFD4FF4F6
:10463000967240F22B210320FBF7D2FE4FF49672C4
:1046400040F203210420FBF7CBFE4FF4967240F2B8
:10465000E1110520FBF7C4FE4FF496724FF405718B
:104660000620FBF7BDFEFBF797FE4FF44870FDF701
:10467000BDFD4FF4967240F201110120FBF7B0FE30
:104680004FF496724FF4A9710220FBF7A9FE4FF484
:10469000967240F253110320FBF7A2FE4FF496727C
:1046A00040F2FF110420FBF79BFE4FF4967240F29C
:1046B000C7210520FBF794FE4FF496724FF4067164
:1046C0000620FBF78DFEFBF767FE4FF47A70FDF7CF
:1046D0008DFD4FF49672EF210120FBF781FE4FF420
:1046E0009672E4210220FBF77BFE4FF4967240F2B3
:1046F00081110320FBF774FE4FF496724FF4F471AE
:104700000420FBF76DFE4FF4967240F29F210520C6
:10471000FBF766FE4FF496724FF407710620FBF725
:104720005FFEFBF739FE4FF49670FDF75FFD4FF427
:10473000967240F2F5110120FBF752FE4FF496728B
:1047400040F2EB110220FBF74BFE4FF496724FF450
:10475000B4710320FBF744FE4FF4967240F2F1115E
:104760000420FBF73DFE4FF4967240F2AB2105208A
:10477000FBF736FE4FF4967240F226210620FBF737
:104780002FFE4FF4967240F2EF110720FBF728FE40
:104790004FF4967240F253310820FBF721FE4FF49C
:1047A0009672F4210920FBF71BFE4FF496724FF42A
:1047B000FD710A20FBF714FEFBF7EEFD4FF47A7053
:1047C000FDF714FD4FF47A70FDF710FD4FF47A7089
:1047D000FDF70CFD10BD00E010080810E000000F10
:1047E000102020100F00001010F800000000002022
:1047F000203F20200000007008080888700000306A
:104800002824222130000030088888483000001811
:10481000202020110E000000C02010F8000000072A
:104820000424243F240000F80888880808000019A0
:10483000212020110E0000E0108888180000000FD1
:10484000112020110E0000380808C83808000000A8
:10485000003F000000000070880808887000001CFD
:10486000222121221C0000E010080810E0000000B6
:10487000312222110F000000000000000000003073
:104880003000000000000878880000C838080000E8
:1048900007380E010000000000000080C0404040CA
:1048A000C080000000000000F0FE0F0100000000CA
:1048B000000107FEF00000001FFFE0000000000004
:1048C0000000C0FF1F0000000000010306040404F4
:1048D0000603010000000000000000000080C0008E
:1048E00000000000000000000001010101FFFF00C6
:1048F00000000000000000000000000000FFFF00BA
:104900000000000000000000000404040607070681
:1049100004040400000000000000804040404040CB
:10492000C0808000000000001E1900000000000090
:1049300000C17F3E000000000080402010080402FB
:10494000010000E000000000070606060606060655
:10495000060607010000000000808040404040C083
:1049600080800000000000000F0F0000808080C0E9
:10497000613F1E0000000000E0E0000000000001B8
:104980000103FE7800000000010302040404040493
:104990000203010000000000000000000000008091
:1049A000C0C000000000000000008060300C02FF6A
:1049B000FFFF0000000000101C121110101010FF6B
:1049C000FFFF101010000000000000000808080F92
:1049D0000F0F0808080000000000C0C0C0C0C0C021
:1049E000C0C0C0C00000000000F887402020202088
:1049F00060C0800000000000E061000000000000D6
:104A00000080FF7E0000000001020404040404048E
:104A100002030100000000000000000080C04040D0
:104A20004040800000000000E0FC0E8180404040DB
:104A300040C08303000000003FFFC30100000000EE
:104A4000000001FF7E0000000000010306040404D2
:104A5000040203010000000000C0C0C0C0C0C0C00C
:104A6000C0C0C0C0000000000F0301000000806053
:104A7000180601000000000000000000E0FC030038
:104A80000000000000000000000000000707000018
:104A90000000000000000000000080C040404040D6
:104AA000C0800000000000001E3F71E0C0808080D8
:104AB00080613F1E000000F8FC06030100010103B5
:104AC000070EFCF8000000000103020404040404C3
:104AD0000203010000000000008080404040404090
:104AE00080000000000000FCFF0300000000000048
:104AF0000083FEF800000000818306040404040221
:104B000083F17F0F00000000030304040404060384
:104B10000100000000000000000000000000000094
:104B20000000000000000000000000000000000085
:104B30000000000000000000008080000000000075
:104B40000000000000000000030707030000000051
:104B5000000000000000004040C0C0400000000015
:104B6000004040C04040000000033FFCC000000087
:104B700000C03C0300000000000000031FFEE0E056
:104B80001E030000000000000000000000010701FB
:104B90000000000000000000B84B000800000020EA
:104BA00040010000B8010008904C000840010020BE
:104BB0000806000010140008412D0102030404102F
:104BC00009060708090204060884A24A04691801B4
:104BD00016100A8088898EF88C8B888016FE022237
:104BE000DA0620094020100C0304083026FF0810C4
:104BF000080712E012FF1320C02AFE0522FF45819C
:104C000040300F423F19104A20015AFF08113B80E3
:104C10008042111008030C1020408080180840309A
:104C20001196909091041698141350302A04013E66
:104C300044847E06050A111C1010F11C100A10286D
:104C40002724E42424E4041F80601F40807F06277B
:104C5000207F44444440100F1088C43310545454EF
:104C6000FF54547C10101B0201761E10121212FF0A
:104C70000442108A080131CA10012149D739AC51C8
:104C800019D71688472018071B0718A13100000004
:0400000508000131BD
:00000001FF
