:020000040800F2
:1000000048070020450100084D0100084F01000885
:1000100051010008530100085501000800000000CC
:100020000000000000000000000000005701000870
:1000300059010008000000005B0100085D01000894
:100040005F0100085F0100085F0100085F01000810
:100050005F0100085F0100085F0100085F01000800
:100060005F0100085F0100085F0100085F010008F0
:100070005F0100085F0100085F0100085F010008E0
:100080005F0100085F0100085F0100085F010008D0
:100090005F0100085F0100085F0100085F010008C0
:1000A0005F0100085F0100085F0100085F010008B0
:1000B000610F00085F0100085F0100085F01000890
:1000C0005F0100085F0100085F0100085F01000890
:1000D0005F010008DD1000085F0100085F010008F3
:1000E0005F0100085F0100085F0100085F01000870
:1000F0005F0100085F0100085F0100085F01000860
:100100005F0100085F0100085F0100085F0100084F
:100110005F0100085F0100085F0100085F0100083F
:100120005F0100085F0100085F0100085F0100082F
:10013000DFF80CD000F02EF8004800471D2600081C
:10014000480700200648804706480047FEE7FEE7CC
:10015000FEE7FEE7FEE7FEE7FEE7FEE7FEE7FEE777
:10016000010F00083101000830B50B4601460020A0
:100170002022012409E021FA02F59D4205D303FA69
:1001800002F5491B04FA02F52844151EA2F10102EA
:10019000F1DC30BD064C074D06E0E06840F001039D
:1001A00094E8070098471034AC42F6D3FFF7C4FF39
:1001B000644F0008844F000870B58C1810F8015B7C
:1001C00015F0070301D110F8013B2A1106D110F8F0
:1001D000012B03E010F8016B01F8016B5B1EF9D1F4
:1001E0002B0705D40023521E0DD401F8013BFAE77A
:1001F00010F8013BCB1A921C03E013F8015B01F8E5
:10020000015B521EF9D5A142D8D3002070BD21B1A7
:10021000826842F00102826003E0826822F00102FB
:100220008260704721B1826842F48072826003E08C
:10023000826822F4807282607047014600208A68DA
:1002400002F004020AB1012000E0002070470146DC
:1002500000208A6802F008020AB1012000E00020B4
:100260007047000030B502460020002350680F4C54
:1002700020400D790C6844EA0524204350609068C2
:100280000B4C2040D1E902542C434D7944EA4504FB
:1002900020439060D06A20F470000C7C641EE4B2AD
:1002A000234340EA0350D06230BD0000FFFEF0FF60
:1002B000FDF7F1FFF0B504460D4600200021092DA1
:1002C00011DDE068A5F10A0606EB4607072606FAE7
:1002D00007F18843A5F10A0606EB460603FA06F184
:1002E0000843E0600CE0206905EB4507072606FAA5
:1002F00007F1884305EB450603FA06F10843206140
:10030000072A0FDA606B561E06EB86071F2606FAD1
:1003100007F18843561E06EB860605FA06F10843E8
:10032000606322E00D2A0FDA206BD61F06EB8607EA
:100330001F2606FA07F18843D61F06EB860605FA44
:1003400006F10843206310E0E06AA2F10D0606EB17
:1003500086071F2606FA07F18843A2F10D0606EB71
:10036000860605FA06F10843E062F0BD816841F0B7
:1003700008018160704721B1826842F4A002826066
:1003800003E0826822F4A00282607047816841F035
:10039000040181607047000010B50024FF2000F0C8
:1003A000D1FCFF2000F0CEFCFE2000F0CBFC0220B0
:1003B00000F0C8FC052000F0C5FC0524E043C4B2F1
:1003C000204600F0BFFC00BF0448008800F0400059
:1003D0000028F9D0022001F00BFF10BD00380140C9
:1003E0002DE9FC5F06460C4615460027B846B9467F
:1003F000BA46BB460020019000902F46A0464FEA27
:10040000272907F0FF0A4FEA282B08F0FF00019088
:10041000FF2000F097FCFF2000F094FC304600F035
:1004200091FC072000F08EFC042000F08BFC1E20C5
:1004300000F088FC019800F085FC584600F082FC32
:10044000504600F07FFC484600F07CFC06F1290095
:1004500001990844584450444844C0B20090009860
:10046000C043C0B20090009800F06CFC00BF05488B
:10047000008800F040000028F9D0022001F0B8FE0A
:10048000BDE8FC9F0038014021B1026842F0010242
:10049000026004E002684FF6FE731A400260704783
:1004A00001684FF6FE721140016000210160416059
:1004B0008160C1604B49884208D14A49083949687E
:1004C00041F00F01474A083A51608AE0454914312A
:1004D000884208D143490839496841F0F001414A4E
:1004E000083A51607DE03F492831884208D13D49B2
:1004F0000839496841F470613A4A083A516070E03D
:1005000038493C31884208D136490839496841F4B4
:100510007041344A083A516063E0324950318842B0
:1005200008D130490839496841F470212D4A083A08
:10053000516056E02B496431884208D12949083975
:10054000496841F47001274A083A516049E0254959
:100550007831884208D123490839496841F07061EF
:10056000204A083A51603CE01F49884206D1011FE9
:10057000096841F00F01021F116032E01A4914317D
:10058000884208D11849091F096841F0F001164A4C
:10059000121F116025E014492831884208D1124900
:1005A000091F096841F470610F4A121F116018E0B9
:1005B0000D493C31884208D10B49091F096841F4B3
:1005C0007041094A121F11600BE0074950318842FF
:1005D00007D10549091F096841F47021024A121F19
:1005E00011607047080002400804024010B5002264
:1005F000026847F6F0739A430C6A8B6823430C69D0
:1006000023434C6923438C692343CC6923434C6ABD
:1006100023438C6A23431A430260CB6843600B6810
:1006200083604B68C36010BD08B501210D2000F048
:100630000FFB0121124800F0B5F80C20ADF80000C6
:1006400003208DF8020010208DF8030069460D4844
:1006500000F01CF80C210B4800F0EEF80420ADF877
:10066000000002208DF8020010208DF8030069467A
:10067000054800F00BF80421034800F0DBF808BD42
:100680000002300000080140000C01402DE9F0415B
:10069000024600250026002000230024002791F8B0
:1006A00003C00CF00F0591F803C00CF0100CBCF166
:1006B000000F03D091F802C04CEA050591F800C084
:1006C000BCF1000F31D0146800202BE04FF0010C7A
:1006D0000CFA00F3B1F800C00CEA03069E4220D1E8
:1006E00083004FF00F0C0CFA03F7BC4305FA03FC30
:1006F0004CEA040491F803C0BCF1280F06D14FF076
:10070000010C0CFA00FCC2F814C00AE091F803C016
:10071000BCF1480F05D14FF0010C0CFA00FCC2F8F7
:1007200010C0401C0828D1D31460B1F800C0BCF13F
:10073000FF0F34DD546800202EE000F1080C4FF06C
:10074000010808FA0CF3B1F800C00CEA03069E4257
:1007500021D183004FF00F0C0CFA03F7BC4305FACC
:1007600003FC4CEA040491F803C0BCF1280F05D146
:1007700000F1080C08FA0CF8C2F8148091F803C0D4
:10078000BCF1480F07D100F1080C4FF0010808FA3E
:100790000CF8C2F81080401C0828CED35460BDE885
:1007A000F0810000F0B50A46002300240021002556
:1007B00000F00046B6F1004F02D11D4EF16901E094
:1007C0001B4E7168C0F3034583B200F44016B6F5C2
:1007D000401F08D121F07061154E766826F07066D2
:1007E000134F7E6012E000F48016B6F5801F06D12C
:1007F000032606FA05F4A14341F0706106E0460DB8
:10080000360103FA06F6B14341F0706122B1460D9C
:10081000360103FA06F6314300F00046B6F1004F08
:1008200002D1034EF16101E0014E7160F0BD0000A4
:1008300000000140416170470161704710B50F48E9
:10084000006820F470600D4908600846006840F4B4
:100850004070086001200A4908600A49C1F88C010B
:10086000042001F0F1FC002005490860042001F09B
:10087000EBFC00200349C1F88C0110BD00080140C9
:10088000880121420000214210B50F48006820F481
:1008900070600D4908600846006840F440700860C8
:1008A00000200A4908600A49C1F88801042001F0C3
:1008B000CBFC0120054908600549C1F888010420E6
:1008C00001F0C2FC10BD0000000801408C01214273
:1008D0000000214210B50848006800F0040028B16B
:1008E000042105480838FFF7A5FF04E00421024869
:1008F0000838FFF7A1FF10BD080C014000B500202B
:1009000015490861C8601420486100208861C861E9
:100910000846006840F001000860084640680F493A
:1009200008400D494860084600680D4908400A49DA
:1009300008600846006820F4802008600846406887
:1009400020F4FE0048600020886000214FF0006025
:1009500000F008F800BD0000001002400000FFF8A1
:10096000FFFFF6FE024A0A400243024B1A6070473C
:1009700080FFFF1F08ED00E070B5002100230F226B
:10098000C47804B3154C246804F4E064C4F5E0644E
:10099000210AC1F10403CA40447804FA03F18478BF
:1009A0001440214309010E4C0678A155047804F047
:1009B0001F050124AC4005786D11AD0005F1E0255F
:1009C000C5F8004109E0047804F01F050124AC409B
:1009D000044D0678761145F8264070BD0CED00E018
:1009E00000E400E080E100E002490143024A1160B6
:1009F000704700000000FA050CED00E070B50646F7
:100A0000002415E004F1B001C8B200F078FC002029
:100A100000F075FC102000F072FC002504E0304668
:100A200000F07DFC681CC5B2802DF8DB601CC4B2F0
:100A3000082CE7DB70BD10B5AE2000F060FCD520BF
:100A400000F05DFCF02000F05AFCA82000F057FCFC
:100A50003F2000F054FCD32000F051FC002000F0B7
:100A60004EFC402000F04BFC8D2000F048FC142090
:100A700000F045FCAF2000F042FC102000F03FFCED
:100A8000A12000F03CFCC82000F039FCDA2000F086
:100A900036FC122000F033FC812000F030FCFF20F7
:100AA00000F02DFCD92000F02AFC222000F027FCC9
:100AB000DB2000F024FC302000F021FCA42000F01A
:100AC0001EFCA62000F01BFCAF2000F018FC20202C
:100AD00000F015FCB02000F012FC002000F00FFC2C
:100AE000102000F00CFC10BD70B504460D4605F159
:100AF000B001C8B200F003FC102141EA141000F06C
:100B0000FEFB04F00F0141F0010000F0F8FB70BDA6
:100B10002DE9F04180460E46174600247D013146FE
:100B20004046FFF7E1FF00BF06E00D49485D00F0D9
:100B3000F6FB6D1C601CC4B2102CF6DB701CC1B23D
:100B40004046FFF7D1FF002406E00549485D00F06C
:100B5000E6FB6D1C601CC4B2102CF6DBBDE8F08116
:100B60003E0000202DE9F04180460E461746002445
:100B7000BD0131464046FFF7B7FF00BF06E01D4903
:100B8000485D00F0CCFB6D1C601CC4B2102CF6DB81
:100B9000701CC1B24046FFF7A7FF002406E01549CC
:100BA000485D00F0BCFB6D1C601CC4B2102CF6DB71
:100BB000B01CC1B24046FFF797FF002406E00D4984
:100BC000485D00F0ACFB6D1C601CC4B2102CF6DB61
:100BD000F01CC1B24046FFF787FF002406E005493C
:100BE000485D00F09CFB6D1C601CC4B2102CF6DB51
:100BF000BDE8F081644C000801460020034A5068BB
:100C000020F440400843506070470000001002404C
:100C100029B1064A52690243044B5A6104E0034A6F
:100C200052698243014B5A61704700000010024034
:100C300029B1064AD2690243044BDA6104E0034A4F
:100C4000D2698243014BDA61704700000010024014
:100C500029B1064A92690243044B9A6104E0034AAF
:100C600092698243014B9A61704700000010024074
:100C700030B500210022002400232D4D6D6805F0C1
:100C80000C0121B1042905D0082923D105E0294D03
:100C9000056022E0274D05601FE0254D6D6805F4D5
:100CA0007012234D6D6805F48034022505EB9242E5
:100CB0001CB9214D554305600BE01D4D6D6805F4D1
:100CC00000351DB11C4D5543056002E0194D5543DB
:100CD000056002E0174D056000BF00BF144D6D6850
:100CE00005F0F0010909154D6B5C0568DD404560B4
:100CF0000F4D6D6805F4E061090A104D6B5C4568A5
:100D0000DD4085600A4D6D6805F46051C90A0B4DE0
:100D10006B5C4568DD40C560054D6D6805F440417C
:100D2000890B074D6B5CC568B5FBF3F5056130BDFC
:100D30000010024000127A0000093D00000000206F
:100D4000100000200549088000BF0449091F0988D8
:100D500001F040010029F8D070470000043801403C
:100D600010B500F001F810BD0CB500200190009006
:100D70003348006840F480303149086000BF304893
:100D8000006800F4003000900198401C0190009829
:100D900018B90198B0F5A06FF1D12948006800F4A6
:100DA000003010B10120009001E000200090009878
:100DB000012843D12348006840F010002149086011
:100DC0000846006820F0030008600846006840F00C
:100DD000020008601A48406819494860084640689F
:100DE00048600846406840F48060486008464068B3
:100DF00020F47C1048600846406840F4E8104860E1
:100E00000846006840F08070086000BF0C48006829
:100E100000F000700028F9D00948406820F0030075
:100E2000074948600846406840F00200486000BF3B
:100E30000348406800F00C000828F9D10CBD000000
:100E4000001002400020024030B504460025FFF7A4
:100E500055FD1F48006840F480301D49086000BF00
:100E60001B480068400C0028FAD04FF480601849F5
:100E70004860A01EC4B20846406840EA844048600A
:100E80000846406840F4803048601248006840F0EE
:100E90003200104908600E48006840F080700C492C
:100EA000086000BF0A480068400E0028FAD00848D1
:100EB000406840F002000649486005E00448406888
:100EC000C0F3870505F00305022DF7D130BD000002
:100ED0000010024000200240042808D14FF0E02119
:100EE000096941F004014FF0E022116107E04FF081
:100EF000E021096921F004014FF0E02211617047FF
:100F000010B51348006840F0010011490860084618
:100F10004068104908400E494860084600680E497C
:100F200008400B4908600846006820F480200860EB
:100F30000846406820F4FE0048604FF41F008860B7
:100F4000FFF70EFF4FF000600449086010BD00007D
:100F5000001002400000FFF8FFFFF6FE08ED00E081
:100F600010B50121880700F04CF8012808D10121B3
:100F7000800700F037F803480068401C014908600A
:100F800010BD0000280000201FB501210846FFF712
:100F90004FFE1C208DF8000000208DF801008DF818
:100FA000020001208DF803006846FFF7E5FC42F2DD
:100FB0000F70ADF808004720ADF804000020ADF830
:100FC0000600ADF80A0001A94FF0804000F034F8A7
:100FD00001221146900700F025F80121880700F052
:100FE00004F81FBDCA430282704721B1028842F053
:100FF0000102028004E002884FF6FE731A4002806C
:10100000704730B50246002000230024158A05EA07
:101010000103958905EA010413B10CB1012000E038
:10102000002030BD1AB183890B43838102E083899C
:101030008B43838170470000002202881D4B984239
:101040000ED01D4B98420BD0B0F1804F08D01B4BF7
:10105000984205D01A4B984202D01A4B984204D1BC
:101060004FF68F731A404B881A43174B984207D09C
:10107000164B984204D04FF6FF431A40CB881A43D0
:1010800002808B8883850B8803850A4B98420BD09E
:10109000094B984208D00E4B984205D00D4B984210
:1010A00002D00D4B984201D10B7A03860123838233
:1010B00070470000002C0140003401400004004053
:1010C00000080040000C00400010004000140040E8
:1010D00000400140004401400048014010B540F28A
:1010E00025511D4800F04AF810B31B4800F002F9E2
:1010F000C4B21A48008800F40040C8B917480088F4
:1011000000F4804060B10A2C03D00020134908800D
:1011100020E01248008840F400401049088019E09F
:101120000D2C06D10D48008840F480400B49088002
:1011300010E00A480088C0F30D0009490C54074824
:101140000088401C0549088008460088C72801DD42
:101150000020088010BD0000003801403C00002045
:101160008002002021B1828942F40052828104E091
:1011700082894DF6FF731A408281704770B502462E
:10118000002400230025002040F66A16B14200D159
:1011900000BFC1F3421501F01F03012606FA03F355
:1011A000012D02D19689334006E0022D02D1168A24
:1011B000334001E0968A33400C12012606FA04F40B
:1011C0001688344013B10CB1012000E0002070BD3E
:1011D000F0B50346002400260025002040F66A17DB
:1011E000B94200D100BF1846C1F3421401F01F06F6
:1011F000012707FA06F5012C01D10C3004E0022C7E
:1012000001D1103000E014301AB107682F43076095
:1012100002E00768AF430760F0BD00002DE9F0472A
:1012200086B005460E460024A24600BFA146002710
:10123000B08900B100BF2F462C8A4CF6FF700440E5
:10124000F08804432C82AC894EF6F3100440B08839
:1012500031890843718908430443AC81AC8A4FF655
:10126000FF400440B0890443AC8201A8FFF700FDB1
:101270001F48874202D1DDF810A001E0DDF80CA084
:10128000A88900F4004040B10AEBCA0000EB0A1044
:1012900031684900B0FBF1F807E00AEBCA0000EB47
:1012A0000A1031688900B0FBF1F86420B8FBF0F057
:1012B00004012009642101FB1089A88900F4004081
:1012C00040B1322000EBC900B0FBF1F000F00700A4
:1012D000044308E0322000EB09106421B0FBF1F078
:1012E00000F00F0004432C8106B0BDE8F087000039
:1012F0000038014001468888C0F30800704710B5E7
:101300000446FFF79BFA782000F01AF8002000F05E
:1013100017F8204600F014F8FFF7B6FA10BD10B524
:101320000446FFF78BFA782000F00AF8402000F01E
:1013300007F8204600F004F8FFF7A6FA10BD0000F9
:1013400070B504462348006820F4706021490860A5
:101350000846006840F44070086000201E4908609C
:1013600000251FE004F0800020B101201A49091F68
:10137000086003E000201849091F08606006040E99
:10138000022000F061FF012013490860022000F0F4
:101390005BFF00201149C1F88C01022000F054FFCE
:1013A000681CC5B2082DDDDB01200B49091F086050
:1013B000022000F049FF01200849C1F88C010220F9
:1013C00000F042FF002004490860022000F03CFFCA
:1013D00070BD0000000801408C0121420000214244
:1013E0000FB4054B10B503A9044A029800F018F891
:1013F00010BC5DF814FB00009522000838000020A6
:1014000002E008C8121F08C1002AFAD170477047CD
:10141000002001E001C1121F002AFBD1704700002B
:101420002DE9FF4F8BB088460546002606E02528AB
:101430000BD0DDE90D1290476D1C761C2878002832
:10144000F5D10FB03046BDE8F08F0024A146A2468A
:101450000122AE4900E0044315F8013F203B02FAA7
:1014600003F00842F7D128782A2810D06FF02F0215
:101470002878A0F13001092915D809EB890102EB80
:10148000410144F0020400EB01096D1CF0E758F83B
:10149000041B5FEA010903D544F40054C9F10009B3
:1014A00044F002046D1C28782E2817D115F8010F7E
:1014B00044F004042A280ED06FF02F022878A0F1FF
:1014C000300109290AD80AEB8A0102EB410100EB3D
:1014D000010A6D1CF2E758F804AB6D1C28786C28E3
:1014E0000FD006DC4C2817D068280DD06A2814D1FC
:1014F00004E0742810D07A280FD10DE044F40014D1
:101500000AE044F4801401E044F440146978814214
:1015100002D104F580146D1C6D1C2878692865D0F3
:1015200006DC00288DD0632827D0642806D15DE032
:101530006E2808D073282AD0752877D0DDE90D12DF
:101540009047761CE0E0C4F30250022809D003283B
:101550000DD0D8F8001004280DD00E6008F1040852
:10156000D2E0D8F80010F217C1E90062F6E7D8F827
:1015700000100E80F2E70E70F0E718F8041B8DF8EB
:10158000001000208DF80100EB46012003E058F820
:1015900004BB4FF0FF3061074FF0000701D40AE0B1
:1015A0007F1C57450DDA8742FADB1BF8071000292C
:1015B000F6D106E07F1C8742FCDB1BF807100029F0
:1015C000F8D1DDE90D23A9EB07008146214600F0A3
:1015D000B1F83044C61904E0DDE90D121BF8010B27
:1015E00090477F1EF8D22146484688E058F8040B01
:1015F000C4F302514FF00A0B032900D100B20429B1
:1016000000D140B2002802DA40422D2102E021053B
:1016100005D52B218DF82410012104E006E0E10717
:1016200010D02021F6E708AF089113E058F8040B1A
:10163000C4F302514FF00A0B032900D180B20429F0
:1016400000D1C0B20021EEE75946FEF78DFD3031E2
:1016500007F8011D0028F7D1ADEB070000F1200BC2
:10166000600702D524F4803401E04FF0010ADA4526
:1016700002DDAAEB0B0000E00020824600EB0B012C
:1016800008980144A9EB01000A90E00306D4DDE9C3
:101690000D2321460A9800F04DF806444FF000094A
:1016A00008E009A911F80900DDE90D12904709F1D8
:1016B0000109761C08998945F3DBE0030CD5DDE9C7
:1016C0000D2321460A9800F035F8064404E0DDE9D0
:1016D0000D1230209047761CBAF10001AAF1010AE0
:1016E000F5DC05E0DDE90D1217F8010B9047761CDB
:1016F000BBF10001ABF1010BF4DC0A982146DDE9F6
:101700000D2300F005F806446D1C97E6092801003A
:101710002DE9F041044600251E461746880404D4EE
:1017200005E039462020B0476D1C641EF9D52846D7
:10173000BDE8F0812DE9F041044600251E469046A3
:10174000C80301D5302700E02027880404D505E030
:1017500041463846B0476D1C641EF9D52846BDE8A1
:10176000F081000000B591B001210846FFF750FA62
:1017700001214FF40170FFF76BFA1020ADF8400023
:1017800000208DF8430010A93448FEF77FFF34484D
:10179000FEF786FE33480090334801900020029007
:1017A00010200390002004908020059040000690B7
:1017B00080000790202008900002099000200A90E5
:1017C00069462748FEF712FF01212548FEF75CFE17
:1017D00000200B908DF8300001208DF831004FF47F
:1017E00060200D9000200E9001208DF83C000BA988
:1017F0001C484C38FEF736FD4FF44040FFF7FCF92B
:1018000007230122042117484C38FEF753FD01211C
:1018100014484C38FEF706FD012112484C38FEF7FB
:10182000F6FC10484C38FEF7A1FD00BF0D484C38BF
:10183000FEF70DFD0028F9D10A484C38FEF7A6FD49
:1018400000BF08484C38FEF7F8FC0028F9D1012108
:1018500004484C38FEF78FFD11B000BD0010014068
:10186000080002404C240140400200202DE9F047CE
:101870000024002504E0344830F8150004446D1CB1
:10188000102DF8D324094FF4A4706043C0EBC001BD
:10189000C1EB80104FF42041B0FBF1F421462BA0A6
:1018A000FFF79EFD4FF47A70B4FBF0F0C6B24FF430
:1018B0007A70B4FBF0F100FB11406421B0FBF1F051
:1018C000C7B26420B4FBF0F100FB11400A21B0FB69
:1018D000F1F80A20B4FBF0F100FB1149CEB93A4609
:1018E00002211820FFF73EF90A2202212820FFF7E3
:1018F00039F9424602213820FFF734F94A460221DD
:101900004820FFF72FF90B2202215820FFF72AF970
:1019100018E0324602211820FFF724F93A46022146
:101920002820FFF71FF90A2202213820FFF71AF9B1
:10193000424602214820FFF715F94A460221582065
:10194000FFF710F9BDE8F087400200206164342001
:101950003D202534640D0A0010B54FF41672B421F1
:101960000120FEF73DFD4FF4FA72F6210220FEF74A
:1019700037FD4FF496724FF4CF710320FEF730FD20
:101980004FF4967240F21A210420FEF729FD4FF41D
:10199000967240F281210520FEF722FD4FF49672E7
:1019A0004FF4FB710620FEF71BFD4FF4967240F2D8
:1019B000EF110720FEF714FD4FF4967240F25331F9
:1019C0000820FEF70DFD4FF49672F4210920FEF772
:1019D00007FD4FF496724FF4FD710A20FEF700FDEB
:1019E000FEF7DAFC4FF47A7000F002FC4FF49672C6
:1019F00040F229210320FEF7F3FC4FF4967240F2E7
:101A0000E2210420FEF7ECFC4FF4967240F2E9115B
:101A10000520FEF7E5FC4FF4967240F239110620DE
:101A2000FEF7DEFCFEF7B8FC642000F0E1FB4FF4AB
:101A3000967240F291210120FEF7D2FCC8227E214D
:101A40000220FEF7CDFC4FF4967240F223210320D2
:101A5000FEF7C6FC4FF4967240F2E5210420FEF733
:101A6000BFFC4FF4967240F205210520FEF7B8FC4A
:101A70004FF49672D11D0620FEF7B2FCFEF78CFCE7
:101A80004FF47A7000F0B4FB4FF47A7000F0B0FBC2
:101A90004FF4967240F25A310920FEF7A1FCFEF78E
:101AA0007BFC4FF47A7000F0A3FB4FF4487000F019
:101AB0009FFB4FF4487240F2EE210720FEF790FCA6
:101AC0004FF496724FF4EA710120FEF789FC4FF44F
:101AD0009672C1210220FEF783FCFEF75DFC4FF4F5
:101AE0007A7000F085FB4FF4967240F2F1110720F6
:101AF000FEF776FC4FF4967240F221210820FEF7A3
:101B00006FFC4FF4967240F227210920FEF768FC23
:101B1000FEF742FC4FF47A7000F06AFB4FF4C87293
:101B20004FF4F4710220FEF75BFC4FF496724FF411
:101B300057710820FEF754FC4FF49672F1210920EA
:101B4000FEF74EFCFEF728FC4FF4487000F050FB07
:101B500096224FF443710220FEF742FCFEF71CFC74
:101B60004FF47A7000F044FB4FF4487000F040FBF3
:101B70004B224FF4A0710120FEF732FCFEF70CFC63
:101B80004FF47A7000F034FB4FF4FA7000F030FB41
:101B90004FF496724FF434710120FEF721FC4FF49C
:101BA00096724FF43B710220FEF71AFCFEF7F4FB2D
:101BB00040F28A2000F01CFB4FF4967240F22B2179
:101BC0000320FEF70DFC4FF4967240F2032104202F
:101BD000FEF706FC4FF4967240F2E1110520FEF785
:101BE000FFFB4FF496724FF405710620FEF7F8FBE9
:101BF000FEF7D2FB4FF4487000F0FAFA4FF49672F9
:101C000040F2E5210120FEF7EBFB4FF496724FF412
:101C10003A710220FEF7E4FB4FF4967240F2351160
:101C20000320FEF7DDFB4FF496724FF41071042091
:101C3000FEF7D6FB4FF4967240F2CA210520FEF75C
:101C4000CFFB4FF4967240F2FD110620FEF7C8FB61
:101C5000FEF7A2FB4FF47A7000F0CAFA4FF49672C6
:101C600040F2AA210120FEF7BBFB4FF496724FF41D
:101C700039710220FEF7B4FB4FF496724FF4AD7148
:101C80000320FEF7ADFB4FF4967240F231210420A1
:101C9000FEF7A6FB4FF496724FF43A710520FEF75B
:101CA0009FFB4FF4967240F2E3110620FEF798FB7B
:101CB000FEF772FB4FF4967000F09AFA4FF49672AA
:101CC00040F2F5110120FEF78BFB4FF4C87240F291
:101CD000EB110220FEF784FB4FF496724FF4B471BF
:101CE0000320FEF77DFB4FF4967240F2F1110420C1
:101CF000FEF776FB4FF4967240F2AB210520FEF71B
:101D00006FFB4FF4967240F226210620FEF768FB27
:101D10004FF4967240F2EF110720FEF761FB4FF48B
:101D2000967240F253310820FEF75AFB4FF4967238
:101D3000F4210920FEF754FB4FF496724FF4FD7125
:101D40000A20FEF74DFBFEF727FB4FF47A7000F0F8
:101D50004FFA4FF4FA7000F04BFA10BD10B540F294
:101D60008A2240F25F310120FEF73AFB40F28F22D7
:101D70004FF43D710220FEF733FB4FF496724FF49F
:101D8000BD710320FEF72CFB4FF4967240F2462102
:101D90000420FEF725FB4FF4967240F2A5210520A2
:101DA000FEF71EFB4FF496724FF4E4710620FEF727
:101DB00017FB4FF4967240F2EF110720FEF710FB6D
:101DC0004FF4967240F253310820FEF709FB4FF4AE
:101DD0009672F4210920FEF703FB4FF496724FF43C
:101DE000FD710A20FEF7FCFAFEF7D6FA4FF47A707E
:101DF00000F0FEF9FA2000F0FBF94FF4967240F281
:101E000045110120FEF7ECFA4FF4967240F255317D
:101E10000220FEF7E5FA4FF4967240F229210320E2
:101E2000FEF7DEFA4FF4967240F2E2210420FEF74C
:101E3000D7FA4FF4967240F2E9110520FEF7D0FA76
:101E40004FF4967240F239110620FEF7C9FAFEF7F8
:101E5000A3FA4FF47A7000F0CBF94FF4487000F019
:101E6000C7F94FF49672EB210820FEF7B9FAFEF796
:101E700093FA4FF47A7000F0BBF94FF4487000F019
:101E8000B7F94FF496724FF4F9710120FEF7A8FAF2
:101E90004FF4967240F241310220FEF7A1FA40F26F
:101EA00052324FF43A710A20FEF79AFAFEF774FAAA
:101EB0004FF47A7000F09CF94FF496724FF4FB7176
:101EC0000A20FEF78DFA4FF4967240F21A2108208C
:101ED000FEF786FA4FF4967240F22B210920FEF7A6
:101EE0007FFAFEF759FA4FF47A7000F081F94FF457
:101EF000C87240F2E5110220FEF772FA4FF49672B2
:101F00004FF456710820FEF76BFA4FF49672F321E6
:101F10000920FEF765FAFEF73FFA4FF4487000F02B
:101F200067F99622E5210220FEF75AFAFEF734FA05
:101F30004FF47A7000F05CF94FF4487000F058F9F3
:101F40004B224FF430710120FEF74AFAFEF724FAD3
:101F50004FF47A7000F04CF94FF4FA7000F048F941
:101F60004FF49672AE210120FEF73AFA4FF49672C2
:101F700040F205110220FEF733FAFEF70DFA4FF496
:101F8000487000F035F94FF4967240F22B2103208F
:101F9000FEF726FA4FF4967240F203210420FEF772
:101FA0001FFA4FF4967240F2E1110520FEF718FA7D
:101FB0004FF496724FF405710620FEF711FAFEF702
:101FC000EBF94FF4487000F013F94FF4967240F2B9
:101FD00001110120FEF704FA4FF4967240F20F113E
:101FE0000220FEF7FDF94FF4967240F253110320E0
:101FF000FEF7F6F94FF4967240F2FF110420FEF757
:10200000EFF94FF4967240F2C7210520FEF7E8F988
:102010004FF496724FF406710620FEF7E1F9FEF7D1
:10202000BBF94FF47A7000F0E3F84FF49672EF21A9
:102030000120FEF7D5F94FF49672E4210220FEF755
:10204000CFF94FF4967240F281110320FEF7C8F9E0
:102050004FF496724FF4F4710420FEF7C1F94FF477
:10206000967240F29F210520FEF7BAF94FF496725E
:102070004FF407710620FEF7B3F9FEF78DF94FF420
:10208000967000F0B5F84FF4967240F2F511012009
:10209000FEF7A6F94FF4967240F2EB110220FEF71C
:1020A0009FF94FF496724FF4B4710320FEF798F93C
:1020B0004FF4967240F2F1110420FEF791F94FF4BB
:1020C000967240F2AB210520FEF78AF94FF4967222
:1020D00040F226210620FEF783F94FF4967240F273
:1020E000EF110720FEF77CF94FF4967240F253315E
:1020F0000820FEF775F94FF49672F4210920FEF7D7
:102100006FF94FF496724FF4FD710A20FEF768F9EB
:10211000FEF742F94FF47A7000F06AF84FF47A70E3
:1021200000F066F84FF47A7000F062F810BD10B558
:102130004FF496724FF4C4710320FEF751F94FF437
:1021400096724FF4DA710420FEF74AF94FF4967252
:1021500040F297210520FEF743F94FF496724FF4B1
:102160001E710620FEF73CF9FEF716F94FF4967043
:1021700000F03EF84FF4AF7240F249110220FEF732
:102180002FF9FEF709F94FF4167000F031F84FF40B
:10219000AF7240F2EB110220FEF722F9FEF7FCF8D5
:1021A0004FF4FA7000F024F810BD000010B56FF085
:1021B0000400FEF791FE0A4800680A49B0FBF1F0FE
:1021C000094908700846007800EB4001C1EBC010D7
:1021D0004FF6FF7101EAC0000449088010BD0000FD
:1021E0001400002000127A00340000203600002085
:1021F0000146114A12884A434FF0E0235A610022F7
:102200009A611A46126942F001021A6100BF4FF04A
:10221000E022106900F001021AB100F48032002AB5
:10222000F5D04FF0E022126922F001024FF0E023D6
:102230001A6100229A6170473600002000BF011E1B
:10224000A0F10100FBD170470146114A12784A43C0
:102250004FF0E0235A6100229A611A46126942F057
:1022600001021A6100BF4FF0E022106900F0010284
:102270001AB100F48032002AF5D04FF0E022126942
:1022800022F001024FF0E0231A6100229A617047A8
:102290003400002000BF054A128802F04002002AE4
:1022A000F9D0C2B2014B1B1D1A80704700380140A3
:1022B00010B54FF496724FF4F4710120FEF790F8C8
:1022C0004FF4967240F2EB110220FEF789F84FF4BA
:1022D000967240F26A210320FEF782F84FF496725C
:1022E00040F2B2210420FEF77BF84FF496724FF4CF
:1022F000F1710520FEF774F84FF4967240F2511117
:102300000620FEF76DF84FF4C8724FF409710720EC
:10231000FEF766F84FF4967240F261310820FEF73E
:102320005FF84FF49672AD210920FEF759F84FF48B
:10233000967240F25D110A20FEF752F8FEF72CF873
:102340004FF47A70FFF754FF4FF4967240F2E711A2
:102350000520FEF745F84FF4967240F21911062059
:10236000FEF73EF84FF4C87240F2FD110720FEF769
:1023700037F84FF4967240F25B310820FEF730F8E0
:102380004FF4967240F267110920FEF729F84FF4D6
:10239000967240F263110A20FEF722F8FDF7FCFF67
:1023A0004FF47A70FFF724FFC820FFF721FF4FF4A6
:1023B000967240F213310320FEF712F84FF4967232
:1023C00040F28D310420FEF70BF84FF4967240F284
:1023D00039110520FEF704F84FF496729821062073
:1023E000FDF7FEFF4FF4E17240F2E5110720FDF723
:1023F000F7FF4FF496724FF45D710820FDF7F0FF80
:102400004FF4967240F2CB210920FDF7E9FF4FF41B
:10241000967240F205210A20FDF7E2FFFDF7BCFFAE
:102420004FF47A70FFF7E4FEC820FFF7E1FE4FF4A7
:102430002F7240F2F9110720FDF7D2FF4FF46172BD
:1024400040F267110820FDF7CBFF40F2B63240F2B0
:10245000B2210920FDF7C4FF40F2B6324FF44471B7
:102460000A20FDF7BDFFFDF797FF4FF47A70FFF7E5
:10247000BFFE4FF49670FFF7BBFE4FF4967240F22A
:102480005B210320FDF7ACFF4FF4967240F2F72179
:102490000420FDF7A5FF4FF4967240F20A210520B3
:1024A000FDF79EFF4FF4967240F21B110620FDF7D8
:1024B00097FF4FF4967240F2DB110720FDF790FF73
:1024C000962240F2EB110820FDF78AFF4FF4967236
:1024D000F5210920FDF784FF4FF496724FF4FF7148
:1024E0000A20FDF77DFFFDF757FF4FF47A70FFF7E5
:1024F0007FFE4FF49670FFF77BFE4FF4967240F22A
:1025000052210320FDF76CFF4FF496724FF41471C3
:102510000420FDF765FF4FF496724FF4007105201B
:10252000FDF75EFF4FF4967240F27D110620FDF735
:1025300057FF4FF496724FF4EA710720FDF750FFF2
:10254000962240F22F310820FDF74AFF4FF4967291
:10255000ED210920FDF744FF4FF4967240F2F3118C
:102560000A20FDF73DFFFDF717FF4FF47A70FFF7E4
:102570003FFE4FF49670FFF73BFE4FF4967240F229
:10258000E3110120FDF72CFF4FF496724FF4F87120
:102590000220FDF725FF4FF496724FF4C47103201B
:1025A000FDF71EFF4FF496724FF4DA710420FDF729
:1025B00017FF4FF4967240F297210520FDF710FFA8
:1025C0004FF496724FF41E710620FDF709FF4FF489
:1025D000967240F2EF110720FDF702FF4FF496725A
:1025E00040F253310820FDF7FBFE4FF49672F421C0
:1025F0000920FDF7F5FE4FF496724FF4FD710A20A5
:10260000FDF7EEFEFDF7C8FE4FF47A70FFF7F0FD20
:102610004FF47A70FFF7ECFD10BD00004FF4A0609E
:10262000FEF7E2F9FEF700F84FF4E13001F05AF955
:10263000FFF798F8FFF7BAFD4848FFF7FFFDFEF7F0
:10264000A3FC47A0FEF7CCFEFEF7F5F9FF20FEF74E
:10265000D5F94748FFF7F2FD0020FEF7CFF94548CE
:10266000FFF7ECFD002211461046FEF751FA012259
:1026700000211020FEF74CFA022200212020FEF754
:1026800047FA032200213020FEF742FA04220021FB
:102690004020FEF73DFA052200215020FEF738FACF
:1026A000062200216020FEF733FA07220021702065
:1026B000FEF72EFA0920FEF7C7FBFFF777FD4FF470
:1026C000E13001F00FF948E02B480068322806D3CA
:1026D000002029490860FEF7FDF8FFF7C7F800F071
:1026E00025FE4FF47A70FFF783FD00F01FFE4FF4D4
:1026F0007A70FFF77DFDFFF7DBFDFFF7D9FDFFF7F0
:1027000016FD01F03FF900F011FE4FF47A70FFF76B
:102710006FFDFFF721F9FFF721FB00F02FF8FFF71E
:10272000C7FD00F07AFC00F04AFE01F065FE01F002
:1027300090F901F067FCFFF7FAFC01F023F941F290
:102740008830FFF755FD00F0F1FD41F28830FFF7CA
:102750004FFD41F28830FFF74BFDB5E7FFFF3F002B
:10276000496E6974204F4B2121210D0A00000000A1
:10277000FFFF1F00FFFF0F002800002010B54FF4DF
:102780001672B4210120FDF72BFE4FF4FA72EF21EF
:102790000220FDF725FE4FF4AF724FF4CD710320F8
:1027A000FDF71EFE4FF4C8724FF4F9710420FDF7D7
:1027B00017FE4FF4AF724FF421710520FDF710FEA4
:1027C0004FF4C8724FF405710620FDF709FEFDF7BE
:1027D000E3FD4FF47A70FFF70BFDC820FFF708FD0B
:1027E0004FF41672FD210120FDF7FAFD4FF49672A9
:1027F0004FF4DD710220FDF7F3FD4FF496724FF4B4
:10280000CD710320FDF7ECFD4FF496724FF4E271A9
:102810000420FDF7E5FD4FF4967240F27921052082
:10282000FDF7DEFD4FF4967240F246210620FDF7DB
:10283000D7FD4FF4967240F2EF110720FDF7D0FD5F
:102840004FF4967240F253310820FDF7C9FD4FF462
:102850009672F4210920FDF7C3FD4FF496724FF4F0
:10286000FD710A20FDF7BCFDFDF796FD4FF47A706F
:10287000FFF7BEFC4FF4967240F235110120FDF7D0
:10288000AFFD4FF4FA724FF400710220FDF7A8FD7E
:102890004FF4AF7240F247110320FDF7A1FD4FF452
:1028A000C872911C0420FDF79BFDC82240F2F12163
:1028B0000520FDF795FDC8224FF422710620FDF793
:1028C0008FFDFDF769FD4FF47A70FFF791FC4FF42F
:1028D000AF724FF4CC710320FDF782FD4FF4C87244
:1028E0004FF489710420FDF77BFDC82240F2DB2103
:1028F0000520FDF775FDC8224FF41B710620FDF77A
:102900006FFDFDF749FD4FF4FA70FFF771FC4FF4CE
:10291000AF7240F233210320FDF762FD4FF4C8721D
:1029200040F21B210420FDF75BFDFDF735FD4FF460
:10293000FA70FFF75DFC4FF4AF7240F236310320BE
:10294000FDF74EFD4FF4C87240F229310420FDF727
:1029500047FDFDF721FD4FF44870FFF749FCFA22CF
:10296000F0210120FDF73CFD4FF4FA724FF40071A5
:102970000220FDF735FDFA224FF416710520FDF710
:102980002FFD4FF4C87240F23F310620FDF728FDBD
:10299000FDF702FD4FF44870FFF72AFC4FF49672E2
:1029A00011460120FDF71CFD4FF4FA724FF400713F
:1029B0000220FDF715FDFA2240F2E5210520FDF782
:1029C0000FFD4FF4C87240F26E210620FDF708FD9E
:1029D000FDF7E2FC4FF44870FFF70AFCFA22F02101
:1029E0000120FDF7FDFC4FF4FA724FF40071022054
:1029F000FDF7F6FCFA224FF416710520FDF7F0FC06
:102A00004FF4C87240F23F310620FDF7E9FCFDF7B4
:102A1000C3FC4FF44870FFF7EBFB4FF4967211467E
:102A20000120FDF7DDFC4FF4FA724FF40071022033
:102A3000FDF7D6FCFA2240F2E5210520FDF7D0FC97
:102A40004FF4C87240F26E210620FDF7C9FCFDF775
:102A5000A3FC4FF44870FFF7CBFB6420FFF7C8FBE3
:102A60004FF4AF7240F233210320FDF7B9FC4FF46D
:102A7000C8724FF489710420FDF7B2FCFDF78CFC9D
:102A80004FF44870FFF7B4FB4FF4AF724FF4CC71C2
:102A90000320FDF7A5FC4FF4C8724FF489710420A0
:102AA000FDF79EFCFDF778FC4FF4FA70FFF7A0FBF2
:102AB0004FF4967211460120FDF792FC4FF4AF726D
:102AC00040F233110320FDF78BFC4FF4C8724FF432
:102AD000D5710420FDF784FCFDF75EFC4FF44870CF
:102AE000FFF786FBC82240F2A7210520FDF778FCFE
:102AF000C82240F2E3210620FDF772FCFDF74CFCF2
:102B00004FF44870FFF774FBC8224FF4EF710520B3
:102B1000FDF766FCC8224FF4FA710620FDF760FC51
:102B2000FDF73AFC4FF44870FFF762FB4FF4AF72C9
:102B3000E2210520FDF754FC4FF4C872B2210620B3
:102B4000FDF74EFCFDF728FC4FF44870FFF750FBF3
:102B50004FF49672F7210120FDF742FC4FF4FA7210
:102B60004FF4F0710220FDF73BFCFA2240F2D11144
:102B70000320FDF735FC4FF4BE72D4210420FDF78D
:102B80002FFCFDF709FC4FF44870FFF731FB4FF4C1
:102B9000967240F205110120FDF722FC4FF4FA7203
:102BA0004FF4F0710220FDF71BFCFA2240F23311C2
:102BB0000320FDF715FC4FF4BE724FF4D5710420CD
:102BC000FDF70EFCFDF7E8FB4FF44870FFF710FB34
:102BD0004FF49672F8210120FDF702FC4FF4FA72CF
:102BE0004FF4F0710220FDF7FBFBFA2240F2D11105
:102BF0000320FDF7F5FB4FF4BE72D4210420FDF74E
:102C0000EFFBFDF7C9FB4FF44870FFF7F1FA4FF403
:102C1000967240F205110120FDF7E2FB4FF4FA72C3
:102C20004FF4F0710220FDF7DBFBFA2240F2331182
:102C30000320FDF7D5FB4FF4BE724FF4D57104208D
:102C4000FDF7CEFBFDF7A8FB4FF44870FFF7D0FA75
:102C50004FF496724FF4EF710520FDF7C1FB4FF46E
:102C6000C87240F2E3210620FDF7BAFBFDF794FBA2
:102C70004FF44870FFF7BCFA4FF4967240F2A72168
:102C80000520FDF7ADFB4FF4C87240F2E3210620AA
:102C9000FDF7A6FBFDF780FB4FF44870FFF7A8FA9D
:102CA000C82240F2E5210520FDF79AFBC82240F238
:102CB0006E210620FDF794FBFDF76EFB4FF4FA70D2
:102CC000FFF796FA642240F22D110120FDF788FBF0
:102CD0004FF4FA724FF4E7710220FDF781FBC8222E
:102CE00040F231110320FDF77BFB4FF4C8724FF423
:102CF000EF710420FDF774FBC82240F2DB210520B0
:102D0000FDF76EFB4FF4C8724FF410710620FDF70B
:102D100067FBFDF741FB4FF44870FFF769FAC820E5
:102D2000FFF766FA4FF4C87240F23E210320FDF728
:102D300057FB4FF4A572DC210420FDF751FB4FF443
:102D4000C87240F2D3110520FDF74AFB4FF4A5727B
:102D50004FF44E710620FDF743FB6422EE21012063
:102D6000FDF73EFB4FF4FA72D11F0220FDF738FB4E
:102D70004FF4967240F2EF110720FDF731FB4FF44C
:102D8000967240F253310820FDF72AFB4FF49672F9
:102D9000F4210920FDF724FB4FF496724FF4FD71E6
:102DA0000A20FDF71DFBFDF7F7FA4FF44870FFF717
:102DB0001FFA642240F22D110120FDF711FB4FF4A0
:102DC000C8724FF4E7710220FDF70AFB4FF4C87296
:102DD00040F231110320FDF703FB4FF4A5724FF4CD
:102DE000EF710420FDF7FCFA4FF4C87240F2DB21CA
:102DF0000520FDF7F5FA4FF4A5724FF41071062087
:102E0000FDF7EEFAFDF7C8FA4FF44870FFF7F0F956
:102E1000C820FFF7EDF94FF4C87240F23E210320BD
:102E2000FDF7DEFA4FF4A572DC210420FDF7D8FA95
:102E30004FF4C87240F2D3110520FDF7D1FA4FF4D8
:102E4000A5724FF44E710620FDF7CAFA6422EE21F6
:102E50000120FDF7C5FA4FF4FA72D11F0220FDF7E9
:102E6000BFFA4FF4967240F2EF110720FDF7B8FA5F
:102E70004FF4967240F253310820FDF7B1FA4FF447
:102E80009672F4210920FDF7ABFA4FF496724FF4D5
:102E9000FD710A20FDF7A4FAFDF77EFA4FF44870A1
:102EA000FFF7A6F9642240F22D110120FDF798FAF0
:102EB0004FF4C8724FF4E7710220FDF791FA4FF416
:102EC000C87240F231110320FDF78AFA4FF4A5725F
:102ED0004FF4EF710420FDF783FA4FF4C87240F20B
:102EE000DB210520FDF77CFA4FF4A5724FF4107139
:102EF0000620FDF775FAFDF74FFA4FF44870FFF71B
:102F000077F9C820FFF774F94FF496724FF4CD713A
:102F10000320FDF765FA4FF496724FF4E271042036
:102F2000FDF75EFA4FF4967240F279210520FDF725
:102F300057FA4FF4967240F246210620FDF750FAF8
:102F4000FDF72AFA4FF44870FFF752F94FF49672E2
:102F5000EF210120FDF744FA4FF49672E42102209C
:102F6000FDF73EFA4FF4967240F281110320FDF70F
:102F700037FA4FF496724FF4F4710420FDF730FAEB
:102F80004FF4967240F29F210520FDF729FA4FF485
:102F900096724FF407710620FDF722FAFDF7FCF94F
:102FA0004FF44870FFF724F94FF4967240F2E311A2
:102FB0000120FDF715FA4FF496724FF4F8710220D4
:102FC000FDF70EFA4FF496724FF4C4710320FDF72B
:102FD00007FA4FF496724FF4DA710420FDF700FA05
:102FE0004FF4967240F297210520FDF7F9F94FF45E
:102FF00096724FF41E710620FDF7F2F9FDF7CCF939
:103000004FF47A70FFF7F4F84FF47A70FFF7F0F8A6
:103010004FF47A70FFF7ECF810BD10B54FF49672CC
:1030200040F2EB110120FDF7DBF94FF4967240F20C
:10303000F3110220FDF7D4F94FF4967240F2052106
:103040000320FDF7CDF94FF4967240F2652104207C
:10305000FDF7C6F94FF4967240F255110520FDF7C1
:10306000BFF94FF4967280210620FDF7B9F94FF4AD
:10307000967240F26F210720FDF7B2F94FF4967275
:1030800040F29A310820FDF7ABF99622F921092088
:10309000FDF7A6F996224FF4F9710A20FDF7A0F981
:1030A000FDF77AF94FF47A70FFF7A2F84FF49672B1
:1030B00040F2FA210320FDF793F94FF4967240F2A3
:1030C000B5210420FDF78CF9962240F20A21072051
:1030D000FDF786F94FF4967240F2E1110820FDF7F2
:1030E0007FF9FDF759F94FF47A70FFF781F8C8209E
:1030F000FFF77EF8FA224FF444710320FDF770F9D0
:10310000FA224FF465710420FDF76AF94FF49672C4
:103110004FF49B710520FDF763F94FF496729021EF
:103120000620FDF75DF94FF4967240F2CB110720AF
:10313000FDF756F94FF4C87240F271110820FDF7FF
:103140004FF9FDF729F94FF47A70FFF751F8642031
:10315000FFF74EF84FF42F72CE210720FDF740F90C
:103160004FF42F7240F28F110820FDF739F940F229
:10317000EE2240F2BF210920FDF732F940F2EE22A3
:103180004FF4F8710A20FDF72BF9FDF705F94FF41C
:103190007A70FFF72DF84FF49670FFF729F8C822E0
:1031A00040F2BE210320FDF71BF94FF496724FF455
:1031B0001A710420FDF714F9C82240F27911052094
:1031C000FDF70EF9C8224FF498710620FDF708F9B3
:1031D000C8224FF4E2710720FDF702F94FF496720E
:1031E00040F29A310820FDF7FBF84FF4967240F256
:1031F00079210920FDF7F4F8C82240F225210A20A0
:10320000FDF7EEF8FDF7C8F84FF47A70FEF7F0FF1F
:10321000C82240F235210320FDF7E2F84FF4967200
:103220004FF41A710420FDF7DBF8C82240F2EF11C9
:103230000520FDF7D5F8C8224FF4CF710620FDF721
:10324000CFF8C8224FF4E2710720FDF7C9F84FF418
:10325000967240F29A310820FDF7C2F84FF4967248
:1032600040F25B210920FDF7BBF8C82240F26D2136
:103270000A20FDF7B5F8FDF78FF84FF47A70FEF7E6
:10328000B7FFC820FEF7B4FF4FF4967240F2E31187
:103290000120FDF7A5F84FF496724FF4F871022063
:1032A000FDF79EF84FF496724FF4C4710320FDF7BA
:1032B00097F84FF496724FF4DA710420FDF790F806
:1032C000C82240F297210520FDF78AF8C8224FF462
:1032D0001E710620FDF784F84FF4C87240F2EF111A
:1032E0000720FDF77DF84FF4C87240F253310820F3
:1032F000FDF776F84FF4C872F4210920FDF770F855
:103300004FF4C8724FF4FD710A20FDF769F8FDF71C
:1033100043F84FF47A70FEF76BFF4FF47A70FEF7C4
:1033200067FF4FF47A70FEF763FF10BD10B54FF4DE
:10333000967240F2E3110120FDF752F84FF49672B5
:103340004FF4F8710220FDF74BF84FF496724FF4EA
:10335000C4710320FDF744F84FF496724FF4DA710C
:103360000420FDF73DF84FF4967240F297210520B6
:10337000FDF736F84FF496724FF41E710620FDF7F4
:103380002FF84FF4967240F2EF110720FDF728F85E
:103390004FF4967240F253310820FDF721F84FF4B4
:1033A0009672F4210920FDF71BF84FF496724FF442
:1033B000FD710A20FDF714F8FCF7EEFF10BD10B503
:1033C0004FF41672B4210120FDF70AF84FF4FA7297
:1033D000FD210220FDF704F84FF496724FF4CF71EF
:1033E0000320FCF7FDFF4FF4967240F21A210420EF
:1033F000FCF7F6FF4FF4967240F281210520FCF7AE
:10340000EFFF4FF496724FF4FB710620FCF7E8FFD4
:103410004FF4967240F2EF110720FCF7E1FF4FF4F2
:10342000967240F253310820FCF7DAFF4FF496729F
:10343000F4210920FCF7D4FF4FF496724FF4FD718C
:103440000A20FCF7CDFFFCF7A7FF4FF47A70FEF7D8
:10345000CFFE4FF4967240F229210320FCF7C0FF03
:103460004FF4967240F2E2210420FCF7B9FF4FF4CA
:10347000967240F2E9110520FCF7B2FF4FF4967204
:1034800040F239110620FCF7ABFFFCF785FF642002
:10349000FEF7AEFE4FF4967240F291210120FCF748
:1034A0009FFFC8227E210220FCF79AFF4FF49672FC
:1034B00040F223210320FCF793FF4FF4967240F271
:1034C000E5210420FCF78CFF4FF4967240F20521B1
:1034D0000520FCF785FF4FF49672D11D0620FCF7FE
:1034E0007FFFFCF759FF4FF47A70FEF781FE4FF42F
:1034F0007A70FEF77DFE4FF4967240F25A31092041
:10350000FCF76EFFFCF748FF4FF47A70FEF770FE91
:103510004FF44870FEF76CFE4FF4487240F2EE2113
:103520000720FCF75DFF4FF496724FF4EA7101201B
:10353000FCF756FF4FF49672C1210220FCF750FFB2
:10354000FCF72AFF4FF47A70FEF752FE4FF49672A2
:1035500040F2F1110720FCF743FF4FF4967240F25E
:1035600021210820FCF73CFF4FF4967240F22721FE
:103570000920FCF735FFFCF70FFF4FF47A70FEF7D8
:1035800037FE4FF4C8724FF4F4710220FCF728FFA5
:103590004FF496724FF457710820FCF721FF4FF457
:1035A0009672F1210920FCF71BFFFCF7F5FE4FF4A2
:1035B0004870FEF71DFE4FF4967240F21B31032057
:1035C000FCF70EFF4FF4967240F243210420FCF703
:1035D00007FF4FF49672E9210520FCF701FF4FF435
:1035E000967240F2DF110620FCF7FAFEFCF7D4FEDB
:1035F0004FF47A70FEF7FCFDC820FEF7F9FD4FF49A
:103600009672B3210720FCF7EBFE4FF496724FF44D
:1036100006710820FCF7E4FE4FF4967240F2272171
:103620000920FCF7DDFE4FF496724FF44C710A202E
:10363000FCF7D6FEFCF7B0FE4FF47A70FEF7D8FD2B
:10364000C820FEF7D5FD4FF4967240F2F111072025
:10365000FCF7C6FE4FF4967240F25A310820FCF790
:10366000BFFE4FF49672F6210920FCF7B9FE4FF425
:10367000967240F2FD110A20FCF7B2FEFCF78CFEB8
:103680004FF47A70FEF7B4FDC820FEF7B1FD4FF499
:10369000967240F223210320FCF7A2FE4FF49672AB
:1036A00040F2E5210420FCF79BFE4FF4967240F2B5
:1036B00005210520FCF794FE4FF49672D11D0620DB
:1036C000FCF78EFEFCF768FE4FF49660FEF790FD67
:1036D00096224FF443710220FCF782FEFCF75CFE59
:1036E0004FF47A70FEF784FD4FF44870FEF780FDCA
:1036F0004B224FF4A0710120FCF772FEFCF74CFE48
:103700004FF47A70FEF774FD4FF4FA70FEF770FD17
:103710004FF496724FF434710120FCF761FE4FF4C0
:1037200096724FF43B710220FCF75AFEFCF734FE10
:1037300040F28A20FEF75CFD4FF4967240F22B2196
:103740000320FCF74DFE4FF4967240F20321042053
:10375000FCF746FE4FF4967240F2E1110520FCF7AB
:103760003FFE4FF496724FF405710620FCF738FEC9
:10377000FCF712FE4FF44870FEF73AFD4FF49672D4
:1037800040F2E5210120FCF72BFE4FF496724FF436
:103790003A710220FCF724FE4FF4967240F2351184
:1037A0000320FCF71DFE4FF496724FF410710420B5
:1037B000FCF716FE4FF4967240F2CA210520FCF782
:1037C0000FFE4FF4967240F2FD110620FCF708FE42
:1037D000FCF7E2FD4FF47A70FEF70AFD4FF49672A3
:1037E00040F2AA210120FCF7FBFD4FF496724FF442
:1037F00039710220FCF7F4FD4FF496724FF4AD716D
:103800000320FCF7EDFD4FF4967240F231210420C5
:10381000FCF7E6FD4FF496724FF43A710520FCF781
:10382000DFFD4FF4967240F2E3110620FCF7D8FD5D
:10383000FCF7B2FD4FF49670FEF7DAFC4FF4967287
:1038400040F2F5110120FCF7CBFD4FF4C87240F2B5
:10385000EB110220FCF7C4FD4FF496724FF4B471E3
:103860000320FCF7BDFD4FF4967240F2F1110420E5
:10387000FCF7B6FD4FF4967240F2AB210520FCF741
:10388000AFFD4FF4967240F226210620FCF7A8FD0A
:103890004FF4967240F2EF110720FCF7A1FD4FF4B0
:1038A000967240F253310820FCF79AFD4FF496725D
:1038B000F4210920FCF794FD4FF496724FF4FD714A
:1038C0000A20FCF78DFDFCF767FD4FF47A70FEF7D8
:1038D0008FFC4FF47A70FEF78BFC4FF47A70FEF792
:1038E00087FC10BD10B586B00446012144F20400E7
:1038F000FDF7AEF94FF40070ADF8140003208DF819
:10390000160018208DF8170005A91C48FCF7BEFE0C
:103910004FF48060ADF8140004208DF8170005A95D
:103920001648FCF7B3FE25208DF8000003208DF823
:1039300001008DF8020001208DF803006846FDF7B4
:103940001BF801940020ADF80800ADF80A00ADF8AE
:103950000C00ADF810000C20ADF80E0001A90848CD
:10396000FDF75CFC012240F225510548FDF730FCD3
:1039700001210348FDF7F6FB06B010BD0008014029
:103980000038014010B54FF4967240F2E621032052
:10399000FCF726FDFCF700FD4FF44870FEF728FC0D
:1039A0004FF4E17240F22A310420FCF719FD4FF484
:1039B00096724FF44D710320FCF712FDFCF7ECFCFE
:1039C0004FF44870FEF714FC4FF4E1724FF4FF71AE
:1039D0000420FCF705FD4FF4967240F2E621032027
:1039E000FCF7FEFCFCF7D8FC4FF44870FEF700FC37
:1039F0004FF4E17240F22A310420FCF7F1FC4FF45D
:103A000096724FF44D710320FCF7EAFCFCF7C4FCFE
:103A10004FF44870FEF7ECFB4FF496724FF4C4710C
:103A20000320FCF7DDFC4FF4E1724FF4DA7104205F
:103A3000FCF7D6FCFCF7B0FC4FF47A70FEF7D8FB2D
:103A40004FF47A70FEF7D4FB4FF47A70FEF7D0FB98
:103A500010BD10B54FF496724FF4F4710120FCF7CD
:103A6000BFFC4FF4967240F2EB110220FCF7B8FC59
:103A70004FF4967240F26A210320FCF7B1FC4FF438
:103A8000967240F2B2210420FCF7AAFC4FF4967221
:103A90004FF4F1710520FCF7A3FC4FF4967240F24D
:103AA00051110620FCF79CFC4FF4C8724FF40971C9
:103AB0000720FCF795FC4FF4967240F26131082024
:103AC000FCF78EFC4FF49672AD210920FCF788FCC0
:103AD0004FF4967240F25D110A20FCF781FCFCF76E
:103AE0005BFC4FF47A70FEF783FB4FF4967240F262
:103AF000E7110520FCF774FC4FF4967240F219119F
:103B00000620FCF76DFC4FF4C87240F2FD1107204F
:103B1000FCF766FC4FF4967240F25B310820FCF72C
:103B20005FFC4FF4967240F267110920FCF758FCD5
:103B30004FF4967240F263110A20FCF751FCFCF737
:103B40002BFC4FF47A70FEF753FBC820FEF750FBB6
:103B50004FF496724FF4F6710120FCF741FC4FF4DC
:103B6000967240F2E9110220FCF73AFC4FF496728B
:103B70004FF419710320FCF733FC4FF4967240F2B6
:103B800095210420FCF72CFC4FF49672D11C0520E3
:103B9000FCF726FC4FF4967294210620FCF720FCDB
:103BA0004FF4967240F2C9210920FCF719FC4FF43A
:103BB000967240F2FF110A20FCF712FCFCF7ECFBB6
:103BC0004FF47A70FEF714FBC820FEF711FB4FF498
:103BD0002F7240F2F9110720FCF702FC4FF46172DA
:103BE00040F267110820FCF7FBFB40F2EE2240F2A6
:103BF000B2210920FCF7F4FB40F2EE224FF44471AD
:103C00000A20FCF7EDFBFCF7C7FB4FF47A70FEF7D8
:103C1000EFFA4FF49672B3210720FCF7E1FB4FF463
:103C200096724FF406710820FCF7DAFB4FF4967297
:103C300040F227210920FCF7D3FB4FF496724FF492
:103C40004C710A20FCF7CCFBFCF7A6FB4FF47A7012
:103C5000FEF7CEFA4FF4967240F2F1110720FCF70E
:103C6000BFFB4FF4967240F25A310820FCF7B8FBC4
:103C70004FF49672F6210920FCF7B2FB4FF49672CE
:103C800040F2FD110A20FCF7ABFBFCF785FB4FF47B
:103C90004870FEF7ADFA4FF4967240F2EB11022035
:103CA000FCF79EFB4FF496724FF413710320FCF760
:103CB00097FB4FF4967240F22B210420FCF790FB07
:103CC000642240F22F110520FCF78AFB6422942124
:103CD0000620FCF785FBFCF75FFB4FF41670FEF740
:103CE00087FA4FF496724FF4D2710320FCF778FBF9
:103CF0004FF4967240F297110420FCF771FB4FF4D9
:103D000096724FF482710720FCF76AFB4FF49672AB
:103D100040F23D110A20FCF763FBFCF73DFB4FF43A
:103D20004870FEF765FA4FF496724FF41371032052
:103D3000FCF756FB4FF4967240F22B210420FCF75F
:103D40004FFB4FF4967240F2CA210720FCF748FB64
:103D50004FF4967240F28B210A20FCF741FBFCF7EE
:103D60001BFB4FF44870FEF743FA4FF496724FF482
:103D7000D2710320FCF734FB4FF4967240F2971196
:103D80000420FCF72DFB4FF496724FF4827107204C
:103D9000FCF726FB4FF4967240F23D110A20FCF727
:103DA0001FFBFCF7F9FA4FF44870FEF721FA4FF4C5
:103DB000967240F256210320FCF712FB4FF49672E4
:103DC00040F2CB110420FCF70BFB4FF4967240F24B
:103DD000F1110720FCF704FB4FF4967240F25A31C0
:103DE0000820FCF7FDFA4FF49672F6210920FCF743
:103DF000F7FA4FF4967240F2FD110A20FCF7F0FA40
:103E0000FCF7CAFA4FF47A70FEF7F2F9C82240F2D2
:103E1000F7110120FCF7E4FAC82240F20721022042
:103E2000FCF7DEFAC82240F232210320FCF7D8FA70
:103E3000C82240F2F3110420FCF7D2FA6422E121F7
:103E40000520FCF7CDFA64224FF4E6710620FCF75A
:103E5000C7FA4FF4967240F2A7210920FCF7C0FA86
:103E6000642240F201210A20FCF7BAFAFCF794FA26
:103E70004FF47A70FEF7BCF9C82240F232210320D9
:103E8000FCF7AEFA4FF4967240F296210420FCF74C
:103E9000A7FAC82240F245110520FCF7A1FAC82272
:103EA00040F201110620FCF79BFA4FF4967240F2A3
:103EB0009A310820FCF794FA4FF4967240F2A72149
:103EC0000920FCF78DFAC82240F201210A20FCF7F4
:103ED00087FAFCF761FA4FF4C870FEF789F94FF4DE
:103EE00096724FF4F6710220FCF77AFAC82240F27B
:103EF0003E210320FCF774FA4FF4967240F29721AA
:103F00000420FCF76DFAC82240F2FB110520FCF7F3
:103F100067FAC82240F299110620FCF761FA4FF4C3
:103F200096724FF4FE710720FCF75AFA4FF4AF7205
:103F300040F29A310820FCF753FAFA224FF4157137
:103F40000920FCF74DFAFA2240F25A210A20FCF728
:103F500047FAFCF721FA4FF47A70FEF749F9C820C6
:103F6000FEF746F94FF4967240F2E3110120FCF798
:103F700037FA4FF496724FF4F8710220FCF730FADA
:103F80004FF496724FF4C4710320FCF729FA4FF4F2
:103F900096724FF4DA710420FCF722FA4FF496720D
:103FA00040F297210520FCF71BFA4FF496724FF46C
:103FB0001E710620FCF714FA4FF4967240F2EF11CE
:103FC0000720FCF70DFA4FF4967240F253310820A7
:103FD000FCF706FA4FF49672F4210920FCF700FA78
:103FE0004FF496724FF4FD710A20FCF7F9F9FCF7D3
:103FF000D3F94FF47A70FEF7FBF84FF4FA70FEF73E
:10400000F7F810BD10B54FF4967240F20621032068
:10401000FCF7E6F94FF496724FF419710420FCF79F
:10402000DFF94FF496724FF4FB710520FCF7D8F9D5
:104030004FF4967240F2C1110620FCF7D1F94FF40B
:10404000967240F2E3110720FCF7CAF94FF496721A
:104050004FF453710820FCF7C3F94FF49672FB211B
:104060000920FCF7BDF94FF4967240F203210A20B3
:10407000FCF7B6F9FCF790F94FF47A70FEF7B8F850
:104080004FF4967240F293210320FCF7A9F94FF404
:10409000967240F285310420FCF7A2F94FF4967233
:1040A0004FF4FA710520FCF79BF94FF4967240F239
:1040B0009F110620FCF794F94FF4967240F2AF116D
:1040C0000720FCF78DF94FF496724FF450710820D9
:1040D000FCF786F94FF496724FF4DB710920FCF778
:1040E0007FF94FF4967240F295210A20FCF778F997
:1040F000FCF752F94FF47A70FEF77AF84FF49672A3
:1041000040F275210320FCF76BF94FF4967240F2F0
:10411000D7210420FCF764F94FF4967240F2A31102
:104120000520FCF75DF94FF496724FF4D671062026
:10413000FCF756F94FF496724FF4E4710720FCF740
:104140004FF94FF4967240F22D310820FCF748F9F0
:104150004FF4967240F21D110920FCF741F94FF41B
:10416000967240F226210A20FCF73AF9FCF714F97E
:104170004FF47A70FEF73CF84FF4967240F29321B8
:104180000320FCF72DF94FF4967240F2853104209C
:10419000FCF726F94FF496724FF4FA710520FCF7FC
:1041A0001FF94FF4967240F29F110620FCF718F9A0
:1041B0004FF4967240F2AF110720FCF711F94FF45B
:1041C00096724FF450710820FCF70AF94FF496727A
:1041D0004FF4DB710920FCF703F94FF4967240F2BB
:1041E00095210A20FCF7FCF8FCF7D6F84FF47A701A
:1041F000FDF7FEFF4FF496724FF40E710320FCF7AB
:10420000EFF84FF4967240F26A210420FCF7E8F8C8
:104210004FF4967240F2A9110520FCF7E1F84FF433
:104220009672A3210620FCF7DBF84FF4967240F259
:1042300061110720FCF7D4F84FF496724FF4267101
:104240000820FCF7CDF84FF49672FF210920FCF707
:10425000C7F84FF4967240F22F210A20FCF7C0F8FD
:10426000FCF79AF84FF47A70FDF7C2FF4FF496729C
:1042700040F24D210320FCF7B3F84FF4967240F260
:10428000CD210420FCF7ACF84FF496724FF4D671B0
:104290000520FCF7A5F84FF496724FF4AB71062099
:1042A000FCF79EF84FF496724FF4D8710720FCF794
:1042B00097F84FF4967240F21B310820FCF790F803
:1042C0004FF4967240F23F110920FCF789F84FF441
:1042D000967240F247210A20FCF782F8FCF75CF85E
:1042E0004FF47A70FDF784FF4FF496724FF40E711D
:1042F0000320FCF775F84FF4967240F26A2104200F
:10430000FCF76EF84FF4967240F2A9110520FCF705
:1043100067F84FF49672A3210620FCF761F84FF47A
:10432000967240F261110720FCF75AF84FF496722A
:104330004FF426710820FCF753F84FF49672FF21D2
:104340000920FCF74DF84FF4967240F22F210A2015
:10435000FCF746F8FCF720F84FF47A70FDF748FFB9
:104360004FF4967240F2E3110120FCF739F84FF454
:1043700096724FF4F8710220FCF732F84FF4FA729B
:104380004FF4C4710320FCF72BF84FF4FA724FF48A
:10439000DA710420FCF724F84FF4FA7240F2972106
:1043A0000520FCF71DF84FF4FA724FF41E71062039
:1043B000FCF716F84FF4967240F2EF110720FCF765
:1043C0000FF84FF4967240F253310820FCF708F8CA
:1043D0004FF49672F4210920FCF702F84FF496721C
:1043E0004FF4FD710A20FBF7FBFFFBF7D5FF4FF4FD
:1043F0007A70FDF7FDFE10BD10B54FF4FA72BE21C4
:104400000120FBF7EDFF4FF4C872FD210220FBF7FE
:10441000E7FF4FF496724FF4CF710320FBF7E0FFF4
:104420004FF4967240F21A210420FBF7D9FF4FF4A3
:10443000967240F281210520FBF7D2FF4FF496726D
:104440004FF4FB710620FBF7CBFF4FF4967240F25E
:10445000EF110720FBF7C4FF4FF4967240F253317F
:104460000820FBF7BDFF4FF49672F4210920FBF7FB
:10447000B7FF4FF496724FF4FD710A20FBF7B0FFBF
:10448000FBF78AFF4FF47A70FDF7B2FE4FF4967295
:1044900040F229210320FBF7A3FF4FF4967240F26C
:1044A000E2210420FBF79CFF4FF4967240F2E911E1
:1044B0000520FBF795FF4FF4967240F23911062064
:1044C000FBF78EFFFBF768FF6420FDF791FE4FF4CA
:1044D000967240F291210120FBF782FFC8227E21D3
:1044E0000220FBF77DFF4FF4967240F22321032058
:1044F000FBF776FF4FF4967240F2E5210420FBF7BC
:104500006FFF4FF4967240F205210520FBF768FF1C
:104510004FF49672D11D0620FBF762FFFBF73CFFBC
:104520004FF47A70FDF764FE4FF47A70FDF760FE89
:104530004FF4967240F25A310920FBF751FFFBF716
:104540002BFF4FF47A70FDF753FE4FF44870FDF7E0
:104550004FFE4FF496724FF4EA710120FBF740FFD3
:104560004FF49672C1210220FBF73AFF4FF44872D4
:1045700040F2EE210720FBF733FFFBF70DFF4FF46E
:104580007A70FDF735FE4FF4967240F2F111072074
:10459000FBF726FF4FF4967240F221210820FBF72B
:1045A0001FFF4FF4967240F227210920FBF718FFF6
:1045B000FBF7F2FE4FF47A70FDF71AFEC82240F2C4
:1045C000EF110120FBF70CFFC822C1210220FBF7ED
:1045D00007FFC82240F22B310320FBF701FFC8225E
:1045E00040F27B110420FBF7FBFEC822F0210520DE
:1045F000FBF7F6FEC82240F2B3210620FBF7F0FEDF
:10460000C82240F2EF110720FBF7EAFEC82240F271
:1046100022210820FBF7E4FEC82240F229210920CC
:10462000FBF7DEFEC82240F2F7110A20FBF7D8FEA6
:10463000FBF7B2FE4FF47A70FDF7DAFD4FF47A70B3
:10464000FDF7D6FDA0224FF4F9710220FBF7C8FE5A
:10465000FBF7A2FE4FF47A70FDF7CAFDC8224FF4B3
:1046600045710320FBF7BCFEC82240F23D21042027
:10467000FBF7B6FEC8224FF49B710520FBF7B0FE96
:10468000C8224FF42D710620FBF7AAFEC82240F283
:10469000FB210720FBF7A4FEC82240F25D31082071
:1046A000FBF79EFEC822F8210920FBF799FEC822DD
:1046B00040F2E2210A20FBF793FEFBF76DFE4FF478
:1046C0007A70FDF795FD4FF47A70FDF791FD4FF488
:1046D000FA72B3210720FBF783FE4FF496724FF472
:1046E00006710820FBF77CFE4FF4967240F22721FA
:1046F0000920FBF775FE4FF4FA724FF44C710A2053
:10470000FBF76EFEFBF748FE4FF47A70FDF770FD85
:104710004FF47A70FDF76CFDC82240F2FB210720B0
:10472000FBF75EFEC82240F25D310820FBF758FE21
:10473000C822F8210920FBF753FEC82240F2E221EB
:104740000A20FBF74DFEFBF727FE4FF47A70FDF7CA
:104750004FFD4FF47A70FDF74BFDC82240F2EF1188
:104760000120FBF73DFEC8224FF4F9710220FBF750
:1047700037FEC82240F22B310320FBF731FEC8225E
:1047800040F27B110420FBF72BFEC822F02105200C
:10479000FBF726FEC82240F2B3210620FBF720FEDD
:1047A000C82240F2EF110720FBF71AFEC82240F2A0
:1047B00022210820FBF714FEC82240F229210920FB
:1047C000FBF70EFEC82240F2F7110A20FBF708FEA5
:1047D000FBF7E2FD4FF47A70FDF70AFD4FF47A70B3
:1047E000FDF706FDC82240F293210320FBF7F8FDF8
:1047F000C8224FF4CE710420FBF7F2FDC822CC2171
:104800000520FBF7EDFDC8224FF4FA710620FBF7F7
:10481000E7FDC8224FF495710720FBF7E1FDC822A0
:104820004FF453710820FBF7DBFDC822F821092063
:10483000FBF7D6FDC8224FF485710A20FBF7D0FDA7
:10484000FBF7AAFD4FF47A70FDF7D2FC4FF47A70B3
:10485000FDF7CEFC4FF4FA72B3210720FBF7C0FD41
:104860004FF496724FF406710820FBF7B9FD4FF430
:10487000967240F227210920FBF7B2FD4FF4FA723D
:104880004FF44C710A20FBF7ABFDFBF785FD4FF4AD
:104890007A70FDF7ADFC4FF47A70FDF7A9FCC822E1
:1048A00040F2FB210720FBF79BFDC82240F25D315F
:1048B0000820FBF795FDC822F8210920FBF790FDA1
:1048C000C82240F2E2210A20FBF78AFDFBF764FDD3
:1048D0004FF47A70FDF78CFC4FF47A70FDF788FC8A
:1048E0004FF4C8724FF4F4710220FBF779FDC8222F
:1048F00040F21B310320FBF773FDC82240F2112167
:104900000420FBF76DFDC822E9210520FBF768FDB7
:10491000C8224FF4FB710620FBF762FDC82240F26B
:10492000EF110720FBF75CFDC8224FF457710820F8
:10493000FBF756FDC822F1210920FBF751FDC822E3
:1049400040F2F7110A20FBF74BFDFBF725FD4FF472
:104950007A70FDF74DFC4FF4967240F2232103204C
:10496000FBF73EFD4FF4967240F2E5210420FBF781
:1049700037FD4FF4967240F2EF110520FBF730FD42
:104980004FF49672D11D0620FBF72AFDFBF704FDBC
:104990004FF47A70FDF72CFC9622E5210220FBF7FC
:1049A0001FFDFBF7F9FC4FF47A70FDF721FC4FF483
:1049B0004870FDF71DFC4B224FF430710120FBF7CE
:1049C0000FFDFBF7E9FC4FF47A70FDF711FC4FF493
:1049D000FA70FDF70DFC4FF49672AE210120FBF743
:1049E000FFFC4FF4967240F205110220FBF7F8FC31
:1049F000FBF7D2FC4FF44870FDF7FAFB4FF49672C8
:104A000040F22B210320FBF7EBFC4FF4967240F2AF
:104A100003210420FBF7E4FC4FF4967240F2E1110D
:104A20000520FBF7DDFC4FF496724FF4057106206C
:104A3000FBF7D6FCFBF7B0FC4FF44870FDF7D8FB52
:104A40004FF4967240F201110120FBF7C9FC4FF4BC
:104A5000967240F20F110220FBF7C2FC4FF49672DF
:104A600040F253110320FBF7BBFC4FF4967240F267
:104A7000FF110420FBF7B4FC4FF4967240F2C721FB
:104A80000520FBF7ADFC4FF496724FF4067106203B
:104A9000FBF7A6FCFBF780FC4FF47A70FDF7A8FB50
:104AA0004FF49672EF210120FBF79AFC4FF49672B7
:104AB000E4210220FBF794FC4FF4967240F281113E
:104AC0000320FBF78DFC4FF496724FF4F471042031
:104AD000FBF786FC4FF4967240F29F210520FBF70E
:104AE0007FFC4FF496724FF407710620FBF778FCB9
:104AF000FBF752FC4FF49670FDF77AFB4FF4967279
:104B000040F2F5110120FBF76BFC4FF4967240F276
:104B1000EB110220FBF764FC4FF496724FF4B47172
:104B20000320FBF75DFC4FF4967240F2F111042074
:104B3000FBF756FC4FF4967240F2AB210520FBF7D1
:104B40004FFC4FF4967240F226210620FBF748FCFA
:104B50004FF4967240F2EF110720FBF741FC4FF43F
:104B6000967240F253310820FBF73AFC4FF49672EC
:104B7000F4210920FBF734FC4FF496724FF4FD71D9
:104B80000A20FBF72DFCFBF707FC4FF47A70FDF7CA
:104B90002FFB4FF47A70FDF72BFB4FF47A70FDF783
:104BA00027FB10BD00E010080810E000000F1020E7
:104BB00020100F00001010F8000000000020203F1F
:104BC00020200000007008080888700000302824A9
:104BD000222130000030088888483000001820204A
:104BE00020110E000000C02010F80000000704246F
:104BF000243F240000F808888808080000192120B4
:104C000020110E0000E0108888180000000F11200D
:104C100020110E0000380808C83808000000003FC6
:104C2000000000000070880808887000001C222125
:104C300021221C0000E010080810E00000003122D2
:104C400022110F00000000000000000000303000C2
:104C5000000000000878880000C838080000073805
:104C60000E010000000000000080C0404040C080F5
:104C7000000000000000F0FE0F0100000000000135
:104C800007FEF00000001FFFE00000000000000031
:104C9000C0FF1F0000000000010306040404060317
:104CA000010000000000000000000080C0000000C3
:104CB0000000000000000001010101FFFF000000F2
:104CC0000000000000000000000000FFFF000000E6
:104CD00000000000000000040404060707060404A6
:104CE0000400000000000000804040404040C080C0
:104CF0008000000000001E1900000000000000C13C
:104D00007F3E0000000000804020100804020100E7
:104D100000E0000000000706060606060606060676
:104D200007010000000000808040404040C08080BB
:104D30000000000000000F0F0000808080C0613F75
:104D40001E0000000000E0E0000000000001010380
:104D5000FE780000000001030204040404040203BE
:104D60000100000000000000000000000080C0C042
:104D700000000000000000008060300C02FFFFFF18
:104D80000000000000101C121110101010FFFFFF97
:104D9000101010000000000000000808080F0F0F9E
:104DA0000808080000000000C0C0C0C0C0C0C0C0EB
:104DB000C0C00000000000F887402020202060C014
:104DC000800000000000E0610000000000000080A2
:104DD000FF7E000000000102040404040404020336
:104DE0000100000000000000000080C04040404082
:104DF000800000000000E0FC0E818040404040C088
:104E00008303000000003FFFC3010000000000001A
:104E100001FF7E00000000000103060404040402F8
:104E200003010000000000C0C0C0C0C0C0C0C0C0BE
:104E3000C0C0000000000F030100000080601806E1
:104E400001000000000000000000E0FC0300000082
:104E50000000000000000000000007070000000044
:104E6000000000000000000080C040404040C080C2
:104E70000000000000001E3F71E0C0808080806163
:104E80003F1E000000F8FC06030100010103070EAD
:104E9000FCF80000000001030204040404040203FF
:104EA0000100000000000080804040404040800041
:104EB0000000000000FCFF03000000000000008371
:104EC000FEF800000000818306040404040283F15C
:104ED0007F0F000000000303040404040603010024
:104EE00000000000000000000000000000000000C2
:104EF00000000000000000000000000000000000B2
:104F000000000000000000808000000000000000A1
:104F1000000000000000030707030000000000007D
:104F200000000000004040C0C04000000000004001
:104F300040C04040000000033FFCC000000000C033
:104F40003C0300000000000000031FFEE0E01E0321
:104F50000000000000000000000000010701000048
:104F600000000000844F0008000000204001000005
:104F7000B80100085C50000840010020080600004D
:104F800010140008412D010203040410090607084B
:104F9000090204060884A24A0469180116100A804E
:104FA00088898EF88C8B888016FE0222DA0620090A
:104FB0004020100C0304083026FF0810080712E0F8
:104FC00012FF1320C02AFE0522FF458140300F4208
:104FD0003F19104A20015AFF08113B8080421110EE
:104FE00008030C10204080801808403011969090E3
:104FF00091041698141350302A04013E44847E060E
:10500000050A111C1010F11C100A10282724E42492
:1050100024E4041F80601F40807F0627207F4444D3
:105020004440100F1088C43310545454FF54547C1F
:1050300010101B0201761E10121212FF0442108A79
:10504000080131CA10012149D739AC5119D7168846
:0C505000472018071B0718A131000000C2
:0400000508000131BD
:00000001FF
