:020000040800F2
:10000000900600209934000811020008130200082D
:10001000150200081702000819020008000000007D
:100020000000000000000000000000001B020008AB
:100030001D020008000000001F0200082102000845
:10004000B3340008B3340008B3340008B3340008F4
:10005000B3340008B3340008B3340008B3340008E4
:10006000B3340008B3340008B3340008B3340008D4
:10007000B3340008B3340008B3340008B3340008C4
:10008000B3340008B3340008B3340008B3340008B4
:10009000B3340008B3340008B3340008B3340008A4
:1000A000B3340008B3340008B3340008B334000894
:1000B000B3340008B3340008B3340008B334000884
:1000C000B3340008B3340008B3340008B334000874
:1000D000B3340008E7310008B3340008B334000833
:1000E000B3340008B3340008B3340008B334000854
:1000F000B3340008B3340008B3340008B334000844
:10010000B3340008B3340008B3340008B334000833
:10011000B3340008B3340008B3340008B334000823
:10012000B3340008B3340008B3340008B334000813
:1001300000F002F800F03AF80AA090E8000C8244BF
:100140008344AAF10107DA4501D100F02FF8AFF29C
:10015000090EBAE80F0013F0010F18BFFB1A43F0A5
:1001600001031847E43C0000043D0000103A24BF9E
:1001700078C878C1FAD8520724BF30C830C144BF0C
:1001800004680C607047000000230024002500264E
:10019000103A28BF78C1FBD8520728BF30C148BFEA
:1001A0000B6070471FB51FBD10B510BD03F011FEE9
:1001B0001146FFF7F7FF00F008F803F02FFE03B435
:1001C000FFF7F2FF03BC03F037FE092002F08DFFBA
:1001D000482002F01DFF4FF4E13002F0D3FF00F0A1
:1001E000CDF84FF47A74204602F03CFF00F0C6F8D8
:1001F000204602F037FF02F039FC41F288342046F5
:1002000002F030FF00F0BAF8204602F02BFFFBE7C7
:100210007047FEE7FEE7FEE7FEE77047704770476E
:10022000704700000CB500224C4800920192016812
:1002300041F4803101604FF4A063016801F40031A2
:1002400001910099491C0091019911B900999942B5
:10025000F3D10168890333D50121019140490A682E
:1002600042F010020A600A6822F003020A600A687B
:1002700042F002020A6041684160416841604168A1
:1002800041F480614160416821F47C114160416822
:1002900041F4E8114160016841F08071016001683A
:1002A0008901FCD5416821F003014160416841F0BA
:1002B000020141604168C1F381010229FAD10CBDFC
:1002C00001920CBD254810B5016841F001010160A3
:1002D0004168244A114041600168234A114001608D
:1002E000016821F480210160416821F4FE01416030
:1002F0004FF41F018160FFF795FF1C494FF000602C
:10030000086010BD154A10B55068194B10F00C016B
:10031000184803D0042901D0082901D0036012E055
:100320005168536801F470114FF0020413F4803FD8
:1003300004EB914102D053689B0301D50E4B00E0C2
:100340000B4B5943016051680A4AC1F30311121D56
:10035000515C0268CA40026010BD000000100240FB
:10036000002002400000FFF8FFFFF6FE08ED00E06D
:1003700000127A000000002000093D0010B54FF483
:100380009674224640F2E311012003F00FF8224652
:100390004FF4F871022003F009F822464FF4C471BB
:1003A000032003F003F822464FF4DA71042002F030
:1003B000FDFF224640F29721052002F0F7FF22467A
:1003C0004FF41E71062002F0F1FF224640F2EF11B9
:1003D000072002F0EBFF224640F25331082002F0E2
:1003E000E5FF2246F421092002F0E0FF22464FF407
:1003F000FD710A2002F0DAFFBDE8104003F00CB8EE
:1004000010B54FF4967422464FF4C471032002F0E5
:10041000CDFF22464FF4DA71042002F0C7FF2246D6
:1004200040F29721052002F0C1FF22464FF41E71D1
:10043000062002F0BBFF02F0EFFF204602F012FEA2
:100440004FF4AF74224640F24911022002F0AEFF91
:1004500002F0E2FF4FF4167002F004FE224640F272
:10046000EB11022002F0A2FF02F0D6FFBDE810401F
:100470004FF4FA7002F0F6BD2DE9F0474FF4967490
:1004800040F2E62522462946032002F08FFF02F0C3
:10049000C3FF4FF44876304602F0E4FD4FF4E177B5
:1004A00040F22A383A464146042002F07FFF4FF4DA
:1004B0004D7922464946032002F078FF02F0ACFF56
:1004C000304602F0CFFD3A464FF4FF71042002F0AF
:1004D0006DFF22462946032002F068FF02F09CFFD0
:1004E000304602F0BFFD3A464146042002F05EFF6E
:1004F00022464946032002F059FF02F08DFF3046A4
:1005000002F0B0FD22464FF4C471032002F04EFF0A
:100510003A464FF4DA71042002F048FF02F07CFF03
:100520004FF47A74204602F09DFD204602F09AFDB9
:100530002046BDE8F04702F095BD2DE9F05F4FF48D
:100540001672B421012002F031FF4FF4FA742246F2
:10055000EC21022002F02AFF4FF496752A464FF450
:10056000CF71032002F022FF2A4640F21A21042014
:1005700002F01CFF2A4640F28121052002F016FFFE
:100580002A46A11C062002F011FF40F2EF182A466D
:100590004146072002F00AFF40F253392A464946F5
:1005A000082002F003FF2A46F421092002F0FEFE93
:1005B0004FF4FD7A2A4651460A2002F0F7FE02F077
:1005C0002BFF4FF47A7B584602F04CFD2A4640F24E
:1005D0002921032002F0EAFE2A4640F2E22104200B
:1005E00002F0E4FE2A4640F2E911052002F0DEFEA8
:1005F0002A4640F23911062002F0D8FE02F00CFF24
:10060000642002F02FFD2A4640F29121012002F0E1
:10061000CDFEC8227E21022002F0C8FE2A4640F20A
:100620002321032002F0C2FE40F2E5272A46394684
:10063000042002F0BBFE2A4640F20521052002F00C
:10064000B5FE2A46E91D062002F0B0FE02F0E4FEE7
:10065000584602F007FD584602F004FD2A4640F2D3
:100660005A31092002F0A2FE02F0D6FE584602F0EE
:10067000F9FC4FF44876304602F0F4FC324640F282
:10068000EE21072002F092FE2A464FF4EA71012083
:1006900002F08CFE2A46C121022002F087FE02F001
:1006A000BBFE584602F0DEFC2A46E11E072002F09F
:1006B0007DFE2A4640F22121082002F077FE2A46DC
:1006C00040F22721092002F071FE02F0A5FE5846F3
:1006D00002F0C8FC72104FF4F471022002F066FEC2
:1006E0002A464FF45771082002F060FE2A46F12195
:1006F000092002F05BFE02F08FFE304602F0B2FCF1
:1007000096224FF44371022002F050FE02F084FE64
:10071000584602F0A7FC304602F0A4FC4B224FF4EE
:10072000A071012002F042FE02F076FE584602F06F
:1007300099FC204602F096FC2A464FF434710120C1
:1007400002F034FE2A46F91D022002F02FFE02F0CC
:1007500063FE40F28A2002F085FC2A4640F22B21FB
:10076000032002F023FE2A4640F20321042002F077
:100770001DFE2A4640F2E111052002F017FE2A462E
:100780004FF40571062002F011FE02F045FE3046DE
:1007900002F068FC2A463946012002F007FEFE1CE2
:1007A0002A463146022002F001FE2A4640F2351167
:1007B000032002F0FBFD2A464FF41071042002F0E2
:1007C000F5FD2A4640F2CA21052002F0EFFD2A4637
:1007D00040F2FD11062002F0E9FD02F01DFE584630
:1007E00002F040FC2A4640F2AA21012002F0DEFD80
:1007F0002A46311F022002F0D9FD2A464FF4AD717E
:10080000032002F0D3FD2A4640F23121042002F0F9
:10081000CDFD2A463146052002F0C8FD2A4640F2A9
:10082000E311062002F0C2FD02F0F6FD284602F0B8
:1008300019FC2A46611C012002F0B8FD4FF4C87271
:1008400040F2EB11022002F0B1FD2A464FF4B471E0
:10085000032002F0ABFD2A46E11E042002F0A6FDB3
:100860002A4640F2AB21052002F0A0FD2A4640F2C4
:100870002621062002F09AFD2A464146072002F072
:1008800095FD2A464946082002F090FD2A46F421AB
:10089000092002F08BFD2A4651460A2002F086FD0F
:1008A00002F0BAFD584602F0DDFB2046BDE8F05FDD
:1008B00002F0D8BB2DE9F04740F28A2240F25F31C6
:1008C000012002F073FD40F28F224FF43D710220AF
:1008D00002F06CFD4FF4967422464FF4BD71032074
:1008E00002F064FD224640F24621042002F05EFD43
:1008F000224640F2A521052002F058FD22464FF481
:10090000E471062002F052FD40F2EF15224629461E
:10091000072002F04BFD40F25336224631460820B4
:1009200002F044FD2246F421092002F03FFD4FF47D
:10093000FD77224639460A2002F038FD02F06CFDB0
:100940004FF47A78404602F08DFBFA2002F08AFBE1
:10095000224640F24511012002F028FD2246B11C3A
:10096000022002F023FD224640F22921032002F05A
:100970001DFD224640F2E221042002F017FD22462E
:10098000A91F052002F012FD224640F2391106206F
:1009900002F00CFD02F040FD404602F063FB4FF414
:1009A0004879484602F05EFB2246EB21082002F01F
:1009B000FDFC02F031FD404602F054FB484602F0D7
:1009C00051FB2246E91C012002F0F0FC224640F2D5
:1009D0004131022002F0EAFC721E4FF43A710A2003
:1009E00002F0E4FC02F018FD404602F03BFB224618
:1009F000E91D0A2002F0DAFC224640F21A21082002
:100A000002F0D4FC40F22B2A22465146092002F083
:100A1000CDFC02F001FD404602F024FB4FF4C87209
:100A200040F2E511022002F0C1FC2246711D0820AF
:100A300002F0BCFC2246F321092002F0B7FC02F0D0
:100A4000EBFC484602F00EFB9622CA21022002F07F
:100A5000ADFC02F0E1FC404602F004FB484602F027
:100A600001FB4B224FF43071012002F09FFC02F099
:100A7000D3FC404602F0F6FA681D02F0F3FA224673
:100A80009621012002F092FC22464FF49A71022036
:100A900002F08CFC02F0C0FC484602F0E3FA224669
:100AA0005146032002F082FC224640F2032104203A
:100AB00002F07CFC224640F2E111052002F076FCB7
:100AC00022464FF40571062002F070FC02F0A4FCEF
:100AD000484602F0C7FA224640F20111012002F016
:100AE00065FC224640F20F11022002F05FFC224614
:100AF00040F25311032002F059FC2246791D0420D4
:100B000002F054FC224640F2C721052002F04EFCC0
:100B100022464FF40671062002F048FC02F07CFCED
:100B2000404602F09FFA2246EF21012002F03EFCEF
:100B30002246E421022002F039FC224640F28111D3
:100B4000032002F033FC2246E91F042002F02EFCB1
:100B5000224640F29F21052002F028FC22464FF455
:100B60000771062002F022FC02F056FC204602F03B
:100B700079FA2246A91D012002F018FC2246291FFD
:100B8000022002F013FC22464FF4B471032002F05D
:100B90000DFC2246A91C042002F008FC224640F26B
:100BA000AB21052002F002FC224640F2262106205D
:100BB00002F0FCFB22462946072002F0F7FB224602
:100BC0003146082002F0F2FB2246F421092002F00F
:100BD000EDFB224639460A2002F0E8FB02F01CFC3D
:100BE000404602F03FFA404602F03CFA4046BDE87B
:100BF000F04702F037BA2DE9F05F4FF416752A4638
:100C0000B421012002F0D2FB4FF4FA742246EF2106
:100C1000022002F0CBFB4FF4AF773A464FF4CD7190
:100C2000032002F0C3FB4FF4C87B5A46A11E0420E8
:100C300002F0BCFB3A464FF42171052002F0B6FBEE
:100C40005A464FF40571062002F0B0FB02F0E4FBB7
:100C5000600002F007FAC82002F004FA2A46FD21DB
:100C6000012002F0A3FB6E1032464FF4DD7102202A
:100C700002F09CFB32464FF4CD71032002F096FB4C
:100C800032464FF4E271042002F090FB324640F20B
:100C90007921052002F08AFB324640F246210620E7
:100CA00002F084FB3246611F072002F07FFB3246D0
:100CB00040F25331082002F079FB3246F42109203A
:100CC00002F074FB3246A11D0A2002F06FFB02F015
:100CD000A3FB600002F0C6F9324640F23511012054
:100CE00002F064FB4FF4007822464146022002F0F5
:100CF0005DFB3A46F11D032002F058FB5A464FF4C3
:100D0000D571042002F052FBC82240F2E5210520F3
:100D100002F04CFBC82240F26E21062002F046FB96
:100D200002F07AFB600002F09DF93A464FF4CC7174
:100D3000032002F03BFB5A464FF48971042002F075
:100D400035FB02F069FB204602F08CF93A4640F28E
:100D50003321032002F02AFB5A4640F21B210420D3
:100D600002F024FB02F058FB204602F07BF93A46E1
:100D700040F23631032002F019FB5A4640F2293185
:100D8000042002F013FB02F047FB4FF4487002F01E
:100D900069F9FA22F021012002F008FB22464146BF
:100DA000022002F003FBFA222946052002F0FEFA97
:100DB0005A4640F23F31062002F0F8FA02F02CFBCE
:100DC0004FF4487002F04EF932461146012002F00D
:100DD000EDFA22464146022002F0E8FAFA2240F2F9
:100DE000E521052002F0E2FA5A4640F26E21062083
:100DF00002F0DCFA02F010FB4FF4487002F032F916
:100E0000FA22F021012002F0D1FA224641460220C6
:100E100002F0CCFAFA222946052002F0C7FA5A4617
:100E200040F23F31062002F0C1FA02F0F5FA4FF429
:100E3000487002F017F932461146012002F0B6FA66
:100E400022464146022002F0B1FAFA2240F2E521A0
:100E5000052002F0ABFA5A4640F26E21062002F05D
:100E6000A5FA02F0D9FA4FF4487002F0FBF86420BA
:100E700002F0F8F83A4640F23321032002F096FAE5
:100E80005A464FF48971042002F090FA02F0C4FA35
:100E90004FF4487002F0E6F83A464FF4CC71032064
:100EA00002F084FA5A464FF48971042002F07EFA67
:100EB00002F0B2FA204602F0D5F83246114601207F
:100EC00002F074FA3A46F11D032002F06FFA5A4616
:100ED0004FF4D571042002F069FA02F09DFA4FF444
:100EE000487002F0BFF8C82240F2A721052002F0A6
:100EF0005DFAC82240F2E321062002F057FA02F020
:100F00008BFA4FF4487002F0ADF8C8224FF4EF713D
:100F1000052002F04BFAC8222146062002F046FACC
:100F200002F07AFA4FF4487002F09CF83A46E22157
:100F3000052002F03BFA5A46B221062002F036FAAA
:100F400002F06AFA4FF4487002F08CF83246F7214A
:100F5000012002F02BFA22464FF4F071022002F039
:100F600025FAFA2240F2D111032002F01FFA4FF4C1
:100F7000BE72D421042002F019FA02F04DFA4FF4A7
:100F8000487002F06FF8324640F20511012002F07D
:100F90000DFA22464FF4F071022002F007FAFA220D
:100FA000F11D032002F002FA4FF4BE724FF4D57126
:100FB000042002F0FBF902F02FFA4FF4487002F01F
:100FC00051F83246F821012002F0F0F922464FF4A0
:100FD000F071022002F0EAF9FA2240F2D111032066
:100FE00002F0E4F94FF4BE72D421042002F0DEF9DD
:100FF00002F012FA4FF4487002F034F8324640F230
:101000000511012002F0D2F922464FF4F0710220BE
:1010100002F0CCF9FA22F11D032002F0C7F94FF4D7
:10102000BE724FF4D571042002F0C0F902F0F4F959
:101030004FF4487002F016F832464FF4EF71052075
:1010400002F0B4F95A4640F2E321062002F0AEF96C
:1010500002F0E2F94FF4487002F004F8324640F230
:10106000A721052002F0A2F95A4640F2E32106200A
:1010700002F09CF902F0D0F94FF4487001F0F2FF51
:10108000C82240F2E521052002F090F9C82240F282
:101090006E21062002F08AF902F0BEF9204601F026
:1010A000E1FF751C64222946012002F07FF94FF40C
:1010B000E77722463946022002F078F940F23118EB
:1010C000C8224146032002F071F95A464FF4EF71ED
:1010D000042002F06BF940F2DB29C82249460520C2
:1010E00002F064F94FF4107A5A465146062002F095
:1010F0005DF902F091F94FF4487001F0B3FFC82098
:1011000001F0B0FF5A4640F23E21032002F04EF9B2
:101110004FF4A572DC21042002F048F95A46791DEB
:10112000052002F043F94FF4A5724FF44E710620EA
:1011300002F03CF96422EE21012002F037F9224648
:10114000E11F022002F032F93246611F072002F04F
:101150002DF9324640F25331082002F027F9324689
:10116000F421092002F022F93246A11D0A2002F0E2
:101170001DF902F051F94FF4487001F073FF642239
:101180002946012002F012F95A463946022002F09F
:101190000DF95A464146032002F008F94FF4A572B2
:1011A0004FF4EF71042002F001F95A464946052038
:1011B00002F0FCF84FF4A5725146062002F0F6F852
:1011C00002F02AF94FF4487001F04CFFC82001F0FA
:1011D00049FF5A4640F23E21032002F0E7F84FF45F
:1011E000A572DC21042002F0E1F85A46791D0520A1
:1011F00002F0DCF84FF4A5724FF44E71062002F0B5
:10120000D5F86422EE21012002F0D0F82246E11F39
:10121000022002F0CBF83246611F072002F0C6F828
:10122000324640F25331082002F0C0F83246F42131
:10123000092002F0BBF83246A11D0A2002F0B6F8E0
:1012400002F0EAF84FF4487001F00CFF64222946DE
:10125000012002F0ABF85A463946022002F0A6F807
:101260005A464146032002F0A1F84FF4A5724FF40C
:10127000EF71042002F09AF85A464946052002F020
:1012800095F84FF4A5725146062002F08FF802F04F
:10129000C3F84FF4487001F0E5FEC82001F0E2FE0B
:1012A00032464FF4CD71032002F080F832464FF4FD
:1012B000E271042002F07AF8324640F279210520EA
:1012C00002F074F8324640F24621062002F06EF831
:1012D00002F0A2F84FF4487001F0C4FE3246EF214C
:1012E000012002F063F83246E421022002F05EF8A9
:1012F000324640F28111032002F058F832464FF492
:10130000F471042002F052F8324640F29F21052089
:1013100002F04CF832464FF40771062002F046F80E
:1013200002F07AF84FF4487001F09CFE324640F229
:10133000E311012002F03AF83246211F022002F0A8
:1013400035F832464FF4C471032002F02FF83246CC
:101350004FF4DA71042002F029F8324640F2972166
:10136000052002F023F832464FF41E71062002F0E9
:101370001DF802F051F8600001F074FE600001F009
:1013800071FE6000BDE8F05F01F06CBE2DE9F04138
:101390004FF4967422464FF4F471012002F006F8DF
:1013A00040F2EB1522462946022001F0FFFF2246BB
:1013B00040F26A21032001F0F9FF40F2B2262246F2
:1013C0003146042001F0F2FF22464FF4F17105206E
:1013D00001F0ECFF224640F25111062001F0E6FF39
:1013E0004FF4C8773A464FF40971072001F0DEFF49
:1013F000224640F26131082001F0D8FF2246AD219B
:10140000092001F0D3FF224640F25D110A2001F0CD
:10141000CDFF02F001F84FF47A78404601F022FE49
:101420002246291F052001F0C1FF224640F2191172
:10143000062001F0BBFF3A4640F2FD11072001F003
:10144000B5FF224640F25B31082001F0AFFF40F2C9
:10145000671722463946092001F0A8FF2246391FA6
:101460000A2001F0A3FF01F0D7FF404601F0FAFD8A
:10147000C82001F0F7FD224640F21331032001F0AD
:1014800095FF224640F28D31042001F08FFF224665
:1014900040F23911052001F089FF224698210620EB
:1014A00001F084FF4FF4E172A91F072001F07EFFD5
:1014B00022464FF45D71082001F078FF224640F289
:1014C000CB21092001F072FF224640F205210A20BB
:1014D00001F06CFF01F0A0FF404601F0C3FDC82001
:1014E00001F0C0FD4FF42F7240F2F911072001F016
:1014F0005DFF4FF461723946082001F057FF40F25A
:10150000B6373A463146092001F050FF3A464FF4CB
:1015100044710A2001F04AFF01F07EFF404601F0CD
:10152000A1FD204601F09EFD224640F25B210320F2
:1015300001F03CFF224640F2F721042001F036FF83
:10154000224640F20A21052001F030FF224640F2F7
:101550001B11062001F02AFF22467910072001F016
:1015600025FF96222946082001F020FF2246F5217A
:10157000092001F01BFF22464FF4FF710A2001F001
:1015800015FF01F049FF404601F06CFD204601F0D7
:1015900069FD224640F25221032001F007FF224656
:1015A0004FF41471042001F001FF22464FF4007142
:1015B000052001F0FBFE224640F27D11062001F0DD
:1015C000F5FE22464FF4EA71072001F0EFFE962265
:1015D00040F22F31082001F0E9FE2246ED210920DA
:1015E00001F0E4FE224640F2F3110A2001F0DEFE93
:1015F00001F012FF404601F035FD204601F032FDBA
:10160000224640F2E311012001F0D0FE2246691D7E
:10161000022001F0CBFE22464FF4C471032001F0FA
:10162000C5FE22464FF4DA71042001F0BFFE2246C7
:1016300040F29721052001F0B9FE22464FF41E71B9
:10164000062001F0B3FE2246291D072001F0AEFE60
:10165000224640F25331082001F0A8FE2246F42130
:10166000092001F0A3FE22464FF4FD710A2001F08B
:101670009DFE01F0D1FE404601F0F4FC4046BDE87D
:10168000F04101F0EFBC2DE9F05F4FF49674224673
:1016900040F2EB11012001F089FE224640F2F311E5
:1016A000022001F083FE224640F20521032001F0D2
:1016B0007DFE224640F26521042001F077FE22469D
:1016C00040F25511052001F071FE224680210620CE
:1016D00001F06CFE224640F26F21072001F066FE09
:1016E000224640F29A31082001F060FE9622F9214C
:1016F000092001F05BFE96224FF4F9710A2001F0F7
:1017000055FE01F089FE4FF47A75284601F0AAFCD7
:1017100022464FF40E71032001F048FE224640F2AB
:101720009E21042001F042FE96224FF417710720FB
:1017300001F03CFE224640F2AD21082001F036FEC9
:1017400001F06AFE284601F08DFCC82001F08AFCF9
:10175000FA224FF44471032001F028FEFA224FF4DC
:101760006571042001F022FE22464FF49B71052092
:1017700001F01CFE22469021062001F017FE2246B1
:1017800040F2CB11072001F011FE4FF4C87240F275
:101790007111082001F00AFE01F03EFE284601F01A
:1017A00061FC642001F05EFC4FF42F763246CE21BE
:1017B000072001F0FBFD324640F28F11082001F0B6
:1017C000F5FD40F2EE26324640F2BF21092001F03D
:1017D000EDFD32464FF4F87631460A2001F0E6FD81
:1017E00001F01AFE284601F03DFC204601F03AFCCB
:1017F000C82240F23521032001F0D8FD4FF41277C2
:1018000022463946042001F0D1FD40F2F518C822E5
:101810004146052001F0CAFD4FF4E979C822494646
:10182000062001F0C3FD4FF4007AC822514607207C
:1018300001F0BCFD40F2463B22465946082001F02B
:10184000B5FD224640F20A21092001F0AFFDC82271
:1018500040F22D210A2001F0A9FD01F0DDFD28460E
:1018600001F000FCC8224FF41771032001F09EFD27
:1018700022463946042001F099FDC8224146052040
:1018800001F094FDC8224946062001F08FFDC822D0
:101890005146072001F08AFD22465946082001F0F2
:1018A00085FD2246211D092001F080FDC82240F25D
:1018B00019210A2001F07AFD01F0AEFD284601F061
:1018C000D1FBC82001F0CEFB224640F2E3110120FB
:1018D00001F06CFD22463146022001F067FD2246F0
:1018E0004FF4C471032001F061FD22464FF4DA7118
:1018F000042001F05BFD224640F29721052001F013
:1019000055FD22464FF41E71062001F04FFD224680
:10191000711E072001F04AFD224640F25331082093
:1019200001F044FD2246F421092001F03FFD22464A
:101930004FF4FD710A2001F039FD01F06DFD2846DC
:1019400001F090FB284601F08DFB2846BDE8F05FD2
:1019500001F088BB2DE9F05F4FF41672B42101202D
:1019600001F024FD4FF4FA742246EC21022001F02C
:101970001DFD4FF496752A464FF4CF71032001F0F8
:1019800015FD2A4640F21A21042001F00FFD2A46D7
:1019900040F28121052001F009FDA71C2A463946A5
:1019A000062001F003FD2A46611F072001F0FEFC1E
:1019B0002A4640F25331082001F0F8FC2A46F4216F
:1019C000092001F0F3FC2A46A11D0A2001F0EEFCDB
:1019D00001F022FD600001F045FB2A4640F229217A
:1019E000032001F0E3FC2A4640F2E221042001F04A
:1019F000DDFC2A4640F2E911052001F0D7FC2A4619
:101A000040F23911062001F0D1FC01F005FD6420FF
:101A100001F028FB2A4640F29121012001F0C6FC8A
:101A2000C8227E21022001F0C1FC2A4640F2232177
:101A3000032001F0BBFC40F2E52A2A46514604206F
:101A400001F0B4FC2A4640F20521052001F0AEFC6D
:101A500040F2331B2A465946062001F0A7FC01F04C
:101A6000DBFC600001F0FEFA600001F0FBFA40F2DE
:101A70005A382A464146092001F098FC01F0CCFC76
:101A8000600001F0EFFA4FF44876304601F0EAFAD0
:101A9000324640F2EE21072001F088FC2A464FF43E
:101AA000EA71012001F082FC2A46C121022001F0E6
:101AB0007DFC01F0B1FC600001F0D4FA2A46E11E81
:101AC000072001F073FC2A4640F22121082001F092
:101AD0006DFC40F227292A464946092001F066FCA0
:101AE00001F09AFC600001F0BDFA72104FF4F4713D
:101AF000022001F05BFC2A464FF45771082001F0E8
:101B000055FC2A46F121092001F050FC01F084FC2B
:101B1000304601F0A7FA2A46711F032001F046FC67
:101B20002A4640F21121042001F040FC2A46E92116
:101B3000052001F03BFC2A463946062001F036FC20
:101B400001F06AFC600001F08DFAC82001F08AFA09
:101B50002A46B321072001F029FC2A464FF40671DA
:101B6000082001F023FC2A464946092001F01EFC0A
:101B70002A464FF44C710A2001F018FC01F04CFC8D
:101B8000600001F06FFAC82001F06CFA2A46E11EED
:101B9000072001F00BFC2A464146082001F006FC14
:101BA0002A46F621092001F001FCFF1D2A4639468C
:101BB0000A2001F0FBFB01F02FFC600001F052FA5B
:101BC000C82001F04FFA2A4640F21521032001F007
:101BD000EDFB2A4640F2D221042001F0E7FB2A4621
:101BE000611F052001F0E2FB2A465946062001F05C
:101BF000DDFB01F011FCA80001F034FA96224FF44D
:101C00004371022001F0D2FB01F006FC600001F0FC
:101C100029FA304601F026FA4B224FF4A071012038
:101C200001F0C4FB01F0F8FB600001F01BFA204654
:101C300001F018FA2A464FF43471012001F0B6FB86
:101C40002A464FF43B71022001F0B0FB01F0E4FBA7
:101C500040F28A2001F006FA2A4640F22B210320A6
:101C600001F0A4FB2A46B91D042001F09FFB2A467F
:101C700040F2E111052001F099FB2A464FF405716D
:101C8000062001F093FB01F0C7FB304601F0EAF9B2
:101C90002A465146012001F089FB4FF43A742A4646
:101CA0002146022001F082FB2A4640F23511032032
:101CB00001F07CFB2A464FF41071042001F076FB02
:101CC0002A4640F2CA21052001F070FB2A46394617
:101CD000062001F06BFB01F09FFB4FF47A7001F0DE
:101CE000C1F92A4640F2AA21012001F05FFB2A46F1
:101CF000211F022001F05AFB2A464FF4AD71032048
:101D000001F054FB2A4640F23121042001F04EFB41
:101D10002A462146052001F049FB2A4640F2E311FC
:101D2000062001F043FB01F077FB284601F09AF909
:101D30002A4640F2F511012001F038FB721040F202
:101D4000EB11022001F032FB2A464FF4B47103205C
:101D500001F02CFB2A4640F2F111042001F026FB91
:101D60002A4640F2AB21052001F020FB2A4640F232
:101D70002621062001F01AFB2A4640F2EF11072027
:101D800001F014FB2A4640F25331082001F00EFB0B
:101D90002A46F421092001F009FB2A46F91E0A20EF
:101DA00001F004FB01F038FB4FF47A7001F05AF9AE
:101DB0004FF47A7001F056F9BDE8F05F4FF47A7095
:101DC00001F050B92DE9F05F4FF49674224640F2CD
:101DD000E311012001F0EAFA22464FF4F8710220E3
:101DE00001F0E4FA22464FF4C471032001F0DEFA58
:101DF0004FF4DA7522462946042001F0D7FA40F262
:101E0000972622463146052001F0D0FA4FF41E777E
:101E100022463946062001F0C9FA40F2EF18224660
:101E20004146072001F0C2FA40F2533922464946A2
:101E3000082001F0BBFA2246F421092001F0B6FA8D
:101E400022464FF4FD710A2001F0B0FA01F0E4FAE5
:101E50002246F91D022001F0A9FA01F0DDFA4FF443
:101E60007A7A504601F0FEF82246B91D012001F0B1
:101E70009DFA224640F23121032001F097FA2246D2
:101E800040F22B21042001F091FA40F2EB1B224694
:101E90005946052001F08AFA224640F2DF11062059
:101EA00001F084FA01F0B8FA504601F0DBF8642240
:101EB00040F2BF21012001F079FA322240F2B5212F
:101EC000022001F073FA22464FF4D171032001F091
:101ED0006DFA4FF4FA724FF45371042001F066FA70
:101EE00022464FF4CB71052001F060FA4FF4FA72EC
:101EF00040F2D721062001F059FA01F08DFA4FF493
:101F0000617001F0AFF8642240F2BF21012001F0BE
:101F10004DFA322240F2B521022001F047FA224662
:101F20003146032001F042FA4FF4FA72791004208E
:101F300001F03CFA2246F11E052001F037FA4FF479
:101F4000FA72E721062001F031FA01F065FA5046F5
:101F500001F088F864224FF41B71072001F026FA83
:101F6000642240F29931082001F020FA96224FF4C1
:101F70008E71092001F01AFA642240F252210A20DF
:101F800001F014FA01F048FA4FF4617001F06AF8B8
:101F90006E2240F24931092001F008FA642240F231
:101FA0006A210A2001F002FA01F036FA504601F0E7
:101FB00059F8504601F056F8224640F231210320EC
:101FC00001F0F4F9224640F22B21042001F0EEF951
:101FD00022465946052001F0E9F9224640F2DF1178
:101FE000062001F0E3F901F017FA504601F03AF843
:101FF00022464FF4D171032001F0D8F94FF4FA7260
:102000004FF45371042001F0D1F922464FF4CB7103
:10201000052001F0CBF94FF4FA7240F2D7210620E7
:1020200001F0C4F9FA224FF45E71092001F0BEF903
:1020300096224FF4B2710A2001F0B8F901F0ECF9E0
:10204000504601F00FF822463146032001F0AEF968
:102050004FF4FA727910042001F0A8F92246F11E1B
:10206000052001F0A3F94FF4FA72E721062001F0F0
:102070009DF9FA2240F22D31092001F097F99622BC
:1020800040F2BD210A2001F091F901F0C5F9504656
:1020900000F0E8FF224640F23121032001F086F9EA
:1020A000224640F22B21042001F080F922465946B5
:1020B000052001F07BF9224640F2DF11062001F0F5
:1020C00075F901F0A9F9504600F0CCFF9622F421F1
:1020D000092001F06BF94B224FF4FD710A2001F049
:1020E00065F901F099F9504600F0BCFFA00000F03E
:1020F000B9FFC82240F21321012001F057F9C8228C
:1021000040F21521022001F051F9C82240F2F511E8
:10211000032001F04BF9C82240F2FD11042001F028
:1021200045F9C8224FF41271052001F03FF9C82289
:1021300040F24621062001F039F9C82240F2F91197
:10214000072001F033F9C82240F25D31082001F088
:102150002DF9C822F721092001F028F9C82240F200
:10216000FF110A2001F022F901F056F94FF44870EE
:1021700000F078FFC82240F2E311012001F016F9C7
:10218000C8224FF4F871022001F010F9C8224FF470
:10219000C471032001F00AF9C8222946042001F085
:1021A00005F9C8223146052001F000F9C822394658
:1021B000062001F0FBF8C8224146072001F0F6F89E
:1021C000C8224946082001F0F1F8C822F42109206C
:1021D00001F0ECF8C8224FF4FD710A2001F0E6F896
:1021E00001F01AF95046BDE8F05F00F03BBF2DE961
:1021F000F05F4FF4967440F20625224629460320EC
:1022000001F0D4F84FF4197622463146042001F04B
:10221000CDF84FF4FB7722463946052001F0C6F889
:1022200040F2C11822464146062001F0BFF840F2B4
:10223000E31922464946072001F0B8F84FF4537AD3
:1022400022465146082001F0B1F82246FB21092020
:1022500001F0ACF840F2032B224659460A2001F067
:10226000A5F801F0D9F84FF47A7000F0FBFE224691
:102270004FF42B71032001F099F8224640F285318A
:10228000042001F093F82246B91D052001F08EF8D4
:1022900022464FF4E571062001F088F8224659469F
:1022A000072001F083F8224640F28931082001F02E
:1022B0007DF8224640F28711092001F077F8224686
:1022C00040F272210A2001F071F801F0A5F84FF4F4
:1022D0007A7000F0C7FE22462946032001F066F816
:1022E00022463146042001F061F822463946052095
:1022F00001F05CF822464FF4CE71062001F056F84A
:10230000224640F29F11072001F050F8224640F289
:10231000F221082001F04AF82246E921092001F0C3
:1023200045F82246A91F0A2001F040F801F074F890
:102330004FF47A7000F096FE22462946032001F001
:1023400035F822463146042001F030F8224639465D
:10235000052001F02BF822464146062001F026F820
:1023600022464946072001F021F82246514608201E
:1023700001F01CF82246FB21092001F017F8224643
:1023800059460A2001F012F801F046F84FF47A702D
:1023900000F068FE224640F24E21032001F006F8CC
:1023A000224640F24B21042001F000F822464FF46F
:1023B000D971052000F0FAFF22468121062000F0A5
:1023C000F5FF22464FF4BC71072000F0EFFF2246D4
:1023D00040F2B921082000F0E9FF2246B621092089
:1023E00000F0E4FF22464FF4EF710A2000F0DEFF18
:1023F00001F012F84FF47A7000F034FE224649469C
:10240000012000F0D3FF2246B91F022000F0CEFFCA
:1024100022464FF4C471032000F0C8FF22464FF457
:10242000DA71042000F0C2FF224640F29721052015
:1024300000F0BCFF22464FF41E71062000F0B6FFEC
:102440002246F91F072000F0B1FF224640F2533127
:10245000082000F0ABFF2246F421092000F0A6FF7F
:102460002246391D0A2000F0A1FF00F0D5FFBDE88B
:10247000F05F4FF47A7000F0F5BD2DE9F05F4FF496
:10248000FA72BE21012000F091FF4FF4C872EC21D6
:10249000022000F08BFF4FF4967422464FF4CF7168
:1024A000032000F083FF224640F21A21042000F0AE
:1024B0007DFF224640F28121052000F077FF224671
:1024C0004FF4FB71062000F071FF224640F2EF113D
:1024D000072000F06BFF224640F25331082000F045
:1024E00065FF2246F421092000F060FF22464FF4E8
:1024F000FD710A2000F05AFF00F08EFF4FF47A7051
:1025000000F0B0FD224640F22921032000F04EFFEA
:1025100040F2E22622463146042000F047FF40F216
:10252000E91722463946052000F040FF224640F2D6
:102530003911062000F03AFF00F06EFF642000F031
:1025400091FD224640F29121012000F02FFFC82288
:102550007E21022000F02AFF224640F223210320A0
:1025600000F024FF2246F11C042000F01FFF224649
:1025700040F20521052000F019FF2246E11D06204A
:1025800000F014FF00F048FF4FF47A7000F06AFD8D
:102590004FF47A7000F066FD224640F25A3109206D
:1025A00000F004FF00F038FF4FF47A7000F05AFD9D
:1025B0004FF44875284600F055FD22464FF4EA7165
:1025C000012000F0F3FE2246C121022000F0EEFEC1
:1025D0002A4640F2EE21072000F0E8FE00F01CFF42
:1025E0004FF47A7000F03EFD224640F2F1110720D0
:1025F00000F0DCFE224640F22121082000F0D6FE49
:10260000224640F22721092000F0D0FE00F004FF0E
:102610004FF47A7000F026FDC822B91D012000F0A9
:10262000C5FEC822C121022000F0C0FE40F24E3893
:10263000C8224146032000F0B9FE4FF48E79C8222B
:102640004946042000F0B2FEC822CA21052000F04D
:10265000ADFE40F20E3AC8225146062000F0A6FE1A
:10266000C822B91D072000F0A1FE40F2222BC8228B
:102670005946082000F09AFEC82240F2292109207C
:1026800000F094FEC82240F2F7110A2000F08EFEFE
:1026900000F0C2FE4FF47A7000F0E4FC4FF47A7060
:1026A00000F0E0FC4FF4A0724FF4F971022000F04A
:1026B0007DFE00F0B1FE600000F0D4FCC82240F2C4
:1026C0003D31032000F072FEC8224FF40471042053
:1026D00000F06CFEC822E421052000F067FEC8224D
:1026E00040F24631062000F061FEC82240F2FB2194
:1026F000072000F05BFEC82240F25D31082000F0A8
:1027000055FEC822F821092000F050FEC8223146AB
:102710000A2000F04BFE00F07FFE4FF47A7000F0CC
:10272000A1FC4FF47A7000F09DFCC82241460320C2
:1027300000F03CFEC8224946042000F037FEC822C3
:10274000CA21052000F032FEC8225146062000F0C2
:102750002DFEC822B91D072000F028FEC8225946C8
:10276000082000F023FEC82240F22921092000F0B1
:102770001DFEC82240F2F7110A2000F017FE00F0FB
:102780004BFE4FF47A7000F06DFC4FF47A7000F05D
:1027900069FCC822B11F032000F008FEC82240F2E5
:1027A0004D11042000F002FEC8224FF48F71052065
:1027B00000F0FCFDC8223946062000F0F7FDC822D3
:1027C000A11E072000F0F2FDC8224FF4537108202B
:1027D00000F0ECFDC822F821092000F0E7FDC82236
:1027E0004FF485710A2000F0E1FD00F015FE4FF472
:1027F0007A7000F037FC4FF47A7000F033FC7E1EE4
:102800006A103146022000F0D1FDC822691F032062
:1028100000F0CCFDC82240F21121042000F0C6FDDA
:10282000C822E921052000F0C1FDC8224FF4FB7148
:10283000062000F0BBFDC822F11D072000F0B6FD08
:10284000C8224FF45771082000F0B0FDC822F121D2
:10285000092000F0ABFDC82240F2F7110A2000F079
:10286000A5FD00F0D9FD4FF47A7000F0FBFB224685
:1028700040F21521032000F099FD224640F2D221BA
:10288000042000F093FD2246F11D052000F08EFD8E
:102890002246E11D062000F089FD00F0BDFD4FF449
:1028A0007A7000F0DFFB9622CA21022000F07EFD44
:1028B00000F0B2FD4FF47A7000F0D4FB284600F02F
:1028C000D1FB4B224FF43071012000F06FFD00F07E
:1028D000A3FD4FF47A7000F0C5FB4FF4FA7000F0DE
:1028E000C1FB22469621012000F060FD22464FF4F4
:1028F0009A71022000F05AFD00F08EFD284600F08B
:10290000B1FB224640F22B21032000F04FFD22466E
:1029100040F20321042000F049FD2246F11F05206A
:1029200000F044FD22464FF40571062000F03EFD04
:1029300000F072FD284600F095FB224640F201119E
:10294000012000F033FD224640F20F11022000F07A
:102950002DFD224640F25311032000F027FD2246B0
:1029600040F2FF11042000F021FD224640F2C72171
:10297000052000F01BFD22464FF40671062000F0F2
:1029800015FD00F049FD4FF47A7000F06BFB224614
:10299000EF21012000F00AFD2246E421022000F090
:1029A00005FD224640F28111032000F0FFFC224683
:1029B0003146042000F0FAFC224640F29F21052017
:1029C00000F0F4FC22464FF40771062000F0EEFC04
:1029D00000F022FD204600F045FB224640F2F511B2
:1029E000012000F0E3FC2246F11C022000F0DEFC96
:1029F00022464FF4B471032000F0D8FC224640F286
:102A0000F111042000F0D2FC224640F2AB21052057
:102A100000F0CCFC224640F22621062000F0C6FC45
:102A20002246F11D072000F0C1FC224640F253313E
:102A3000082000F0BBFC2246F421092000F0B6FC7F
:102A400022464FF4FD710A2000F0B0FC00F0E4FCD7
:102A50004FF47A7000F006FB4FF47A7000F002FB3E
:102A6000BDE8F05F4FF47A7000F0FCBA2DE9F05F3A
:102A70004FF496724FF4F471012000F097FC4FF47C
:102A8000967240F2EB11022000F090FC4FF4967227
:102A900040F26A21032000F089FC4FF4967240F264
:102AA000B221042000F082FC4FF496724FF4F171D1
:102AB000052000F07BFC4FF4967240F25111062085
:102AC00000F074FC4FF4C87422464FF409710720DB
:102AD00000F06CFC4FF4967240F26131082000F077
:102AE00065FC4FF49672AD21092000F05FFC4FF4B5
:102AF000967240F25D110A2000F058FC00F08CFC48
:102B00004FF47A7000F0AEFA4FF4967240F2E7118B
:102B1000052000F04BFC4FF4967240F2191106208C
:102B200000F044FC224640F2FD11072000F03EFC7C
:102B30004FF4967240F25B31082000F037FC4FF4FE
:102B4000967240F26711092000F030FC4FF4967243
:102B500040F263110A2000F029FC00F05DFC4FF404
:102B60007A7000F07FFAC82000F07CFA4FF4967279
:102B70004FF4F671012000F019FC4FF4967240F208
:102B8000E911022000F012FC4FF496724FF4197113
:102B9000032000F00BFC4FF4967240F295210420C4
:102BA00000F004FC4FF49672D11C052000F0FEFBEF
:102BB0004FF496729421062000F0F8FB4FF49672C1
:102BC00040F2C921092000F0F1FB4FF4967240F267
:102BD000FF110A2000F0EAFB00F01EFC4FF47A70AF
:102BE00000F040FAC82000F03DFA4FF42F7240F296
:102BF000F911072000F0DAFB4FF4617240F267111F
:102C0000082000F0D3FB40F2B63240F2B221092096
:102C100000F0CCFB40F2B6324FF444710A2000F0D1
:102C2000C5FB00F0F9FB4FF47A7000F01BFA4FF48B
:102C30009672B321072000F0B9FB4FF496724FF45F
:102C40000671082000F0B2FB4FF4967240F2272183
:102C5000092000F0ABFB4FF496724FF44C710A2040
:102C600000F0A4FB00F0D8FB4FF47A7000F0FAF902
:102C700040F2F1154FF496722946072000F096FBBA
:102C800040F25A364FF496723146082000F08EFB1F
:102C90004FF49672F621092000F088FB4FF49672EB
:102CA00040F2FD110A2000F081FB00F0B5FB60004E
:102CB00000F0D8F94FF49672A91F022000F076FBBD
:102CC0004FF4967240F23521032000F06FFB4FF471
:102CD000967240F22B21042000F068FB642240F23F
:102CE0002F11052000F062FB64229421062000F0E1
:102CF0005DFB00F091FB4FF4167000F0B3F94FF458
:102D0000D2774FF496723946032000F04FFB4FF410
:102D1000E0784FF496724146042000F047FB4FF4F0
:102D200082794FF496724946072000F03FFB40F24B
:102D30003D1A4FF4967251460A2000F037FB00F01E
:102D40006BFB600000F08EF940F2562B4FF4967248
:102D50005946032000F02AFB4FF4967240F2CB1143
:102D6000042000F023FB4FF4967240F2CA210720A2
:102D700000F01CFB4FF4967240F28B210A2000F009
:102D800015FB00F049FB600000F06CF94FF49672FF
:102D90003946032000F00AFB4FF4967241460420A6
:102DA00000F004FB4FF496724946072000F0FEFA4B
:102DB0004FF4967251460A2000F0F8FA00F02CFB0E
:102DC000600000F04FF94FF496725946032000F06E
:102DD000EDFA4FF4967240F2CB11042000F0E6FABF
:102DE0004FF496722946072000F0E0FA4FF49672ED
:102DF0003146082000F0DAFA4FF49672F6210920E5
:102E000000F0D4FA4FF4967240F2FD110A2000F05F
:102E1000CDFA00F001FB4FF47A7000F023F9C822DC
:102E2000A91D012000F0C2FAC82240F207210220A9
:102E300000F0BCFA40F23225C8222946032000F0F7
:102E4000B5FAC82240F2F311042000F0AFFA642270
:102E5000E121052000F0AAFA64224FF4E671062071
:102E600000F0A4FA40F2A7264FF4967231460920EA
:102E700000F09CFA40F20127642239460A2000F053
:102E800095FA00F0C9FA4FF47A7000F0EBF8C82216
:102E90002946032000F08AFA4FF4967240F29621F8
:102EA000042000F083FAC82240F24511052000F00A
:102EB0007DFAC82240F20111062000F077FA40F2B4
:102EC0009A354FF496722946082000F06FFA4FF4B5
:102ED00096723146092000F069FAC82239460A2064
:102EE00000F064FA00F098FA204600F0BBF84FF4C6
:102EF00096724FF4F671022000F058FAC82240F2A0
:102F00003E21032000F052FA40F297244FF49672CB
:102F10002146042000F04AFAC822B91F052000F01B
:102F200045FAC82240F29911062000F03FFA4FF40A
:102F30009672791F072000F039FA4FF4AF722946D4
:102F4000082000F033FAFA224FF41571092000F03E
:102F50002DFAFA2240F25A210A2000F027FA00F056
:102F60005BFA4FF47A7000F07DF8C82000F07AF830
:102F70004FF4967240F2E311012000F017FA4FF47B
:102F800096724FF4F871022000F010FA4FF4967226
:102F90004FF4C471032000F009FA4FF496724FF415
:102FA000DA71042000F002FA4FF4967221460520EF
:102FB00000F0FCF94FF496724FF41E71062000F0F9
:102FC000F5F94FF4967240F2EF11072000F0EEF998
:102FD0004FF4967240F25331082000F0E7F94FF4B5
:102FE0009672F421092000F0E1F94FF49672F91F6E
:102FF0000A2000F0DBF900F00FFA4FF47A7000F0CD
:1030000031F8BDE8F05F4FF4FA7000F02BB8000023
:103010004FF0E0210A6922F004020A611D49C0084C
:1030200000EB40020870C2EBC0104FF6FF7202EADC
:10303000C000488070471749097848434FF0E021A5
:10304000486100238B61086940F00100086108694C
:10305000C20701D0C003FAD5086920F00100086159
:103060008B6170470B49498848434FF0E021486124
:1030700000238B61086940F0010008610869C207FC
:1030800001D0C003FAD5086920F0010008618B6106
:1030900070470000140000204FF4A06000F01CBA3C
:1030A0002A4A114001432A480160704729480021FB
:1030B0000161C160142242618161C161026842F014
:1030C000010202604268244B1A4042600268234BAE
:1030D0001A400260026822F480220260426822F4F0
:1030E000FE0242608160C003DAE730B50546002485
:1030F000FFF7DCFF1749086840F480300860086873
:10310000400CFCD04FF480604860AD1E4A68E8B2C5
:1031100042EA80404860486840F480304860104887
:10312000026842F032020260086840F08070086075
:103130000868400EFCD0486840F00200486002E099
:103140004868C0F38104022CFAD130BD80FFFF1F14
:1031500008ED00E0001002400000FFF8FFFFF6FE5F
:1031600000200240704770B5C94D044640212846F2
:1031700000F0F2FD0028F9D0E1B2284600F08BFD06
:10318000204670BD10B50446012186B0880300F0CA
:103190003AFC0121042000F036FC4FF40071ADF838
:1031A000101003218DF8121018218DF8131004A9A6
:1031B000B84800F040FA0020ADF804000094ADF8E3
:1031C0000600ADF80800ADF80C000C20B04CADF8CE
:1031D0000A006946204600F095FC0121204600F0D7
:1031E00004FD06B010BD7047A949091D0880081FDD
:1031F00001884906FCD5704770B504464FF48063DA
:10320000581E9A4200D30246994200D30146160A3C
:10321000D3B20A0ACDB2FF20FFF7E6FFFF20FFF787
:10322000E3FF2046FFF7E0FF0720FFF7DDFF032065
:10323000FFF7DAFF0620FFF7D7FF2846FFF7D4FF96
:103240001046FFF7D1FF1846FFF7CEFF3046FFF7D5
:10325000CBFF60191044184430441030C043C0B252
:10326000FFF7C2FF8A4801884906FCD5BDE87040D7
:103270000220FFF7F7BE70B504464FF48063581E76
:103280009A4200D30246994200D30146160AD3B2AD
:103290000A0ACDB2FF20FFF7A7FFFF20FFF7A4FF28
:1032A0002046FFF7A1FF0720FFF79EFF0320FFF74F
:1032B0009BFF1E20FFF798FF2846FFF795FF10465B
:1032C000FFF792FF1846FFF78FFF3046FFF78CFF9E
:1032D00060191044184430442830C043C0B2FFF78E
:1032E00083FF6B4801884906FCD5BDE87040022089
:1032F000FFF7B8BE2DE9F04799468246DDE9083070
:103300004FEA1228D4B2070AC6B21D0A0A0A01F00F
:10331000FF0CDBB2FF20FFF767FFFF20FFF764FF22
:10332000FE20FFF761FF0E20FFF75EFF8320FFF70F
:103330005BFF1E20FFF758FF0420FFF755FF5046A4
:10334000FFF752FF6046FFF74FFF1046FFF74CFFB5
:103350002046FFF749FF4046FFF746FF4846FFF784
:1033600043FF1846FFF740FF2846FFF73DFF304672
:10337000FFF73AFF3846FFF737FF0AEB09006044D2
:10338000104420444044184428443044384400F257
:10339000B110C043C0B2FFF727FF3D48018849067E
:1033A000FCD5BDE8F0470220FFF75CBE70B50546CE
:1033B000130AD4B20A0ACEB2FF20FFF715FFFF208E
:1033C000FFF712FF2846FFF70FFF0720FFF70CFF5C
:1033D0000420FFF709FF1E20FFF706FF3046FFF726
:1033E00003FF1046FFF700FF2046FFF7FDFE1846DB
:1033F000FFF7FAFEA8191044204418442930C043AE
:10340000C0B2FFF7F1FE224801884906FCD5BDE8AD
:1034100070400220FFF726BE10B5FF20FFF7E4FE44
:10342000FF20FFF7E1FEFE20FFF7DEFE0220FFF7A0
:10343000DBFE0520FFF7D8FEFA20FFF7D5FE144883
:1034400001884906FCD5BDE810400220FFF70ABEFE
:1034500010B50246FF20FFF7C7FEFF20FFF7C4FEAE
:103460001046FFF7C1FE0220FFF7BEFE0120FFF766
:10347000BBFED21CD043C0B2FFF7B6FE04480188A1
:103480004906FCD5BDE810400220FFF7EBBD000067
:1034900000380140000801400948804709480047BA
:1034A000FEE7FEE7FEE7FEE7FEE7FEE7FEE7FEE7F4
:1034B000FEE7FEE704480549054A064B7047000051
:1034C000C50200083101000890000020900600208D
:1034D00090020020900200202849084328490860F3
:1034E000704730B50F23C27801780125F2B1244A24
:1034F000126801F1E02102F4E062C2F5E062120A12
:10350000C2F10404D3404278A24084781C401443A2
:10351000220181F80024007800F01F018D4040094D
:10352000800000F1E020C0F8005130BD01F01F0024
:1035300085404809800000F1E020C0F8805130BD8E
:10354000104A114001430E48001F016070470C4AA9
:10355000121D0029116801D0014300E08143116070
:1035600070474FF0E0210428086903D020F00400E0
:103570000861704740F00400FAE700000000FA0517
:103580000CED00E080FFFF1F8F4910B5884206D187
:103590000121042000F049FA002104203BE08B497E
:1035A000884206D10121082000F03FFA00210820BE
:1035B00031E08749884206D10121102000F035FA18
:1035C0000021102027E08349884206D101212020D4
:1035D00000F02BFA002120201DE07F49884206D10F
:1035E0000121402000F021FA0021402013E07B4916
:1035F000884206D10121802000F017FA00218020A6
:1036000009E0774988420AD184150121204600F05B
:103610000CFA00212046BDE8104000F006BA10BDAB
:1036200010B50121084600F000FA0021BDE8104065
:10363000012000F0FAB9F0B5CC78002204F00F03B5
:10364000E40601D58C7823430C784FF00F0C14F06E
:10365000FF0F4FF0010E1BD005680E880EFA02F422
:103660002640A64210D196000CFA06F725EA070775
:1036700003FA06F5CE783D43282E02D0482E02D01C
:1036800002E0446100E00461521C082AE5D30560B1
:103690000A88FF2A1CD94468002202F108060EFAA3
:1036A00006F50E882E40AE420ED196000CFA06F7B3
:1036B000BC4303FA06F7CE783C43282E00D145617F
:1036C000CE78482E00D10561521C082AE5D344600B
:1036D000F0BD4FF6FF710180022181700421C1709D
:1036E00070470246002092680A4200D001207047CD
:1036F000806880B2704702460020D2680A4200D03B
:1037000001207047C06880B2704701617047416115
:1037100070470AB10161704741617047C1607047ED
:1037200041F4803282618161826181698069704780
:103730002C4B10B51A684FF68074224042EA0010F4
:103740000843186010BD2849C8617047F0B5254C82
:10375000002801DAE36900E06368450D2E0185B2B7
:10376000C0F30157B540C0F30342032F05D0C60292
:103770000AD503269640B34307E023F070626368DE
:1037800023F07063636002E0AB4343F0706201B109
:103790002A43002801DAE261F0BD6260F0BD10B595
:1037A0008A0721F003040F49120F21440F238C686C
:1037B00093409C438C608B68904003438B6010BDAA
:1037C0000949C1F8DC00704700080140000C0140C5
:1037D000001001400014014000180140001C01408D
:1037E000002001400000014000002042A54801687F
:1037F00041F0010101604168A34A11404160016844
:10380000A24A11400160016821F4802101604168F1
:1038100021F4FE0141604FF41F0181607047994916
:103820000A6822F480320A600A6822F480220A6060
:10383000B0F5803F07D0B0F5802F03D1086840F481
:10384000A02008607047086840F48030F9E703461C
:10385000002059098B4A01290AD002290AD0516A4D
:1038600003F01F02012393400B4200D00120704758
:103870001168F5E7116AF3E718B500204FF4A0646A
:1038800000903120FFF7E3FF0099491C0091A1420D
:1038900001D00028F5D03120FFF7D9FF002800D053
:1038A000012018BD774A116821F0F80141EAC000F3
:1038B00010607047764908607047724B5A68084339
:1038C00022F47C12104358607047714908667047B3
:1038D0006C4A516821F00301014351607047694807
:1038E000406800F00C007047664A516821F0F00112
:1038F000014351607047634A516821F4E06101431C
:10390000516070475F4A516821F4605141EAC0003C
:10391000506070475B4A0029517A01D0014300E0B2
:103920008143517270475A49C1F8D8007047554ACF
:10393000516821F4404101435160704751490022D0
:1039400081F8202081F82020012802D0042802D10B
:10395000052081F8200070474E49086070474949AA
:103960000A6A02430A6270474A494439086070474C
:1039700030B5444A5168484B11F00C0103D004297A
:1039800001D0082901D0036012E05168536801F4A6
:1039900070114FF0020413F4803F04EB914102D008
:1039A00053689B0301D53D4B00E03B4B59430160FD
:1039B00051680F2303EA1111394B5C5C0168E14047
:1039C00041605468072505EA14241C5D21FA04F4BB
:1039D0008460546805EAD4241B5DD940C1605268F4
:1039E000032303EA92322E4B1B1F9A5CB1FBF2F1C8
:1039F000016130BD234A0029516901D0014300E033
:103A00008143516170471F4A0029916901D00143E8
:103A100000E08143916170471A4A0029D16901D0C1
:103A2000014300E08143D1617047164A0029D16803
:103A300001D0014300E08143D1607047114A002961
:103A4000116901D0014300E08143116170471149C0
:103A50004039086070470E49C86470470949C87109
:103A600070470848416A41F0807141627047054AD9
:103A70000146002092680A4200D0012070470149A7
:103A800088727047001002400000FFF8FFFFF6FE4A
:103A9000000042428004424200127A0000093D00C8
:103AA0001C000020C44910B588420AD101218C03B2
:103AB0002046FFF7BAFF2046BDE810400021FFF77F
:103AC000B4BFBE49884202D101214C0410E0BC4978
:103AD000884202D101218C040AE0BA49884202D10D
:103AE0000121CC0404E0B84988420AD101210C0527
:103AF0002046FFF7A3FF2046BDE810400021FFF756
:103B00009DBF10BD30B50446008A85B00D464CF609
:103B1000FF710840E98801432182A0894EF6F31124
:103B20000840A9882A8911436A8902431143A18167
:103B3000A08A4FF6FF410840A9890143A182684647
:103B4000FFF716FF9C48844201D1039800E00298D9
:103B5000A189090400EBC00101EB0010296801D51F
:103B6000490000E08900B0FBF1F06422B0FBF2F103
:103B700009010B096FF018056B4300EB8300A38963
:103B80001D044FF0320306D503EBC000B0FBF2F08A
:103B900000F0070005E003EB0010B0FBF2F000F0CE
:103BA0000F000843208105B030BD4FF4165101606D
:103BB00000218180C18001810C2242818181704776
:103BC00010B5028A4FF2FF031A400B884C8823433A
:103BD0008C88C9880C4323431343038210BD002102
:103BE000018041808180C18070470029818902D095
:103BF00041F4005101E021F400518181704710B57A
:103C0000C1F3421301F01F040121A140012B07D091
:103C1000022B07D01430002A026805D00A4304E0C2
:103C20000C30F8E71030F6E78A43026010BD002A36
:103C3000828A01D00A4300E08A4382827047028A66
:103C400022F00F020282028A0A43028270478289AE
:103C500022F40062828182890A43828170470029AE
:103C6000818902D041F0020101E021F0020181814D
:103C70007047028A22F020020282028A0A430282EC
:103C800070470029018A02D041F4804101E021F40B
:103C9000804101827047C1F30801818070478088AC
:103CA000C0F308007047818941F0010181817047AC
:103CB000028BD2B20283028B42EA01210183704758
:103CC000028B02F47F420283028B0A430283704715
:103CD0000029818A02D041F0200101E021F0200179
:103CE000818270470029818A02D041F0100101E0F1
:103CF00021F01001818270470029818A02D041F0B1
:103D0000080101E021F008018182704700298189C2
:103D100002D041F4004101E0C1F30E0181817047FE
:103D20000029818A02D041F4006101E021F40061A0
:103D300081827047828A22F004028282828A0A4348
:103D4000828270470029818A02D041F0020101E09D
:103D500021F00201818270470246002012880A4247
:103D600000D001207047C9430180704770B501F051
:103D70001F0501260024C1F3421306FA05F2012BA8
:103D80000FD0022B0FD0838A4FEA112100881342F3
:103D900006FA01F600EA060001D000B1012420462F
:103DA00070BD8389F0E7038AEEE70A0A012191409A
:103DB000C9430180704700000038014000440040C2
:103DC00000480040004C00400050004070477047E1
:103DD0007047754600F02CF8AE460500694653461C
:103DE00020F00700854618B020B5FFF763FBBDE85B
:103DF00020404FF000064FF000074FF000084FF052
:103E0000000B21F00701AC46ACE8C009ACE8C009E2
:103E1000ACE8C009ACE8C0098D46704710B504464F
:103E2000AFF300802046BDE81040FCF7C8B90000A1
:103E3000004870472C00002001491820ABBEFEE767
:103E40002600020070470000683E000800000020C5
:103E50002C0000006C010008943E00082C0000209B
:103E6000640600008801000800A24A040000000067
:103E7000000000000102030406070809000000001A
:103E8000020406080000000001020304010203040A
:043E90000607080910
:0400000508000131BD
:00000001FF
