:020000040800F2
:1000000090060020653400084F02000851020008E5
:1000100053020008550200085702000800000000C3
:10002000000000000000000000000000590200086D
:100030005B020008000000005D0200085F0200088B
:100040007F3400087F3400087F3400087F340008C4
:100050007F3400087F3400087F3400087F340008B4
:100060007F3400087F3400087F3400087F340008A4
:100070007F3400087F3400087F3400087F34000894
:100080007F3400087F3400087F3400087F34000884
:100090007F3400087F3400087F3400087F34000874
:1000A0007F3400087F3400087F3400087F34000864
:1000B0007F3400087F3400087F3400087F34000854
:1000C0007F3400087F3400087F3400087F34000844
:1000D0007F340008B33100087F3400087F34000803
:1000E0007F3400087F3400087F3400087F34000824
:1000F0007F3400087F3400087F3400087F34000814
:100100007F3400087F3400087F3400087F34000803
:100110007F3400087F3400087F3400087F340008F3
:100120007F3400087F3400087F3400087F340008E3
:1001300000F002F800F03AF80AA090E8000C8244BF
:100140008344AAF10107DA4501D100F02FF8AFF29C
:10015000090EBAE80F0013F0010F18BFFB1A43F0A5
:1001600001031847B03C0000D03C0000103A24BF07
:1001700078C878C1FAD8520724BF30C830C144BF0C
:1001800004680C607047000000230024002500264E
:10019000103A28BF78C1FBD8520728BF30C148BFEA
:1001A0000B6070471FB51FBD10B510BD03F0F7FD04
:1001B0001146FFF7F7FF00F008F803F015FE03B44F
:1001C000FFF7F2FF03BC03F01DFE092002F073FFEE
:1001D000482002F003FF4FF4E13002F0B9FF00F0D5
:1001E000EBF84FF47A74204602F022FF00F0E4F8B6
:1001F000204602F01DFF01F0E7F801F0E5F800F0FD
:100200001DF900F057F900F0D7F8204602F010FF72
:1002100000F0B1F900F06CFB00F00BFD01F0D4F838
:1002200001F04FFA01F0B4FB01F0EAFD02F039F9F8
:1002300000F004F900F03EF941F28834204602F063
:10024000F7FE00F0B9F8204602F0F2FEFBE7704737
:10025000FEE7FEE7FEE7FEE770477047704770472E
:100260000CB500224C4800920192016841F48031A3
:1002700001604FF4A063016801F40031019100991D
:10028000491C0091019911B900999942F3D1016873
:10029000890333D50121019140490A6842F01002D7
:1002A0000A600A6822F003020A600A6842F0020249
:1002B0000A604168416041684160416841F4806181
:1002C0004160416821F47C114160416841F4E811CA
:1002D0004160016841F08071016001688901FCD5CD
:1002E000416821F003014160416841F00201416031
:1002F0004168C1F381010229FAD10CBD01920CBD04
:10030000254810B5016841F0010101604168244AA7
:10031000114041600168234A11400160016821F4E5
:1003200080210160416821F4FE0141604FF41F010A
:100330008160FFF795FF1C494FF00060086010BD19
:10034000154A10B55068194B10F00C01184803D02D
:10035000042901D0082901D0036012E051685368D4
:1003600001F470114FF0020413F4803F04EB91414B
:1003700002D053689B0301D50E4B00E00B4B594351
:10038000016051680A4AC1F30311121D515C0268F1
:10039000CA40026010BD0000001002400020024070
:1003A0000000FFF8FFFFF6FE08ED00E000127A0003
:1003B0000000002000093D0010B54FF4967422465D
:1003C00040F2E311012002F0D7FF22464FF4F8710A
:1003D000022002F0D1FF22464FF4C471032002F044
:1003E000CBFF22464FF4DA71042002F0C5FF22460B
:1003F00040F29721052002F0BFFF22464FF41E7104
:10040000062002F0B9FF224640F2EF11072002F069
:10041000B3FF224640F25331082002F0ADFF2246DE
:10042000F421092002F0A8FF22464FF4FD710A20B2
:1004300002F0A2FFBDE8104002F0D4BF10B54FF4A7
:10044000967422464FF4C471032002F095FF2246B1
:100450004FF4DA71042002F08FFF224640F2972118
:10046000052002F089FF22464FF41E71062002F09B
:1004700083FF02F0B7FF204602F0DAFD4FF4AF74BD
:10048000224640F24911022002F076FF02F0AAFF54
:100490004FF4167002F0CCFD224640F2EB11022020
:1004A00002F06AFF02F09EFFBDE810404FF4FA70C0
:1004B00002F0BEBD2DE9F0474FF4967440F2E625F8
:1004C00022462946032002F057FF02F08BFF4FF42B
:1004D0004876304602F0ACFD4FF4E17740F22A381E
:1004E0003A464146042002F047FF4FF44D79224638
:1004F0004946032002F040FF02F074FF304602F04C
:1005000097FD3A464FF4FF71042002F035FF224672
:100510002946032002F030FF02F064FF304602F06B
:1005200087FD3A464146042002F026FF224649460E
:10053000032002F021FF02F055FF304602F078FD63
:1005400022464FF4C471032002F016FF3A464FF4DE
:10055000DA71042002F010FF02F044FF4FF47A74C5
:10056000204602F065FD204602F062FD2046BDE80F
:10057000F04702F05DBD2DE9F05F4FF41672B42133
:10058000012002F0F9FE4FF4FA742246EC21022019
:1005900002F0F2FE4FF496752A464FF4CF71032015
:1005A00002F0EAFE2A4640F21A21042002F0E4FE9C
:1005B0002A4640F28121052002F0DEFE2A46A11CD7
:1005C000062002F0D9FE40F2EF182A4641460720E5
:1005D00002F0D2FE40F253392A464946082002F082
:1005E000CBFE2A46F421092002F0C6FE4FF4FD7A24
:1005F0002A4651460A2002F0BFFE02F0F3FE4FF4F5
:100600007A7B584602F014FD2A4640F22921032045
:1006100002F0B2FE2A4640F2E221042002F0ACFED3
:100620002A4640F2E911052002F0A6FE2A4640F2D1
:100630003911062002F0A0FE02F0D4FE642002F080
:10064000F7FC2A4640F29121012002F095FEC822D3
:100650007E21022002F090FE2A4640F22321032050
:1006600002F08AFE40F2E5272A463946042002F0CD
:1006700083FE2A4640F20521052002F07DFE2A462F
:10068000E91D062002F078FE02F0ACFE584602F0AA
:10069000CFFC584602F0CCFC2A4640F25A310920E1
:1006A00002F06AFE02F09EFE584602F0C1FC4FF4D2
:1006B0004876304602F0BCFC324640F2EE2107207C
:1006C00002F05AFE2A464FF4EA71012002F054FE6D
:1006D0002A46C121022002F04FFE02F083FE584656
:1006E00002F0A6FC2A46E11E072002F045FE2A463B
:1006F00040F22121082002F03FFE2A4640F2272145
:10070000092002F039FE02F06DFE584602F090FC1E
:1007100072104FF4F471022002F02EFE2A464FF4BC
:100720005771082002F028FE2A46F121092002F024
:1007300023FE02F057FE304602F07AFC96224FF478
:100740004371022002F018FE02F04CFE584602F0FF
:100750006FFC304602F06CFC4B224FF4A07101207C
:1007600002F00AFE02F03EFE584602F061FC20460E
:1007700002F05EFC2A464FF43471012002F0FCFDC9
:100780002A46F91D022002F0F7FD02F02BFE40F28E
:100790008A2002F04DFC2A4640F22B21032002F071
:1007A000EBFD2A4640F20321042002F0E5FD2A4633
:1007B00040F2E111052002F0DFFD2A464FF40571F9
:1007C000062002F0D9FD02F00DFE304602F030FCAA
:1007D0002A463946012002F0CFFDFE1C2A4631464A
:1007E000022002F0C9FD2A4640F23511032002F032
:1007F000C3FD2A464FF41071042002F0BDFD2A46C5
:1008000040F2CA21052002F0B7FD2A4640F2FD1150
:10081000062002F0B1FD02F0E5FD584602F008FCAA
:100820002A4640F2AA21012002F0A6FD2A46311FE5
:10083000022002F0A1FD2A464FF4AD71032002F020
:100840009BFD2A4640F23121042002F095FD2A4604
:100850003146052002F090FD2A4640F2E3110620C1
:1008600002F08AFD02F0BEFD284602F0E1FB2A46B6
:10087000611C012002F080FD4FF4C87240F2EB11C0
:10088000022002F079FD2A464FF4B471032002F0F1
:1008900073FD2A46E11E042002F06EFD2A4640F256
:1008A000AB21052002F068FD2A4640F226210620F1
:1008B00002F062FD2A464146072002F05DFD2A460D
:1008C0004946082002F058FD2A46F421092002F08A
:1008D00053FD2A4651460A2002F04EFD02F082FDE9
:1008E000584602F0A5FB2046BDE8F05F02F0A0BB31
:1008F0002DE9F04740F28A2240F25F31012002F0F8
:100900003BFD40F28F224FF43D71022002F034FD96
:100910004FF4967422464FF4BD71032002F02CFD73
:10092000224640F24621042002F026FD224640F2F3
:10093000A521052002F020FD22464FF4E471062097
:1009400002F01AFD40F2EF1522462946072002F078
:1009500013FD40F2533622463146082002F00CFDCA
:100960002246F421092002F007FD4FF4FD772246CC
:1009700039460A2002F000FD02F034FD4FF47A7887
:10098000404602F055FBFA2002F052FB224640F2AC
:100990004511012002F0F0FC2246B11C022002F0B9
:1009A000EBFC224640F22921032002F0E5FC22461E
:1009B00040F2E221042002F0DFFC2246A91F0520BC
:1009C00002F0DAFC224640F23911062002F0D4FC93
:1009D00002F008FD404602F02BFB4FF448794846F0
:1009E00002F026FB2246EB21082002F0C5FC02F0B3
:1009F000F9FC404602F01CFB484602F019FB224677
:100A0000E91C012002F0B8FC224640F241310220EC
:100A100002F0B2FC721E4FF43A710A2002F0ACFCF4
:100A200002F0E0FC404602F003FB2246E91D0A20EA
:100A300002F0A2FC224640F21A21082002F09CFC9F
:100A400040F22B2A22465146092002F095FC02F082
:100A5000C9FC404602F0ECFA4FF4C87240F2E511CE
:100A6000022002F089FC2246711D082002F084FC5D
:100A70002246F321092002F07FFC02F0B3FC484635
:100A800002F0D6FA9622CA21022002F075FC02F08A
:100A9000A9FC404602F0CCFA484602F0C9FA4B22C3
:100AA0004FF43071012002F067FC02F09BFC4046DD
:100AB00002F0BEFA681D02F0BBFA22469621012020
:100AC00002F05AFC22464FF49A71022002F054FCC4
:100AD00002F088FC484602F0ABFA22465146032059
:100AE00002F04AFC224640F20321042002F044FCBA
:100AF000224640F2E111052002F03EFC22464FF46E
:100B00000571062002F038FC02F06CFC484602F049
:100B10008FFA224640F20111012002F02DFC2246FC
:100B200040F20F11022002F027FC224640F253113E
:100B3000032002F021FC2246791D042002F01CFC57
:100B4000224640F2C721052002F016FC22464FF44F
:100B50000671062002F010FC02F044FC404602F050
:100B600067FA2246EF21012002F006FC2246E4212A
:100B7000022002F001FC224640F28111032002F023
:100B8000FBFB2246E91F042002F0F6FB224640F25E
:100B90009F21052002F0F0FB22464FF4077106204A
:100BA00002F0EAFB02F01EFC204602F041FA224667
:100BB000A91D012002F0E0FB2246291F022002F0BD
:100BC000DBFB22464FF4B471032002F0D5FB224632
:100BD000A91C042002F0D0FB224640F2AB210520E4
:100BE00002F0CAFB224640F22621062002F0C4FB96
:100BF00022462946072002F0BFFB22463146082044
:100C000002F0BAFB2246F421092002F0B5FB22468D
:100C100039460A2002F0B0FB02F0E4FB404602F045
:100C200007FA404602F004FA4046BDE8F04702F0F9
:100C3000FFB92DE9F05F4FF416752A46B421012063
:100C400002F09AFB4FF4FA742246EF21022002F0E0
:100C500093FB4FF4AF773A464FF4CD71032002F087
:100C60008BFB4FF4C87B5A46A11E042002F084FB84
:100C70003A464FF42171052002F07EFB5A464FF4AC
:100C80000571062002F078FB02F0ACFB600002F078
:100C9000CFF9C82002F0CCF92A46FD21012002F04C
:100CA0006BFB6E1032464FF4DD71022002F064FBE4
:100CB00032464FF4CD71032002F05EFB32464FF412
:100CC000E271042002F058FB324640F279210520FF
:100CD00002F052FB324640F24621062002F04CFB65
:100CE0003246611F072002F047FB324640F2533183
:100CF000082002F041FB3246F421092002F03CFBBF
:100D00003246A11D0A2002F037FB02F06BFB6000A7
:100D100002F08EF9324640F23511012002F02CFB30
:100D20004FF4007822464146022002F025FB3A4665
:100D3000F11D032002F020FB5A464FF4D571042028
:100D400002F01AFBC82240F2E521052002F014FB54
:100D5000C82240F26E21062002F00EFB02F042FB98
:100D6000600002F065F93A464FF4CC71032002F0BE
:100D700003FB5A464FF48971042002F0FDFA02F099
:100D800031FB204602F054F93A4640F23321032069
:100D900002F0F2FA5A4640F21B21042002F0ECFA6B
:100DA00002F020FB204602F043F93A4640F2363189
:100DB000032002F0E1FA5A4640F22931042002F001
:100DC000DBFA02F00FFB4FF4487002F031F9FA221F
:100DD000F021012002F0D0FA22464146022002F022
:100DE000CBFAFA222946052002F0C6FA5A4640F20A
:100DF0003F31062002F0C0FA02F0F4FA4FF44870D6
:100E000002F016F932461146012002F0B5FA2246E8
:100E10004146022002F0B0FAFA2240F2E521052014
:100E200002F0AAFA5A4640F26E21062002F0A4FA15
:100E300002F0D8FA4FF4487002F0FAF8FA22F021E2
:100E4000012002F099FA22464146022002F094FA6B
:100E5000FA222946052002F08FFA5A4640F23F3125
:100E6000062002F089FA02F0BDFA4FF4487002F051
:100E7000DFF832461146012002F07EFA2246414652
:100E8000022002F079FAFA2240F2E521052002F070
:100E900073FA5A4640F26E21062002F06DFA02F013
:100EA000A1FA4FF4487002F0C3F8642002F0C0F8D1
:100EB0003A4640F23321032002F05EFA5A464FF4DC
:100EC0008971042002F058FA02F08CFA4FF448704D
:100ED00002F0AEF83A464FF4CC71032002F04CFA1F
:100EE0005A464FF48971042002F046FA02F07AFA69
:100EF000204602F09DF832461146012002F03CFAED
:100F00003A46F11D032002F037FA5A464FF4D571E4
:100F1000042002F031FA02F065FA4FF4487002F052
:100F200087F8C82240F2A721052002F025FAC8223E
:100F300040F2E321062002F01FFA02F053FA4FF4C8
:100F4000487002F075F8C8224FF4EF71052002F0E6
:100F500013FAC8222146062002F00EFA02F042FAE5
:100F60004FF4487002F064F83A46E221052002F09E
:100F700003FA5A46B221062002F0FEF902F032FAD4
:100F80004FF4487002F054F83246F721012002F085
:100F9000F3F922464FF4F071022002F0EDF9FA2243
:100FA00040F2D111032002F0E7F94FF4BE72D421D0
:100FB000042002F0E1F902F015FA4FF4487002F053
:100FC00037F8324640F20511012002F0D5F92246E9
:100FD0004FF4F071022002F0CFF9FA22F11D032044
:100FE00002F0CAF94FF4BE724FF4D571042002F03A
:100FF000C3F902F0F7F94FF4487002F019F83246DD
:10100000F821012002F0B8F922464FF4F0710220D5
:1010100002F0B2F9FA2240F2D111032002F0ACF949
:101020004FF4BE72D421042002F0A6F902F0DAF9DE
:101030004FF4487001F0FCFF324640F205110120E8
:1010400002F09AF922464FF4F071022002F094F96E
:10105000FA22F11D032002F08FF94FF4BE724FF413
:10106000D571042002F088F902F0BCF94FF4487001
:1010700001F0DEFF32464FF4EF71052002F07CF9FB
:101080005A4640F2E321062002F076F902F0AAF96E
:101090004FF4487001F0CCFF324640F2A721052002
:1010A00002F06AF95A4640F2E321062002F064F9A0
:1010B00002F098F94FF4487001F0BAFFC82240F2EC
:1010C000E521052002F058F9C82240F26E210620E1
:1010D00002F052F902F086F9204601F0A9FF751CD2
:1010E00064222946012002F047F94FF4E7772246AF
:1010F0003946022002F040F940F23118C822414638
:10110000032002F039F95A464FF4EF71042002F03F
:1011100033F940F2DB29C8224946052002F02CF9B8
:101120004FF4107A5A465146062002F025F902F093
:1011300059F94FF4487001F07BFFC82001F078FFA7
:101140005A4640F23E21032002F016F94FF4A572F0
:10115000DC21042002F010F95A46791D052002F026
:101160000BF94FF4A5724FF44E71062002F004F90A
:101170006422EE21012002F0FFF82246E11F022046
:1011800002F0FAF83246611F072002F0F5F8324605
:1011900040F25331082002F0EFF83246F4210920E2
:1011A00002F0EAF83246A11D0A2002F0E5F802F04A
:1011B00019F94FF4487001F03BFF642229460120E1
:1011C00002F0DAF85A463946022002F0D5F85A46BB
:1011D0004146032002F0D0F84FF4A5724FF4EF71AE
:1011E000042002F0C9F85A464946052002F0C4F826
:1011F0004FF4A5725146062002F0BEF802F0F2F854
:101200004FF4487001F014FFC82001F011FF5A4656
:1012100040F23E21032002F0AFF84FF4A572DC212A
:10122000042002F0A9F85A46791D052002F0A4F81E
:101230004FF4A5724FF44E71062002F09DF864221F
:10124000EE21012002F098F82246E11F022002F070
:1012500093F83246611F072002F08EF8324640F2C2
:101260005331082002F088F83246F421092002F0B8
:1012700083F83246A11D0A2002F07EF802F0B2F88F
:101280004FF4487001F0D4FE64222946012002F098
:1012900073F85A463946022002F06EF85A46414623
:1012A000032002F069F84FF4A5724FF4EF710420A7
:1012B00002F062F85A464946052002F05DF84FF404
:1012C000A5725146062002F057F802F08BF84FF451
:1012D000487001F0ADFEC82001F0AAFE32464FF47E
:1012E000CD71032002F048F832464FF4E271042039
:1012F00002F042F8324640F27921052002F03CF833
:10130000324640F24621062002F036F802F06AF832
:101310004FF4487001F08CFE3246EF21012002F0BC
:101320002BF83246E421022002F026F8324640F241
:101330008111032002F020F832464FF4F4710420AA
:1013400002F01AF8324640F29F21052002F014F80C
:1013500032464FF40771062002F00EF802F042F810
:101360004FF4487001F064FE324640F2E311012070
:1013700002F002F83246211F022001F0FDFF324642
:101380004FF4C471032001F0F7FF32464FF4DA71D5
:10139000042001F0F1FF324640F29721052001F0D0
:1013A000EBFF32464FF41E71062001F0E5FF02F01C
:1013B00019F8600001F03CFE600001F039FE6000A9
:1013C000BDE8F05F01F034BE2DE9F0414FF49674B2
:1013D00022464FF4F471012001F0CEFF40F2EB15EC
:1013E00022462946022001F0C7FF224640F26A2128
:1013F000032001F0C1FF40F2B2262246314604200C
:1014000001F0BAFF22464FF4F171052001F0B4FF5C
:10141000224640F25111062001F0AEFF4FF4C8778A
:101420003A464FF40971072001F0A6FF224640F228
:101430006131082001F0A0FF2246AD21092001F012
:101440009BFF224640F25D110A2001F095FF01F05A
:10145000C9FF4FF47A78404601F0EAFD2246291F81
:10146000052001F089FF224640F21911062001F003
:1014700083FF3A4640F2FD11072001F07DFF22462E
:1014800040F25B31082001F077FF40F267172246F7
:101490003946092001F070FF2246391F0A2001F069
:1014A0006BFF01F09FFF404601F0C2FDC82001F034
:1014B000BFFD224640F21331032001F05DFF2246BA
:1014C00040F28D31042001F057FF224640F23911DD
:1014D000052001F051FF22469821062001F04CFF23
:1014E0004FF4E172A91F072001F046FF22464FF496
:1014F0005D71082001F040FF224640F2CB21092017
:1015000001F03AFF224640F205210A2001F034FFA3
:1015100001F068FF404601F08BFDC82001F088FD16
:101520004FF42F7240F2F911072001F025FF4FF41C
:1015300061723946082001F01FFF40F2B6373A4683
:101540003146092001F018FF3A464FF444710A2051
:1015500001F012FF01F046FF404601F069FD204610
:1015600001F066FD224640F25B21032001F004FFFA
:10157000224640F2F721042001F0FEFE224640F20E
:101580000A21052001F0F8FE224640F21B11062038
:1015900001F0F2FE22467910072001F0EDFE9622BE
:1015A0002946082001F0E8FE2246F521092001F035
:1015B000E3FE22464FF4FF710A2001F0DDFE01F048
:1015C00011FF404601F034FD204601F031FD224676
:1015D00040F25221032001F0CFFE22464FF4147155
:1015E000042001F0C9FE22464FF40071052001F0ED
:1015F000C3FE224640F27D11062001F0BDFE2246C8
:101600004FF4EA71072001F0B7FE962240F22F3125
:10161000082001F0B1FE2246ED21092001F0ACFEC8
:10162000224640F2F3110A2001F0A6FE01F0DAFE94
:10163000404601F0FDFC204601F0FAFC224640F253
:10164000E311012001F098FE2246691D022001F0FD
:1016500093FE22464FF4C471032001F08DFE224612
:101660004FF4DA71042001F087FE224640F2972100
:10167000052001F081FE22464FF41E71062001F084
:101680007BFE2246291D072001F076FE224640F20D
:101690005331082001F070FE2246F421092001F0A8
:1016A0006BFE22464FF4FD710A2001F065FE01F049
:1016B00099FE404601F0BCFC4046BDE8F04101F017
:1016C000B7BC2DE9F05F4FF49674224640F2EB115F
:1016D000012001F051FE224640F2F311022001F0F8
:1016E0004BFE224640F20521032001F045FE224632
:1016F00040F26521042001F03FFE224640F25511E0
:10170000052001F039FE22468021062001F034FE3A
:10171000224640F26F21072001F02EFE224640F2C1
:101720009A31082001F028FE9622F921092001F0C3
:1017300023FE96224FF4F9710A2001F01DFE01F0FC
:1017400051FE4FF47A75284601F072FC22464FF4A0
:101750000E71032001F010FE224640F29E2104206B
:1017600001F00AFE96224FF41771072001F004FEE3
:10177000224640F2AD21082001F0FEFD01F032FECC
:10178000284601F055FCC82001F052FCFA224FF423
:101790004471032001F0F0FDFA224FF4657104203A
:1017A00001F0EAFD22464FF49B71052001F0E4FDB3
:1017B00022469021062001F0DFFD224640F2CB11A7
:1017C000072001F0D9FD4FF4C87240F271110820D2
:1017D00001F0D2FD01F006FE284601F029FC64204C
:1017E00001F026FC4FF42F763246CE21072001F07F
:1017F000C3FD324640F28F11082001F0BDFD40F2DA
:10180000EE26324640F2BF21092001F0B5FD3246F6
:101810004FF4F87631460A2001F0AEFD01F0E2FD0A
:10182000284601F005FC204601F002FCC82240F2E7
:101830003521032001F0A0FD4FF4127722463946EE
:10184000042001F099FD40F2F518C8224146052018
:1018500001F092FD4FF4E979C8224946062001F0D3
:101860008BFD4FF4007AC8225146072001F084FD19
:1018700040F2463B22465946082001F07DFD2246B3
:1018800040F20A21092001F077FDC82240F22D2103
:101890000A2001F071FD01F0A5FD284601F0C8FB0A
:1018A000C8224FF41771032001F066FD2246394625
:1018B000042001F061FDC8224146052001F05CFDD5
:1018C000C8224946062001F057FDC822514607208C
:1018D00001F052FD22465946082001F04DFD2246F6
:1018E000211D092001F048FDC82240F219210A20DB
:1018F00001F042FD01F076FD284601F099FBC82079
:1019000001F096FB224640F2E311012001F034FD84
:1019100022463146022001F02FFD22464FF4C471C9
:10192000032001F029FD22464FF4DA71042001F072
:1019300023FD224640F29721052001F01DFD22469D
:101940004FF41E71062001F017FD2246711E07207C
:1019500001F012FD224640F25331082001F00CFD47
:101960002246F421092001F007FD22464FF4FD71C3
:101970000A2001F001FD01F035FD284601F058FB79
:10198000284601F055FB2846BDE8F05F01F050BB4A
:101990002DE9F05F4FF41672B421012001F0ECFC48
:1019A0004FF4FA742246EC21022001F0E5FC4FF4DA
:1019B00096752A464FF4CF71032001F0DDFC2A46CC
:1019C00040F21A21042001F0D7FC2A4640F281217E
:1019D000052001F0D1FCA71C2A463946062001F05B
:1019E000CBFC2A46611F072001F0C6FC2A4640F2C4
:1019F0005331082001F0C0FC2A46F421092001F0EF
:101A0000BBFC2A46A11D0A2001F0B6FC01F0EAFC4D
:101A1000600001F00DFB2A4640F22921032001F06D
:101A2000ABFC2A4640F2E221042001F0A5FC2A4644
:101A300040F2E911052001F09FFC2A4640F23911DD
:101A4000062001F099FC01F0CDFC642001F0F0FAD1
:101A50002A4640F29121012001F08EFCC8227E210D
:101A6000022001F089FC2A4640F22321032001F0E4
:101A700083FC40F2E52A2A465146042001F07CFC12
:101A80002A4640F20521052001F076FC40F2331B86
:101A90002A465946062001F06FFC01F0A3FC6000C5
:101AA00001F0C6FA600001F0C3FA40F25A382A4643
:101AB0004146092001F060FC01F094FC600001F057
:101AC000B7FA4FF44876304601F0B2FA324640F2A7
:101AD000EE21072001F050FC2A464FF4EA71012064
:101AE00001F04AFC2A46C121022001F045FC01F028
:101AF00079FC600001F09CFA2A46E11E072001F003
:101B00003BFC2A4640F22121082001F035FC40F23E
:101B100027292A464946092001F02EFC01F062FCE3
:101B2000600001F085FA72104FF4F471022001F0A8
:101B300023FC2A464FF45771082001F01DFC2A4669
:101B4000F121092001F018FC01F04CFC304601F0B5
:101B50006FFA2A46711F032001F00EFC2A4640F25C
:101B60001121042001F008FC2A46E921052001F09A
:101B700003FC2A463946062001F0FEFB01F032FC48
:101B8000600001F055FAC82001F052FA2A46B3214C
:101B9000072001F0F1FB2A464FF40671082001F0FE
:101BA000EBFB2A464946092001F0E6FB2A464FF4A2
:101BB0004C710A2001F0E0FB01F014FC600001F020
:101BC00037FAC82001F034FA2A46E11E072001F056
:101BD000D3FB2A464146082001F0CEFB2A46F621D7
:101BE000092001F0C9FBFF1D2A4639460A2001F0F1
:101BF000C3FB01F0F7FB600001F01AFAC82001F006
:101C000017FA2A4640F21521032001F0B5FB2A46B7
:101C100040F2D221042001F0AFFB2A46611F0520CB
:101C200001F0AAFB2A465946062001F0A5FB01F067
:101C3000D9FBA80001F0FCF996224FF44371022071
:101C400001F09AFB01F0CEFB600001F0F1F93046A3
:101C500001F0EEF94B224FF4A071012001F08CFB52
:101C600001F0C0FB600001F0E3F9204601F0E0F96B
:101C70002A464FF43471012001F07EFB2A464FF4CE
:101C80003B71022001F078FB01F0ACFB40F28A20AE
:101C900001F0CEF92A4640F22B21032001F06CFB23
:101CA0002A46B91D042001F067FB2A4640F2E111E3
:101CB000052001F061FB2A464FF40571062001F072
:101CC0005BFB01F08FFB304601F0B2F92A4651462A
:101CD000012001F051FB4FF43A742A4621460220BC
:101CE00001F04AFB2A4640F23511032001F044FB83
:101CF0002A464FF41071042001F03EFB2A4640F2C0
:101D0000CA21052001F038FB2A463946062001F099
:101D100033FB01F067FB4FF47A7001F089F92A4632
:101D200040F2AA21012001F027FB2A46211F0220B0
:101D300001F022FB2A464FF4AD71032001F01CFB99
:101D40002A4640F23121042001F016FB2A462146A2
:101D5000052001F011FB2A4640F2E311062001F0B4
:101D60000BFB01F03FFB284601F062F92A4640F2E6
:101D7000F511012001F000FB721040F2EB1102207E
:101D800001F0FAFA2A464FF4B471032001F0F4FA94
:101D90002A4640F2F111042001F0EEFA2A4640F200
:101DA000AB21052001F0E8FA2A4640F22621062060
:101DB00001F0E2FA2A4640F2EF11072001F0DCFAC6
:101DC0002A4640F25331082001F0D6FA2A46F4217F
:101DD000092001F0D1FA2A46F91E0A2001F0CCFAB6
:101DE00001F000FB4FF47A7001F022F94FF47A70A1
:101DF00001F01EF9BDE8F05F4FF47A7001F018B9F8
:101E00002DE9F05F4FF49674224640F2E311012071
:101E100001F0B2FA22464FF4F871022001F0ACFA58
:101E200022464FF4C471032001F0A6FA4FF4DA758C
:101E300022462946042001F09FFA40F297262246C6
:101E40003146052001F098FA4FF41E7722463946B4
:101E5000062001F091FA40F2EF1822464146072091
:101E600001F08AFA40F2533922464946082001F02F
:101E700083FA2246F421092001F07EFA22464FF42B
:101E8000FD710A2001F078FA01F0ACFA224640F226
:101E90005721022001F070FA01F0A4FA4FF47A7A87
:101EA000504601F0C5F8224640F25E21012001F0C3
:101EB00063FA224640F23121032001F05DFA224606
:101EC00040F22B21042001F057FA40F2EB1B22468E
:101ED0005946052001F050FA224640F2DF11062053
:101EE00001F04AFA01F07EFA504601F0A1F86422AE
:101EF00040F2BF21012001F03FFA322240F2B52129
:101F0000022001F039FA22464FF4D171032001F08A
:101F100033FA4FF4FA724FF45371042001F02CFAA3
:101F200022464FF4CB71052001F026FA4FF4FA72E5
:101F300040F2D721062001F01FFA01F053FA4FF4C6
:101F4000617001F075F8642240F2BF21012001F0B8
:101F500013FA322240F2B521022001F00DFA224696
:101F60003146032001F008FA4FF4FA727910042088
:101F700001F002FA2246F11E052001F0FDF94FF4AE
:101F8000FA72E721062001F0F7F901F02BFA50462A
:101F900001F04EF8642240F26921072001F0ECF9CB
:101FA000642240F29A31082001F0E6F901F01AFAB1
:101FB0004FF4617001F03CF8502240F249310920A1
:101FC00001F0DAF9642240F26A210A2001F0D4F922
:101FD00001F008FA504601F02BF8504601F028F8BD
:101FE000224640F23121032001F0C6F9224640F298
:101FF0002B21042001F0C0F922465946052001F0AA
:10200000BBF9224640F2DF11062001F0B5F901F0DC
:10201000E9F9504601F00CF822464FF4D171032043
:1020200001F0AAF94FF4FA724FF45371042001F051
:10203000A3F922464FF4CB71052001F09DF94FF42E
:10204000FA7240F2D721062001F096F9FA224FF4F5
:102050005E71092001F090F996224FF4B2710A20C6
:1020600001F08AF901F0BEF9504600F0E1FF224686
:102070003146032001F080F94FF4FA727910042000
:1020800001F07AF92246F11E052001F075F94FF4AE
:10209000FA72E721062001F06FF9FA2240F22D31A1
:1020A000092001F069F9962240F2BD210A2001F0D1
:1020B00063F901F097F9504600F0BAFF224640F26A
:1020C0003121032001F058F9224640F22B2104204F
:1020D00001F052F922465946052001F04DF92246F9
:1020E00040F2DF11062001F047F901F07BF950467C
:1020F00000F09EFF9622F421092001F03DF94B22C9
:102100004FF4FD710A2001F037F901F06BF95046E8
:1021100000F08EFFA00000F08BFFC82240F21321D8
:10212000012001F029F9C82240F21521022001F016
:1021300023F9C82240F2F511032001F01DF9C8224D
:1021400040F2FD11042001F017F9C8224FF412717A
:10215000052001F011F9C82240F24621062001F0C5
:102160000BF9C82240F2F911072001F005F9C82245
:1021700040F25D31082001F0FFF8C822F721092064
:1021800001F0FAF8C82240F2FF110A2001F0F4F839
:1021900001F028F94FF4487000F04AFFC82240F2DD
:1021A000E311012001F0E8F8C8224FF4F871022091
:1021B00001F0E2F8C8224FF4C471032001F0DCF80A
:1021C000C8222946042001F0D7F8C822314605204C
:1021D00001F0D2F8C8223946062001F0CDF8C82215
:1021E0004146072001F0C8F8C8224946082001F0FE
:1021F000C3F8C822F421092001F0BEF8C8224FF428
:10220000FD710A2001F0B8F801F0ECF85046BDE885
:10221000F05F00F00DBF2DE9F05F4FF4967440F2CF
:10222000062522462946032001F0A6F84FF4197628
:1022300022463146042001F09FF84FF4FB772246F6
:102240003946052001F098F840F2C118224641466F
:10225000062001F091F840F2E31922464946072092
:1022600001F08AF84FF4537A22465146082001F0D3
:1022700083F82246FB21092001F07EF840F2032B6F
:10228000224659460A2001F077F801F0ABF84FF4E6
:102290007A7000F0CDFE22464FF42B71032001F03E
:1022A0006BF8224640F28531042001F065F82246A1
:1022B000B91D052001F060F822464FF4E5710620B3
:1022C00001F05AF822465946072001F055F82246F7
:1022D00040F28931082001F04FF8224640F2871180
:1022E000092001F049F8224640F272210A2001F04B
:1022F00043F801F077F84FF47A7000F099FE224627
:102300002946032001F038F822463146042001F026
:1023100033F822463946052001F02EF822464FF4C4
:10232000CE71062001F028F8224640F29F110720C6
:1023300001F022F8224640F2F221082001F01CF8B8
:102340002246E921092001F017F82246A91F0A2098
:1023500001F012F801F046F84FF47A7000F068FED0
:1023600022462946032001F007F822463146042080
:1023700001F002F822463946052000F0FDFF224612
:102380004146062000F0F8FF22464946072000F0AB
:10239000F3FF22465146082000F0EEFF2246FB21C3
:1023A000092000F0E9FF224659460A2000F0E4FF28
:1023B00001F018F84FF47A7000F03AFE224640F22D
:1023C0004E21032000F0D8FF224640F24B2104208A
:1023D00000F0D2FF22464FF4D971052000F0CCFF67
:1023E00022468121062000F0C7FF22464FF4BC712F
:1023F000072000F0C1FF224640F2B921082000F07A
:10240000BBFF2246B621092000F0B6FF22464FF45A
:10241000EF710A2000F0B0FF00F0E4FF4FF47A7093
:1024200000F006FE22464946012000F0A5FF2246A4
:10243000B91F022000F0A0FF22464FF4C471032010
:1024400000F09AFF22464FF4DA71042000F094FF66
:10245000224640F29721052000F08EFF22464FF4DD
:102460001E71062000F088FF2246F91F072000F0A9
:1024700083FF224640F25331082000F07DFF2246C0
:10248000F421092000F078FF2246391D0A2000F0CF
:1024900073FF00F0A7FFBDE8F05F4FF47A7000F023
:1024A000C7BD2DE9F05F4FF41672B421012000F092
:1024B00063FF4FF4FA72EC21022000F05DFF4FF44D
:1024C000967422464FF4CF71032000F055FF224648
:1024D00040F21A21042000F04FFF224640F28121F1
:1024E000052000F049FF22464FF4FB71062000F062
:1024F00043FF224640F2EF11072000F03DFF224645
:1025000040F25331082000F037FF2246F421092021
:1025100000F032FF22464FF4FD710A2000F02CFF3C
:1025200000F060FF4FF47A7000F082FD40F229263F
:1025300022463146032000F01FFF224640F2E221EE
:10254000042000F019FF40F2E91722463946052021
:1025500000F012FF224640F23911062000F00CFF75
:1025600000F040FF642000F063FD224640F291211C
:10257000012000F001FFC8227E21022000F0FCFEB5
:102580002246B11F032000F0F7FE224640F2E5216B
:10259000042000F0F1FE224640F20521052000F063
:1025A000EBFE2246E11D062000F0E6FE00F01AFFD9
:1025B0004FF47A7000F03CFD4FF47A7000F038FD73
:1025C000224640F25A31092000F0D6FE00F00AFF00
:1025D0004FF47A7000F02CFD4FF44875284600F057
:1025E00027FD2A4640F2EE21072000F0C5FE2246D4
:1025F0004FF4EA71012000F0BFFE2246C121022003
:1026000000F0BAFE00F0EEFE4FF47A7000F010FD1C
:10261000224640F2F111072000F0AEFE224640F2C1
:102620002121082000F0A8FE2246B11E092000F05A
:10263000A3FE00F0D7FE4FF47A7000F0F9FCC82238
:10264000B91D012000F098FEC822C121022000F02F
:1026500093FEC82240F24E31032000F08DFE4FF46D
:102660008E78C8224146042000F086FEC822CA2186
:10267000052000F081FE40F20E39C82249460620AE
:1026800000F07AFEC822B91D072000F075FE40F266
:10269000222AC8225146082000F06EFEC822314688
:1026A000092000F069FE40F2F71BC82259460A20B3
:1026B00000F062FE00F096FE4FF47A7000F0B8FC75
:1026C0004FF47A7000F0B4FC4FF4A0724FF4F9713B
:1026D000022000F051FE00F085FE600000F0A8FC32
:1026E000C82240F23D31032000F046FEC8224FF4DC
:1026F0000471042000F040FEC822E421052000F00F
:102700003BFEC82240F24631062000F035FEC822CA
:1027100040F2FB21072000F02FFEC82240F25D317D
:10272000082000F029FEC822F821092000F024FE2C
:10273000C82240F2E2210A2000F01EFE00F052FE04
:102740004FF47A7000F074FC4FF47A7000F070FC73
:10275000C82240F24E31032000F00EFEC82241464E
:10276000042000F009FEC822CA21052000F004FE62
:10277000C8224946062000F0FFFDC822B91D0720E7
:1027800000F0FAFDC8225146082000F0F5FDC822ED
:102790003146092000F0F0FDC82259460A2000F019
:1027A000EBFD00F01FFE4FF47A7000F041FC4FF497
:1027B0007A7000F03DFCC8224FF43771032000F01E
:1027C000DBFDC82240F24D11042000F0D5FDC822E7
:1027D0004FF48F71052000F0CFFDC8223946062046
:1027E00000F0CAFDC822A11E072000F0C5FDC822C6
:1027F0004FF45371082000F0BFFDC822F8210920D2
:1028000000F0BAFDC8224FF485710A2000F0B4FD33
:1028100000F0E8FD4FF47A7000F00AFC4FF47A7093
:1028200000F006FCC82240F24E31032000F0A4FD67
:10283000C8224146042000F09FFDC822CA2105207D
:1028400000F09AFDC8224946062000F095FDC822F6
:10285000B91D072000F090FDC8225146082000F065
:102860008BFDC8223146092000F086FDC82259465A
:102870000A2000F081FD00F0B5FD4FF47A7000F001
:10288000D7FB4FF47A7000F0D3FB7E1E6A103146FE
:10289000022000F071FDC82240F22321032000F045
:1028A0006BFDC82240F2E521042000F065FDC8223E
:1028B00040F20521052000F05FFDC822E11D062041
:1028C00000F05AFDC8224FF45771082000F054FD63
:1028D000C822F121092000F04FFD00F083FD4FF4E4
:1028E0007A7000F0A5FB9622CA21022000F044FD78
:1028F00000F078FD4FF47A7000F09AFB284600F063
:1029000097FB4B224FF43071012000F035FD00F0B1
:1029100069FD4FF47A7000F08BFB4FF4FA7000F011
:1029200087FB22469621012000F026FD22464FF427
:102930009A71022000F020FD00F054FD284600F0BE
:1029400077FB224640F22B21032000F015FD2246A2
:1029500040F20321042000F00FFD2246F11F052064
:1029600000F00AFD22464FF40571062000F004FD38
:1029700000F038FD284600F05BFB224640F20111D2
:10298000012000F0F9FC224640F20F11022000F075
:10299000F3FC224640F25311032000F0EDFC2246E6
:1029A00040F2FF11042000F0E7FC224640F2C7216C
:1029B000052000F0E1FC22464FF40671062000F0ED
:1029C000DBFC00F00FFD4FF47A7000F031FB224683
:1029D000EF21012000F0D0FC2246E421022000F08B
:1029E000CBFC224640F28111032000F0C5FC2246B8
:1029F0003146042000F0C0FC224640F29F21052011
:102A000000F0BAFC22464FF40771062000F0B4FC37
:102A100000F0E8FC204600F00BFB224640F2F511E6
:102A2000012000F0A9FC2246F11C022000F0A4FCC9
:102A300022464FF4B471032000F09EFC224640F27F
:102A4000F111042000F098FC224640F2AB21052051
:102A500000F092FC224640F22621062000F08CFC79
:102A60002246F11D072000F087FC224640F2533138
:102A7000082000F081FC2246F421092000F07CFCB3
:102A800022464FF4FD710A2000F076FC00F0AAFC0B
:102A90004FF47A7000F0CCFA4FF47A7000F0C8FA74
:102AA000BDE8F05F4FF47A7000F0C2BA2DE9F05F34
:102AB0004FF496752A464FF4F671012000F05CFC45
:102AC0002A4640F2DF11022000F056FC2A4640F26E
:102AD000AD21032000F050FC2A4640F2853104204D
:102AE00000F04AFC2A4640F23921052000F044FC5F
:102AF0002A4640F20721062000F03EFC4FF4C8723F
:102B000040F22521072000F037FC2A4640F2FD2143
:102B1000082000F031FC2A468721092000F02CFC17
:102B20002A464FF4C9710A2000F026FC00F05AFC36
:102B30004FF47A7000F07CFA2A464FF4F6710120C7
:102B400000F01AFC2A4640F2DF11022000F014FCCB
:102B50002A4640F21A21052000F00EFC2A464FF4C6
:102B60008F71062000F008FC4FF4F8764FF4C8721D
:102B70003146072000F000FC2A4640F2FA210820E6
:102B800000F0FAFB4FF4D2772A463946092000F0CC
:102B9000F3FB2A464FF4D7710A2000F0EDFB00F05A
:102BA00021FC4FF47A7000F043FAC82000F040FA9C
:102BB0002A46311F012000F0DFFB2A4640F2DF11D8
:102BC000022000F0D9FB40F259282A464146032052
:102BD00000F0D2FB40F2CF292A464946042000F0FB
:102BE000CBFB40F2211A2A465146052000F0C4FBD7
:102BF00040F2031B2A465946062000F0BDFB2A4638
:102C000040F24721092000F0B7FB2A464FF4E27159
:102C10000A2000F0B1FB00F0E5FB4FF47A7000F001
:102C200007FAC82000F004FA2A46311F012000F0FC
:102C3000A3FB2A4640F2DF11022000F09DFB341D69
:102C400022461146082000F097FB6A004FF42F71CE
:102C50000A2000F091FB4B2240F24621032000F0B5
:102C60008BFB4B2240F2B321042000F085FBC822ED
:102C7000F021052000F080FBC8228A21062000F008
:102C80007BFB00F0AFFB600000F0D2F9C82000F041
:102C9000CFF92A46E11C072000F06EFB2A462146A8
:102CA0000A2000F069FB2A46E11C082000F064FBC2
:102CB0002A46A11C092000F05FFB00F093FB600096
:102CC00000F0B6F9C82000F0B3F92A464FF4F471C9
:102CD000022000F051FB2A46611C072000F04CFB4B
:102CE0002A4640F21531082000F046FB2A46B7215B
:102CF000092000F041FB2A4621460A2000F03CFB57
:102D000000F070FB600000F093F9C82000F090F92B
:102D10002A464FF4F471022000F02EFB2A4640F2BE
:102D20000911052000F028FB2A468221062000F028
:102D300023FB64222146032000F01EFB642221466F
:102D4000042000F019FB00F04DFB600000F070F96A
:102D5000C82000F06DF92A46CA21072000F00CFBBC
:102D60002A46CA210A2000F007FB2A46CA2104206D
:102D700000F002FB00F036FB600000F059F9C820BB
:102D800000F056F92A4640F22331072000F0F4FA09
:102D90002A4640F223310A2000F0EEFA2A46214664
:102DA000042000F0E9FA00F01DFB600000F040F99B
:102DB000C82000F03DF92A46CA21072000F0DCFABD
:102DC0002A46CA210A2000F0D7FA2A46CA2104203E
:102DD00000F0D2FA00F006FB600000F029F9C820EC
:102DE00000F026F92A462146072000F0C5FA2A46B7
:102DF00021460A2000F0C0FA4B2240F2462103206F
:102E000000F0BAFA4B2240F2B321042000F0B4FAE9
:102E100000F0E8FA600000F00BF9C82000F008F9B3
:102E20002A46311F012000F0A7FA2A4640F2DF119E
:102E3000022000F0A1FA2A464146032000F09CFA45
:102E40002A464946042000F097FA6422514605209C
:102E500000F092FA64225946062000F08DFA2A46C4
:102E600040F24721092000F087FA64224FF4E27112
:102E70000A2000F081FA00F0B5FA600000F0D8F8FE
:102E8000C82000F0D5F8C82240F28D21032000F0C0
:102E900073FA2A464FF44E71042000F06DFAC822EE
:102EA00040F27B11052000F067FAC822F5210620C8
:102EB00000F062FA2A463946082000F05DFA2A46F8
:102EC00040F22E21092000F057FAC8224FF4F37186
:102ED0000A2000F051FA00F085FA4FF4C87000F0B3
:102EE000A7F82A464FF4F471022000F045FAC822F0
:102EF00040F26B21032000F03FFA2A4640F2E22123
:102F0000042000F039FAC822E11F052000F034FA4D
:102F1000C822A91E062000F02FFA2A464FF4FF719E
:102F2000072000F029FA4FF4AF7240F20A3108206E
:102F300000F022FAFA224FF40171092000F01CFA85
:102F4000FA2240F215210A2000F016FA00F04AFA9F
:102F5000600000F06DF8C82000F06AF82A46611C95
:102F6000012000F009FA2A46711F022000F004FA3D
:102F70002A464FF4B171032000F0FEF92A4631468B
:102F8000042000F0F9F92A464FF42A71052000F0D8
:102F9000F3F92A464FF40F71062000F0EDF92A46A6
:102FA000611E072000F0E8F92A464FF44571082019
:102FB00000F0E2F9C822BE21092000F0DDF92A461E
:102FC000E11C0A2000F0D8F900F00CFA600000F0D3
:102FD0002FF82046BDE8F05F00F02AB84FF0E0215E
:102FE0000A6922F004020A611D49C00800EB400290
:102FF0000870C2EBC0104FF6FF7202EAC0004880B2
:1030000070471749097848434FF0E0214861002391
:103010008B61086940F0010008610869C20701D0AE
:10302000C003FAD5086920F0010008618B61704780
:103030000B49498848434FF0E021486100238B61E8
:10304000086940F0010008610869C20701D0C003A7
:10305000FAD5086920F0010008618B617047000013
:10306000140000204FF4A06000F01CBA2A4A11405E
:1030700001432A4801607047294800210161C1606D
:10308000142242618161C161026842F00102026062
:103090004268244B1A4042600268234B1A40026087
:1030A000026822F480220260426822F4FE0242603A
:1030B0008160C003DAE730B505460024FFF7DCFF86
:1030C0001749086840F4803008600868400CFCD05C
:1030D0004FF480604860AD1E4A68E8B242EA804022
:1030E0004860486840F4803048601048026842F008
:1030F00032020260086840F0807008600868400E84
:10310000FCD0486840F00200486002E04868C0F324
:103110008104022CFAD130BD80FFFF1F08ED00E0D2
:10312000001002400000FFF8FFFFF6FE0020024002
:10313000704770B5C94D04464021284600F0F2FDA5
:103140000028F9D0E1B2284600F08BFD204670BD82
:1031500010B50446012186B0880300F03AFC012135
:10316000042000F036FC4FF40071ADF8101003217C
:103170008DF8121018218DF8131004A9B84800F02A
:1031800040FA0020ADF804000094ADF80600ADF858
:103190000800ADF80C000C20B04CADF80A006946F0
:1031A000204600F095FC0121204600F004FD06B009
:1031B00010BD7047A949091D0880081F01884906EC
:1031C000FCD5704770B504464FF48063581E9A4290
:1031D00000D30246994200D30146160AD3B20A0A26
:1031E000CDB2FF20FFF7E6FFFF20FFF7E3FF204609
:1031F000FFF7E0FF0720FFF7DDFF0320FFF7DAFF0F
:103200000620FFF7D7FF2846FFF7D4FF1046FFF749
:10321000D1FF1846FFF7CEFF3046FFF7CBFF60190E
:103220001044184430441030C043C0B2FFF7C2FF0E
:103230008A4801884906FCD5BDE870400220FFF7A6
:10324000F7BE70B504464FF48063581E9A4200D30F
:103250000246994200D30146160AD3B20A0ACDB2F9
:10326000FF20FFF7A7FFFF20FFF7A4FF2046FFF78F
:10327000A1FF0720FFF79EFF0320FFF79BFF1E2003
:10328000FFF798FF2846FFF795FF1046FFF792FFDC
:103290001846FFF78FFF3046FFF78CFF6019104488
:1032A000184430442830C043C0B2FFF783FF6B4856
:1032B00001884906FCD5BDE870400220FFF7B8BE82
:1032C0002DE9F04799468246DDE908304FEA122899
:1032D000D4B2070AC6B21D0A0A0A01F0FF0CDBB21B
:1032E000FF20FFF767FFFF20FFF764FFFE20FFF7D7
:1032F00061FF0E20FFF75EFF8320FFF75BFF1E20BC
:10330000FFF758FF0420FFF755FF5046FFF752FF25
:103310006046FFF74FFF1046FFF74CFF2046FFF7D0
:1033200049FF4046FFF746FF4846FFF743FF184670
:10333000FFF740FF2846FFF73DFF3046FFF73AFF13
:103340003846FFF737FF0AEB090060441044204479
:103350004044184428443044384400F2B110C0437B
:10336000C0B2FFF727FF3D4801884906FCD5BDE8FC
:10337000F0470220FFF75CBE70B50546130AD4B2D1
:103380000A0ACEB2FF20FFF715FFFF20FFF712FF5A
:103390002846FFF70FFF0720FFF70CFF0420FFF779
:1033A00009FF1E20FFF706FF3046FFF703FF104618
:1033B000FFF700FF2046FFF7FDFE1846FFF7FAFE75
:1033C000A8191044204418442930C043C0B2FFF764
:1033D000F1FE224801884906FCD5BDE87040022074
:1033E000FFF726BE10B5FF20FFF7E4FEFF20FFF732
:1033F000E1FEFE20FFF7DEFE0220FFF7DBFE0520E8
:10340000FFF7D8FEFA20FFF7D5FE144801884906D9
:10341000FCD5BDE810400220FFF70ABE10B50246F9
:10342000FF20FFF7C7FEFF20FFF7C4FE1046FFF79F
:10343000C1FE0220FFF7BEFE0120FFF7BBFED21C3B
:10344000D043C0B2FFF7B6FE044801884906FCD558
:10345000BDE810400220FFF7EBBD0000003801403E
:10346000000801400948804709480047FEE7FEE799
:10347000FEE7FEE7FEE7FEE7FEE7FEE7FEE7FEE724
:1034800004480549054A064B70470000010300083F
:1034900031010008900000209006002090020020DA
:1034A000900200202849084328490860704730B539
:1034B0000F23C27801780125F2B1244A126801F184
:1034C000E02102F4E062C2F5E062120AC2F10404F3
:1034D000D3404278A24084781C401443220181F8F2
:1034E0000024007800F01F018D404009800000F1A9
:1034F000E020C0F8005130BD01F01F0085404809B0
:10350000800000F1E020C0F8805130BD104A114029
:1035100001430E48001F016070470C4A121D00292C
:10352000116801D0014300E08143116070474FF002
:10353000E0210428086903D020F0040008617047E6
:1035400040F00400FAE700000000FA050CED00E08E
:1035500080FFFF1F8F4910B5884206D1012104204A
:1035600000F049FA002104203BE08B49884206D153
:103570000121082000F03FFA0021082031E08749AE
:10358000884206D10121102000F035FA00211020D8
:1035900027E08349884206D10121202000F02BFA40
:1035A000002120201DE07F49884206D101214020D2
:1035B00000F021FA0021402013E07B49884206D127
:1035C0000121802000F017FA0021802009E07749CE
:1035D00088420AD184150121204600F00CFA00210E
:1035E0002046BDE8104000F006BA10BD10B501211C
:1035F000084600F000FA0021BDE81040012000F06C
:10360000FAB9F0B5CC78002204F00F03E40601D536
:103610008C7823430C784FF00F0C14F0FF0F4FF011
:10362000010E1BD005680E880EFA02F42640A64251
:1036300010D196000CFA06F725EA070703FA06F5FB
:10364000CE783D43282E02D0482E02D002E04461BD
:1036500000E00461521C082AE5D305600A88FF2AAD
:103660001CD94468002202F108060EFA06F50E88FD
:103670002E40AE420ED196000CFA06F7BC4303FA78
:1036800006F7CE783C43282E00D14561CE78482EEF
:1036900000D10561521C082AE5D34460F0BD4FF605
:1036A000FF710180022181700421C17070470246C0
:1036B000002092680A4200D001207047806880B2E2
:1036C000704702460020D2680A4200D001207047AD
:1036D000C06880B2704701617047416170470AB1AC
:1036E0000161704741617047C160704741F48032A9
:1036F0008261816182618169806970472C4B10B55C
:103700001A684FF68074224042EA0010084318609D
:1037100010BD2849C8617047F0B5254C002801DA72
:10372000E36900E06368450D2E0185B2C0F30157DF
:10373000B540C0F30342032F05D0C6020AD50326C5
:103740009640B34307E023F07062636823F0706330
:10375000636002E0AB4343F0706201B12A4300288A
:1037600001DAE261F0BD6260F0BD10B58A0721F0B8
:1037700003040F49120F21440F238C6893409C438C
:103780008C608B68904003438B6010BD0949C1F881
:10379000DC00704700080140000C014000100140AF
:1037A0000014014000180140001C014000200140AD
:1037B0000000014000002042A548016841F00101DD
:1037C00001604168A34A114041600168A24A11406A
:1037D0000160016821F480210160416821F4FE014B
:1037E00041604FF41F018160704799490A6822F4D3
:1037F00080320A600A6822F480220A60B0F5803FB5
:1038000007D0B0F5802F03D1086840F4A0200860ED
:103810007047086840F48030F9E7034600205909F2
:103820008B4A01290AD002290AD0516A03F01F02EB
:10383000012393400B4200D0012070471168F5E747
:10384000116AF3E718B500204FF4A064009031200E
:10385000FFF7E3FF0099491C0091A14201D0002825
:10386000F5D03120FFF7D9FF002800D0012018BD86
:10387000774A116821F0F80141EAC00010607047F2
:10388000764908607047724B5A68084322F47C12EC
:103890001043586070477149086670476C4A516818
:1038A00021F003010143516070476948406800F00E
:1038B0000C007047664A516821F0F00101435160E5
:1038C0007047634A516821F4E061014351607047D9
:1038D0005F4A516821F4605141EAC000506070476E
:1038E0005B4A0029517A01D0014300E081435172C3
:1038F00070475A49C1F8D8007047554A516821F4B9
:1039000040410143516070475149002281F8202015
:1039100081F82020012802D0042802D1052081F856
:10392000200070474E490860704749490A6A0243BF
:103930000A6270474A4944390860704730B5444AC2
:103940005168484B11F00C0103D0042901D008291B
:1039500001D0036012E05168536801F470114FF018
:10396000020413F4803F04EB914102D053689B039F
:1039700001D53D4B00E03B4B5943016051680F239B
:1039800003EA1111394B5C5C0168E1404160546805
:10399000072505EA14241C5D21FA04F484605468A8
:1039A00005EAD4241B5DD940C1605268032303EAB1
:1039B00092322E4B1B1F9A5CB1FBF2F1016130BDBC
:1039C000234A0029516901D0014300E0814351613C
:1039D00070471F4A0029916901D0014300E08143EB
:1039E000916170471A4A0029D16901D0014300E072
:1039F0008143D1617047164A0029D16801D0014343
:103A000000E08143D1607047114A0029116901D05B
:103A1000014300E08143116170471149403908605A
:103A200070470E49C86470470949C8717047084813
:103A3000416A41F0807141627047054A01460020A9
:103A400092680A4200D0012070470149887270478D
:103A5000001002400000FFF8FFFFF6FE00004242A7
:103A60008004424200127A0000093D001C00002040
:103A7000C44910B588420AD101218C032046FFF7C2
:103A8000BAFF2046BDE810400021FFF7B4BFBE4991
:103A9000884202D101214C0410E0BC49884202D185
:103AA00001218C040AE0BA49884202D10121CC04E8
:103AB00004E0B84988420AD101210C052046FFF7ED
:103AC000A3FF2046BDE810400021FFF79DBF10BDB9
:103AD00030B50446008A85B00D464CF6FF710840AB
:103AE000E98801432182A0894EF6F3110840A98894
:103AF0002A8911436A8902431143A181A08A4FF6A2
:103B0000FF410840A9890143A1826846FFF716FFDB
:103B10009C48844201D1039800E00298A1890904DD
:103B200000EBC00101EB0010296801D5490000E05D
:103B30008900B0FBF1F06422B0FBF2F109010B093E
:103B40006FF018056B4300EB8300A3891D044FF051
:103B5000320306D503EBC000B0FBF2F000F0070023
:103B600005E003EB0010B0FBF2F000F00F0008439B
:103B7000208105B030BD4FF41651016000218180D5
:103B8000C18001810C2242818181704710B5028A77
:103B90004FF2FF031A400B884C8823438C88C98856
:103BA0000C4323431343038210BD00210180418055
:103BB0008180C18070470029818902D041F4005181
:103BC00001E021F400518181704710B5C1F3421327
:103BD00001F01F040121A140012B07D0022B07D0C7
:103BE0001430002A026805D00A4304E00C30F8E7DC
:103BF0001030F6E78A43026010BD002A828A01D0A5
:103C00000A4300E08A4382827047028A22F00F0250
:103C10000282028A0A4302827047828922F4006289
:103C2000828182890A43828170470029818902D07A
:103C300041F0020101E021F0020181817047028A16
:103C400022F020020282028A0A430282704700297F
:103C5000018A02D041F4804101E021F480410182D7
:103C60007047C1F30801818070478088C0F3080065
:103C70007047818941F0010181817047028BD2B286
:103C80000283028B42EA012101837047028B02F416
:103C90007F420283028B0A43028370470029818A94
:103CA00002D041F0200101E021F020018182704723
:103CB0000029818A02D041F0100101E021F01001B9
:103CC000818270470029818A02D041F0080101E019
:103CD00021F00801818270470029818902D041F4D6
:103CE000004101E0C1F30E01818170470029818A02
:103CF00002D041F4006101E021F40061818270474B
:103D0000828A22F004028282828A0A438282704777
:103D10000029818A02D041F0020101E021F0020174
:103D2000818270470246002012880A4200D001209A
:103D30007047C9430180704770B501F01F05012627
:103D40000024C1F3421306FA05F2012B0FD0022B17
:103D50000FD0838A4FEA11210088134206FA01F638
:103D600000EA060001D000B10124204670BD83891D
:103D7000F0E7038AEEE70A0A01219140C943018076
:103D800070470000003801400044004000480040F7
:103D9000004C004000500040704770477047754627
:103DA00000F02CF8AE4605006946534620F00700A7
:103DB000854618B020B5FFF763FBBDE820404FF003
:103DC00000064FF000074FF000084FF0000B21F005
:103DD0000701AC46ACE8C009ACE8C009ACE8C009D2
:103DE000ACE8C0098D46704710B50446AFF30080BB
:103DF0002046BDE81040FCF7E2B9000000487047DB
:103E00002C00002001491820ABBEFEE7260002006E
:103E100070470000343E0008000000202C00000025
:103E20006C010008603E00082C00002064060000C1
:103E30008801000800A24A04000000000000000001
:103E40000102030406070809000000000204060836
:103E50000000000001020304010203040607080930
:0400000508000131BD
:00000001FF
