:020000040800F2
:1000000090060020D534000853020008550200086D
:1000100057020008590200085B02000800000000B7
:100020000000000000000000000000005D02000869
:100030005F0200080000000061020008630200087F
:10004000EF340008EF340008EF340008EF34000804
:10005000EF340008EF340008EF340008EF340008F4
:10006000EF340008EF340008EF340008EF340008E4
:10007000EF340008EF340008EF340008EF340008D4
:10008000EF340008EF340008EF340008EF340008C4
:10009000EF340008EF340008EF340008EF340008B4
:1000A000EF340008EF340008EF340008EF340008A4
:1000B000EF340008EF340008EF340008EF34000894
:1000C000EF340008EF340008EF340008EF34000884
:1000D000EF34000823320008EF340008EF34000842
:1000E000EF340008EF340008EF340008EF34000864
:1000F000EF340008EF340008EF340008EF34000854
:10010000EF340008EF340008EF340008EF34000843
:10011000EF340008EF340008EF340008EF34000833
:10012000EF340008EF340008EF340008EF34000823
:1001300000F002F800F03AF80AA090E8000C8244BF
:100140008344AAF10107DA4501D100F02FF8AFF29C
:10015000090EBAE80F0013F0010F18BFFB1A43F0A5
:1001600001031847203D0000403D0000103A24BF25
:1001700078C878C1FAD8520724BF30C830C144BF0C
:1001800004680C607047000000230024002500264E
:10019000103A28BF78C1FBD8520728BF30C148BFEA
:1001A0000B6070471FB51FBD10B510BD03F02FFECB
:1001B0001146FFF7F7FF00F008F803F04DFE03B417
:1001C000FFF7F2FF03BC03F055FE092002F0ABFF7E
:1001D000482002F03BFF4FF4E13002F0F1FF00F065
:1001E000EDF84FF47A74204602F05AFF00F0E6F87A
:1001F000204602F055FF01F0E8F801F0E6F800F0C3
:100200001FF900F059F900F0D9F8204602F048FF34
:1002100000F0B3F900F06EFB00F00CFD01F0D5F832
:1002200001F050FA01F0B5FB02F046F902F03DFC96
:1002300001F0FCFF00F004F900F03EF941F28834CF
:10024000204602F02DFF00F0B9F8204602F028FF0A
:10025000FBE77047FEE7FEE7FEE7FEE77047704703
:10026000704770470CB500224C480092019201681B
:1002700041F4803101604FF4A063016801F4003162
:1002800001910099491C0091019911B90099994275
:10029000F3D10168890333D50121019140490A68EE
:1002A00042F010020A600A6822F003020A600A683B
:1002B00042F002020A604168416041684160416861
:1002C00041F480614160416821F47C1141604168E2
:1002D00041F4E8114160016841F0807101600168FA
:1002E0008901FCD5416821F003014160416841F07A
:1002F000020141604168C1F381010229FAD10CBDBC
:1003000001920CBD254810B5016841F00101016062
:100310004168244A114041600168234A114001604C
:10032000016821F480210160416821F4FE014160EF
:100330004FF41F018160FFF795FF1C494FF00060EB
:10034000086010BD154A10B55068194B10F00C012B
:10035000184803D0042901D0082901D0036012E015
:100360005168536801F470114FF0020413F4803F98
:1003700004EB914102D053689B0301D50E4B00E082
:100380000B4B5943016051680A4AC1F30311121D16
:10039000515C0268CA40026010BD000000100240BB
:1003A000002002400000FFF8FFFFF6FE08ED00E02D
:1003B00000127A000000002000093D0010B54FF443
:1003C0009674224640F2E311012003F00DF8224614
:1003D0004FF4F871022003F007F822464FF4C4717D
:1003E000032003F001F822464FF4DA71042002F0F2
:1003F000FBFF224640F29721052002F0F5FF22463E
:100400004FF41E71062002F0EFFF224640F2EF117A
:10041000072002F0E9FF224640F25331082002F0A3
:10042000E3FF2246F421092002F0DEFF22464FF4CA
:10043000FD710A2002F0D8FFBDE8104003F00AB8B1
:1004400010B54FF4967422464FF4C471032002F0A5
:10045000CBFF22464FF4DA71042002F0C5FF22469A
:1004600040F29721052002F0BFFF22464FF41E7193
:10047000062002F0B9FF02F0EDFF204602F010FE68
:100480004FF4AF74224640F24911022002F0ACFF53
:1004900002F0E0FF4FF4167002F002FE224640F236
:1004A000EB11022002F0A0FF02F0D4FFBDE81040E3
:1004B0004FF4FA7002F0F4BD2DE9F0474FF4967452
:1004C00040F2E62522462946032002F08DFF02F085
:1004D000C1FF4FF44876304602F0E2FD4FF4E17779
:1004E00040F22A383A464146042002F07DFF4FF49C
:1004F0004D7922464946032002F076FF02F0AAFF1A
:10050000304602F0CDFD3A464FF4FF71042002F070
:100510006BFF22462946032002F066FF02F09AFF95
:10052000304602F0BDFD3A464146042002F05CFF31
:1005300022464946032002F057FF02F08BFF304667
:1005400002F0AEFD22464FF4C471032002F04CFFCE
:100550003A464FF4DA71042002F046FF02F07AFFC7
:100560004FF47A74204602F09BFD204602F098FD7D
:100570002046BDE8F04702F093BD2DE9F05F4FF44F
:100580001672B421012002F02FFF4FF4FA742246B4
:10059000FD21022002F028FF4FF496752A464FF401
:1005A000CF71032002F020FF2A4640F21A210420D6
:1005B00002F01AFF2A4640F28121052002F014FFC2
:1005C0002A46A11C062002F00FFF40F2EF182A462F
:1005D0004146072002F008FF40F253392A464946B7
:1005E000082002F001FF2A46F421092002F0FCFE57
:1005F0004FF4FD7A2A4651460A2002F0F5FE02F039
:1006000029FF4FF47A7B584602F04AFD2A4640F211
:100610002921032002F0E8FE2A4640F2E2210420CC
:1006200002F0E2FE2A4640F2E911052002F0DCFE6B
:100630002A4640F23911062002F0D6FE02F00AFFE7
:10064000642002F02DFD2A4640F29121012002F0A3
:10065000CBFEC8227E21022002F0C6FE2A4640F2CE
:100660002321032002F0C0FE40F2E5272A46394646
:10067000042002F0B9FE2A4640F20521052002F0CE
:10068000B3FE2A46E91D062002F0AEFE02F0E2FEAD
:10069000584602F005FD584602F002FD2A4640F297
:1006A0005A31092002F0A0FE02F0D4FE584602F0B2
:1006B000F7FC4FF44876304602F0F2FC324640F246
:1006C000EE21072002F090FE2A464FF4EA71012045
:1006D00002F08AFE2A46C121022002F085FE02F0C5
:1006E000B9FE584602F0DCFC2A46E11E072002F063
:1006F0007BFE2A4640F22121082002F075FE2A46A0
:1007000040F22721092002F06FFE02F0A3FE5846B6
:1007100002F0C6FC72104FF4F471022002F064FE85
:100720002A464FF45771082002F05EFE2A46F12156
:10073000092002F059FE02F08DFE304602F0B0FCB6
:1007400096224FF44371022002F04EFE02F082FE28
:10075000584602F0A5FC304602F0A2FC4B224FF4B2
:10076000A071012002F040FE02F074FE584602F033
:1007700097FC204602F094FC2A464FF43471012085
:1007800002F032FE2A46F91D022002F02DFE02F090
:1007900061FE40F28A2002F083FC2A4640F22B21BF
:1007A000032002F021FE2A4640F20321042002F039
:1007B0001BFE2A4640F2E111052002F015FE2A46F2
:1007C0004FF40571062002F00FFE02F043FE3046A2
:1007D00002F066FC2A463946012002F005FEFE1CA6
:1007E0002A463146022002F0FFFD2A4640F235112A
:1007F000032002F0F9FD2A464FF41071042002F0A4
:10080000F3FD2A4640F2CA21052002F0EDFD2A46FA
:1008100040F2FD11062002F0E7FD02F01BFE5846F3
:1008200002F03EFC2A4640F2AA21012002F0DCFD43
:100830002A46311F022002F0D7FD2A464FF4AD713F
:10084000032002F0D1FD2A4640F23121042002F0BB
:10085000CBFD2A463146052002F0C6FD2A4640F26D
:10086000E311062002F0C0FD02F0F4FD284602F07C
:1008700017FC2A46611C012002F0B6FD4FF4C87235
:1008800040F2EB11022002F0AFFD2A464FF4B471A2
:10089000032002F0A9FD2A46E11E042002F0A4FD77
:1008A0002A4640F2AB21052002F09EFD2A4640F286
:1008B0002621062002F098FD2A464146072002F034
:1008C00093FD2A464946082002F08EFD2A46F4216F
:1008D000092002F089FD2A4651460A2002F084FDD3
:1008E00002F0B8FD584602F0DBFB2046BDE8F05FA1
:1008F00002F0D6BB2DE9F04740F28A2240F25F3188
:10090000012002F071FD40F28F224FF43D71022070
:1009100002F06AFD4FF4967422464FF4BD71032035
:1009200002F062FD224640F24621042002F05CFD06
:10093000224640F2A521052002F056FD22464FF442
:10094000E471062002F050FD40F2EF1522462946E0
:10095000072002F049FD40F2533622463146082076
:1009600002F042FD2246F421092002F03DFD4FF441
:10097000FD77224639460A2002F036FD02F06AFD74
:100980004FF47A78404602F08BFBFA2002F088FBA5
:10099000224640F24511012002F026FD2246B11CFC
:1009A000022002F021FD224640F22921032002F01C
:1009B0001BFD224640F2E221042002F015FD2246F2
:1009C000A91F052002F010FD224640F23911062031
:1009D00002F00AFD02F03EFD404602F061FB4FF4DA
:1009E0004879484602F05CFB2246EB21082002F0E1
:1009F000FBFC02F02FFD404602F052FB484602F09D
:100A00004FFB2246E91C012002F0EEFC224640F298
:100A10004131022002F0E8FC721E4FF43A710A20C4
:100A200002F0E2FC02F016FD404602F039FB2246DD
:100A3000E91D0A2002F0D8FC224640F21A210820C3
:100A400002F0D2FC40F22B2A22465146092002F045
:100A5000CBFC02F0FFFC404602F022FB4FF4C872D0
:100A600040F2E511022002F0BFFC2246711D082071
:100A700002F0BAFC2246F321092002F0B5FC02F094
:100A8000E9FC484602F00CFB9622E521022002F028
:100A9000ABFC02F0DFFC404602F002FB484602F0ED
:100AA000FFFA4B224FF43071012002F09DFC02F05E
:100AB000D1FC404602F0F4FA681D02F0F1FA224639
:100AC000AE21012002F090FC2246E621022002F035
:100AD0008BFC02F0BFFC484602F0E2FA2246514687
:100AE000032002F081FC224640F20321042002F0A0
:100AF0007BFC224640F2E111052002F075FC224603
:100B00004FF40571062002F06FFC02F0A3FC48468A
:100B100002F0C6FA224640F20111012002F064FC04
:100B2000224640F20F11022002F05EFC224640F203
:100B30005311032002F058FC2246791D042002F0D4
:100B400053FC224640F2C721052002F04DFC22460C
:100B50004FF40671062002F047FC02F07BFC404691
:100B600002F09EFA2246EF21012002F03DFC2246CF
:100B7000E421022002F038FC224640F281110320D9
:100B800002F032FC2246E91F042002F02DFC22462E
:100B900040F29F21052002F027FC22464FF4077106
:100BA000062002F021FC02F055FC204602F078FA03
:100BB0002246A91D012002F017FC2246291F02200F
:100BC00002F012FC22464FF4B471032002F00CFC38
:100BD0002246A91C042002F007FC224640F2AB2169
:100BE000052002F001FC224640F22621062002F0F8
:100BF000FBFB22462946072002F0F6FB224631463F
:100C0000082002F0F1FB2246F421092002F0ECFB5F
:100C1000224639460A2002F0E7FB02F01BFC404660
:100C200002F03EFA404602F03BFA4046BDE8F0478B
:100C300002F036BA2DE9F05F4FF416752A46B4215A
:100C4000012002F0D1FB4FF4FA742246EF2102207A
:100C500002F0CAFB4FF4AF773A464FF4CD71032050
:100C600002F0C2FB4FF4C87B5A46A11E042002F0DA
:100C7000BBFB3A464FF42171052002F0B5FB5A4602
:100C80004FF40571062002F0AFFB02F0E3FB6000B9
:100C900002F006FAC82002F003FA2A46FD210120DC
:100CA00002F0A2FB6E1032464FF4DD71022002F01A
:100CB0009BFB32464FF4CD71032002F095FB324688
:100CC0004FF4E271042002F08FFB324640F27921AA
:100CD000052002F089FB324640F24621062002F050
:100CE00083FB3246611F072002F07EFB324640F252
:100CF0005331082002F078FB3246F421092002F03B
:100D000073FB3246A11D0A2002F06EFB02F0A2FB2B
:100D1000600002F0C5F9324640F23511012002F0C0
:100D200063FB4FF4007822464146022002F05CFB50
:100D30003A46F11D032002F057FB5A464FF4D57195
:100D4000042002F051FBC82240F2E521052002F008
:100D50004BFBC82240F26E21062002F045FB02F058
:100D600079FB600002F09CF93A464FF4CC71032005
:100D700002F03AFB5A464FF48971042002F034FB2A
:100D800002F068FB204602F08BF93A4640F233212C
:100D9000032002F029FB5A4640F21B21042002F0F6
:100DA00023FB02F057FB204602F07AF93A4640F264
:100DB0003631032002F018FB5A4640F22931042054
:100DC00002F012FB02F046FB4FF4487002F068F9A3
:100DD000FA22F021012002F007FB224641460220C0
:100DE00002F002FBFA222946052002F0FDFA5A46DB
:100DF00040F23F31062002F0F7FA02F02BFB4FF4ED
:100E0000487002F04DF932461146012002F0ECFA2A
:100E100022464146022002F0E7FAFA2240F2E5219A
:100E2000052002F0E1FA5A4640F26E21062002F057
:100E3000DBFA02F00FFB4FF4487002F031F9FA22AE
:100E4000F021012002F0D0FA22464146022002F0B1
:100E5000CBFAFA222946052002F0C6FA5A4640F299
:100E60003F31062002F0C0FA02F0F4FA4FF4487065
:100E700002F016F932461146012002F0B5FA224678
:100E80004146022002F0B0FAFA2240F2E5210520A4
:100E900002F0AAFA5A4640F26E21062002F0A4FAA5
:100EA00002F0D8FA4FF4487002F0FAF8642002F029
:100EB000F7F83A4640F23321032002F095FA5A46F9
:100EC0004FF48971042002F08FFA02F0C3FA4FF454
:100ED000487002F0E5F83A464FF4CC71032002F076
:100EE00083FA5A464FF48971042002F07DFA02F029
:100EF000B1FA204602F0D4F832461146012002F041
:100F000073FA3A46F11D032002F06EFA5A464FF486
:100F1000D571042002F068FA02F09CFA4FF4487090
:100F200002F0BEF8C82240F2A721052002F05CFAC8
:100F3000C82240F2E321062002F056FA02F08AFAB3
:100F40004FF4487002F0ACF8C8224FF4EF7105205E
:100F500002F04AFAC8222146062002F045FA02F0C1
:100F600079FA4FF4487002F09BF83A46E2210520E6
:100F700002F03AFA5A46B221062002F035FA02F09F
:100F800069FA4FF4487002F08BF83246F7210120DD
:100F900002F02AFA22464FF4F071022002F024FAFD
:100FA000FA2240F2D111032002F01EFA4FF4BE7271
:100FB000D421042002F018FA02F04CFA4FF44870E1
:100FC00002F06EF8324640F20511012002F00CFAF0
:100FD00022464FF4F071022002F006FAFA22F11DC7
:100FE000032002F001FA4FF4BE724FF4D5710420D1
:100FF00002F0FAF902F02EFA4FF4487002F050F8BD
:101000003246F821012002F0EFF922464FF4F07148
:10101000022002F0E9F9FA2240F2D111032002F095
:10102000E3F94FF4BE72D421042002F0DDF902F09E
:1010300011FA4FF4487002F033F8324640F20511CD
:10104000012002F0D1F922464FF4F071022002F0A3
:10105000CBF9FA22F11D032002F0C6F94FF4BE725B
:101060004FF4D571042002F0BFF902F0F3F94FF408
:10107000487002F015F832464FF4EF71052002F087
:10108000B3F95A4640F2E321062002F0ADF902F02E
:10109000E1F94FF4487002F003F8324640F2A7211C
:1010A000052002F0A1F95A4640F2E321062002F0A1
:1010B0009BF902F0CFF94FF4487001F0F1FFC8221C
:1010C00040F2E521052002F08FF9C82240F26E219E
:1010D000062002F089F902F0BDF9204601F0E0FF98
:1010E000751C64222946012002F07EF94FF4E7774F
:1010F00022463946022002F077F940F23118C82220
:101100004146032002F070F95A464FF4EF71042073
:1011100002F06AF940F2DB29C8224946052002F0B4
:1011200063F94FF4107A5A465146062002F05CF9F2
:1011300002F090F94FF4487001F0B2FFC82001F0BE
:10114000AFFF5A4640F23E21032002F04DF94FF422
:10115000A572DC21042002F047F95A46791D0520CA
:1011600002F042F94FF4A5724FF44E71062002F0DE
:101170003BF96422EE21012002F036F92246E11FFC
:10118000022002F031F93246611F072002F02CF9EB
:10119000324640F25331082002F026F93246F4215B
:1011A000092002F021F93246A11D0A2002F01CF9A3
:1011B00002F050F94FF4487001F072FF64222946A2
:1011C000012002F011F95A463946022002F00CF9CA
:1011D0005A464146032002F007F94FF4A5724FF436
:1011E000EF71042002F000F95A464946052002F04A
:1011F000FBF84FF4A5725146062002F0F5F802F014
:1012000029F94FF4487001F04BFFC82001F048FF66
:101210005A4640F23E21032002F0E6F84FF4A57250
:10122000DC21042002F0E0F85A46791D052002F086
:10123000DBF84FF4A5724FF44E71062002F0D4F89B
:101240006422EE21012002F0CFF82246E11F0220A5
:1012500002F0CAF83246611F072002F0C5F8324694
:1012600040F25331082002F0BFF83246F421092041
:1012700002F0BAF83246A11D0A2002F0B5F802F0D9
:10128000E9F84FF4487001F00BFF64222946012071
:1012900002F0AAF85A463946022002F0A5F85A464A
:1012A0004146032002F0A0F84FF4A5724FF4EF710D
:1012B000042002F099F85A464946052002F094F8B5
:1012C0004FF4A5725146062002F08EF802F0C2F8E3
:1012D0004FF4487001F0E4FEC82001F0E1FE324610
:1012E0004FF4CD71032002F07FF832464FF4E271E3
:1012F000042002F079F8324640F27921052002F00C
:1013000073F8324640F24621062002F06DF802F0F2
:10131000A1F84FF4487001F0C3FE3246EF210120DE
:1013200002F062F83246E421022002F05DF8324613
:1013300040F28111032002F057F832464FF4F47165
:10134000042002F051F8324640F29F21052002F0BD
:101350004BF832464FF40771062002F045F802F0D0
:1013600079F84FF4487001F09BFE324640F2E311E9
:10137000012002F039F83246211F022002F034F831
:1013800032464FF4C471032002F02EF832464FF477
:10139000DA71042002F028F8324640F29721052045
:1013A00002F022F832464FF41E71062002F01CF8BB
:1013B00002F050F8600001F073FE600001F070FE72
:1013C0006000BDE8F05F01F06BBE2DE9F0414FF425
:1013D000967422464FF4F471012002F005F840F2B1
:1013E000EB1522462946022001F0FEFF224640F27C
:1013F0006A21032001F0F8FF40F2B226224631466E
:10140000042001F0F1FF22464FF4F171052001F0B4
:10141000EBFF224640F25111062001F0E5FF4FF4A8
:10142000C8773A464FF40971072001F0DDFF2246E4
:1014300040F26131082001F0D7FF2246AD2109209A
:1014400001F0D2FF224640F25D110A2001F0CCFFEC
:1014500002F000F84FF47A78404601F021FE22466F
:10146000291F052001F0C0FF224640F21911062075
:1014700001F0BAFF3A4640F2FD11072001F0B4FF37
:10148000224640F25B31082001F0AEFF40F26717C0
:1014900022463946092001F0A7FF2246391F0A20BB
:1014A00001F0A2FF01F0D6FF404601F0F9FDC8208F
:1014B00001F0F6FD224640F21331032001F094FFC3
:1014C000224640F28D31042001F08EFF224640F288
:1014D0003911052001F088FF22469821062001F0ED
:1014E00083FF4FF4E172A91F072001F07DFF224620
:1014F0004FF45D71082001F077FF224640F2CB21C6
:10150000092001F071FF224640F205210A2001F076
:101510006BFF01F09FFF404601F0C2FDC82001F0C3
:10152000BFFD4FF42F7240F2F911072001F05CFF6C
:101530004FF461723946082001F056FF40F2B63789
:101540003A463146092001F04FFF3A464FF44471C4
:101550000A2001F049FF01F07DFF404601F0A0FDA7
:10156000204601F09DFD224640F25B21032001F060
:101570003BFF224640F2F721042001F035FF2246CE
:1015800040F20A21052001F02FFF224640F21B11F4
:10159000062001F029FF22467910072001F024FFE0
:1015A00096222946082001F01FFF2246F521092036
:1015B00001F01AFF22464FF4FF710A2001F014FFD8
:1015C00001F048FF404601F06BFD204601F068FD48
:1015D000224640F25221032001F006FF22464FF43A
:1015E0001471042001F000FF22464FF40071052021
:1015F00001F0FAFE224640F27D11062001F0F4FED1
:1016000022464FF4EA71072001F0EEFE962240F2E6
:101610002F31082001F0E8FE2246ED21092001F0DB
:10162000E3FE224640F2F3110A2001F0DDFE01F054
:1016300011FF404601F034FD204601F031FD224605
:1016400040F2E311012001F0CFFE2246691D022085
:1016500001F0CAFE22464FF4C471032001F0C4FE1B
:1016600022464FF4DA71042001F0BEFE224640F219
:101670009721052001F0B8FE22464FF41E71062086
:1016800001F0B2FE2246291D072001F0ADFE2246E0
:1016900040F25331082001F0A7FE2246F421092030
:1016A00001F0A2FE22464FF4FD710A2001F09CFEDB
:1016B00001F0D0FE404601F0F3FC4046BDE8F041A9
:1016C00001F0EEBC2DE9F05F4FF49674224640F233
:1016D000EB11012001F088FE224640F2F3110220B6
:1016E00001F082FE224640F20521032001F07CFE3B
:1016F000224640F26521042001F076FE224640F2A7
:101700005511052001F070FE22468021062001F0CF
:101710006BFE224640F26F21072001F065FE224653
:1017200040F29A31082001F05FFE9622F92109204B
:1017300001F05AFE96224FF4F9710A2001F054FE8E
:1017400001F088FE4FF47A75284601F0A9FC224684
:101750004FF40E71032001F047FE224640F29E2115
:10176000042001F041FE96224FF41771072001F08A
:101770003BFE224640F2AD21082001F035FE01F08B
:1017800069FE284601F08CFCC82001F089FCFA2291
:101790004FF44471032001F027FEFA224FF46571E3
:1017A000042001F021FE22464FF49B71052001F038
:1017B0001BFE22469021062001F016FE224640F232
:1017C000CB11072001F010FE4FF4C87240F27111E6
:1017D000082001F009FE01F03DFE284601F060FC02
:1017E000642001F05DFC4FF42F763246CE210720B5
:1017F00001F0FAFD324640F28F11082001F0F4FDAD
:1018000040F2EE26324640F2BF21092001F0ECFD05
:1018100032464FF4F87631460A2001F0E5FD01F03A
:1018200019FE284601F03CFC204601F039FCC82294
:1018300040F23521032001F0D7FD4FF41277224604
:101840003946042001F0D0FD40F2F518C822414687
:10185000052001F0C9FD4FF4E979C8224946062068
:1018600001F0C2FD4FF4007AC8225146072001F072
:10187000BBFD40F2463B22465946082001F0B4FD2C
:10188000224640F20A21092001F0AEFDC82240F2B2
:101890002D210A2001F0A8FD01F0DCFD284601F011
:1018A000FFFBC8224FF41771032001F09DFD224673
:1018B0003946042001F098FDC8224146052001F078
:1018C00093FDC8224946062001F08EFDC8225146EC
:1018D000072001F089FD22465946082001F084FDC9
:1018E0002246211D092001F07FFDC82240F2192166
:1018F0000A2001F079FD01F0ADFD284601F0D0FB92
:10190000C82001F0CDFB224640F2E311012001F096
:101910006BFD22463146022001F066FD22464FF45F
:10192000C471032001F060FD22464FF4DA710420F7
:1019300001F05AFD224640F29721052001F054FDA6
:1019400022464FF41E71062001F04EFD2246711E04
:10195000072001F049FD224640F25331082001F0F2
:1019600043FD2246F421092001F03EFD22464FF4BA
:10197000FD710A2001F038FD01F06CFD284601F0F0
:101980008FFB284601F08CFB2846BDE8F05F01F094
:1019900087BB2DE9F05F4FF41672B421012001F0EE
:1019A00023FD4FF4FA742246FD21022001F01CFDB4
:1019B0004FF496752A464FF4CF71032001F014FDC1
:1019C0002A4640F21A21042001F00EFD2A4640F278
:1019D0008121052001F008FDA71C2A463946062072
:1019E00001F002FD2A46611F072001F0FDFC2A4696
:1019F00040F25331082001F0F7FC2A46F421092077
:101A000001F0F2FC2A46A11D0A2001F0EDFC01F0D4
:101A100021FD600001F044FB2A4640F22921032009
:101A200001F0E2FC2A4640F2E221042001F0DCFC55
:101A30002A4640F2E911052001F0D6FC2A4640F280
:101A40003911062001F0D0FC01F004FD642001F002
:101A500027FB2A4640F29121012001F0C5FCC82253
:101A60007E21022001F0C0FC2A4640F223210320FF
:101A700001F0BAFC40F2E52A2A465146042001F062
:101A8000B3FC2A4640F20521052001F0ADFC40F2EE
:101A9000331B2A465946062001F0A6FC01F0DAFC69
:101AA000600001F0FDFA600001F0FAFA40F25A38E5
:101AB0002A464146092001F097FC01F0CBFC60006A
:101AC00001F0EEFA4FF44876304601F0E9FA32467A
:101AD00040F2EE21072001F087FC2A464FF4EA711C
:101AE000012001F081FC2A46C121022001F07CFC8A
:101AF00001F0B0FC600001F0D3FA2A46E11E072095
:101B000001F072FC2A4640F22121082001F06CFC11
:101B100040F227292A464946092001F065FC01F0D8
:101B200099FC600001F0BCFA72104FF4F4710220CD
:101B300001F05AFC2A464FF45771082001F054FC7A
:101B40002A46F121092001F04FFC01F083FC3046C8
:101B500001F0A6FA2A46711F032001F045FC2A462F
:101B600040F21121042001F03FFC2A46E921052022
:101B700001F03AFC2A463946062001F035FC01F016
:101B800069FC600001F08CFAC82001F089FA2A464D
:101B9000B321072001F028FC2A464FF406710820E3
:101BA00001F022FC2A464946092001F01DFC2A4684
:101BB0004FF44C710A2001F017FC01F04BFC60005F
:101BC00001F06EFAC82001F06BFA2A46E11E0720E8
:101BD00001F00AFC2A464146082001F005FC2A468D
:101BE000F621092001F000FCFF1D2A4639460A2093
:101BF00001F0FAFB01F02EFC600001F051FAC82060
:101C000001F04EFA2A4640F21521032001F0ECFBC8
:101C10002A4640F2D221042001F0E6FB2A46611F49
:101C2000052001F0E1FB2A465946062001F0DCFBC5
:101C300001F010FCA80001F033FA96224FF4437132
:101C4000022001F0D1FB01F005FC600001F028FA50
:101C5000304601F025FA4B224FF4A071012001F02B
:101C6000C3FB01F0F7FB600001F01AFA204601F017
:101C700017FA2A464FF43471012001F0B5FB2A46C9
:101C80004FF43B71022001F0AFFB01F0E3FB40F2A7
:101C90008A2001F005FA2A4640F22B21032001F0A8
:101CA000A3FB2A46B91D042001F09EFB2A4640F200
:101CB000E111052001F098FB2A464FF4057106203A
:101CC00001F092FB01F0C6FB304601F0E9F92A462B
:101CD0005146012001F088FB4FF43A742A46214610
:101CE000022001F081FB2A4640F23511032001F069
:101CF0007BFB2A464FF41071042001F075FB2A4645
:101D000040F2CA21052001F06FFB2A463946062021
:101D100001F06AFB01F09EFB4FF47A7001F0C0F90C
:101D20002A4640F2AA21012001F05EFB2A46211F2B
:101D3000022001F059FB2A464FF4AD71032001F057
:101D400053FB2A4640F23121042001F04DFB2A4684
:101D50002146052001F048FB2A4640F2E311062007
:101D600001F042FB01F076FB284601F099F92A4682
:101D700040F2F511012001F037FB721040F2EB1137
:101D8000022001F031FB2A464FF4B471032001F028
:101D90002BFB2A4640F2F111042001F025FB2A46D4
:101DA00040F2AB21052001F01FFB2A4640F226211C
:101DB000062001F019FB2A4640F2EF11072001F03E
:101DC00013FB2A4640F25331082001F00DFB2A464E
:101DD000F421092001F008FB2A46F91E0A2001F02F
:101DE00003FB01F037FB4FF47A7001F059F94FF41F
:101DF0007A7001F055F9BDE8F05F4FF47A7001F0A8
:101E00004FB92DE9F05F4FF49674224640F2E3118A
:101E1000012001F0E9FA22464FF4F871022001F0A6
:101E2000E3FA22464FF4C471032001F0DDFA4FF4C7
:101E3000DA7522462946042001F0D6FA40F29726A8
:101E400022463146052001F0CFFA4FF41E77224694
:101E50003946062001F0C8FA40F2EF182246414602
:101E6000072001F0C1FA40F25339224649460820C2
:101E700001F0BAFA2246F421092001F0B5FA22460F
:101E80004FF4FD710A2001F0AFFA01F0E3FA2246A7
:101E9000F91D022001F0A8FA01F0DCFA4FF47A7A79
:101EA000504601F0FDF82246B91D012001F09CFAD0
:101EB000224640F23121032001F096FA224640F2F8
:101EC0002B21042001F090FA40F2EB1B22465946E8
:101ED000052001F089FA224640F2DF11062001F0C8
:101EE00083FA01F0B7FA504601F0DAF8642240F2C2
:101EF000BF21012001F078FA322240F2B521022000
:101F000001F072FA22464FF4D171032001F06CFA0D
:101F10004FF4FA724FF45371042001F065FA22462F
:101F20004FF4CB71052001F05FFA4FF4FA7240F2E2
:101F3000D721062001F058FA01F08CFA4FF46170B5
:101F400001F0AEF8642240F2BF21012001F04CFA0A
:101F5000322240F2B521022001F046FA22463146F3
:101F6000032001F041FA4FF4FA727910042001F0D5
:101F70003BFA2246F11E052001F036FA4FF4FA72C0
:101F8000E721062001F030FA01F064FA504601F032
:101F900087F864224FF41B71072001F025FA6422B0
:101FA00040F29931082001F01FFA96224FF48E7109
:101FB000092001F019FA642240F252210A2001F0AE
:101FC00013FA01F047FA4FF4617001F069F86E22DC
:101FD00040F24931092001F007FA642240F26A21F7
:101FE0000A2001F001FA01F035FA504601F058F8E4
:101FF000504601F055F8224640F23121032001F00D
:10200000F3F9224640F22B21042001F0EDF922469B
:102010005946052001F0E8F9224640F2DF1106207A
:1020200001F0E2F901F016FA504601F039F82246C3
:102030004FF4D171032001F0D7F94FF4FA724FF445
:102040005371042001F0D0F922464FF4CB710520E2
:1020500001F0CAF94FF4FA7240F2D721062001F0DC
:10206000C3F9FA224FF45E71092001F0BDF99622FE
:102070004FF4B2710A2001F0B7F901F0EBF95046C4
:1020800001F00EF822463146032001F0ADF94FF47D
:10209000FA727910042001F0A7F92246F11E0520FA
:1020A00001F0A2F94FF4FA72E721062001F09CF941
:1020B000FA2240F22D31092001F096F9962240F2E1
:1020C000BD210A2001F090F901F0C4F9504600F05A
:1020D000E7FF224640F23121032001F085F9224634
:1020E00040F22B21042001F07FF9224659460520B9
:1020F00001F07AF9224640F2DF11062001F074F96E
:1021000001F0A8F9504600F0CBFF9622F4210920F7
:1021100001F06AF94B224FF4FD710A2001F064F9D5
:1021200001F098F9504600F0BBFFA00000F0B8FFA6
:10213000C82240F21321012001F056F9C82240F2D2
:102140001521022001F050F9C82240F2F5110320B8
:1021500001F04AF9C82240F2FD11042001F044F9CF
:10216000C8224FF41271052001F03EF9C82240F256
:102170004621062001F038F9C82240F2F911072063
:1021800001F032F9C82240F25D31082001F02CF94B
:10219000C822F721092001F027F9C82240F2FF11D7
:1021A0000A2001F021F901F055F94FF4487000F0D0
:1021B00077FFC82240F2E311012001F015F9C8228F
:1021C0004FF4F871022001F00FF9C8224FF4C471E6
:1021D000032001F009F9C8222946042001F004F97E
:1021E000C8223146052001F0FFF8C82239460620F2
:1021F00001F0FAF8C8224146072001F0F5F8C8229C
:102200004946082001F0F0F8C822F421092001F025
:10221000EBF8C8224FF4FD710A2001F0E5F801F057
:1022200019F95046BDE8F05F00F03ABF2DE9F05FC4
:102230004FF4967440F2062522462946032001F009
:10224000D3F84FF4197622463146042001F0CCF839
:102250004FF4FB7722463946052001F0C5F840F2DD
:10226000C11822464146062001F0BEF840F2E319AB
:1022700022464946072001F0B7F84FF4537A224628
:102280005146082001F0B0F82246FB21092001F058
:10229000ABF840F2032B224659460A2001F0A4F87D
:1022A00001F0D8F84FF47A7000F0FAFE22464FF4AD
:1022B0002B71032001F098F8224640F2853104206A
:1022C00001F092F82246B91D052001F08DF8224652
:1022D0004FF4E571062001F087F8224659460720A1
:1022E00001F082F8224640F28931082001F07CF8A2
:1022F000224640F28711092001F076F8224640F28A
:1023000072210A2001F070F801F0A4F84FF47A70FD
:1023100000F0C6FE22462946032001F065F8224659
:102320003146042001F060F822463946052001F0CC
:102330005BF822464FF4CE71062001F055F8224694
:1023400040F29F11072001F04FF8224640F2F2219F
:10235000082001F049F82246E921092001F044F85B
:102360002246A91F0A2001F03FF801F073F84FF44C
:102370007A7000F095FE22462946032001F034F8D9
:1023800022463146042001F02FF822463946052026
:1023900001F02AF822464146062001F025F822469F
:1023A0004946072001F020F822465146082001F056
:1023B0001BF82246FB21092001F016F82246594657
:1023C0000A2001F011F801F045F84FF47A7000F09E
:1023D00067FE224640F24E21032001F005F8224616
:1023E00040F24B21042000F0FFFF22464FF4D97148
:1023F000052000F0F9FF22468121062000F0F4FFBD
:1024000022464FF4BC71072000F0EEFF224640F256
:10241000B921082000F0E8FF2246B621092000F08B
:10242000E3FF22464FF4EF710A2000F0DDFF01F0D8
:1024300011F84FF47A7000F033FE2246494601202D
:1024400000F0D2FF2246B91F022000F0CDFF224645
:102450004FF4C471032000F0C7FF22464FF4DA7135
:10246000042000F0C1FF224640F29721052000F031
:10247000BBFF22464FF41E71062000F0B5FF224636
:10248000F91F072000F0B0FF224640F25331082028
:1024900000F0AAFF2246F421092000F0A5FF224601
:1024A000391D0A2000F0A0FF00F0D4FFBDE8F05F66
:1024B0004FF47A7000F0F4BD2DE9F05F4FF4FA723A
:1024C000BE21012000F090FF4FF4C872FD210220D0
:1024D00000F08AFF4FF4967422464FF4CF71032028
:1024E00000F082FF224640F21A21042000F07CFF17
:1024F000224640F28121052000F076FF22464FF46B
:10250000FB71062000F070FF224640F2EF11072019
:1025100000F06AFF224640F25331082000F064FFC9
:102520002246F421092000F05FFF22464FF4FD719E
:102530000A2000F059FF00F08DFF4FF47A7000F090
:10254000AFFD224640F22921032000F04DFF40F26A
:10255000E22622463146042000F046FF40F2E91709
:1025600022463946052000F03FFF224640F239114D
:10257000062000F039FF00F06DFF642000F090FDB0
:10258000224640F29121012000F02EFFC8227E2138
:10259000022000F029FF224640F22321032000F010
:1025A00023FF2246F11C042000F01EFF224640F2C9
:1025B0000521052000F018FF2246E11D062000F04D
:1025C00013FF00F047FF4FF47A7000F069FD4FF4FD
:1025D0007A7000F065FD224640F25A31092000F081
:1025E00003FF00F037FF4FF47A7000F059FD4FF40D
:1025F0004875284600F054FD22464FF4EA71012048
:1026000000F0F2FE2246C121022000F0EDFE2A4633
:1026100040F2EE21072000F0E7FE00F01BFF4FF430
:102620007A7000F03DFD224640F2F111072000F0E3
:10263000DBFE224640F22121082000F0D5FE224692
:1026400040F22721092000F0CFFE00F003FF4FF4F5
:102650007A7000F025FDC822B91D012000F0C4FEEB
:10266000C822C121022000F0BFFE40F24E38C8222D
:102670004146032000F0B8FE4FF48E79C822494647
:10268000042000F0B1FEC822CA21052000F0ACFEF3
:1026900040F20E3AC8225146062000F0A5FEC8229C
:1026A000B91D072000F0A0FE40F2222BC822594697
:1026B000082000F099FEC82240F22921092000F0EC
:1026C00093FEC82240F2F7110A2000F08DFE00F0C0
:1026D000C1FE4FF47A7000F0E3FC4FF47A7000F022
:1026E000DFFC4FF4A0724FF4F971022000F07CFE81
:1026F00000F0B0FE600000F0D3FCC82240F23D3193
:10270000032000F071FEC8224FF40471042000F091
:102710006BFEC822E421052000F066FEC82240F2CC
:102720004631062000F060FEC82240F2FB2107205F
:1027300000F05AFEC82240F25D31082000F054FE3D
:10274000C822F821092000F04FFEC82231460A2095
:1027500000F04AFE00F07EFE4FF47A7000F0A0FC1C
:102760004FF47A7000F09CFCC8224146032000F030
:102770003BFEC8224946042000F036FEC822CA218A
:10278000052000F031FEC8225146062000F02CFE44
:10279000C822B91D072000F027FEC822594608208C
:1027A00000F022FEC82240F22921092000F01CFE80
:1027B000C82240F2F7110A2000F016FE00F04AFE8F
:1027C0004FF47A7000F06CFC4FF47A7000F068FC03
:1027D000C822B11F032000F007FEC82240F24D11AD
:1027E000042000F001FEC8224FF48F71052000F094
:1027F000FBFDC8223946062000F0F6FDC822A11EC6
:10280000072000F0F1FDC8224FF45371082000F0BA
:10281000EBFDC822F821092000F0E6FDC8224FF4A4
:1028200085710A2000F0E0FD00F014FE4FF47A708C
:1028300000F036FC4FF47A7000F032FC7E1E6A1015
:102840003146022000F0D0FDC822691F032000F0AD
:10285000CBFDC82240F21121042000F0C5FDC822A2
:10286000E921052000F0C0FDC8224FF4FB710620CD
:1028700000F0BAFDC822F11D072000F0B5FDC82206
:102880004FF45771082000F0AFFDC822F121092054
:1028900000F0AAFDC82240F2F7110A2000F0A4FDC2
:1028A00000F0D8FD4FF47A7000F0FAFB224640F2B7
:1028B0001521032000F098FD224640F2D221042089
:1028C00000F092FD2246F11D052000F08DFD22460C
:1028D000E11D062000F088FD00F0BCFD4FF47A7089
:1028E00000F0DEFB9622E521022000F07DFD00F0E5
:1028F000B1FD4FF47A7000F0D3FB284600F0D0FB16
:102900004B224FF43071012000F06EFD00F0A2FD6B
:102910004FF47A7000F0C4FB4FF4FA7000F0C0FB83
:102920002246AE21012000F05FFD224640F25B11FD
:10293000022000F059FD00F08DFD284600F0B0FBAC
:10294000224640F22B21032000F04EFD224640F2A9
:102950000321042000F048FD2246F11F052000F06D
:1029600043FD22464FF40571062000F03DFD00F0C6
:1029700071FD284600F094FB224640F2011101202F
:1029800000F032FD224640F20F11022000F02CFD33
:10299000224640F25311032000F026FD224640F269
:1029A000FF11042000F020FD224640F2C72105203F
:1029B00000F01AFD22464FF40671062000F014FDC7
:1029C00000F048FD4FF47A7000F06AFB2246EF21D8
:1029D000012000F009FD2246E421022000F004FD60
:1029E000224640F28111032000F0FEFC22463146CF
:1029F000042000F0F9FC224640F29F21052000F05F
:102A0000F3FC22464FF40771062000F0EDFC00F0C5
:102A100021FD204600F044FB224640F2F511012042
:102A200000F0E2FC2246F11C022000F0DDFC224610
:102A30004FF4B471032000F0D7FC224640F2F111AC
:102A4000042000F0D1FC224640F2AB21052000F02A
:102A5000CBFC224640F22621062000F0C5FC22468F
:102A6000F11D072000F0C0FC224640F2533108203F
:102A700000F0BAFC2246F421092000F0B5FC224601
:102A80004FF4FD710A2000F0AFFC00F0E3FC4FF4BE
:102A90007A7000F005FB4FF47A7000F001FBBDE89E
:102AA000F05F4FF47A7000F0FBBA2DE9F05F4FF45D
:102AB00096724FF4F471012000F096FC4FF4967278
:102AC00040F2EB11022000F08FFC4FF4967240F2BE
:102AD0006A21032000F088FC4FF4967240F2B22184
:102AE000042000F081FC4FF496724FF4F171052040
:102AF00000F07AFC4FF4967240F25111062000F07B
:102B000073FC4FF4C87422464FF40971072000F09B
:102B10006BFC4FF4967240F26131082000F064FCC7
:102B20004FF49672AD21092000F05EFC4FF49672CE
:102B300040F25D110A2000F057FC00F08BFC4FF4CE
:102B40007A7000F0ADFA4FF4967240F2E71105206A
:102B500000F04AFC4FF4967240F21911062000F082
:102B600043FC224640F2FD11072000F03DFC4FF4EB
:102B7000967240F25B31082000F036FC4FF49672FA
:102B800040F26711092000F02FFC4FF4967240F2DA
:102B900063110A2000F028FC00F05CFC4FF47A700E
:102BA00000F07EFAC82000F07BFA4FF496724FF4E2
:102BB000F671012000F018FC4FF4967240F2E91112
:102BC000022000F011FC4FF496724FF419710320AB
:102BD00000F00AFC4FF4967240F29521042000F0B8
:102BE00003FC4FF49672D11C052000F0FDFB4FF45E
:102BF00096729421062000F0F7FB4FF4967240F293
:102C0000C921092000F0F0FB4FF4967240F2FF1149
:102C10000A2000F0E9FB00F01DFC4FF47A7000F090
:102C20003FFAC82000F03CFA4FF42F7240F2F9113D
:102C3000072000F0D9FB4FF4617240F267110820C1
:102C400000F0D2FB40F2B63240F2B221092000F08F
:102C5000CBFB40F2B6324FF444710A2000F0C4FBC3
:102C600000F0F8FB4FF47A7000F01AFA4FF4967205
:102C7000B321072000F0B8FB4FF496724FF40671B1
:102C8000082000F0B1FB4FF4967240F22721092092
:102C900000F0AAFB4FF496724FF44C710A2000F03A
:102CA000A3FB00F0D7FB4FF47A7000F0F9F940F283
:102CB000F1154FF496722946072000F095FB40F27B
:102CC0005A364FF496723146082000F08DFB4FF4CF
:102CD0009672F621092000F087FB4FF4967240F2BD
:102CE000FD110A2000F080FB00F0B4FB600000F052
:102CF000D7F94FF49672A91F022000F075FB4FF42C
:102D0000967240F23521032000F06EFB4FF496726C
:102D100040F22B21042000F067FB642240F22F11C7
:102D2000052000F061FB64229421062000F05CFB8A
:102D300000F090FB4FF4167000F0B2F94FF4D27728
:102D40004FF496723946032000F04EFB4FF4E078C2
:102D50004FF496724146042000F046FB4FF482790E
:102D60004FF496724946072000F03EFB40F23D1AB0
:102D70004FF4967251460A2000F036FB00F06AFBD1
:102D8000600000F08DF940F2562B4FF496725946D0
:102D9000032000F029FB4FF4967240F2CB1104207F
:102DA00000F022FB4FF4967240F2CA21072000F097
:102DB0001BFB4FF4967240F28B210A2000F014FBAB
:102DC00000F048FB600000F06BF94FF49672394652
:102DD000032000F009FB4FF496724146042000F0F6
:102DE00003FB4FF496724946072000F0FDFA4FF4BA
:102DF000967251460A2000F0F7FA00F02BFB6000B3
:102E000000F04EF94FF496725946032000F0ECFAA8
:102E10004FF4967240F2CB11042000F0E5FA4FF423
:102E200096722946072000F0DFFA4FF49672314679
:102E3000082000F0D9FA4FF49672F621092000F02C
:102E4000D3FA4FF4967240F2FD110A2000F0CCFA4A
:102E500000F000FB4FF47A7000F022F9C822A91D9F
:102E6000012000F0C1FAC82240F20721022000F040
:102E7000BBFA40F23225C8222946032000F0B4FAFA
:102E8000C82240F2F311042000F0AEFA6422E121DE
:102E9000052000F0A9FA64224FF4E671062000F044
:102EA000A3FA40F2A7264FF496723146092000F0AB
:102EB0009BFA40F20127642239460A2000F094FA76
:102EC00000F0C8FA4FF47A7000F0EAF8C8222946F8
:102ED000032000F089FA4FF4967240F29621042004
:102EE00000F082FAC82240F24511052000F07CFA79
:102EF000C82240F20111062000F076FA40F29A351D
:102F00004FF496722946082000F06EFA4FF496723C
:102F10003146092000F068FAC82239460A2000F03C
:102F200063FA00F097FA204600F0BAF84FF4967270
:102F30004FF4F671022000F057FAC82240F23E2109
:102F4000032000F051FA40F297244FF49672214684
:102F5000042000F049FAC822B91F052000F044FA05
:102F6000C82240F29911062000F03EFA4FF4967202
:102F7000791F072000F038FA4FF4AF722946082075
:102F800000F032FAFA224FF41571092000F02CFA01
:102F9000FA2240F25A210A2000F026FA00F05AFAEA
:102FA0004FF47A7000F07CF8C82000F079F84FF404
:102FB000967240F2E311012000F016FA4FF4967277
:102FC0004FF4F871022000F00FFA4FF496724FF4AC
:102FD000C471032000F008FA4FF496724FF4DA71CE
:102FE000042000F001FA4FF496722146052000F00B
:102FF000FBF94FF496724FF41E71062000F0F4F9BD
:103000004FF4967240F2EF11072000F0EDF94FF403
:10301000967240F25331082000F0E6F94FF49672B0
:10302000F421092000F0E0F94FF49672F91F0A200C
:1030300000F0DAF900F00EFA4FF47A7000F030F890
:10304000BDE8F05F4FF4FA7000F02AB84FF0E021CD
:103050000A6922F004020A611D49C00800EB40021F
:103060000870C2EBC0104FF6FF7202EAC000488041
:1030700070471749097848434FF0E0214861002321
:103080008B61086940F0010008610869C20701D03E
:10309000C003FAD5086920F0010008618B61704710
:1030A0000B49498848434FF0E021486100238B6178
:1030B000086940F0010008610869C20701D0C00337
:1030C000FAD5086920F0010008618B6170470000A3
:1030D000140000204FF4A06000F01CBA2A4A1140EE
:1030E00001432A4801607047294800210161C160FD
:1030F000142242618161C161026842F001020260F2
:103100004268244B1A4042600268234B1A40026016
:10311000026822F480220260426822F4FE024260C9
:103120008160C003DAE730B505460024FFF7DCFF15
:103130001749086840F4803008600868400CFCD0EB
:103140004FF480604860AD1E4A68E8B242EA8040B1
:103150004860486840F4803048601048026842F097
:1031600032020260086840F0807008600868400E13
:10317000FCD0486840F00200486002E04868C0F3B4
:103180008104022CFAD130BD80FFFF1F08ED00E062
:10319000001002400000FFF8FFFFF6FE0020024092
:1031A000704770B5C94D04464021284600F0F2FD35
:1031B0000028F9D0E1B2284600F08BFD204670BD12
:1031C00010B50446012186B0880300F03AFC0121C5
:1031D000042000F036FC4FF40071ADF8101003210C
:1031E0008DF8121018218DF8131004A9B84800F0BA
:1031F00040FA0020ADF804000094ADF80600ADF8E8
:103200000800ADF80C000C20B04CADF80A0069467F
:10321000204600F095FC0121204600F004FD06B098
:1032200010BD7047A949091D0880081F018849067B
:10323000FCD5704770B504464FF48063581E9A421F
:1032400000D30246994200D30146160AD3B20A0AB5
:10325000CDB2FF20FFF7E6FFFF20FFF7E3FF204698
:10326000FFF7E0FF0720FFF7DDFF0320FFF7DAFF9E
:103270000620FFF7D7FF2846FFF7D4FF1046FFF7D9
:10328000D1FF1846FFF7CEFF3046FFF7CBFF60199E
:103290001044184430441030C043C0B2FFF7C2FF9E
:1032A0008A4801884906FCD5BDE870400220FFF736
:1032B000F7BE70B504464FF48063581E9A4200D39F
:1032C0000246994200D30146160AD3B20A0ACDB289
:1032D000FF20FFF7A7FFFF20FFF7A4FF2046FFF71F
:1032E000A1FF0720FFF79EFF0320FFF79BFF1E2093
:1032F000FFF798FF2846FFF795FF1046FFF792FF6C
:103300001846FFF78FFF3046FFF78CFF6019104417
:10331000184430442830C043C0B2FFF783FF6B48E5
:1033200001884906FCD5BDE870400220FFF7B8BE11
:103330002DE9F04799468246DDE908304FEA122828
:10334000D4B2070AC6B21D0A0A0A01F0FF0CDBB2AA
:10335000FF20FFF767FFFF20FFF764FFFE20FFF766
:1033600061FF0E20FFF75EFF8320FFF75BFF1E204B
:10337000FFF758FF0420FFF755FF5046FFF752FFB5
:103380006046FFF74FFF1046FFF74CFF2046FFF760
:1033900049FF4046FFF746FF4846FFF743FF184600
:1033A000FFF740FF2846FFF73DFF3046FFF73AFFA3
:1033B0003846FFF737FF0AEB090060441044204409
:1033C0004044184428443044384400F2B110C0430B
:1033D000C0B2FFF727FF3D4801884906FCD5BDE88C
:1033E000F0470220FFF75CBE70B50546130AD4B261
:1033F0000A0ACEB2FF20FFF715FFFF20FFF712FFEA
:103400002846FFF70FFF0720FFF70CFF0420FFF708
:1034100009FF1E20FFF706FF3046FFF703FF1046A7
:10342000FFF700FF2046FFF7FDFE1846FFF7FAFE04
:10343000A8191044204418442930C043C0B2FFF7F3
:10344000F1FE224801884906FCD5BDE87040022003
:10345000FFF726BE10B5FF20FFF7E4FEFF20FFF7C1
:10346000E1FEFE20FFF7DEFE0220FFF7DBFE052077
:10347000FFF7D8FEFA20FFF7D5FE14480188490669
:10348000FCD5BDE810400220FFF70ABE10B5024689
:10349000FF20FFF7C7FEFF20FFF7C4FE1046FFF72F
:1034A000C1FE0220FFF7BEFE0120FFF7BBFED21CCB
:1034B000D043C0B2FFF7B6FE044801884906FCD5E8
:1034C000BDE810400220FFF7EBBD000000380140CE
:1034D000000801400948804709480047FEE7FEE729
:1034E000FEE7FEE7FEE7FEE7FEE7FEE7FEE7FEE7B4
:1034F00004480549054A064B7047000005030008CB
:103500003101000890000020900600209002002069
:10351000900200202849084328490860704730B5C8
:103520000F23C27801780125F2B1244A126801F113
:10353000E02102F4E062C2F5E062120AC2F1040482
:10354000D3404278A24084781C401443220181F881
:103550000024007800F01F018D404009800000F138
:10356000E020C0F8005130BD01F01F00854048093F
:10357000800000F1E020C0F8805130BD104A1140B9
:1035800001430E48001F016070470C4A121D0029BC
:10359000116801D0014300E08143116070474FF092
:1035A000E0210428086903D020F004000861704776
:1035B00040F00400FAE700000000FA050CED00E01E
:1035C00080FFFF1F8F4910B5884206D101210420DA
:1035D00000F049FA002104203BE08B49884206D1E3
:1035E0000121082000F03FFA0021082031E087493E
:1035F000884206D10121102000F035FA0021102068
:1036000027E08349884206D10121202000F02BFACF
:10361000002120201DE07F49884206D10121402061
:1036200000F021FA0021402013E07B49884206D1B6
:103630000121802000F017FA0021802009E077495D
:1036400088420AD184150121204600F00CFA00219D
:103650002046BDE8104000F006BA10BD10B50121AB
:10366000084600F000FA0021BDE81040012000F0FB
:10367000FAB9F0B5CC78002204F00F03E40601D5C6
:103680008C7823430C784FF00F0C14F0FF0F4FF0A1
:10369000010E1BD005680E880EFA02F42640A642E1
:1036A00010D196000CFA06F725EA070703FA06F58B
:1036B000CE783D43282E02D0482E02D002E044614D
:1036C00000E00461521C082AE5D305600A88FF2A3D
:1036D0001CD94468002202F108060EFA06F50E888D
:1036E0002E40AE420ED196000CFA06F7BC4303FA08
:1036F00006F7CE783C43282E00D14561CE78482E7F
:1037000000D10561521C082AE5D34460F0BD4FF694
:10371000FF710180022181700421C170704702464F
:10372000002092680A4200D001207047806880B271
:10373000704702460020D2680A4200D0012070473C
:10374000C06880B2704701617047416170470AB13B
:103750000161704741617047C160704741F4803238
:103760008261816182618169806970472C4B10B5EB
:103770001A684FF68074224042EA0010084318602D
:1037800010BD2849C8617047F0B5254C002801DA02
:10379000E36900E06368450D2E0185B2C0F301576F
:1037A000B540C0F30342032F05D0C6020AD5032655
:1037B0009640B34307E023F07062636823F07063C0
:1037C000636002E0AB4343F0706201B12A4300281A
:1037D00001DAE261F0BD6260F0BD10B58A0721F048
:1037E00003040F49120F21440F238C6893409C431C
:1037F0008C608B68904003438B6010BD0949C1F811
:10380000DC00704700080140000C0140001001403E
:103810000014014000180140001C0140002001403C
:103820000000014000002042A548016841F001016C
:1038300001604168A34A114041600168A24A1140F9
:103840000160016821F480210160416821F4FE01DA
:1038500041604FF41F018160704799490A6822F462
:1038600080320A600A6822F480220A60B0F5803F44
:1038700007D0B0F5802F03D1086840F4A02008607D
:103880007047086840F48030F9E703460020590982
:103890008B4A01290AD002290AD0516A03F01F027B
:1038A000012393400B4200D0012070471168F5E7D7
:1038B000116AF3E718B500204FF4A064009031209E
:1038C000FFF7E3FF0099491C0091A14201D00028B5
:1038D000F5D03120FFF7D9FF002800D0012018BD16
:1038E000774A116821F0F80141EAC0001060704782
:1038F000764908607047724B5A68084322F47C127C
:103900001043586070477149086670476C4A5168A7
:1039100021F003010143516070476948406800F09D
:103920000C007047664A516821F0F0010143516074
:103930007047634A516821F4E06101435160704768
:103940005F4A516821F4605141EAC00050607047FD
:103950005B4A0029517A01D0014300E08143517252
:1039600070475A49C1F8D8007047554A516821F448
:1039700040410143516070475149002281F82020A5
:1039800081F82020012802D0042802D1052081F8E6
:10399000200070474E490860704749490A6A02434F
:1039A0000A6270474A4944390860704730B5444A52
:1039B0005168484B11F00C0103D0042901D00829AB
:1039C00001D0036012E05168536801F470114FF0A8
:1039D000020413F4803F04EB914102D053689B032F
:1039E00001D53D4B00E03B4B5943016051680F232B
:1039F00003EA1111394B5C5C0168E1404160546895
:103A0000072505EA14241C5D21FA04F48460546837
:103A100005EAD4241B5DD940C1605268032303EA40
:103A200092322E4B1B1F9A5CB1FBF2F1016130BD4B
:103A3000234A0029516901D0014300E081435161CB
:103A400070471F4A0029916901D0014300E081437A
:103A5000916170471A4A0029D16901D0014300E001
:103A60008143D1617047164A0029D16801D00143D2
:103A700000E08143D1607047114A0029116901D0EB
:103A8000014300E0814311617047114940390860EA
:103A900070470E49C86470470949C87170470848A3
:103AA000416A41F0807141627047054A0146002039
:103AB00092680A4200D0012070470149887270471D
:103AC000001002400000FFF8FFFFF6FE0000424237
:103AD0008004424200127A0000093D001C000020D0
:103AE000C44910B588420AD101218C032046FFF752
:103AF000BAFF2046BDE810400021FFF7B4BFBE4921
:103B0000884202D101214C0410E0BC49884202D114
:103B100001218C040AE0BA49884202D10121CC0477
:103B200004E0B84988420AD101210C052046FFF77C
:103B3000A3FF2046BDE810400021FFF79DBF10BD48
:103B400030B50446008A85B00D464CF6FF7108403A
:103B5000E98801432182A0894EF6F3110840A98823
:103B60002A8911436A8902431143A181A08A4FF631
:103B7000FF410840A9890143A1826846FFF716FF6B
:103B80009C48844201D1039800E00298A18909046D
:103B900000EBC00101EB0010296801D5490000E0ED
:103BA0008900B0FBF1F06422B0FBF2F109010B09CE
:103BB0006FF018056B4300EB8300A3891D044FF0E1
:103BC000320306D503EBC000B0FBF2F000F00700B3
:103BD00005E003EB0010B0FBF2F000F00F0008432B
:103BE000208105B030BD4FF4165101600021818065
:103BF000C18001810C2242818181704710B5028A07
:103C00004FF2FF031A400B884C8823438C88C988E5
:103C10000C4323431343038210BD002101804180E4
:103C20008180C18070470029818902D041F4005110
:103C300001E021F400518181704710B5C1F34213B6
:103C400001F01F040121A140012B07D0022B07D056
:103C50001430002A026805D00A4304E00C30F8E76B
:103C60001030F6E78A43026010BD002A828A01D034
:103C70000A4300E08A4382827047028A22F00F02E0
:103C80000282028A0A4302827047828922F4006219
:103C9000828182890A43828170470029818902D00A
:103CA00041F0020101E021F0020181817047028AA6
:103CB00022F020020282028A0A430282704700290F
:103CC000018A02D041F4804101E021F48041018267
:103CD0007047C1F30801818070478088C0F30800F5
:103CE0007047818941F0010181817047028BD2B216
:103CF0000283028B42EA012101837047028B02F4A6
:103D00007F420283028B0A43028370470029818A23
:103D100002D041F0200101E021F0200181827047B2
:103D20000029818A02D041F0100101E021F0100148
:103D3000818270470029818A02D041F0080101E0A8
:103D400021F00801818270470029818902D041F465
:103D5000004101E0C1F30E01818170470029818A91
:103D600002D041F4006101E021F4006181827047DA
:103D7000828A22F004028282828A0A438282704707
:103D80000029818A02D041F0020101E021F0020104
:103D9000818270470246002012880A4200D001202A
:103DA0007047C9430180704770B501F01F050126B7
:103DB0000024C1F3421306FA05F2012B0FD0022BA7
:103DC0000FD0838A4FEA11210088134206FA01F6C8
:103DD00000EA060001D000B10124204670BD8389AD
:103DE000F0E7038AEEE70A0A01219140C943018006
:103DF0007047000000380140004400400048004087
:103E0000004C0040005000407047704770477546B6
:103E100000F02CF8AE4605006946534620F0070036
:103E2000854618B020B5FFF763FBBDE820404FF092
:103E300000064FF000074FF000084FF0000B21F094
:103E40000701AC46ACE8C009ACE8C009ACE8C00961
:103E5000ACE8C0098D46704710B50446AFF300804A
:103E60002046BDE81040FCF7AAB9000000487047A2
:103E70002C00002001491820ABBEFEE726000200FE
:103E800070470000A43E0008000000202C00000045
:103E90006C010008D03E00082C00002064060000E1
:103EA0008801000800A24A04000000000000000091
:103EB00001020304060708090000000002040608C6
:103EC00000000000010203040102030406070809C0
:0400000508000131BD
:00000001FF
